:020000040800F2
:10000000B80C00200D020008053A0008E33400088F
:10001000013A0008BD0A0008515F00080000000016
:10002000000000000000000000000000C7540008AD
:10003000951F000800000000D13E0008D9550008B7
:1000400027020008793E000827020008270200085E
:10005000270200082702000827020008991F00084D
:1000600027020008270200082702000827020008CC
:1000700027020008270200082702000827020008BC
:1000800027020008270200082702000827020008AC
:10009000270200082702000827020008270200089C
:1000A000270200082702000827020008270200088C
:1000B0002702000827020008C5560008270200088A
:1000C000270200082702000827020008270200086C
:1000D00027020008155D0008270200082702000813
:1000E000270200082702000827020008270200084C
:1000F000270200082702000827020008270200083C
:10010000270200082702000827020008270200082B
:10011000270200082702000827020008270200081B
:10012000270200082702000827020008270200080B
:1001300000F002F800F05AF80AA090E8000C82449F
:100140008344AAF10107DA4501D100F04FF8AFF27C
:10015000090EBAE80F0013F0010F18BFFB1A43F0A5
:1001600001031847B4A60000D4A600000A444FF0CB
:10017000000C10F8013B13F0070408BF10F8014B06
:100180001D1108BF10F8015B641E05D010F8016B4B
:10019000641E01F8016BF9D113F0080F1EBF10F8AF
:1001A000014BAD1C0C1B09D16D1E58BF01F801CBD2
:1001B000FAD505E014F8016B01F8016B6D1EF9D555
:1001C0009142D6D37047000000230024002500266A
:1001D000103A28BF78C1FBD8520728BF30C148BFAA
:1001E0000B6070471FB51FBD10B510BD00F098F82B
:1001F0001146FFF7F7FF06F03DFE00F0B6F803B436
:10020000FFF7F2FF03BC06F077FD000009488047C6
:1002100009480047FEE7FEE7FEE7FEE7FEE7FEE7E8
:10022000FEE7FEE7FEE7FEE704480549054A064B00
:1002300070470000DD55000831010008B8060020B5
:10024000B80C0020B8080020B8080020704702F061
:10025000FF0343EA032242EA024200F002B84FF0F1
:1002600000020429C0F0128010F0030C00F02A8074
:10027000CCF1040CBCF1020F18BF00F8012BA8BF91
:1002800020F8022BA1EB0C0100F01CB85FEAC17C46
:1002900024BF00F8012B00F8012B48BF00F8012B08
:1002A0007047704770477047704710B500F030F8DE
:1002B000006810BD10B5044600F02AF8046010BDB7
:1002C0004FF0000200B5134694469646203922BFEF
:1002D000A0E80C50A0E80C50B1F12001BFF4F7AF3A
:1002E000090728BFA0E80C5048BF0CC05DF804EB1C
:1002F000890028BF40F8042B08BF704748BF20F88A
:10030000022B11F0804F18BF00F8012B704700003E
:1003100000487047580600200048704758060020E3
:100320007546FFF7F9FFAE4605006946534620F0D3
:100330000700854618B020B5FFF776FFBDE82040DE
:100340004FF000064FF000074FF000084FF0000B91
:1003500021F00701AC46ACE8C009ACE8C009ACE844
:10036000C009ACE8C0098D46704710B50446AFF32C
:1003700000802046BDE81040FFF741BF1CB503F0E8
:10038000D9F80020F3490860022006F027FD042276
:100390006946900100F0EAF99DF80000382801D084
:1003A000012000E000209DF80110362901D0012134
:1003B00000E0002108439DF802104F2901D00121DF
:1003C00000E0002108439DF803104B2901D00121D2
:1003D00000E00021084300287ED038208DF800007E
:1003E00036208DF801004F208DF802004B208DF84B
:1003F000030004226946900100F0F0F930208DF8E6
:1004000000008DF801008DF80200032269464FF4C8
:10041000847000F0E3F930208DF800008DF80200C0
:100420002E208DF8010030208DF803008DF8040097
:10043000052269464FF4887000F0D0F9052269461C
:100440004FF4B87000F0CAF930208DF801002E206A
:100450008DF80200052269464FF48C7000F0BEF959
:10046000052269464FF4BC7000F0B8F931208DF8D0
:1004700000002E208DF8010030208DF802008DF84C
:1004800003008DF804008DF805008DF806000522A4
:1004900069464FF4907000F0A1F9052269464FF4C7
:1004A000C07000F09BF9052269464FF4947000F08B
:1004B00095F9052269464FF4987000F08FF90522EE
:1004C00069464FF49C7000F089F905226946900155
:1004D00000F084F9052200E0F8E069464FF4A470CA
:1004E00000F07CF9052269464FF4A87000F076F917
:1004F000052269464FF4AC7000F070F90522694698
:100500004FF4B07000F06AF9052269464FF4B470F8
:1005100000F064F9052269464FF4C47000F05EF9FA
:10052000052269464FF4C87000F058F90522694663
:100530004FF4CC7000F052F9052269464FF4D070A8
:1005400000F04CF9052269464FF4D47000F046F9EA
:10055000052269464FF4D87000F040F9052269463B
:100560004FF4DC7000F03AF9052269464FF4E07070
:1005700000F034F9052269464FF4E47000F02EF9DA
:1005800030208DF8000032208DF8010035208DF8E4
:1005900002002E208DF8030005226946502000F04D
:1005A0001DF92B208DF8000030208DF801008DF80A
:1005B00002008DF803002E208DF8040030208DF805
:1005C000050006226946582000F008F92B208DF816
:1005D000000030208DF801008DF802002E208DF8EB
:1005E000040030208DF803008DF8050006226946CE
:1005F000602000F0F3F806226946702000F0EEF863
:100600002D208DF8000006226946682000F0E6F8EB
:1006100006226946782000F0E1F832208DF80000CB
:1006200030208DF801008DF802008DF804002E2096
:100630008DF8030030208DF805008DF806000622A5
:1006400069464FF4E87000F0C9F8062269464FF495
:10065000EC7000F0C3F830208DF800008DF8010038
:100660008DF802008DF803008DF804008DF8050068
:100670002E208DF8060030208DF8070008226946EC
:100680004FF4F07000F0AAF808226946900100F0DB
:10069000A5F830208DF800008DF801008DF80200DB
:1006A0008DF803008DF804008DF805008DF8060024
:1006B0008DF80700082269464FF4F87000F08EF8B4
:1006C000082269464FF4027000F088F8022006F014
:1006D00085FB032269464FF4847000F047F89DF8CB
:1006E00000003038642148439DF80110303901EB97
:1006F000810100EB41019DF80200303808441649A1
:10070000086008460068FF2801D9FF2008601248E9
:10071000006812490844104908604FF4F8726946AD
:10072000042000F093F80E490860084600680001B4
:1007300008600846008800F5027082B20949082066
:1007400000F084F80849086000F0AEF80120014983
:1007500008601CBD948121428C000020000494118B
:10076000CC010020C0010020C80100202DE9F0418B
:1007700004460E46154602F079FFA02002F046FF1F
:1007800002F0CEFF201202F041FF02F0C9FF27461F
:10079000E11704EB11610912A4EB0121C8B202F0C8
:1007A00035FF02F0BDFF02F061FFA12002F02EFF35
:1007B00002F09AFE09E0691EC8B202F0FBFE30703A
:1007C000681E85B2601C84B2761C002DF3D102F045
:1007D0007BFF0A2006F002FBBDE8F0812DE9F04125
:1007E00004460D46164600201749086002F03EFFF9
:1007F000A02002F00BFF02F093FF201202F006FF90
:1008000002F08EFF2746E11704EB11610912A4EBF9
:100810000121C8B202F0FAFE02F082FF07E0287858
:1008200002F0F4FE02F07CFF701E86B26D1C002EFA
:10083000F5D102F049FF0120034908600A2006F0C3
:10084000CDFABDE8F0810000948121422DE9F04706
:1008500004460D4617464FF0000900264FF00108E8
:10086000224629463846FFF781FF13E0601E285CC8
:100870003A280DDC601E285C302809DB601E285CED
:10088000303800FB08F908EB88004FEA40084E4476
:10089000601EC4B2002CE9DC28782D2801D1F04379
:1008A000461C3046BDE8F0871CB558226946062034
:1008B000FFF7CCFF0A2190FBF1F000B272490880EB
:1008C000502269460520FFF7C1FF00B26F4908803A
:1008D0004FF4887269460520FFF7B8FF6C4908801D
:1008E0004FF48C7269460520FFF7B0FF6949088014
:1008F0004FF4E87269460620FFF7A8FF66490860D2
:100900004FF4907269460520FFF7A0FF6349088005
:100910004FF4947269460520FFF798FF5F494880BD
:100920004FF4987269460520FFF790FF5B49888075
:100930004FF49C7269460520FFF788FF5749C8802D
:100940004FF4A07269460520FFF780FF53490881E4
:100950004FF4A47269460520FFF778FF4F4948819C
:100960004FF4A87269460520FFF770FF4B49888154
:100970004FF4AC7269460520FFF768FF4749C8810C
:100980004FF4B07269460520FFF760FF43490882C3
:100990004FF4B47269460520FFF758FF3F4948827B
:1009A0004FF4B87269460520FFF750FF3C490880B4
:1009B0004FF4BC7269460520FFF748FF39490880AB
:1009C0004FF4EC7269460620FFF740FF3649086095
:1009D0004FF4C07269460520FFF738FF334908809D
:1009E0004FF4C47269460520FFF730FF2F49488055
:1009F0004FF4C87269460520FFF728FF2B4988800D
:100A00004FF4CC7269460520FFF720FF2749C880C4
:100A10004FF4D07269460520FFF718FF234908817B
:100A20004FF4D47269460520FFF710FF1F49488133
:100A30004FF4D87269460520FFF708FF1B498881EB
:100A40004FF4DC7269460520FFF700FF1749C881A3
:100A50004FF4E07269460520FFF7F8FE134908825B
:100A60004FF4E47269460520FFF7F0FE0F49488213
:100A70000F48008800F5007082B20E490820FFF789
:100A8000E5FE0D4908601CBD5A0000205C000020F6
:100A900052000020560000206000002008020020C4
:100AA0005400002058000020640000201C02002098
:100AB000CC010020230000204400002000BFFEE7FE
:100AC0001FB501F0CFF8062202A94FF4E870FFF736
:100AD0004DFE5A208DF8000053208DF801009DF83E
:100AE00008008DF802009DF809008DF803009DF8BC
:100AF0000A008DF804009DF80B008DF805009DF8A4
:100B00000C008DF806009DF80D008DF807000822F6
:100B10006946FE48006801F0FFF9322006F05EF9F0
:100B2000062202A94FF4EC70FFF720FE46208DF854
:100B3000000053208DF801009DF808008DF8020098
:100B40009DF809008DF803009DF80A008DF8040057
:100B50009DF80B008DF805009DF80C008DF806003F
:100B60009DF80D008DF8070008226946E7480068E7
:100B700001F0D2F9322006F031F9052202A94FF432
:100B80008870FFF7F3FD5A208DF800004C208DF897
:100B900001009DF808008DF802009DF809008DF80D
:100BA00003009DF80A008DF804009DF80B008DF8F5
:100BB00005009DF80C008DF8060020208DF8070038
:100BC00008226946D148006801F0A6F9322006F0F3
:100BD00005F9052202A94FF4B870FFF7C7FD4620BA
:100BE0008DF800004C208DF801009DF808008DF86C
:100BF00002009DF809008DF803009DF80A008DF8A9
:100C000004009DF80B008DF805009DF80C008DF890
:100C1000060020208DF8070008226946BB480068BE
:100C200001F07AF9322006F0D9F8052202A94FF432
:100C30008C70FFF79BFD5A208DF8000051208DF835
:100C400001009DF808008DF802009DF809008DF85C
:100C500003009DF80A008DF804009DF80B008DF844
:100C600005009DF80C008DF8060008226946A7488B
:100C7000006801F051F9322006F0B0F8062202A90E
:100C80004FF4BC70FFF772FD46208DF80000512034
:100C90008DF801009DF808008DF802009DF809000C
:100CA0008DF803009DF80A008DF804009DF80B00F4
:100CB0008DF805009DF80C008DF8060008226946A5
:100CC0009248006801F028F9322006F087F80522E2
:100CD00002A94FF49070FFF749FD5A208DF80000EB
:100CE00030208DF801009DF808008DF802009DF875
:100CF00009008DF803009DF80A008DF804009DF8A6
:100D00000B008DF805009DF80C008DF806000822F8
:100D100069467E48006801F0FFF8322006F05EF870
:100D2000052202A94FF4C070FFF720FD46208DF880
:100D3000000030208DF801009DF808008DF80200B9
:100D40009DF809008DF803009DF80A008DF8040055
:100D50009DF80B008DF805009DF80C008DF806003D
:100D6000082269466948006801F0D6F8322006F08A
:100D700035F8052202A94FF49470FFF7F7FC5A20CA
:100D80008DF8000031208DF801009DF808008DF8E5
:100D900002009DF809008DF803009DF80A008DF807
:100DA00004009DF80B008DF805009DF80C008DF8EF
:100DB0000600082269465548006801F0ADF8322067
:100DC00006F00CF8052202A94FF4C470FFF7CEFC20
:100DD00046208DF8000031208DF801009DF80800B4
:100DE0008DF802009DF809008DF803009DF80A00B7
:100DF0008DF804009DF80B008DF805009DF80C009F
:100E00008DF80600082269464048006801F084F821
:100E1000322005F0E3FF052202A94FF49870FFF796
:100E2000A5FC5A208DF8000032208DF801009DF8B5
:100E300008008DF802009DF809008DF803009DF868
:100E40000A008DF804009DF80B008DF805009DF850
:100E50000C008DF80600082269462C48006801F055
:100E60005BF8322005F0BAFF052202A94FF4C870E2
:100E7000FFF77CFC46208DF8000032208DF8010041
:100E80009DF808008DF802009DF809008DF8030018
:100E90009DF80A008DF804009DF80B008DF8050000
:100EA0009DF80C008DF80600082269461748006876
:100EB00001F032F8322005F091FF052202A94FF42B
:100EC0009C70FFF753FC5A208DF8000033208DF8FA
:100ED00001009DF808008DF802009DF809008DF8CA
:100EE00003009DF80A008DF804009DF80B008DF8B2
:100EF00005009DF80C008DF806000822694603489D
:100F0000006801F009F8322002E000008C000020A7
:100F100005F064FF052202A94FF4CC70FFF726FC10
:100F200046208DF8000033208DF801009DF8080060
:100F30008DF802009DF809008DF803009DF80A0065
:100F40008DF804009DF80B008DF805009DF80C004D
:100F50008DF8060008226946FE48006800F0DCFFB4
:100F6000322005F03BFF052202A99001FFF7FEFBAE
:100F70005A208DF8000034208DF801009DF80800FB
:100F80008DF802009DF809008DF803009DF80A0015
:100F90008DF804009DF80B008DF805009DF80C00FD
:100FA0008DF8060008226946EA48006800F0B4FFA0
:100FB000322005F013FF052202A94FF4D070FFF78D
:100FC000D5FB46208DF8000034208DF801009DF8F7
:100FD00008008DF802009DF809008DF803009DF8C7
:100FE0000A008DF804009DF80B008DF805009DF8AF
:100FF0000C008DF8060008226946D648006800F00B
:101000008BFF322005F0EAFE052202A94FF4A470FE
:10101000FFF7ACFB5A208DF8000035208DF8010059
:101020009DF808008DF802009DF809008DF8030076
:101030009DF80A008DF804009DF80B008DF805005E
:101040009DF80C008DF8060008226946C14800682A
:1010500000F062FF322005F0C1FE052202A94FF424
:10106000D470FFF783FB46208DF8000035208DF803
:1010700001009DF808008DF802009DF809008DF828
:1010800003009DF80A008DF804009DF80B008DF810
:1010900005009DF80C008DF8060008226946AD4851
:1010A000006800F039FF322005F098FE052202A901
:1010B0004FF4A870FFF75AFB5A208DF80000362035
:1010C0008DF801009DF808008DF802009DF80900D8
:1010D0008DF803009DF80A008DF804009DF80B00C0
:1010E0008DF805009DF80C008DF806000822694671
:1010F0009848006800F010FF322005F06FFE0522CE
:1011000002A94FF4D870FFF731FB46208DF800009C
:1011100036208DF801009DF808008DF802009DF83A
:1011200009008DF803009DF80A008DF804009DF871
:101130000B008DF805009DF80C008DF806000822C4
:1011400069468448006800F0E7FE322005F046FE5C
:10115000052202A94FF4AC70FFF708FB5A208DF866
:10116000000037208DF801009DF808008DF802007E
:101170009DF809008DF803009DF80A008DF8040021
:101180009DF80B008DF805009DF80C008DF8060009
:10119000082269466F48006800F0BEFE322005F064
:1011A0001DFE052202A94FF4DC70FFF7DFFA46208E
:1011B0008DF8000037208DF801009DF808008DF8AB
:1011C00002009DF809008DF803009DF80A008DF8D3
:1011D00004009DF80B008DF805009DF80C008DF8BB
:1011E0000600082269465B48006800F095FE322040
:1011F00005F0F4FD052202A94FF4B070FFF7B6FA2E
:101200005A208DF8000038208DF801009DF8080064
:101210008DF802009DF809008DF803009DF80A0082
:101220008DF804009DF80B008DF805009DF80C006A
:101230008DF80600082269464648006800F06CFEFA
:10124000322005F0CBFD082202A94FF4E070FFF731
:101250008DFA46208DF8000038208DF801009DF8A9
:1012600008008DF802009DF809008DF803009DF834
:101270000A008DF804009DF80B008DF805009DF81C
:101280000C008DF80600082269463248006800F01C
:1012900043FE322005F0A2FD052202A94FF4B470EE
:1012A000FFF764FA5A208DF8000039208DF801000C
:1012B0009DF808008DF802009DF809008DF80300E4
:1012C0009DF80A008DF804009DF80B008DF80500CC
:1012D0009DF80C008DF80600082269461D4800683C
:1012E00000F01AFE322005F079FD052202A94FF424
:1012F000E470FFF73BFA46208DF8000039208DF8A6
:1013000001009DF808008DF802009DF809008DF895
:1013100003009DF80A008DF804009DF80B008DF87D
:1013200005009DF80C008DF8060008226946094862
:10133000006800F0F1FD322005F050FD052202A901
:101340005020FFF713FA57208DF800004B208DF83E
:10135000010001E08C0000209DF808008DF80200DB
:101360002E208DF803009DF80A008DF804009DF8EA
:101370000B008DF805009DF80C008DF8060030205C
:101380008DF8070020208DF80700082269466E4876
:10139000006800F0C1FD322005F020FD062202A900
:1013A0005820FFF7E3F957208DF8000042208DF810
:1013B00001009DF808008DF802002E208DF8050030
:1013C0009DF809008DF803009DF80A008DF80400CF
:1013D0009DF80C008DF806009DF80D008DF80700B3
:1013E000082269465848006800F096FD322005F052
:1013F000F5FC062202A96020FFF7B8F95A208DF803
:10140000000057208DF801009DF808008DF80200BB
:101410002E208DF806009DF809008DF803009DF838
:101420000A008DF804009DF80B008DF805009DF86A
:101430000D008DF80700082269464348006800F057
:101440006BFD322005F0CAFC062202A96820FFF7D6
:101450008DF946208DF8000057208DF801009DF889
:1014600008008DF802002E208DF806009DF8090076
:101470008DF803009DF80A008DF804009DF80B001C
:101480008DF805009DF80D008DF8070008226946CB
:101490002D48006800F040FD322005F09FFC062238
:1014A00002A97020FFF762F95A208DF800004A2047
:1014B0008DF801009DF808008DF802002E208DF8AF
:1014C00006009DF809008DF803009DF80A008DF8CC
:1014D00004009DF80B008DF805009DF80D008DF8B7
:1014E0000700082269461848006800F015FD322000
:1014F00005F074FC062202A97820FFF737F9462090
:101500008DF800004A208DF801009DF808008DF844
:1015100002002E208DF806009DF809008DF80300CA
:101520009DF80A008DF804009DF80B008DF8050069
:101530009DF80D008DF807000822694602480068F2
:1015400000F0EAFC1FBD00008C00002010B5002157
:10155000837A012202FA03F13D4A126842F0010245
:101560003B4B1A603A4A1C3212688A43384B1C3390
:101570001A60027BCAB9364A0C3212688A43344B6D
:101580000C331A604288C38842EA0343304A40322F
:10159000847A42F834300288838842EA03432C4A32
:1015A0004032847A02EBC4025360027B012A19D1D3
:1015B000274A0C3212680A43254B0C331A604288C2
:1015C000038842EA0343224A4032847A42F83430A4
:1015D000C288838842EA03431D4A4032847A02EB80
:1015E000C4025360C27A3AB9194A121D12688A437A
:1015F000174B1B1D1A6006E0154A121D12680A439C
:10160000134B1B1D1A60028932B9114A1432126839
:101610008A430F4B14331A600289012A06D10C4AFF
:10162000143212680A430A4B14331A60427B012AAF
:1016300006D1074A1C3212680A43054B1C331A6054
:10164000034A126822F00102014B1A6010BD00002B
:101650000066004030B5024600200023146824F0E4
:1016600002041460146844F00104146000E05B1C80
:10167000546804F001041CB94FF6FF74A342F6D17C
:10168000546804F001040CB900206CE08C79012C42
:1016900004D1146844F08004146003E0146824F05A
:1016A00080041460CC79012C04D1146844F0400407
:1016B000146003E0146824F0400414600C7A012CD8
:1016C00004D1146844F02004146003E0146824F08A
:1016D000200414604C7A012C04D1146844F01004E6
:1016E000146003E0146824F0100414608C7A012C58
:1016F00004D1146844F00804146003E0146824F072
:1017000008041460CC7A012C04D1146844F0040459
:10171000146003E0146824F0040414608C78A407B7
:10172000CD7844EA05640D7944EA05444D7944EAEC
:1017300005540D886D1E2C43D461146824F00104F7
:101740001460002300E05B1C546804F001041CB129
:101750004FF6FF74A342F6D1546804F001040CB1B3
:10176000002000E0012030BD0246002019B9D368F6
:1017700003F0030006E0012903D1136903F003001D
:1017800000E00020704700002DE9F04188B00446D9
:101790000D4616461F46DDF838800121042002F070
:1017A0002DFC0121480602F019FC4FF48050ADF8E1
:1017B0001C0003208DF81E0018208DF81F0007A9BB
:1017C000234801F099F84FF40060ADF81C00482060
:1017D0008DF81F0007A91E4801F08EF800208DF833
:1017E00016008DF817008DF8180001208DF81900EB
:1017F00000208DF81A008DF81B008DF812808DF8EE
:1018000013408DF814608DF81550ADF8107004A9D0
:101810001048FFF71FFF00208DF80A008DF80B001D
:1018200001208DF80C000020ADF80000ADF802009A
:10183000ADF80400ADF80600ADF8080001208DF801
:101840000D006846FFF782FE08B0BDE8F081000099
:10185000000801400064004010B500F5D87303EBA8
:1018600001131B6803F004031372137A53B900F5D4
:10187000D87303EB01131B6840F2FF7404EA53535F
:10188000136009E000F5D87303EB01131B686FF0D8
:10189000604404EAD303536000F5D87303EB0113EB
:1018A0001B6803F00203537200F5D87303EB0113B6
:1018B0005B6803F00F03937200F5D87303EB011319
:1018C0005B681B0AD37400F5D87303EB01139B68A4
:1018D000D37200F5D87303EB01139B681C0A1473D1
:1018E00000F5D87303EB01139B681C0C547300F5CF
:1018F000D87303EB01139B681B0E937300F5D87329
:1019000003EB0113DB68D37300F5D87303EB01130A
:10191000DB681C0A147400F5D87303EB0113DB6851
:101920001C0C547400F5D87303EB0113DB681B0E19
:10193000937421B9C36843F02003C36003E00369D3
:1019400043F02003036110BD1CB5002406E0C0492C
:10195000A01C085C0DF80400601CC4B2072CF6DB68
:10196000BC48007801281CD1B9480078532801D11F
:10197000012000E00020B6494978542901D1012115
:1019800000E000210840002806D0B14880784F28A8
:1019900003D10020B04908703CE10120AE49087035
:1019A00038E1AC4800780228F6D1A94800785A28D6
:1019B00072D1A7484078372859D009DCA0F130000F
:1019C00007287ED2DFE800F0232A31383F454C005B
:1019D0004C280ED006DC382850D0392855D04A285B
:1019E0006FD162E051280BD0532857D0572868D1C7
:1019F00061E0052269464FF48870FEF7EFFE61E072
:101A0000052269464FF48C70FEF7E8FE5AE0052285
:101A100069464FF49070FEF7E1FE53E005226946F7
:101A20004FF49470FEF7DAFE4CE0052269464FF45D
:101A30009870FEF7D3FE45E0052269464FF49C708E
:101A4000FEF7CCFE3EE0052269469001FEF7C6FE99
:101A500038E0052269464FF4A470FEF7BFFE31E07E
:101A6000052269464FF4A870FEF7B8FE2AE0052269
:101A700069464FF4AC70FEF7B1FE23E005226946DB
:101A80004FF4B070FEF7AAFE1CE0052269464FF441
:101A9000B470FEF7A3FE15E015E012E005226946DA
:101AA0004FF4E870FEF79AFE0CE0062269467020BB
:101AB000FEF794FE06E0062269466020FEF78EFEE1
:101AC00000E000BF00BF62480078462873D160483C
:101AD000407837285AD009DCA0F1300007287FD29F
:101AE000DFE800F0232A31383F464D004C280ED065
:101AF00006DC382851D0392856D04A2870D163E006
:101B000051280BD0532858D0572869D162E00522BC
:101B100069464FF4B870FEF761FE62E0052269463F
:101B20004FF4BC70FEF75AFE5BE0052269464FF4A5
:101B3000C070FEF753FE54E0052269464FF4C470AE
:101B4000FEF74CFE4DE0052269464FF4C870FEF7E3
:101B500045FE46E0052269464FF4CC70FEF73EFE96
:101B60003FE0052269464FF4D070FEF737FE38E0BB
:101B7000052269464FF4D470FEF730FE31E00522AD
:101B800069464FF4D870FEF729FE2AE0052269461F
:101B90004FF4DC70FEF722FE23E0052269464FF485
:101BA000E070FEF71BFE1CE0052269464FF4E4706E
:101BB000FEF714FE15E015E012E0052269464FF429
:101BC000EC70FEF70BFE0CE0062269467820FEF76B
:101BD00005FE06E0062269466820FEF7FFFD00E0EC
:101BE00000BF00BF1A480078572813D11848407822
:101BF000422807D04B280BD1052269465020FEF71A
:101C0000EDFD06E0062269465820FEF7E7FD00E0FC
:101C100000BF00BF0E4800784C2817D1002404E014
:101C200030200DF80400601CC4B2082CF8DB2E2014
:101C30008DF806000949098801F5007188B208226B
:101C40006946FEF7CBFD0020054908601CBD000079
:101C500069000020710000209F000020CC010020BE
:101C6000440000201CB50024002001F043FF00BF09
:101C70000120102103461DA2CDE900100A212046B3
:101C800001F0E7FB04F10800C4B2802CF0DB012076
:101C90001021034615A2CDE900101E21002001F0FD
:101CA000D8FB012012A310221E210090104601F043
:101CB0004BF80120102103460CA2CDE900101E2193
:101CC000782001F0C6FB002400BF0120102103464C
:101CD00006A2CDE900103221204601F0BAFB04F142
:101CE0000800C4B2802CF0DB1CBD00002A000000FC
:101CF000D5FDD4DAC9E8D6C3B2CECAFD00000000D3
:101D000010B502460020936803F08063B3F1806F42
:101D100000D110E0936803F00063B3F1006F01D1CC
:101D2000012008E0936803F08053B3F1805F01D194
:101D3000022000E00420042874D002F5C07303EBF5
:101D400000131B6803F0010402F5C07303EB0013DA
:101D50001C600B7A7BB94B7A0C8843EA445302F53A
:101D6000C07404EB00142468234302F5C07404EB30
:101D70000014236010E00B7A4C6843EAC4034C7AE9
:101D8000234302F5C07404EB00142468234302F5D6
:101D9000C07404EB001423608B7A03F00F038B7282
:101DA00002F5C07303EB00135B6823F00F0402F528
:101DB000C07303EB00135C6002F5C07303EB001308
:101DC0005B688C7A234302F5C07404EB00146360F3
:101DD0008B7B1C064B7B44EA03440B7B44EA0323C6
:101DE000CC7A234302F5C07404EB0014A3608B7C0F
:101DF0001C064B7C44EA03440B7C44EA0323CC7B63
:101E0000234302F5C07404EB0014E36002F5C073D1
:101E100003EB00131B6843F0010402F5C07303EBEE
:101E200000131C6010BD000010B50246002321B154
:101E3000012907D002290FD109E090681D4C00EA62
:101E400004030BE090681C4C00EA040306E0906871
:101E50001A4C00EA040301E0002300BF00BF184C45
:101E6000181BA34216D007DC83B16FF080601844C2
:101E700070B1022818D111E0B0F5007F10D0114CDC
:101E8000204448B1B0F5003F0ED10BE002230DE035
:101E900000230BE0002309E0002307E0012305E015
:101EA000012303E0012301E0002300BF00BFD8B2FB
:101EB00010BD000003000004000300080000031030
:101EC000000100080001FFF730B585B0054600218C
:101ED0000F48FFF749FC10B9002005B030BD6A4635
:101EE00000210B48FFF7B8FC0A49019809688842AD
:101EF0000BD1002404E00DF10B00005D2855641C9B
:101F0000082CF8D39DF80A00E7E70020E5E7000079
:101F1000006400408C0000202DE9F04186B00546A9
:101F20008846164600240195029504208DF80C0081
:101F300000208DF80D008DF80E6000BF06E018F847
:101F400004100DF10F000155601C84B2B442F6DBA1
:101F500001A90E48FFF7D4FE0746002401E0601CEB
:101F600084B239460948FFF75FFF18B940F6FF70A1
:101F70008442F4DB0648006808B9012000E0002034
:101F80000349086006B0BDE8F0810000006400402D
:101F9000B4012242704700000C48006820F0800025
:101FA0000A49086011E04FF40051094800F081FD32
:101FB00040F6B83004F012FF4FF40051044800F02E
:101FC0007AFD40F6B83004F009FFECE70004014068
:101FD00000100140014600200022074B1B6803EA65
:101FE0000102054B14331B680B4013B10AB10120E9
:101FF00000E0002070470000000401401CB50020F4
:1020000001F078FD012025A310220321009000207B
:1020100000F09AFE012023A3102218210090002036
:1020200000F092FE012021A310222D21009000201B
:1020300000F08AFE0120102103231EA2CDE900102A
:102040001946642001F005FA0120082103461AA26E
:10205000CDE9001003216C2001F0FBF901201021D3
:10206000034616A2CDE900101821702001F0F1F905
:1020700001200821034610A2CDE900101821782084
:1020800001F0E7F90120102103230DA2CDE9001092
:102090002D21682001F0DDF91CBD0000C1F7C1BF92
:1020A00000000000C0DBBCC600000000B2EED1B9E9
:1020B000000000006D2F6800330000006D0000007C
:1020C0004B5061001CB5002001F014FDF74890F959
:1020D00000001E2854DA01203A237F2205210090B7
:1020E000002000F042FD01203A233F22052100900C
:1020F000104600F0E2FC012020237F2219460090C8
:10210000002000F0DAFC0120E9A310220021009059
:10211000104600F019FE0120E7A3102200210090D4
:102120004E2000F011FE0120E5A310223021009086
:10213000104600F009FE0120E3A310223021009098
:102140004E2000F001FE012008210346E0A2CDE967
:1021500000100E212E2001F07CF9012010210346F1
:10216000DCA2CDE90010342001F073F90120102128
:102170000223D9A2CDE900106B2001F06AF923E215
:1021800001203F237F2200210090084600F0EDFC53
:10219000D24890F90040062C0FDA002C0DDB01200C
:1021A0000821CDE9001004EB84004000C01CC1B23E
:1021B0000C23CBA2022001F04CF9062C13DA002CE0
:1021C00011DB01200821CDE900102046621C54B229
:1021D00000EB80004000C01CC1B20123C4A26E20ED
:1021E00001F037F901E0601C44B2062C0FDA002C34
:1021F0000DDB01200821CDE9001004EB8400400034
:10220000C01CC1B20B23BBA2082001F022F9062C8E
:1022100013DA002C11DB01200821CDE90010204643
:10222000621C54B200EB80004000C01CC1B202230B
:10223000A9A26E2001F00DF901E0601C44B2062C49
:1022400013DA002C11DB01200821CDE90010204613
:10225000621C54B200EB80004000C01CC1B20923D4
:10226000A7A2142001F0F5F801E0601C44B2062C8E
:1022700013DA002C11DB01200821CDE900102046E3
:10228000621C54B200EB80004000C01CC1B20B23A2
:102290009EA2082001F0DDF801E0601C44B2062C8B
:1022A00013DA002C11DB01200821CDE900102046B3
:1022B000621C54B200EB80004000C01CC1B2082375
:1022C00095A21A2001F0C5F801E0601C44B2062C6A
:1022D00013DA002C11DB01200821CDE90010204683
:1022E000621C54B200EB80004000C01CC1B20B2342
:1022F0008CA2082001F0ADF801E0601C44B2062C6D
:1023000013DA002C11DB01200821CDE90010204652
:10231000621C54B200EB80004000C01CC1B20B2311
:1023200083A2082001F095F801E0601C44B2062C5D
:1023300013DA002C11DB01200821CDE90010204622
:10234000621C54B200EB80004000C01CC1B20623E6
:102350007AA2262001F07DF801E0601C44B2062C30
:1023600013DA002C11DB01200821CDE900102046F2
:10237000621C54B200EB80004000C01CC1B20A23B2
:1023800070A20E2001F065F801E0601C44B2062C3A
:1023900013DA002C11DB01200821CDE900102046C2
:1023A000621C54B200EB80004000C01CC1B2082384
:1023B00067A21A2001F04DF801E0601C44B2062C1F
:1023C00013DA002C11DB01200821CDE90010204692
:1023D000621C54B200EB80004000C01CC1B2082354
:1023E0005EA21A2001F035F801E0601C44B2062C10
:1023F00013DA002C11DB01200821CDE90010204662
:10240000621C54B200EB80004000C01CC1B2082323
:1024100055A21A2001F01DF801E0601C44B2062C00
:1024200013DA002C11DB01200821CDE90010204631
:10243000621C54B200EB80004000C01CC1B20823F3
:102440004CA21A2001F005F801E0601C44B2062CF1
:1024500013DA002C11DB01200821CDE90010204601
:10246000621C54B200EB80004000C01CC1B20923C2
:1024700043A2142000F0EDFF01E0601C44B2062CE2
:1024800013DA002C11DB01200821CDE900102046D1
:10249000621C54B200EB80004000C01CC1B2072394
:1024A0003AA2202000F0D5FF76E073E04E00002035
:1024B000CEC2B6C800000000CEC2B2EE00000000DE
:1024C000BDC7B6C800000000BDC7B2EE00000000E6
:1024D0006F00000043000000506100004D0000202C
:1024E00054656D70657261747572653A0000000024
:1024F00024000000436F7272656374696F6E3A0066
:1025000053616D706C696E673A00000052657369C3
:102510007374616E63653A005B5D416E676C653A2A
:1025200000000000454550524F4D204269743A006A
:10253000454550524F4D204E756D3A004572726FB1
:10254000723A000045535220422C452C573A000065
:10255000455352204C45433A000000004553522059
:102560005445433A00000000455352205245433A37
:10257000000000004D435220302D373A000000008B
:102580005246305220464D503A000000465F5349B3
:102590005A453A00601C44B2062C13DA002C11DBB9
:1025A00001200821CDE900102046621C54B200EB46
:1025B00080004000C01CC1B2052304A22C2000F002
:1025C00048FF01E0601C44B21CBD0000465F494466
:1025D0003A0000001CB5002001F08CFA01200EA387
:1025E000102211460090152000F0AEFB01201021B2
:1025F00004230DA2CDE900102621582000F029FF68
:102600000120082103460AA2CDE9001029216120FA
:1026100000F01FFF1CBD0000CFF2C1F7C1BFC1BF5A
:10262000B3CCA3BA000000006D202F6800000000AA
:10263000330000001CB5002001F05CFA012012A359
:10264000102200210090104600F07EFB0120102196
:10265000082311A2CDE90010042000F0FAFE0120A9
:10266000102108230FA2CDE900102021042000F042
:10267000F0FE0120102108230DA2CDE90010302129
:10268000042000F0E6FE1CBDCFF2D0DED5FDB2CEB8
:10269000CAFDA3BA000000003530257E3630253A49
:1026A000000000003630257E3730253A000000005B
:1026B0003730257E3830253A0000000070B50446DA
:1026C000B4F5FA7F16DD2448006898B142F2107024
:1026D00060432149096890FBF1F040F63F414843CF
:1026E0001E4990FBF1F000F6331085B2284600F049
:1026F0005FF82FE014F5FA7F28DA1948006828B34C
:10270000E043441C1648006800EB8000C4EB400026
:1027100040F63F41484313490860084600681049A5
:10272000096890FBF1F00F49086008460068142121
:1027300090FBF1F00B4908600846006800F2153084
:102740000860098888B200F033F803E040F63610DC
:1027500000F02EF870BD000060000020400D030066
:1027600064000020D401002008B50121082001F0F8
:1027700045FC0121084601F041FC01210A4800F016
:1027800047F91820ADF8000010208DF80300032051
:102790008DF802006946054800F0AEF8182103489C
:1027A00000F089F908BD000000023000000C014073
:1027B00070B50446002500F05DF8B02000F034F854
:1027C00000F016F8022000F02FF800F011F82107B1
:1027D000080E00F029F800F00BF8C4F3071000F021
:1027E00023F800F005F800F067F8284670BD0000F7
:1027F00010B500200A49086001F07AFC0020094960
:10280000C1F88C01042004F00FFB0120044908608A
:10281000042004F009FB00200249C1F8900110BD1A
:10282000908121420080214270B5044601F060FC95
:1028300000200E490860002514E0E0090B49091F3B
:1028400008606006040E042004F0EEFA0120084936
:10285000C1F89001042004F0E7FA00200349086061
:10286000681CC5B2082DE8DB70BD000090812142D4
:102870000080214210B501F03BFC01200C490860AA
:1028800004F0D2FA01200B49C1F89001052004F0B0
:10289000CBFA002006490860052004F0C5FA0020A4
:1028A0000449C1F89001052004F0BEFA10BD0000F3
:1028B0008C8121420080214210B501F019FC0020DA
:1028C0000B490860052004F0AFFA00200949C1F85F
:1028D0008C01052004F0A8FA0120054908600520B4
:1028E00004F0A2FA01200349C1F88C0110BD0000D8
:1028F00090812142008021422DE9F04102460025CD
:102900000026002000230024002791F803C00CF0CB
:102910000F0591F803C00CF0100CBCF1000F03D0B0
:1029200091F802C04CEA050591F800C0BCF1000F17
:1029300031D0146800202BE04FF0010C0CFA00F3AA
:10294000B1F800C00CEA03069E4220D183004FF08C
:102950000F0C0CFA03F7BC4305FA03FC4CEA040421
:1029600091F803C0BCF1280F06D14FF0010C0CFA0E
:1029700000FCC2F814C00AE091F803C0BCF1480F93
:1029800005D14FF0010C0CFA00FCC2F810C0401C3D
:102990000828D1D31460B1F800C0BCF1FF0F34DDBA
:1029A000546800202EE000F1080C4FF0010808FAEE
:1029B0000CF3B1F800C00CEA03069E4221D183005B
:1029C0004FF00F0C0CFA03F7BC4305FA03FC4CEA7A
:1029D000040491F803C0BCF1280F05D100F1080CE4
:1029E00008FA0CF8C2F8148091F803C0BCF1480F43
:1029F00007D100F1080C4FF0010808FA0CF8C2F8F2
:102A00001080401C0828CED35460BDE8F08100003F
:102A1000F0B50A46002300240021002500F00046FE
:102A2000B6F1004F02D11D4EF16901E01B4E7168F5
:102A3000C0F3034583B200F44016B6F5401F08D139
:102A400021F07061154E766826F07066134F7E6037
:102A500012E000F48016B6F5801F06D1032606FAB0
:102A600005F4A14341F0706106E0460D360103FA1A
:102A700006F6B14341F0706122B1460D360103FA0A
:102A800006F6314300F00046B6F1004F02D1034E86
:102A9000F16101E0014E7160F0BD000000000140F5
:102AA0000246002093680B400BB1012000E000209B
:102AB000704741617047016170472DE9FF4F85B054
:102AC00081468A460020039083460798A0EB0905BB
:102AD0000898A0EB0A06CDF80890CDF804A0002DC8
:102AE00001DD012705E00DB9002702E04FF0FF37B7
:102AF0006D42002E02DD4FF0010806E016B94FF0DE
:102B0000000802E04FF0FF387642B54201DD2C4666
:102B100000E03446002004901EE0019AD1B2029AEF
:102B2000D0B2129A01F0EAF8039828440390B34413
:102B30000398A04205DD0398001B039002983844D7
:102B40000290A34504DDABEB040B019840440190D7
:102B50000498401C80B20490611C04988842DCDD1B
:102B600000F0DCFF09B0BDE8F08F2DE9F843054621
:102B70000E4617469846089C33463A463146284644
:102B80000094FFF79AFF43462A46314628460094B0
:102B9000FFF793FF43463A46414628460094FFF725
:102BA0008CFF43463A46314638460094FFF785FF8E
:102BB000BDE8F8832DE9F04F8BB006468A464FF00A
:102BC0000009002504200A900024B5E000256EE0ED
:102BD0000A9805F098F82746CDE90601E11704EBBD
:102BE0005161C911A4EBC11005F0FEFC019028460B
:102BF00005F0FAFC0090019905F0DAFD8346514991
:102C000005F014FC804605F083FBCDE9020104F0D9
:102C100007FDCDE90401DDE9062305F09FF8CDE9C4
:102C2000080105F013F84FFA80F909EBC6004FFAD6
:102C300080F909F0FF01E8B2524601F05FF80A9806
:102C400005F061F8A346CDE90601E11704EB5161F7
:102C5000C911A4EBC11005F0C7FC0190284605F08E
:102C6000C3FC0090019905F0A3FD3649029005F0E0
:102C7000DDFB039005F04CFB074604F03FF8CDE97F
:102C80000401DDE9062305F069F8CDE9080104F047
:102C9000DDFF4FFA80F909EBC6004FFA80F909F021
:102CA000FF01E8B2524601F029F8681C05B2802DF8
:102CB0008EDB00F033FF0A2004F090F8002537E0A7
:102CC0000A9805F020F8A346CDE90601E11704EBC8
:102CD0005161C911A4EBC11005F086FC0190284692
:102CE00005F082FC0090019905F062FD1549029003
:102CF00005F09CFB039005F00BFB074604F090FCED
:102D0000CDE90401DDE9062305F028F8CDE9080145
:102D100004F09CFF4FFA80F909EBC6004FFA80F9E6
:102D200009F0FF01E8B2002200F0E8FF681C05B2DC
:102D3000802DC5DB601C84B2642CFFF647AF0BB05E
:102D4000BDE8F08F0000A0402DE9F04106460F4697
:102D500014461D46DDF8188026E0102C06D14346A7
:102D60002A463946304600F023F913E0182C06D1E4
:102D700043462A463946304600F092F90AE0202CB4
:102D800006D143462A463946304600F00BFA01E0A8
:102D9000BDE8F0813019C6B2C4F18000B04202DA59
:102DA00000263819C7B2AD1C28780028D5D100BF3D
:102DB000EEE700002DE9FF4F81B006460F46994629
:102DC000DDF838A04FF000080024002503982038D3
:102DD00000F0FF087F2E02DD0026B81CC7B2B9F153
:102DE000100F30D100242BE0BAF1000F05D004EB16
:102DF00008106B4911F800B006E004EB08106849B0
:102E0000085CC04300F0FF0B002515E0802028413E
:102E100000EA0B0038B13A19D1B27219D0B20122CE
:102E200000F06CFF06E03A19D1B27219D0B200225C
:102E300000F064FF681CC5B2082DE7DB601CC4B25B
:102E4000102CD1DBA7E0B9F1080F30D100242BE022
:102E5000BAF1000F05D0534800EBC80010F804B0D9
:102E600006E0504800EBC800005DC04300F0FF0BD7
:102E7000002515E08020284100EA0B0038B13A19FE
:102E8000D1B27219D0B2012200F038FF06E03A192F
:102E9000D1B27219D0B2002200F030FF681CC5B266
:102EA000082DE7DB601CC4B2082CD1DB73E0B9F15C
:102EB000180F32D100242DE0BAF1000F06D01820EF
:102EC00000FB0840384911F800B007E0182000FB6B
:102ED00008403549085CC04300F0FF0B002515E0B1
:102EE0008020284100EA0B0038B13A19D1B272199A
:102EF000D0B2012200F002FF06E03A19D1B27219F5
:102F0000D0B2002200F0FAFE681CC5B2082DE7DB43
:102F1000601CC4B2182CCFDB3DE0B9F1200F37D1D3
:102F2000002432E0BAF1000F06D0302000FB084048
:102F30001E4911F800B007E0302000FB08401B4993
:102F4000085CC04300F0FF0B00251AE080202841F8
:102F500000EA0B0060B104EBD47207EB6202D1B25D
:102F600072190832D0B20122009400F0C7FE06E0C8
:102F70003A19D1B27219D0B2002200F0BFFE681C1B
:102F8000C5B2082DE2DB601CC4B2302CCADB02E003
:102F900005B0BDE8F08F00F0C1FD00BFF8E700000C
:102FA000828C00088A890008729200085A9B0008E7
:102FB0002DE9FF4F83B08046894692463320019029
:102FC000002562E005EB0510344911F810009AF86D
:102FD0000010884257D105EB0510304901EB400045
:102FE00040789AF8011088424DD1002448E00698B4
:102FF00040B105EB0510294901EB4000801C005D44
:10300000029009E005EB0510244901EB4000801C0B
:10301000005DC043C0B2029000262DE08020304108
:103020000299084098B1274604EBD77209EB620277
:10303000D1B2A34604EBDB725210A4EB420208EBC0
:10304000C2023244D0B2012200F058FE12E02746FC
:1030500004EBD77209EB6202D1B2A34604EBDB7238
:103060005210A4EB420208EBC2023244D0B200225A
:1030700000F044FE701CC6B2082ECFDB601CC4B248
:10308000202CB4DB04E0681CC5B20198854299DBB2
:1030900000BF00F043FD07B0BDE8F08F6A9B000859
:1030A0002DE9FE4F0746884691469B460620029032
:1030B00000256DE005EB850000EB4510384911F85F
:1030C000100099F80010884260D105EB850000EBF4
:1030D0004510334901EB4000407899F801108842CF
:1030E00054D100244FE0BBF1000F0AD005EB85005E
:1030F00000EB45102A4901EB4000801C10F804A0A9
:103100000BE005EB850000EB4510254901EB400085
:10311000801C005DC04300F0FF0A00262FE08020E5
:10312000304100EA0A00A0B1032094FBF0F04044D3
:10313000C0B20190032094FBF0F100FB114007EBBB
:10314000C0003044C0B201220090019900F0D6FDC9
:1031500013E0032094FBF0F04044C0B20190032040
:1031600094FBF0F100FB114007EBC0003044C0B20B
:1031700000220090019900F0C1FD701CC6B2082E1B
:10318000CDDB601CC4B2482CADDB04E0681CC5B2CA
:10319000029885428EDB00BF00F0C0FCBDE8FE8FC8
:1031A00030A200082DE9FF4F83B080468946924641
:1031B00006200190002566E005EB8510364911F8E0
:1031C00010009AF8001088425BD105EB8510324957
:1031D00001EB400040789AF80110884251D1002458
:1031E0004CE0069840B105EB85102B4901EB4000FF
:1031F000801C005D029009E005EB8510264901EB7B
:103200004000801C005DC043C0B20290002731E046
:103210008020384102990840A8B12646E21704EB05
:10322000927209EBA202D1B2A346E21704EB9272AA
:103230009210A4EB820208EBC2023A44D0B20122FF
:1032400000F05CFD14E02646E21704EB927209EBF5
:10325000A202D1B2A346E21704EB92729210A4EB41
:10326000820208EBC2023A44D0B2002200F046FDCE
:10327000781CC7B2082FCBDB601CC4B2802CB0DB3B
:1032800004E0681CC5B20198854295DB00BF00F0E0
:1032900045FC07B0BDE8F08FECA300082DE9FF4F17
:1032A00083B0804692461E46DDE9105B0020029006
:1032B000102D05D1284605EBD071C1F347070BE06F
:1032C000082D06D1284605EBD0714910891CCFB2D4
:1032D00002E007B0BDE8F08F002433E0301B401E51
:1032E000C1B20A2004F090F9BAFBF0F00A21B0FB59
:1032F000F1F201FB12090298A0B9701EA04211DD83
:10330000B9F1000F0CD1022C0ADA07FB0481C8B214
:103310002B462022CDF800B00499FFF74BFD0FE0BB
:103320000120029009F13001CAB2611C07FB018142
:10333000C8B22B46CDF800B00499FFF73BFD00BFA3
:10334000601CC4B2B442C9DB00BFC2E72DE9FF4F25
:1033500083B0074693469A46DDE910580020029054
:10336000102D05D1284605EBD071C1F347060BE0BF
:10337000082D06D1284605EBD0714910891CCEB224
:1033800002E007B0BDE8F08F00245EE0AAEB040085
:10339000401EC1B20A2004F037F9BBFBF0F00A214D
:1033A000B0FBF1F201FB12090298A8B9AAF10100E1
:1033B000A04211DDB9F1000F0CD1022C0ADA06FB94
:1033C0000471C8B22B462022CDF800800499FFF783
:1033D000F1FC38E001200290042C0CDA09F13001F4
:1033E000CAB206FB0471C8B22B46CDF8008004991E
:1033F000FFF7E0FC26E0042C17D106FB0471C8B2ED
:103400002B462E22CDF800800499FFF7D3FC09F15A
:103410003001CAB2611C06FB0171C8B22B46CDF85F
:1034200000800499FFF7C6FC0CE009F13001CAB234
:10343000611C06FB0171C8B22B46CDF800800499CF
:10344000FFF7B8FC00BF601CC4B254459EDB00BF50
:1034500097E72DE9F84F0646884691469A46DDE9FA
:103460000A4B0027102C05D1204604EBD071C1F384
:1034700047051CE0082C06D1204604EBD07149100A
:10348000891CCDB213E0182C06D1204604EBD07174
:103490004910891ECDB20AE0202C06D1204604EB4B
:1034A000D0714910091FCDB201E0BDE8F88F0027A7
:1034B00013E0CDF800B019F8072023464146304606
:1034C000FFF778FC7019C6B2782E04DD002608EBF1
:1034D000040000F0FF08781CC7B25745E9DB00BFC5
:1034E000E3E700BFFEE7000010B540210F48FFF7FB
:1034F000E0FA0E48006820F070400C490860084669
:10350000006840F04050086000200949086004202D
:1035100003F08AFC40210548FFF7CDFA042003F0B0
:1035200083FC40210148FFF7C4FA10BD000C0140A4
:103530009C81214208B50121082000F05FFDE020B8
:10354000ADF8000010208DF8030003208DF8020074
:1035500069460448FFF7D0F9E0210248FFF7ABFACB
:1035600008BD0000000C014010B540210F48FFF7D6
:10357000A0FA0E48006820F070400C490860084628
:10358000006840F0405008600120094908600420AC
:1035900003F04AFC40210548FFF78DFA042003F0B0
:1035A00043FC40210148FFF784FA10BD000C0140A4
:1035B0009C81214270B50546002400F0AFFD002635
:1035C00016E040210F48FFF774FA042003F02CFCAA
:1035D00040210C48FFF76FFA6006040E0A480068A5
:1035E00008B1601CC4B2042003F01EFC701CC6B2FB
:1035F000082EE6DB15B9FFF7B7FF01E0FFF774FF10
:10360000204670BD000C01401C81214270B504466B
:103610001448006820F070401249086008460068AD
:1036200040F04050086040210E48FFF742FA002564
:1036300014E0E0090C4908606006040E042003F061
:10364000F3FB40210748FFF736FA042003F0ECFBB8
:1036500040210448FFF72DFA681CC5B2082DE8DBAD
:1036600070BD0000000C01409C81214210B5134840
:10367000006820F07040114908600846006840F07A
:103680004050086001200E49086003F0CDFB402146
:103690000A48FFF710FA052003F0C6FB002009498D
:1036A000C1F89C01052003F0BFFB40210348FFF750
:1036B00000FA052003F0B8FB10BD0000000C01402B
:1036C0009C8121420080214210B51248006820F000
:1036D0007040104908600846006840F0405008609B
:1036E00040210C48FFF7E5F9052003F09DFB002081
:1036F00009490860052003F097FB40210548FFF7C2
:10370000DAF9052003F090FB01200449C1F89C017F
:1037100010BD0000000C01409C812142008021422C
:1037200010B5002400F0FAFC012003F07DFB4021DD
:103730000B48FFF7C0F907E0601C84B2CD2C03DD15
:10374000FFF7C2FF012010BD80210548FFF7A8F94F
:103750000028F1D140210248FFF7ABF90020F2E741
:10376000000C014008B50121082000F047FC0720AB
:10377000ADF8000028208DF8030003208DF802002A
:1037800069460248FFF7B8F808BD0000000C014088
:1037900010B504211848FFF783F948B102211648F3
:1037A000FFF77EF920B101211348FFF779F900BB3B
:1037B000142003F013FB04210F48FFF771F940B9FF
:1037C00002210D48FFF76CF908B9042412E0012426
:1037D00010E002210848FFF763F908B9022409E064
:1037E00001210548FFF75CF908B9032402E005242C
:1037F00000E00024204610BD000C014008B5012166
:10380000582000F0FBFB4FF40050ADF800001020F2
:103810008DF8030003208DF8020069460148FFF788
:103820006BF808BD0010014010B52A480068401C24
:1038300028490860082228492648006800F048F90D
:103840002649098801F5007188B208222449FCF74D
:10385000C5FF2249098801F5027188B208221E4974
:10386000FCF7BCFF1B4800681E49884230D31B4947
:103870000C88E11704EB11710911481C04221A4944
:1038800000F026F9154800881030144908800422F9
:1038900015494FF4F870FCF7A1FF1049098801F5AC
:1038A000007188B208220E49FCF798FF00200949F0
:1038B0000860082208490748006800F009F907492C
:1038C000098801F5027188B208220349FCF786FFD6
:1038D00010BD0000C8010020C0010020CC01002064
:1038E0002300002040420F009600002008B5002071
:1038F00000F000F9012014A31022002100900A20FA
:10390000FFF722FA012014A31022114600900A208A
:10391000FFF71AFA012014A31022202100900A2098
:10392000FFF712FA012014A31022302100900A2080
:10393000FFF70AFA002008232022042100907120BA
:10394000FFF738FA08BD0000C9E8D6C3D5FDCFF2AD
:10395000B2CECAFD00000000C9E8D6C3B7B4CFF2AA
:10396000B2CECAFD00000000C9E8D6C3D0DED5FD46
:10397000B2CECAFD00000000C9E8D6C3CDA8D1B6BA
:10398000B5D8D6B70000000070B500261A480078F8
:1039900005282ADB002500201849087002F04EF89F
:1039A00048B1382002F07EF801F0CAFF05462846EB
:1039B00002F02CFD00E00126002401200F490870D0
:1039C000C6B902F03BF8382002F06CF801F0B8FFFD
:1039D000044600F0E1FA072003F000FA204602F066
:1039E00085FD204602F068FD04E003480078401C95
:1039F0000149087070BD0000D1010020D3010020F2
:103A000000BFFEE7704770B5049C0AB18D1AEAB298
:103A1000012B02D12D25257001E02025257012E013
:103A20008A4204D11AB12E2565544D1EE9B20A25E9
:103A3000B0FBF5F605FB1605303565540A25B0FBDD
:103A4000F5F04D1EE9B20029EADC70BD70B5002129
:103A500000230F22C47804B3154C246804F4E064F6
:103A6000C4F5E064210AC1F10403CA40447804FAB1
:103A700003F184781440214309010E4C0678A155C6
:103A8000047804F01F050124AC4005786D11AD00E9
:103A900005F1E025C5F8004109E0047804F01F05B0
:103AA0000124AC40044D0678761145F8264070BDDF
:103AB0000CED00E000E400E080E100E00249014399
:103AC000024A1160704700000000FA050CED00E0AA
:103AD00030B50B46511E0AE00A24B0FBF4F504FB96
:103AE000150430345C540A24B0FBF4F0491E00295C
:103AF000F2DC30BD10B5044634B1FF224FF48061D2
:103B00000548FCF7A4FB04E04FF480610248FCF791
:103B1000A6FB00F003F810BD5802002070B5002489
:103B20001BE004F1B000002100F028F90021022080
:103B300000F024F90021102000F020F9002508E011
:103B400005EBC411064A505C012100F017F9681C0E
:103B5000C5B2802DF4DB601CC4B2082CE1DB70BD63
:103B60005802002010B500218D2000F007F9002137
:103B7000102000F003F90021AE2000F0FFF810BD86
:103B800010B500218D2000F0F9F80021142000F07C
:103B9000F5F80021AF2000F0F1F810BD10B501F0EC
:103BA0000BFC00F07BF8C82003F018F900F090F847
:103BB000FFF7D8FF0021AE2000F0E0F8002102203E
:103BC00000F0DCF80021102000F0D8F8002140209F
:103BD00000F0D4F80021812000F0D0F80021CF209F
:103BE00000F0CCF80021A12000F0C8F80021C82086
:103BF00000F0C4F80021A62000F0C0F80021A820A1
:103C000000F0BCF800213F2000F0B8F80021D320DC
:103C100000F0B4F80021084600F0B0F80021D520EB
:103C200000F0ACF80021802000F0A8F80021D92095
:103C300000F0A4F80021F12000F0A0F80021DA2023
:103C400000F09CF80021122000F098F80021DB2001
:103C500000F094F80021402000F090F8002120208E
:103C600000F08CF80021022000F088F800218D205F
:103C700000F084F80021142000F080F80021A42036
:103C800000F07CF80021A62000F078F80021AF2099
:103C900000F074F8FFF774FF10BD000008B50121B3
:103CA000042000F0ABF91C20ADF8000010208DF8C6
:103CB000030003208DF8020069460448FEF71CFE4D
:103CC0001C210248FEF7F7FE08BD00000008014075
:103CD00010B504210848FEF7EEFE642003F07EF8DC
:103CE00004210548FEF7E5FE642003F077F804217F
:103CF0000148FEF7E0FE10BD00080140F0B50346A4
:103D00001446E4B1CD1701EB5575ED1003EBC51565
:103D1000194E755D0A46CE1701EB5676F610A1EBEB
:103D2000C6070126BE40F6B235430846CE1701EB62
:103D30005676F61003EBC6160F4FBD551AE0CD1799
:103D400001EB5575ED1003EBC5150B4E755D0A467D
:103D5000CE1701EB5676F610A1EBC6070126BE4042
:103D6000B5430846CE1701EB5676F61003EBC616A0
:103D7000014FBD55F0BD00005802002070B504464B
:103D80000D4625B108210A48FEF795FE03E00821FB
:103D90000748FEF78EFE10210548FEF78AFEE1B2C5
:103DA000044801F07FFB10210148FEF784FE70BD3E
:103DB00000080140003001401CB50020FFF79AFECA
:103DC00001201FA31022002100901046FEF7BCFF27
:103DD00001201FA31022114600900320FEF7B4FF1C
:103DE00001201DA31022202100900320FEF7ACFF2C
:103DF0000120102103231AA2CDE900106020FFF753
:103E000028FB01201021042316A2CDE90010202157
:103E10006020FFF71EFB01200821034613A2CDE915
:103E2000001023216920FFF714FB01201021052336
:103E30000FA2CDE9001030210220FFF70AFB1CBDC4
:103E4000CFF2D0DED5FDB2CECAFDA3BA000000008D
:103E5000C1E3B5E3A3BA0000C7D0B3FDA3BA000025
:103E60004B5061006D202F680000000033000000FF
:103E70003C3035253A00000010B54FF48030FEF795
:103E8000A9F8E8B11BE002210E48FEF714FE082253
:103E90000D494FF4F070FCF7A1FC4FF400510B48B2
:103EA000FEF707FE40F6B83002F098FF4FF40051DD
:103EB0000648FEF700FE40F6B83002F08FFFE2E75A
:103EC00010BD000000080140230000200010014048
:103ED000704700001CB50020FFF70CFE012016A360
:103EE0001022002100900846FEF72EFF012014A3A7
:103EF0001022202100901820FEF726FF012010211B
:103F0000032311A2CDE9001020210020FFF7A1FA20
:103F10000120102103230DA2CDE900103021002043
:103F2000FFF797FA012006A31022302100901820F5
:103F3000FEF70AFF1CBD0000C7E3BDC7000000007C
:103F4000B6C8A3BA000000002B3330002D33300078
:103F50001CB5762002F042FF02208DF800000620FA
:103F60008DF8010000208DF8020008208DF8030074
:103F7000A3208DF804008DF8050030208DF8060090
:103F8000B2208DF807000821684603F025FB1220B7
:103F900002F024FF1CBD00000CB502208DF80000CB
:103FA00003208DF8010000208DF802008DF8030039
:103FB0008DF8040002208DF80500C4208DF806005D
:103FC00038208DF807000821684603F005FB002023
:103FD000014908700CBD0000F201002029B1064A19
:103FE000D2690243044BDA6104E0034AD269824396
:103FF000014BDA61704700000010024029B1064A07
:1040000092690243044B9A6104E0034A9269824335
:10401000014B9A61704700000010024030B500214A
:104020000022002400232D4D6D6805F00C0121B104
:10403000042905D0082923D105E0294D056022E097
:10404000274D05601FE0254D6D6805F47012234D66
:104050006D6805F48034022505EB92421CB9214DB0
:10406000554305600BE01D4D6D6805F400351DB12D
:104070001C4D5543056002E0194D5543056002E0B3
:10408000174D056000BF00BF144D6D6805F0F001CD
:104090000909154D6B5C0568DD4045600F4D6D6885
:1040A00005F4E061090A104D6B5C4568DD408560F0
:1040B0000A4D6D6805F46051C90A0B4D6B5C45688B
:1040C000DD40C560054D6D6805F44041890B074D25
:1040D0006B5CC568B5FBF3F5056130BD00100240AF
:1040E00000127A0000093D00D8010020E8010020FC
:1040F00008B501210820FFF781FF0820ADF8000076
:1041000010208DF8030003208DF802006946024854
:10411000FEF7F2FB08BD0000000C014008B50121CC
:104120000820FFF76BFF8020ADF8000004208DF819
:10413000030069460348FEF7DFFB80210148FEF7D4
:10414000BAFC08BD000C01401CB5FE480078FE49D1
:10415000087008460078042881F27880FB480078CF
:104160000978884207D1F8480078032807D1002051
:10417000F549087003E0F4480078F4490870F24803
:104180000078032877D1F2480078002874D1F148EC
:104190000078002871D0012870D0022802D00328AE
:1041A00068D16CE001F0B4F80620E94908700020FD
:1041B000E84908705020E84908800522E749E648A8
:1041C0000088FCF7D3FAE44800880830E249088008
:1041D0000622E349E0480088FCF7C8FADE48008878
:1041E0000830DD4908800622DE49DB480088FCF7FC
:1041F000BDFAD94800880830D74908800622DA4934
:10420000D5480088FCF7B2FA012010210523D34AD3
:10421000CDE9001000214F20FFF71BF901201021EC
:104220000623CF4ACDE900104F20FFF712F90120F5
:1042300010210623CB4ACDE9001020214F20FFF7A3
:1042400008F9012010210623C74ACDE900103021CA
:104250004F20FFF7FEF84F20C44908600020C449F2
:104260000860BE48BB490978405CC249087001201B
:10427000C1490870E9E0F3E3E8E028E086E001F0F6
:1042800033F80720B24908700220B24908700322AF
:10429000B3494FF48470FCF769FA0120102103231D
:1042A000AF4ACDE9001026212F20FFF7D2F83F209A
:1042B000AE4908602620AE490860A948A54909789A
:1042C000405CAC4908700120AB490870BDE0FFF7C5
:1042D00073FD01209E4908700020A8490870A84974
:1042E00008700120A7A31022002100900846FEF7C5
:1042F0002BFD4FF48870984908800020954908707C
:104300000522964994480088FCF730FA92480088C4
:10431000083091490880052291498F480088FCF7B0
:1043200025FA8D48008808308B49088005228D4980
:1043300089480088FCF71AFA012010210523874AD2
:10434000CDE900102F20FFF784F80120102105236C
:10435000834ACDE9001020212F20FFF77AF80120B1
:10436000102105237F4ACDE9001030212F20FFF7CF
:1043700070F810207E4908602F207C49086077483B
:1043800074490978405C7B4908705EE0FFF714FDD2
:1043900001206F4908700020784908700120784991
:1043A000087079A31022002100900846FEF7CCFC8B
:1043B0004FF4B870684908800020664908700522EB
:1043C000664965480088FCF7D1F9634800880830E1
:1043D00061490880052262495F480088FCF7C6F9F8
:1043E0005D48008808305C49088005225D495A48CC
:1043F0000088FCF7BBF9012010210523574ACDE9BD
:1044000000102F20FFF725F8012010210523544A22
:10441000CDE9001020212F20FFF71BF801201021EB
:104420000523504ACDE9001030212F20FFF711F865
:1044300010204F4908602F204C49086047484549E3
:104440000978405C4B49087000BF09E34048007898
:10445000062875D149480078012850D144480068A1
:1044600028B9444800783D493A4A1278885440486F
:104470000068102805D13F4801783948354A12783C
:1044800081543B480068202805D13A4801783548D6
:10449000304A1278815436480068302805D13548B2
:1044A000007831492B4A1278885450202A490880D4
:1044B00005222A4928480088FCF790F926480088F8
:1044C0000830254908800622254923480088FCF742
:1044D00085F92148008808301F49088006222149B3
:1044E0001D480088FCF77AF91B48008808301A49F3
:1044F000088006221C4918480088FCF76FF9FFF76E
:10450000E9FC4F2019490860102019490860012072
:104510001949087000200F49087008200C490870DC
:1045200000201649087006220C497020FCF71EF97D
:1045300006220B497820FCF719F90120102125E00B
:1045400046E000009C0100209F010020A001002007
:10455000980100209A010020A2010020A40100205F
:10456000AB010020B3010020B9010020940100201C
:10457000900100209B010020990100209E01002055
:104580009D010020D5FD0000B7B400000623FC4AC1
:10459000CDE9001020214F20FEF75BFF0120102104
:1045A0000623F84ACDE9001030214F20FEF751FFD5
:1045B0002020F54908604F20F4490860F048F4498C
:1045C0000978405CF34908700020F349087044E220
:1045D000F2480078082830D1EF48007801281DD132
:1045E000E9480068302805D1EA480178E548E84AFA
:1045F00012788154E4480068202805D1E548017804
:10460000DF48E34A127881540622DD497020FCF726
:10461000E5F80622DB497820FCF7E0F8FFF766F9B9
:104620007120DA4908600420D74908600020DC497D
:104630000870D7490870D9490870D8480078072809
:104640003CD1D5480078012829D1D2480178CD48FD
:10465000CF4A12788154032201464FF48470FCF74C
:10466000BDF8C8480078303864214843C5494978C6
:10467000303901EB810100EB4101C24880783038CC
:104680000844C849086008460068FF2801D9FF208F
:104690000860C4480068C4490844C2490860FFF77C
:1046A00025F97120B94908600420B7490860002045
:1046B000BB490870B6490870B8490870B748007817
:1046C00005282AD1B4480078012817D1B1480078CC
:1046D000AB49AF4A12788854B448007820B94FF4F7
:1046E000E870B349088003E04FF4EC70B0490880EB
:1046F0000622A349AE480088FCF770F8FFF7F6F8E9
:104700007120A249086004209F4908600020A44944
:1047100008709F490870A1490870A04800780128D6
:1047200000D100E000209D490978022901D1012132
:1047300000E00021084399490978032901D10121AA
:1047400000E00021084395490978042901D101219D
:1047500000E00021084300287ED08F48007801281F
:1047600079D189480068102805D18A4800788449A1
:10477000874A1278885484480068202805D18548E3
:1047800000788049824A127888547F48006830282F
:1047900005D18048007887497D4A127888547F483F
:1047A000007801280BD18148007820B94FF4887037
:1047B0007F49088003E04FF4B8707D49088077484E
:1047C000007802280BD17948007820B94FF4947012
:1047D0007749088003E04FF4C470754908806F483A
:1047E000007803280BD17148007820B94FF4A070ED
:1047F0006F49088003E04FF4D0706D490880674826
:10480000007804280BD16948007820B94FF4AC70C7
:104810006749088003E04FF4DC7065490880052291
:10482000574963480088FBF7D9FF61480088083082
:104830005F490880052253495D480088FBF7CEFF99
:104840005B48008808305A49088005225949584871
:104850000088FBF7C3FF00E0FFE050480078401CF1
:104860004E49087000204A4908704C4800780528D5
:1048700043D1FDF7AFFE4D48007820B94FF4E87002
:104880004B49088003E04FF4EC70494908804748E1
:10489000007848B90120AFF214331022114600907D
:1048A0000520FEF751FA08E00120AFF22433102270
:1048B000114600900520FEF747FA062230493C4891
:1048C0000088FBF753FF0120102106232C4ACDE975
:1048D000001026211820FEF7BCFD26202A4908607A
:1048E00018202A490860264829490978405C294946
:1048F0000870002028490870AFE028480078022896
:104900000DD101F0C3F92948007820B94FF4947013
:104910002749088003E04FF4C470254908801F48E8
:10492000007803280DD100F089FE2048007820B9D6
:104930004FF4A0701E49088003E04FF4D0701C496A
:1049400008801648007804280DD1FDF773FE17483B
:10495000007820B94FF4AC701549088003E04FF49B
:10496000DC70134908801148007828BB0120AFF2A1
:10497000EC331022002100900846FEF7E5F924E010
:10498000A4010020AB010020900100209401002030
:104990009A0100209B0100209E0100209801002028
:1049A000990100208C000020000494119D0100203A
:1049B000A2010020B30100200120AFF234431022F5
:1049C000002100900846FEF7BFF90522FD49FE4888
:1049D0000088FBF7CBFEFC4800880830FA490880C5
:1049E0000522FA49F8480088FBF7C0FEF64800881F
:1049F0000830F54908800522F549F3480088FBF79F
:104A0000B5FE012010210523EE4ACDE9001050200B
:104A1000FEF71FFD012010210523EC4ACDE900100F
:104A200020215020FEF715FD012010210523E84A22
:104A3000CDE9001030215020FEF70BFD1020E54994
:104A400008605020E4490860DE48E4490978405C89
:104A5000E34908700020E34908700020E14908702C
:104A6000E148007802287DD1E048007840BB012071
:104A70000090D8480178082320227120FEF79AF987
:104A8000D44800681030D3490860D4480078401CEE
:104A9000D24908700020D6490870CE4800684028E6
:104AA00005DD0420CB4908600020CC4908700020B7
:104AB0000090C8480178082320227120FEF77AF977
:104AC000CA480078012800D100E00020C7490978D1
:104AD000022901D1012100E000210843C3490978DE
:104AE000032901D1012100E000210843BF490978D1
:104AF000042901D1012100E00021084300287DD0D4
:104B00000120B44A00901178B34A10781023B44AB7
:104B10001278FEF74FF9AF480068102805D1B04869
:104B20000178A848AD4A12788154AA480068202824
:104B300005D1AB480178A548A84A12788154A54808
:104B40000068302805D1A6480078A149A34A127808
:104B50008854A148006808309F4908609F48007841
:104B6000401C00E0D3E29D4908700120A049087074
:104B70009E480078012861D19648006820280ED10F
:104B8000954800683F2818D193480068083092493A
:104B9000086092480078401C904908700DE08E48EB
:104BA0000068372809D18C48006808308A490860B5
:104BB0008A480078401C894908708748006857284F
:104BC00011DB2F2084490860824800681030814939
:104BD00008600020814908707E480068402802DB98
:104BE00010207C4908607B480068102805D1754872
:104BF0007A490978405C7A49087000E083E075489A
:104C00000068202805D1714874490978405C7449CE
:104C1000087070480068302805D16D486F490978E0
:104C2000405C6F49087001206A4A009011786A4A16
:104C3000107810236A4A1278FEF7BCF86B480078A7
:104C4000022801D1012000E00020684909780329E9
:104C500001D1012100E000210843644909780429B9
:104C600001D1012100E00021084318B35A4800682F
:104C7000582809D1584800680830574908605748F3
:104C80000078401C5549087053480068782811DBAB
:104C90005020514908604F48006810304D49086065
:104CA00000204E4908704B480068402802DB102065
:104CB0004849086047480068102805D141484749DD
:104CC0000978405C4649087042480068202805D1B0
:104CD0003E4842490978405C414908703D480068B7
:104CE000302805D13A483D490978405C3C49087074
:104CF0000120384A00901178374A10781023384A3A
:104D00001278FEF757F83948007805284AD1012073
:104D1000304A00901178304A10781023304A1278C7
:104D2000FEF748F82E48017826482C4A127881541C
:104D30002948006808302849086028480078401C45
:104D40002649087001202A49087023480068302845
:104D500009D12148006808301F4908601F480078C1
:104D6000401C1E49087017481C490978405C1C49C2
:104D700008701948006840280ADD182016490860A4
:104D80000020164908700F480978405C14490870E3
:104D90000120114900900878102311490A78262132
:104DA000FEF708F811480078062878D10120094A52
:104DB00000901178084A10781023094A1278FDF7FC
:104DC000F9FF17E0A4010020A2010020AB010020A0
:104DD000B301002090010020940100209A010020DE
:104DE0009B0100209E0100209F01002098010020CF
:104DF00099010020FB48006828B9FB480078FB496E
:104E0000FB4A12788854F7480068102805D1F64804
:104E10000078F849F64A12788854F2480068202849
:104E200005D1F1480078F449F14A12788854ED48E8
:104E30000068302805D1EC480178F048EC4A127837
:104E40008154EF4800680830ED490860E848007870
:104E5000401CE74908700120EA490870E1480068F1
:104E6000F0B9E3480078032809D1E5480068083024
:104E7000E3490860DE480078401CDD490870DC48E2
:104E8000007805285EDB4F20DD490860D5480068C2
:104E90001030D44908600020D549087052E083E002
:104EA000D0480068102801D1012000E00020D0493E
:104EB0000978042901D1012100E00021084048B10E
:104EC000CF4800680830CE490860C9480078401CC7
:104ED000C7490870C3480068202801D1012000E0BC
:104EE0000020C0490968302901D1012100E00021DA
:104EF0000843BF490978042901D1012100E00021BC
:104F0000084048B1BE4800680830BD490860B8484C
:104F10000078401CB6490870B548007806280ADBBE
:104F20004F20B7490860AF4800681030AD490860AD
:104F30000020AF490870AB480068402802DB002021
:104F4000A8490860A748006828B9A848A84909786E
:104F5000405CA5490870A3480068102805D1A54801
:104F6000A3490978405CA04908709E480068202841
:104F700005D1A1489E490978405C9B490870994831
:104F80000068302805D19D4899490978405C9649C8
:104F900008700120934A00901178994A10781023E4
:104FA000914A1278FDF706FF97480078072837D115
:104FB00001208C4A00901178914A107810238A4A77
:104FC0001278FDF7F7FE884800788A49884A1278F7
:104FD00088548B4800680830894908608448007804
:104FE000401C834908700120864908708048007879
:104FF000032805D12F208249086000207C490870D1
:105000007C487B490978405C7749087001207C49DD
:1050100000900878102374490A782621FDF7CAFE0B
:105020007948007808286ED101206E4A00901178E6
:10503000734A107810236C4A1278FDF7BBFE69485A
:105040000068202805D1684801786848684A1278C5
:10505000815464480068302805D163480078654968
:10506000634A1278885466480068083064490860CA
:105070005F480078401C5E49087001206149087053
:105080005B480078042809D15D48006808305C4915
:10509000086057480078401C55490870544800780B
:1050A00006280ADB4F20564908604E480068103039
:1050B0004C49086000204E4908704A480068402862
:1050C00002DB20204749086046480068202805D1B7
:1050D000464847490978405C4349087041480068A0
:1050E000302805D1434842490978405C3E49087060
:1050F00001203C4A00901178414A107810233A4A26
:105100001278FDF757FE4FF4967001F067FE3F48A6
:10511000007801282BD13C48007848BB0120009042
:1051200030480178082320227120FDF743FE2D48E6
:10513000006810302B4908602D480078401C2C492D
:10514000087000202F49087026480068402805DDB7
:1051500004202449086000202549087000200090A0
:1051600020480178082320227120FDF723FE6DE0FE
:1051700001202749087024480078082801D101201F
:1051800000E0002020490978062901D1012100E032
:105190000021084313490968102901D1012100E0C9
:1051A0000021104A1268202A01D1012200E00022C9
:1051B00011430C4A1268302A01D1012200E000227A
:1051C000114308400A49097809B9012100E000218A
:1051D000084018B3044800782B281BD12D20024921
:1051E000087026E0900100209B010020A40100200F
:1051F0009A010020AB010020B3010020B90100207A
:105200009401002099010020980100209F010020B6
:105210009E0100202B20204908700AE01E480078DB
:10522000401C1D490870084600783A2801DB3020F0
:105230000870012019490870194A00901178194A1C
:1052400010781023144A1278FDF7B4FD1348007843
:10525000012803D100201149087002E001200F4904
:1052600008701148007850B90C48007800900C483C
:105270000178082320227120FDF79CFD0BE00748F0
:105280000078074A00901178064A10781023024AE5
:105290001278FDF78FFD1CBD9B01002099010020B5
:1052A00090010020940100209801002010B50020FA
:1052B00008490870FEF71AFB7120074908600420AE
:1052C0000649086001200649087000200549087059
:1052D00010BD0000980100209401002090010020E2
:1052E000990100209A01002008B50020FEF702FC79
:1052F000012004A310220F2100901520FDF724FDAA
:1053000008BD0000CDA8D1B6B5D8D6B7A3BA000065
:105310001CB50020FEF7EEFB01201AA3102200218D
:1053200000900846FDF710FD012019A31022114638
:1053300000900020FDF708FD012018A31022202175
:1053400000901046FDF700FD012017A31022302128
:1053500000901046FDF7F8FC01201021022315A251
:10536000CDE9001020210020FEF773F80120102164
:10537000022310A2CDE9001030210020FEF769F8C9
:105380001CBD0000C1E3B5E3CEC2B6C8A3BA00009D
:10539000CEC2B6C8CFB5CAFDA3BA0000B6C8D2D433
:1053A000C9CFA3BA00000000B6C8D2D4CFC2A3BAF6
:1053B000000000003235000000B587B00121052053
:1053C000FEF71CFEA020ADF8040003208DF80600B7
:1053D00018208DF8070001A91B48FDF78DFA402021
:1053E000ADF8040048208DF8070003208DF8060072
:1053F00001A91548FDF780FA01210803FEF7FEFD1B
:105400000020ADF808004FF48270ADF80A000020CB
:10541000ADF80C00ADF80E00ADF810004FF40070C0
:10542000ADF812000020ADF81400ADF8160007200A
:10543000ADF8180002A9054800F016F8012103484C
:1054400000F006F807B000BD000801400030014040
:1054500021B1028842F04002028004E002884FF647
:10546000BF731A400280704710B50022028802F410
:1054700041520B884C8823438C882343CC88234398
:105480000C8923434C8923438C892343CC892343B0
:105490001A430280838B4FF2FF74234083830B8A6D
:1054A000038210BD024600BF108900F002000028F0
:1054B000FAD0918100BF108900F001000028FAD0D5
:1054C0009089C0B27047704710B500F001F810BD68
:1054D0000CB50020019000903348006840F4803003
:1054E0003149086000BF3048006800F40030009087
:1054F0000198401C0190009818B90198B0F5A06F70
:10550000F1D12948006800F4003010B1012000906A
:1055100001E0002000900098012843D12348006852
:1055200040F01000214908600846006820F00300A0
:1055300008600846006840F0020008601A484068A9
:10554000194948600846406848600846406840F489
:10555000806048600846406820F47C104860084637
:10556000406840F4E81048600846006840F08070E9
:10557000086000BF0C48006800F000700028F9D0F7
:105580000948406820F00300074948600846406821
:1055900040F00200486000BF0348406800F00C0083
:1055A0000828F9D10CBD0000001002400020024084
:1055B000042808D14FF0E021096941F004014FF0BF
:1055C000E022116107E04FF0E021096921F00401B8
:1055D0004FF0E022116170477047000010B513488A
:1055E000006840F001001149086008464068104911
:1055F00008400E494860084600680E4908400B49BB
:1056000008600846006820F480200860084640686A
:1056100020F4FE0048604FF41F008860FFF754FF3D
:105620004FF000600449086010BD00000010024007
:105630000000FFF8FFFFF6FE08ED00E01CB50020BB
:10564000FEF758FA012012A3102200210090104604
:10565000FDF77AFB01201021082311A2CDE90010EB
:105660000420FDF7F6FE0120102108230FA2CDE94A
:10567000001020210420FDF7ECFE0120102108235A
:105680000DA2CDE9001030210420FDF7E2FE1CBD83
:10569000CFF2D0DED5FDB2CECAFDA3BA0000000025
:1056A0003230257E3330253A000000003330257E2D
:1056B0003430253A000000003430257E3530253A5C
:1056C0000000000010B501211E4800F08CF80028F1
:1056D00037D001211B4800F077F801201A490870E3
:1056E0001A480078401C19490870084600780528B7
:1056F00005DB012016490870002014490870154880
:105700000078401C1349087008460078962805DB8D
:1057100001201149087000200E4908700F480078D8
:1057200078B10F480078032806DB01200D49087086
:1057300000200B49087004E009480078401C084923
:10574000087010BD00080040A3000020A600002043
:10575000A2000020A1000020A50000209E00002043
:10576000A0000020A40000207FB505460C460121C2
:105770000420FEF733FCADF80850ADF804400020DB
:10578000ADF80A00ADF8060001A90E4800F046F891
:10579000012211460B4800F037F81E208DF800005A
:1057A00000208DF8010002208DF8020001208DF804
:1057B00003006846FEF74AF90121024800F007F8A5
:1057C0007FBD000000080040CA430282704721B13B
:1057D000028842F00102028004E002884FF6FE7364
:1057E0001A400280704730B5024600200023002492
:1057F000158A05EA0103958905EA010413B10CB184
:10580000012000E0002030BD1AB183890B43838161
:1058100002E083898B438381704700000022028865
:105820001D4B98420ED01D4B98420BD0B0F1804FCB
:1058300008D01B4B984205D01A4B984202D01A4B05
:10584000984204D14FF68F731A404B881A43174B76
:10585000984207D0164B984204D04FF6FF431A40A7
:10586000CB881A4302808B8883850B8803850A4B7B
:1058700098420BD0094B984208D00E4B984205D065
:105880000D4B984202D00D4B984201D10B7A038602
:105890000123838270470000002C01400034014046
:1058A0000004004000080040000C004000100040D0
:1058B0000014004000400140004401400048014005
:1058C00010B50446012C18D1102000F0EBF8202070
:1058D00000F0E8F8202000F0E5F82F2000F0E2F8D2
:1058E000502000F0DFF8102000F0DCF8102000F06D
:1058F000D9F8722000F0D6F819E0022C17D1102048
:1059000000F0D0F8202000F0CDF8202000F0CAF8F8
:105910002F2000F0C7F8502000F0C4F8102000F04D
:10592000C1F8102000F0BEF84A2000F0BBF810BD0E
:10593000002001E0411C88B20528FBDB7047000015
:1059400010B51448007828B14FF480611248FDF773
:10595000B0F804E04FF400610F48FDF7AAF8012009
:1059600001F062FA00F01AF80446240200F016F87A
:105970000444240200F012F804444FF48061064805
:10598000FDF799F84FF400610348FDF794F82046BD
:1059900010BD0000D3010020000C014070B50024B0
:1059A00000251AE04FF400510E48FDF782F8FFF78A
:1059B000BFFF6006040E4FF480410A48FDF770F8FF
:1059C000012801D1601CC4B24FF400510548FDF715
:1059D00072F8FFF7ADFF681CC5B2082DE2DB204668
:1059E00070BD0000000C014070B5044600251FE0AA
:1059F00004F0800028B14FF400410F48FDF75BF838
:105A000004E04FF400410C48FDF753F84FF4005107
:105A10000948FDF74EF86006040EFFF789FF4FF4C2
:105A200000510548FDF747F8FFF782FF681CC5B233
:105A3000082DDDDB70BD0000000C014010B5002416
:105A400013E01348007838B14FF480711148FDF726
:105A500027F848B9012010BD4FF400710D48FDF73B
:105A60001FF808B90120F6E7641C0B488442E8D30C
:105A700084420BD300200949087000F0E5FD084876
:105A80000078401C064908700020E4E700BFE2E708
:105A9000D3010020000C014070110100D101002051
:105AA000D201002010B504460D48007828B14FF40B
:105AB00080610C48FCF7FDFF04E04FF400610948E9
:105AC000FCF7F7FF2046FFF78FFF4FF40061054812
:105AD000FCF7F1FF4FF480610248FCF7ECFF10BDCA
