:020000040800F2
:10000000D00C00200D020008AD3B00084736000868
:10001000A93B0008A10B0008516300080000000084
:10002000000000000000000000000000EF58000881
:10003000FD2000080000000029410008015A0008C6
:1000400027020008D1400008270200082702000804
:1000500027020008270200082702000801210008E3
:1000600027020008270200082702000827020008CC
:1000700027020008270200082702000827020008BC
:1000800027020008270200082702000827020008AC
:10009000270200082702000827020008270200089C
:1000A000270200082702000827020008270200088C
:1000B0002702000827020008ED5A0008270200085E
:1000C000270200082702000827020008270200086C
:1000D000270200081561000827020008270200080F
:1000E000270200082702000827020008270200084C
:1000F000270200082702000827020008270200083C
:10010000270200082702000827020008270200082B
:10011000270200082702000827020008270200081B
:10012000270200082702000827020008270200080B
:1001300000F002F800F05AF80AA090E8000C82449F
:100140008344AAF10107DA4501D100F04FF8AFF27C
:10015000090EBAE80F0013F0010F18BFFB1A43F0A5
:10016000010318474CB100006CB100000A444FF085
:10017000000C10F8013B13F0070408BF10F8014B06
:100180001D1108BF10F8015B641E05D010F8016B4B
:10019000641E01F8016BF9D113F0080F1EBF10F8AF
:1001A000014BAD1C0C1B09D16D1E58BF01F801CBD2
:1001B000FAD505E014F8016B01F8016B6D1EF9D555
:1001C0009142D6D37047000000230024002500266A
:1001D000103A28BF78C1FBD8520728BF30C148BFAA
:1001E0000B6070471FB51FBD10B510BD00F098F82B
:1001F0001146FFF7F7FF07F079F900F0B6F803B4FE
:10020000FFF7F2FF03BC07F0B3F80000094880478E
:1002100009480047FEE7FEE7FEE7FEE7FEE7FEE7E8
:10022000FEE7FEE7FEE7FEE704480549054A064B00
:1002300070470000055A000831010008D006002070
:10024000D00C0020D0080020D0080020704702F019
:10025000FF0343EA032242EA024200F002B84FF0F1
:1002600000020429C0F0128010F0030C00F02A8074
:10027000CCF1040CBCF1020F18BF00F8012BA8BF91
:1002800020F8022BA1EB0C0100F01CB85FEAC17C46
:1002900024BF00F8012B00F8012B48BF00F8012B08
:1002A0007047704770477047704710B500F030F8DE
:1002B000006810BD10B5044600F02AF8046010BDB7
:1002C0004FF0000200B5134694469646203922BFEF
:1002D000A0E80C50A0E80C50B1F12001BFF4F7AF3A
:1002E000090728BFA0E80C5048BF0CC05DF804EB1C
:1002F000890028BF40F8042B08BF704748BF20F88A
:10030000022B11F0804F18BF00F8012B704700003E
:10031000004870476C060020004870476C060020BB
:100320007546FFF7F9FFAE4605006946534620F0D3
:100330000700854618B020B5FFF776FFBDE82040DE
:100340004FF000064FF000074FF000084FF0000B91
:1003500021F00701AC46ACE8C009ACE8C009ACE844
:10036000C009ACE8C0098D4670470446AFF3008071
:100370002046FFF744FF00001CB503F08DF9002074
:10038000FE490860022007F065F8042269469001E2
:1003900000F032FA9DF80000382801D0012000E07A
:1003A00000209DF80110362901D0012100E0002134
:1003B00008439DF802104F2901D0012100E00021DF
:1003C00008439DF803104B2901D0012100E00021D2
:1003D000084300287DD038208DF8000036208DF8A5
:1003E00001004F208DF802004B208DF803000422FD
:1003F0006946900100F038FA30208DF800008DF841
:1004000001008DF80200032269464FF4847000F069
:100410002BFA30208DF800008DF801002E208DF889
:10042000020030208DF803008DF804008DF80500DF
:10043000062269464FF4887000F016FA06226946D3
:100440004FF4B87000F010FA30208DF801002E2023
:100450008DF80200052269464FF48C7000F004FA12
:10046000052269464FF4BC7000F0FEF931208DF88A
:1004700000002E208DF8010030208DF802008DF84C
:1004800003008DF804008DF805008DF806000522A4
:1004900069464FF4907000F0E7F9052269464FF481
:1004A000C07000F0E1F9052269464FF4947000F045
:1004B000DBF9052269464FF4987000F0D5F9052262
:1004C00069464FF49C7000F0CFF90522694690010F
:1004D00000E03DE100F0C8F9052269464FF4A47040
:1004E00000F0C2F9052269464FF4A87000F0BCF98B
:1004F000052269464FF4AC7000F0B6F90522694652
:100500004FF4B07000F0B0F9052269464FF4B470B2
:1005100000F0AAF9052269464FF4C47000F0A4F96E
:10052000052269464FF4C87000F09EF9052269461D
:100530004FF4CC7000F098F9052269464FF4D07062
:1005400000F092F9052269464FF4D47000F08CF95E
:10055000052269464FF4D87000F086F905226946F5
:100560004FF4DC7000F080F9052269464FF4E0702A
:1005700000F07AF9052269464FF4E47000F074F94E
:1005800020208DF8000030208DF801008DF8020049
:100590008DF803008DF8040005226946502000F014
:1005A00063F920208DF8000030208DF801008DF8CF
:1005B00002002E208DF8030030208DF80400052263
:1005C0006946582000F050F920208DF800003020B6
:1005D0008DF801008DF802002E208DF803003020E8
:1005E0008DF8040006226946602000F03DF90622DD
:1005F0006946682000F038F906226946702000F04C
:1006000033F906226946782000F02EF930208DF863
:10061000000036208DF8010033208DF802003420D0
:100620008DF803008DF8040030208DF805008DF85A
:1006300006008DF8070008226946802000F014F9B2
:1006400030208DF800008DF801008DF80200382070
:100650008DF8030030208DF804008DF805008DF82A
:1006600006008DF8070008226946882000F0FCF893
:1006700020208DF8000030208DF801008DF8020058
:100680008DF803008DF804008DF805008DF8060044
:100690008DF8070008226946902000F0E5F8322026
:1006A0008DF8000030208DF801008DF802008DF8E3
:1006B00004002E208DF8030030208DF805008DF801
:1006C0000600062269464FF4E87000F0CDF80622D5
:1006D00069464FF4EC7000F0C7F830208DF8000048
:1006E0008DF801008DF802008DF803008DF80400EC
:1006F0008DF805002E208DF8060030208DF80700BB
:10070000082269464FF4F07000F0AEF808226946FE
:10071000900100F0A9F830208DF800008DF801005C
:100720008DF802008DF803008DF804008DF80500A7
:100730008DF806008DF80700082269464FF4F8701E
:1007400000F092F8082269464FF4027000F08CF82D
:10075000022006F07FFE032269464FF4847000F009
:100760004BF89DF800003038642148439DF8011093
:10077000303901EB810100EB410101E0948121421C
:100780009DF80200303808441549086008460068A2
:10079000FF2801D9FF20086011480068114908446A
:1007A0000F4908604FF4F8726946042000F094F88D
:1007B0000D49086008460068000108600846008886
:1007C00000F5027082B20949082000F085F8084956
:1007D000086000F0AFF80120064908601CBD000069
:1007E000A400002000049411E0010020D4010020A6
:1007F000DC010020948121422DE9F04104460E469F
:10080000154602F0E5FFA02002F0B2FF03F03AF82F
:10081000201202F0ADFF03F035F82746E11704EB94
:1008200011610912A4EB0121C8B202F0A1FF03F08B
:1008300029F802F0CDFFA12002F09AFF02F006FF96
:1008400009E0691EC8B202F067FF3070681E85B209
:10085000601C84B2761C002DF3D102F0E7FF0A2061
:1008600006F0F8FDBDE8F0812DE9F04104460D46A3
:10087000164600201749086002F0AAFFA02002F0E7
:1008800077FF02F0FFFF201202F072FF02F0FAFF82
:100890002746E11704EB11610912A4EB0121C8B24C
:1008A00002F066FF02F0EEFF07E0287802F060FF3A
:1008B00002F0E8FF701E86B26D1C002EF5D102F02A
:1008C000B5FF0120034908600A2006F0C3FDBDE81A
:1008D000F0810000948121422DE9F04704460D4645
:1008E00017464FF0000900264FF00108224629461E
:1008F0003846FFF781FF13E0601E285C3A280DDCC4
:10090000601E285C302809DB601E285C303800FB44
:1009100008F908EB88004FEA40084E44601EC4B254
:10092000002CE9DC28782D2801D1F043461C304604
:10093000BDE8F0871CB5902269460820FFF7CCFF80
:1009400085490860802269460820FFF7C5FF834972
:100950000860882269460820FFF7BEFF80490860CA
:10096000602269460520FFF7B7FF00B27D49088085
:10097000682269460520FFF7AFFF00B27A49088078
:10098000582269460520FFF7A7FF00B27749088083
:10099000502269460520FFF79FFF00B27449088086
:1009A0004FF4887269460620FFF796FF7149088068
:1009B0004FF48C7269460520FFF78EFF6E49088060
:1009C0004FF4E87269460620FFF786FF6B4908601E
:1009D0004FF4907269460520FFF77EFF6849088052
:1009E0004FF4947269460520FFF776FF644948800A
:1009F0004FF4987269460520FFF76EFF60498880C2
:100A00004FF49C7269460520FFF766FF5C49C88079
:100A10004FF4A07269460520FFF75EFF5849088130
:100A20004FF4A47269460520FFF756FF54494881E8
:100A30004FF4A87269460520FFF74EFF50498881A0
:100A40004FF4AC7269460520FFF746FF4C49C88158
:100A50004FF4B07269460520FFF73EFF484908820F
:100A60004FF4B47269460520FFF736FF44494882C7
:100A70004FF4B87269460620FFF72EFF41490880FF
:100A80004FF4BC7269460520FFF726FF3E490880F7
:100A90004FF4EC7269460620FFF71EFF3B490860E1
:100AA0004FF4C07269460520FFF716FF38490880E9
:100AB0004FF4C47269460520FFF70EFF34494880A1
:100AC0004FF4C87269460520FFF706FF3049888059
:100AD0004FF4CC7269460520FFF7FEFE2C49C88012
:100AE0004FF4D07269460520FFF7F6FE28490881C9
:100AF0004FF4D47269460520FFF7EEFE2449488181
:100B00004FF4D87269460520FFF7E6FE2049888138
:100B10004FF4DC7269460520FFF7DEFE1C49C881F0
:100B20004FF4E07269460520FFF7D6FE18490882A7
:100B30004FF4E47269460520FFF7CEFE144948825F
:100B40001448008800F5007082B213490820FFF7AE
:100B5000C3FE124908601CBD7C0000207400002008
:100B600078000020680000206A0000206600002055
:100B7000640000205C000020600000206C00002069
:100B80001C0200205E000020620000207000002097
:100B900030020020E001002023000020440000205B
:100BA00000BFFEE71FB501F0CFF8062202A94FF4FF
:100BB000E870FFF721FE5A208DF8000053208DF8D1
:100BC00001009DF808008DF802009DF809008DF8DD
:100BD00003009DF80A008DF804009DF80B008DF8C5
:100BE00005009DF80C008DF806009DF80D008DF8AD
:100BF000070008226946FE48006801F041FA3220E9
:100C000006F028FC062202A94FF4EC70FFF7F4FD71
:100C100046208DF8000053208DF801009DF8080053
:100C20008DF802009DF809008DF803009DF80A0078
:100C30008DF804009DF80B008DF805009DF80C0060
:100C40008DF806009DF80D008DF807000822694612
:100C5000E748006801F014FA322006F0FBFB052299
:100C600002A94FF48870FFF7C7FD5A208DF80000E5
:100C70004C208DF801009DF808008DF802009DF8C9
:100C800009008DF803009DF80A008DF804009DF816
:100C90000B008DF805009DF80C008DF80600202053
:100CA0008DF8070008226946D148006801F0E8F98C
:100CB000322006F0CFFB052202A94FF4B870FFF7EF
:100CC0009BFD46208DF800004C208DF801009DF81A
:100CD00008008DF802009DF809008DF803009DF8CA
:100CE0000A008DF804009DF80B008DF805009DF8B2
:100CF0000C008DF8060020208DF8070008226946B8
:100D0000BB48006801F0BCF9322006F0A3FB0522C5
:100D100002A94FF48C70FFF76FFD5A208DF8000088
:100D200051208DF801009DF808008DF802009DF813
:100D300009008DF803009DF80A008DF804009DF865
:100D40000B008DF805009DF80C008DF806000822B8
:100D50006946A748006801F093F9322006F07AFB53
:100D6000062202A94FF4BC70FFF746FD46208DF81D
:100D7000000051208DF801009DF808008DF8020058
:100D80009DF809008DF803009DF80A008DF8040015
:100D90009DF80B008DF805009DF80C008DF80600FD
:100DA000082269469248006801F06AF9322006F08C
:100DB00051FB052202A94FF49070FFF71DFD5A2048
:100DC0008DF8000030208DF801009DF808008DF8A6
:100DD00002009DF809008DF803009DF80A008DF8C7
:100DE00004009DF80B008DF805009DF80C008DF8AF
:100DF0000600082269467E48006801F041F9322069
:100E000006F028FB052202A94FF4C070FFF7F4FC9E
:100E100046208DF8000030208DF801009DF8080074
:100E20008DF802009DF809008DF803009DF80A0076
:100E30008DF804009DF80B008DF805009DF80C005E
:100E40008DF80600082269466948006801F018F923
:100E5000322006F0FFFA052202A94FF49470FFF742
:100E6000CBFC5A208DF8000031208DF801009DF850
:100E700008008DF802009DF809008DF803009DF828
:100E80000A008DF804009DF80B008DF805009DF810
:100E90000C008DF80600082269465548006801F0EC
:100EA000EFF8322006F0D6FA052202A94FF4C470FA
:100EB000FFF7A2FC46208DF8000031208DF80100DC
:100EC0009DF808008DF802009DF809008DF80300D8
:100ED0009DF80A008DF804009DF80B008DF80500C0
:100EE0009DF80C008DF8060008226946404800680D
:100EF00001F0C6F8322006F0ADFA052202A94FF43F
:100F00009870FFF779FC5A208DF8000032208DF898
:100F100001009DF808008DF802009DF809008DF889
:100F200003009DF80A008DF804009DF80B008DF871
:100F300005009DF80C008DF80600082269462C4833
:100F4000006801F09DF8322006F084FA052202A91B
:100F50004FF4C870FFF750FC46208DF80000322097
:100F60008DF801009DF808008DF802009DF8090039
:100F70008DF803009DF80A008DF804009DF80B0021
:100F80008DF805009DF80C008DF8060008226946D2
:100F90001748006801F074F8322006F05BFA052269
:100FA00002A94FF49C70FFF727FC5A208DF800002F
:100FB00033208DF801009DF808008DF802009DF89F
:100FC00009008DF803009DF80A008DF804009DF8D3
:100FD0000B008DF805009DF80C008DF80600082226
:100FE00069460348006801F04BF8322002E0000037
:100FF000A400002006F02EFA052202A94FF4CC70BE
:10100000FFF7FAFB46208DF8000033208DF8010031
:101010009DF808008DF802009DF809008DF8030086
:101020009DF80A008DF804009DF80B008DF805006E
:101030009DF80C008DF8060008226946FE480068FD
:1010400001F01EF8322006F005FA052202A99001EF
:10105000FFF7D2FB5A208DF8000034208DF80100F4
:101060009DF808008DF802009DF809008DF8030036
:101070009DF80A008DF804009DF80B008DF805001E
:101080009DF80C008DF8060008226946EA480068C1
:1010900000F0F6FF322006F0DDF9052202A94FF438
:1010A000D070FFF7A9FB46208DF8000034208DF8A2
:1010B00001009DF808008DF802009DF809008DF8E8
:1010C00003009DF80A008DF804009DF80B008DF8D0
:1010D00005009DF80C008DF8060008226946D648E8
:1010E000006800F0CDFF322006F0B4F9052202A915
:1010F0004FF4A470FFF780FB5A208DF800003520D4
:101100008DF801009DF808008DF802009DF8090097
:101110008DF803009DF80A008DF804009DF80B007F
:101120008DF805009DF80C008DF806000822694630
:10113000C148006800F0A4FF322006F08BF90522B8
:1011400002A94FF4D470FFF757FB46208DF800003A
:1011500035208DF801009DF808008DF802009DF8FB
:1011600009008DF803009DF80A008DF804009DF831
:101170000B008DF805009DF80C008DF80600082284
:101180006946AD48006800F07BFF322006F062F946
:10119000052202A94FF4A870FFF72EFB5A208DF804
:1011A000000036208DF801009DF808008DF802003F
:1011B0009DF809008DF803009DF80A008DF80400E1
:1011C0009DF80B008DF805009DF80C008DF80600C9
:1011D000082269469848006800F052FF322006F065
:1011E00039F9052202A94FF4D870FFF705FB462014
:1011F0008DF8000036208DF801009DF808008DF86C
:1012000002009DF809008DF803009DF80A008DF892
:1012100004009DF80B008DF805009DF80C008DF87A
:101220000600082269468448006800F029FF322041
:1012300006F010F9052202A94FF4AC70FFF7DCFAB2
:101240005A208DF8000037208DF801009DF8080025
:101250008DF802009DF809008DF803009DF80A0042
:101260008DF804009DF80B008DF805009DF80C002A
:101270008DF80600082269466F48006800F000FFFC
:10128000322006F0E7F8052202A94FF4DC70FFF7E0
:10129000B3FA46208DF8000037208DF801009DF844
:1012A00008008DF802009DF809008DF803009DF8F4
:1012B0000A008DF804009DF80B008DF805009DF8DC
:1012C0000C008DF80600082269465B48006800F0B3
:1012D000D7FE322006F0BEF8052202A94FF4B07006
:1012E000FFF78AFA5A208DF8000038208DF80100A7
:1012F0009DF808008DF802009DF809008DF80300A4
:101300009DF80A008DF804009DF80B008DF805008B
:101310009DF80C008DF806000822694646480068D2
:1013200000F0AEFE322006F095F8082202A94FF434
:10133000E070FFF761FA46208DF8000038208DF844
:1013400001009DF808008DF802009DF809008DF855
:1013500003009DF80A008DF804009DF80B008DF83D
:1013600005009DF80C008DF80600082269463248F9
:10137000006800F085FE322006F06CF8052202A914
:101380004FF4B470FFF738FA5A208DF80000392076
:101390008DF801009DF808008DF802009DF8090005
:1013A0008DF803009DF80A008DF804009DF80B00ED
:1013B0008DF805009DF80C008DF80600082269469E
:1013C0001D48006800F05CFE322006F043F805225C
:1013D00002A94FF4E470FFF70FFA46208DF80000E1
:1013E00039208DF801009DF808008DF802009DF865
:1013F00009008DF803009DF80A008DF804009DF89F
:101400000B008DF805009DF80C008DF806000822F1
:1014100069460948006800F033FE322006F01AF8E9
:10142000042202A95020FFF7E7F957208DF80000A9
:101430004B208DF8010001E0A40000209DF8080079
:101440008DF802002E208DF803009DF80A008DF81B
:1014500004009DF80B008DF805009DF80C008DF838
:10146000060030208DF8070020208DF807000822A4
:1014700069466E48006800F003FE322005F0EAFF7E
:10148000062202A95820FFF7B7F957208DF800006F
:1014900042208DF801009DF808008DF802002E20F2
:1014A0008DF805009DF809008DF803009DF80A00ED
:1014B0008DF804009DF80C008DF806009DF80D00D5
:1014C0008DF80700082269465848006800F0D8FDEA
:1014D000322005F0BFFF062202A96020FFF78CF939
:1014E0005A208DF8000057208DF801009DF8080063
:1014F0008DF802002E208DF806009DF809008DF869
:1015000003009DF80A008DF804009DF80B008DF88B
:1015100005009DF80D008DF8070008226946434834
:10152000006800F0ADFD322005F094FF062202A90C
:101530006820FFF761F946208DF8000057208DF8EC
:1015400001009DF808008DF802002E208DF806009D
:101550009DF809008DF803009DF80A008DF804003D
:101560009DF80B008DF805009DF80D008DF8070023
:10157000082269462D48006800F082FD322005F0FF
:1015800069FF062202A97020FFF736F95A208DF86C
:1015900000004A208DF801009DF808008DF8020037
:1015A0002E208DF806009DF809008DF803009DF8A7
:1015B0000A008DF804009DF80B008DF805009DF8D9
:1015C0000D008DF80700082269461848006800F0F1
:1015D00057FD322005F03EFF062202A97820FFF7D2
:1015E0000BF946208DF800004A208DF801009DF887
:1015F00008008DF802002E208DF806009DF80900E5
:101600008DF803009DF80A008DF804009DF80B008A
:101610008DF805009DF80D008DF807000822694639
:101620000248006800F02CFD1FBD0000A40000204F
:1016300010B50021837A012202FA03F13D4A1268B3
:1016400042F001023B4B1A603A4A1C3212688A434C
:10165000384B1C331A60027BCAB9364A0C32126806
:101660008A43344B0C331A604288C38842EA0343EE
:10167000304A4032847A42F834300288838842EA21
:1016800003432C4A4032847A02EBC4025360027B4B
:10169000012A19D1274A0C3212680A43254B0C3310
:1016A0001A604288038842EA0343224A4032847A1D
:1016B00042F83430C288838842EA03431D4A4032EC
:1016C000847A02EBC4025360C27A3AB9194A121DF5
:1016D00012688A43174B1B1D1A6006E0154A121D3B
:1016E00012680A43134B1B1D1A60028932B9114A52
:1016F000143212688A430F4B14331A600289012A8C
:1017000006D10C4A143212680A430A4B14331A6089
:10171000427B012A06D1074A1C3212680A43054B54
:101720001C331A60034A126822F00102014B1A604E
:1017300010BD00000066004030B5024600200023C6
:10174000146824F002041460146844F00104146066
:1017500000E05B1C546804F001041CB94FF6FF74F0
:10176000A342F6D1546804F001040CB900206CE0E7
:101770008C79012C04D1146844F08004146003E0D7
:10178000146824F080041460CC79012C04D114680E
:1017900044F04004146003E0146824F04004146032
:1017A0000C7A012C04D1146844F02004146003E086
:1017B000146824F0200414604C7A012C04D11468BD
:1017C00044F01004146003E0146824F01004146062
:1017D0008C7A012C04D1146844F00804146003E0EE
:1017E000146824F008041460CC7A012C04D1146825
:1017F00044F00404146003E0146824F0040414604A
:101800008C78A407CD7844EA05640D7944EA054450
:101810004D7944EA05540D886D1E2C43D46114683B
:1018200024F001041460002300E05B1C546804F001
:1018300001041CB14FF6FF74A342F6D1546804F0C2
:1018400001040CB1002000E0012030BD0246002060
:1018500019B9D36803F0030006E0012903D1136925
:1018600003F0030000E00020704700002DE9F04184
:1018700088B004460D4616461F46DDF83880012123
:10188000042002F0E3FC0121480602F0CFFC4FF4F3
:101890008050ADF81C0003208DF81E0018208DF834
:1018A0001F0007A9234801F0F3F84FF40060ADF8DA
:1018B0001C0048208DF81F0007A91E4801F0E8F819
:1018C00000208DF816008DF817008DF81800012003
:1018D0008DF8190000208DF81A008DF81B008DF886
:1018E00012808DF813408DF814608DF81550ADF806
:1018F000107004A91048FFF71FFF00208DF80A00A0
:101900008DF80B0001208DF80C000020ADF80000D0
:10191000ADF80200ADF80400ADF80600ADF808001F
:1019200001208DF80D006846FFF782FE08B0BDE883
:10193000F0810000000801400064004010B500F58F
:10194000D87303EB01131B6803F004031372137ABB
:1019500053B900F5D87303EB01131B6840F2FF7411
:1019600004EA5353136009E000F5D87303EB011345
:101970001B686FF0604404EAD303536000F5D8732A
:1019800003EB01131B6803F00203537200F5D873D5
:1019900003EB01135B6803F00F03937200F5D87338
:1019A00003EB01135B681B0AD37400F5D87303EBD8
:1019B00001139B68D37200F5D87303EB01139B6886
:1019C0001C0A147300F5D87303EB01139B681C0CFD
:1019D000547300F5D87303EB01139B681B0E9373CC
:1019E00000F5D87303EB0113DB68D37300F5D873EC
:1019F00003EB0113DB681C0A147400F5D87303EBC6
:101A00000113DB681C0C547400F5D87303EB01134D
:101A1000DB681B0E937421B9C36843F02003C360D5
:101A200003E0036943F02003036110BD1CB50024EB
:101A300006E0C049A01C085C0DF80400601CC4B29C
:101A4000072CF6DBBC48007801281CD1B948007887
:101A5000532801D1012000E00020B64949785429DB
:101A600001D1012100E000210840002806D0B14842
:101A700080784F2803D10020B04908703CE1012054
:101A8000AE49087038E1AC4800780228F6D1A94880
:101A900000785A2872D1A7484078372859D009DCF5
:101AA000A0F1300007287ED2DFE800F0232A313889
:101AB0003F454C004C280ED006DC382850D0392841
:101AC00055D04A286FD162E051280BD0532857D007
:101AD000572868D161E0052269464FF48870FEF707
:101AE000C3FE61E0052269464FF48C70FEF7BCFE30
:101AF0005AE0052269464FF49070FEF7B5FE53E0B8
:101B0000052269464FF49470FEF7AEFE4CE00522C4
:101B100069464FF49870FEF7A7FE45E00522694636
:101B20004FF49C70FEF7A0FE3EE00522694690014E
:101B3000FEF79AFE38E0052269464FF4A470FEF7DE
:101B400093FE31E0052269464FF4A870FEF78CFE43
:101B50002AE0052269464FF4AC70FEF785FE23E0CB
:101B6000052269464FF4B070FEF77EFE1CE00522A8
:101B700069464FF4B470FEF777FE15E015E012E009
:101B8000052269464FF4E870FEF76EFE0CE006226F
:101B900069467020FEF768FE06E00622694660206E
:101BA000FEF762FE00E000BF00BF624800784628F2
:101BB00073D16048407837285AD009DCA0F1300052
:101BC00007287FD2DFE800F0232A31383F464D0056
:101BD0004C280ED006DC382851D0392856D04A2857
:101BE00070D163E051280BD0532858D0572869D1C1
:101BF00062E0052269464FF4B870FEF735FE62E0F8
:101C0000052269464FF4BC70FEF72EFE5BE005220C
:101C100069464FF4C070FEF727FE54E0052269467E
:101C20004FF4C470FEF720FE4DE0052269464FF4E4
:101C3000C870FEF719FE46E0052269464FF4CC70E5
:101C4000FEF712FE3FE0052269464FF4D070FEF722
:101C50000BFE38E0052269464FF4D470FEF704FE0F
:101C600031E0052269464FF4D870FEF7FDFD2AE009
:101C7000052269464FF4DC70FEF7F6FD23E00522ED
:101C800069464FF4E070FEF7EFFD1CE0052269465F
:101C90004FF4E470FEF7E8FD15E015E012E00522D0
:101CA00069464FF4EC70FEF7DFFD0CE00622694652
:101CB0007820FEF7D9FD06E0062269466820FEF787
:101CC000D3FD00E000BF00BF1A480078572813D1A9
:101CD00018484078422807D04B280BD10422694687
:101CE0005020FEF7C1FD06E0052269465820FEF7A8
:101CF000BBFD00E000BF00BF0E4800784C2817D1A4
:101D0000002404E030200DF80400601CC4B2082C4C
:101D1000F8DB2E208DF806000949098801F50071CD
:101D200088B208226946FEF79FFD00200549086039
:101D30001CBD00008100002089000020B7000020A9
:101D4000E0010020440000201CB50024002001F028
:101D5000A5FF00BF0120102103461DA2CDE9001000
:101D60000A21204601F027FC04F10800C4B2802CAF
:101D7000F0DB01201021034615A2CDE900101E2141
:101D8000002001F018FC012012A310221E21009057
:101D9000104601F0A5F80120102103460CA2CDE960
:101DA00000101E21782001F006FC002400BF012055
:101DB0001021034606A2CDE900103221204601F091
:101DC000FAFB04F10800C4B2802CF0DB1CBD00005B
:101DD0002A000000D5FDD4DAC9E8D6C3B2CECAFDC8
:101DE0000000000010B502460020936803F08063F5
:101DF000B3F1806F00D110E0936803F00063B3F19A
:101E0000006F01D1012008E0936803F08053B3F123
:101E1000805F01D1022000E00420042874D002F584
:101E2000C07303EB00131B6803F0010402F5C073D9
:101E300003EB00131C600B7A7BB94B7A0C8843EAE6
:101E4000445302F5C07404EB00142468234302F5E4
:101E5000C07404EB0014236010E00B7A4C6843EA72
:101E6000C4034C7A234302F5C07404EB00142468C5
:101E7000234302F5C07404EB001423608B7A03F053
:101E80000F038B7202F5C07303EB00135B6823F042
:101E90000F0402F5C07303EB00135C6002F5C0731E
:101EA00003EB00135B688C7A234302F5C07404EBE8
:101EB000001463608B7B1C064B7B44EA03440B7B62
:101EC00044EA0323CC7A234302F5C07404EB0014E4
:101ED000A3608B7C1C064B7C44EA03440B7C44EAE5
:101EE0000323CC7B234302F5C07404EB0014E360AE
:101EF00002F5C07303EB00131B6843F0010402F505
:101F0000C07303EB00131C6010BD000010B5024647
:101F1000002321B1012907D002290FD109E09068DF
:101F20001D4C00EA04030BE090681C4C00EA04031B
:101F300006E090681A4C00EA040301E0002300BFA9
:101F400000BF184C181BA34216D007DC83B16FF0FA
:101F50008060184470B1022818D111E0B0F5007FFC
:101F600010D0114C204448B1B0F5003F0ED10BE029
:101F700002230DE000230BE0002309E0002307E02B
:101F8000012305E0012303E0012301E0002300BF5A
:101F900000BFD8B210BD0000030000040003000819
:101FA00000000310000100080001FFF73EB51D48C6
:101FB00000681D4909880844002818DB1948008872
:101FC0001949098808441849088001A800230322F8
:101FD000062100901448008801F0E9FD0DF1050488
:101FE000062221464FF48870FEF73EFC19E00D48AA
:101FF0000088C043401C0D49098808440B490880EB
:1020000001A800230322062100900848008801F05F
:10201000CEFD0DF10504062221464FF4B870FEF7FF
:1020200023FC3EBD4C0000205C0000205E00002030
:1020300030B585B0054600210F48FFF707FC10B901
:10204000002005B030BD6A4600210B48FFF776FC42
:102050000A490198096888420BD1002404E00DF177
:102060000B00005D2855641C082CF8D39DF80A006D
:10207000E7E70020E5E7000000640040A40000203E
:102080002DE9F04186B005468846164600240195A4
:10209000029504208DF80C0000208DF80D008DF8BD
:1020A0000E6000BF06E018F804100DF10F00015596
:1020B000601C84B2B442F6DB01A90E48FFF792FE21
:1020C0000746002401E0601C84B239460948FFF746
:1020D0001DFF18B940F6FF708442F4DB0648006823
:1020E00008B9012000E000200349086006B0BDE8FF
:1020F000F081000000640040B401224270470000FB
:102100000C48006820F080000A49086011E04FF494
:102110000051094800F099FD40F6B83005F09AF9F1
:102120004FF40051044800F092FD40F6B83005F03D
:1021300091F9ECE700040140001001400146002045
:102140000022074B1B6803EA0102054B14331B688E
:102150000B4013B10AB1012000E0002070470000DD
:10216000000401401CB5002001F098FD012025A3CA
:10217000102203210090002000F0B2FE012023A3D2
:10218000102218210090002000F0AAFE012021A3B7
:1021900010222D210090002000F0A2FE012010212D
:1021A00003231EA2CDE900101946642001F003FAB2
:1021B0000120082103461AA2CDE9001003216C205A
:1021C00001F0F9F901201021034616A2CDE9001013
:1021D0001821702001F0EFF901200821034610A218
:1021E000CDE900101821782001F0E5F90120102137
:1021F00003230DA2CDE900102D21682001F0DBF9A9
:102200001CBD0000C1F7C1BF00000000C0DBBCC6A0
:1022100000000000B2EED1B9000000006D2F680090
:10222000330000006D0000004B5061001CB5002021
:1022300001F034FDFD4890F900001E2869DA012004
:102240003A237F2205210090002000F05AFD012052
:102250003A233F2205210090104600F0FAFC0120AD
:1022600020237F2219460090002000F0F2FC01207C
:10227000EFA3102200210090104600F031FE012053
:10228000EDA31022002100904E2000F029FE012035
:10229000EBA3102230210090052000F021FE012048
:1022A000E9A3102230210090462000F019FE012001
:1022B00010210346E6A2CDE900100E21342001F0E2
:1022C0007AF9012010210223E2A2CDE900106B204F
:1022D00001F071F9012010210323DFA2CDE90010E4
:1022E0003021252001F067F9012008210346DBA2F7
:1022F000CDE9001030212D2001F05DF901201021E1
:102300000223D4A2CDE900103021692001F053F955
:1023100022E201203F237F2200210090084600F0A6
:10232000F0FCCF4890F90040062C0FDA002C0DDBB2
:1023300001200821CDE9001004EB84004000C01CFE
:10234000C1B20C23C7A2022001F035F9062C13DA22
:10235000002C11DB01200821CDE900102046621C71
:1023600054B200EB80004000C01CC1B20123C1A2E6
:102370006E2001F020F901E0601C44B2062C0FDA57
:10238000002C0DDB01200821CDE9001004EB8400B6
:102390004000C01CC1B20B23B7A2082001F00BF90A
:1023A000062C13DA002C11DB01200821CDE90010E6
:1023B0002046621C54B200EB80004000C01CC1B239
:1023C0000223A4A26E2001F0F6F801E0601C44B2E2
:1023D000062C13DA002C11DB01200821CDE90010B6
:1023E0002046621C54B200EB80004000C01CC1B209
:1023F0000923A4A2142001F0DEF801E0601C44B21D
:10240000062C13DA002C11DB01200821CDE9001085
:102410002046621C54B200EB80004000C01CC1B2D8
:102420000B239BA2082001F0C6F801E0601C44B217
:10243000062C13DA002C11DB01200821CDE9001055
:102440002046621C54B200EB80004000C01CC1B2A8
:10245000082392A21A2001F0AEF801E0601C44B2F9
:10246000062C13DA002C11DB01200821CDE9001025
:102470002046621C54B200EB80004000C01CC1B278
:102480000B2389A2082001F096F801E0601C44B2F9
:10249000062C13DA002C11DB01200821CDE90010F5
:1024A0002046621C54B200EB80004000C01CC1B248
:1024B0000B2380A2082001F07EF801E0601C44B2EA
:1024C000062C13DA002C11DB01200821CDE90010C5
:1024D0002046621C54B200EB80004000C01CC1B218
:1024E000062377A2262001F066F801E0601C44B2C2
:1024F000062C13DA002C11DB01200821CDE9001095
:102500002046621C54B200EB80004000C01CC1B2E7
:102510000A236DA20E2001F04EF801E0601C44B2C7
:10252000062C13DA002C11DB01200821CDE9001064
:102530002046621C54B200EB80004000C01CC1B2B7
:10254000082364A21A2001F036F801E0601C44B2AE
:10255000062C13DA002C11DB01200821CDE9001034
:102560002046621C54B200EB80004000C01CC1B287
:1025700008235BA21A2001F01EF801E0601C44B29F
:10258000062C13DA002C11DB01200821CDE9001004
:102590002046621C54B200EB80004000C01CC1B257
:1025A000082352A21A2001F006F801E0601C44B290
:1025B000062C13DA002C11DB01200821CDE90010D4
:1025C0002046621C54B200EB80004000C01CC1B227
:1025D000082349A21A2000F0EEFF01E0601C44B27B
:1025E000062C13DA002C11DB01200821CDE90010A4
:1025F0002046621C54B200EB80004000C01CC1B2F7
:10260000092340A2142000F0D6FF01E0601C44B270
:10261000062C7DDA002C7BDB01200821CDE900109F
:102620002046621C54B200EB800072E0580000208B
:10263000CEC2B6C800000000CEC2B2EE000000005C
:10264000C1F7C1BF00000000B2EED1B90000000028
:1026500043000000506100006D2F6800330000004F
:102660005700002054656D70657261747572653A2B
:102670000000000024000000436F727265637469FB
:102680006F6E3A0053616D706C696E673A000000BE
:10269000526573697374616E63653A005B5D416E88
:1026A000676C653A00000000454550524F4D20428E
:1026B00069743A00454550524F4D204E756D3A00B1
:1026C0004572726F723A000045535220422C452CDD
:1026D000573A0000455352204C45433A0000000051
:1026E000455352205445433A0000000045535220C0
:1026F0005245433A000000004D435220302D373AF6
:10270000000000005246305220464D503A00000072
:1027100008E04000C01CC1B2072310A2202000F036
:102720004AFF01E0601C44B2062C13DA002C11DBD6
:1027300001200821CDE900102046621C54B200EBB4
:1027400080004000C01CC1B2052306A22C2000F06E
:1027500032FF01E0601C44B21CBD0000465F5349DB
:102760005A453A00465F49443A0000001CB5002033
:1027700001F094FA01200EA31022114600901520BA
:1027800000F0AEFB0120102104230DA2CDE90010C2
:102790002621582000F00FFF0120082103460AA23D
:1027A000CDE900102921612000F005FF1CBD0000CB
:1027B000CFF2C1F7C1BFC1BFB3CCA3BA00000000C4
:1027C0006D202F6800000000330000001CB50020C1
:1027D00001F064FA012012A310220021009010469B
:1027E00000F07EFB01201021082311A2CDE900108A
:1027F000042000F0E0FE0120102108230FA2CDE903
:1028000000102021042000F0D6FE01201021082312
:102810000DA2CDE900103021042000F0CCFE1CBD3B
:10282000CFF2D0DED5FDB2CECAFDA3BA00000000C3
:102830003530257E3630253A000000003630257EC2
:102840003730253A000000003730257E3830253AF1
:102850000000000070B50446B4F5FA7F16DD244888
:10286000006898B142F2107060432149096890FBFA
:10287000F1F040F63F4148431E4990FBF1F000F66D
:10288000331085B2284600F05FF82FE014F5FA7F88
:1028900028DA1948006828B3E043441C1648006849
:1028A00000EB8000C4EB400040F63F414843134931
:1028B0000860084600681049096890FBF1F00F496C
:1028C000086008460068142190FBF1F00B4908608D
:1028D0000846006800F215300860098888B200F0E8
:1028E00033F803E040F6361000F02EF870BD00001B
:1028F0006C000020400D030070000020E801002063
:1029000008B50121082001F0A1FC0121084601F0D1
:102910009DFC01210A4800F047F91820ADF800009D
:1029200010208DF8030003208DF802006946054849
:1029300000F0AEF81821034800F089F908BD000046
:1029400000023000000C014070B50446002500F084
:102950005DF8B02000F034F800F016F8022000F026
:102960002FF800F011F82107080E00F029F800F008
:102970000BF8C4F3071000F023F800F005F800F09E
:1029800067F8284670BD000010B500200A490860AD
:1029900001F0D6FC00200949C1F88C01042004F0A4
:1029A0007FFD012004490860042004F079FD002027
:1029B0000249C1F8900110BD90812142008021425E
:1029C00070B5044601F0BCFC00200E4908600025EB
:1029D00014E0E0090B49091F08606006040E04209A
:1029E00004F05EFD01200849C1F89001042004F0C4
:1029F00057FD002003490860681CC5B2082DE8DBBC
:102A000070BD0000908121420080214210B501F08C
:102A100097FC01200C49086004F042FD01200B499D
:102A2000C1F89001052004F03BFD00200649086034
:102A3000052004F035FD00200449C1F8900105206F
:102A400004F02EFD10BD00008C8121420080214247
:102A500010B501F075FC00200B490860052004F05A
:102A60001FFD00200949C1F88C01052004F018FD64
:102A7000012005490860052004F012FD01200349EA
:102A8000C1F88C0110BD00009081214200802142DC
:102A90002DE9F041024600250026002000230024F5
:102AA000002791F803C00CF00F0591F803C00CF05B
:102AB000100CBCF1000F03D091F802C04CEA0505E0
:102AC00091F800C0BCF1000F31D0146800202BE059
:102AD0004FF0010C0CFA00F3B1F800C00CEA030649
:102AE0009E4220D183004FF00F0C0CFA03F7BC4339
:102AF00005FA03FC4CEA040491F803C0BCF1280F6A
:102B000006D14FF0010C0CFA00FCC2F814C00AE028
:102B100091F803C0BCF1480F05D14FF0010C0CFA3D
:102B200000FCC2F810C0401C0828D1D31460B1F8D2
:102B300000C0BCF1FF0F34DD546800202EE000F12E
:102B4000080C4FF0010808FA0CF3B1F800C00CEAC9
:102B500003069E4221D183004FF00F0C0CFA03F7BD
:102B6000BC4305FA03FC4CEA040491F803C0BCF131
:102B7000280F05D100F1080C08FA0CF8C2F81480EF
:102B800091F803C0BCF1480F07D100F1080C4FF0D9
:102B9000010808FA0CF8C2F81080401C0828CED3AF
:102BA0005460BDE8F0810000F0B50A46002300241F
:102BB0000021002500F00046B6F1004F02D11D4E65
:102BC000F16901E01B4E7168C0F3034583B200F464
:102BD0004016B6F5401F08D121F07061154E766899
:102BE00026F07066134F7E6012E000F48016B6F592
:102BF000801F06D1032606FA05F4A14341F0706157
:102C000006E0460D360103FA06F6B14341F0706165
:102C100022B1460D360103FA06F6314300F00046B4
:102C2000B6F1004F02D1034EF16101E0014E716037
:102C3000F0BD0000000001400246002093680B40F8
:102C40000BB1012000E00020704741617047016135
:102C500070472DE9FF4F85B081468A4600200390DA
:102C600083460798A0EB09050898A0EB0A06CDF863
:102C70000890CDF804A0002D01DD012705E00DB975
:102C8000002702E04FF0FF376D42002E02DD4FF0CB
:102C9000010806E016B94FF0000802E04FF0FF38D7
:102CA0007642B54201DD2C4600E034460020049017
:102CB0001EE0019AD1B2029AD0B2129A01F0F2F853
:102CC000039828440390B3440398A04205DD039879
:102CD000001B0390029838440290A34504DDABEB3F
:102CE000040B0198404401900498401C80B2049069
:102CF000611C04988842DCDD00F0E4FF09B0BDE807
:102D0000F08F2DE9F84305460E4617469846089C75
:102D100033463A46314628460094FFF79AFF434629
:102D20002A46314628460094FFF793FF43463A4629
:102D3000414628460094FFF78CFF43463A46314609
:102D400038460094FFF785FFBDE8F8832DE9F04F82
:102D50008BB006468A464FF00009002504200A90F1
:102D60000024B5E000256EE00A9805F05CFB2746DC
:102D7000CDE90601E11704EB5161C911A4EBC110C3
:102D800005F0C2FF0190284605F0BEFF00900199B2
:102D900006F09EF88346514905F0D8FE804605F0BE
:102DA00047FECDE9020104F0CBFFCDE90401DDE9E6
:102DB000062305F063FBCDE9080105F0D7FA4FFAC9
:102DC00080F909EBC6004FFA80F909F0FF01E8B27B
:102DD000524601F067F80A9805F025FBA346CDE9B5
:102DE0000601E11704EB5161C911A4EBC11005F014
:102DF0008BFF0190284605F087FF0090019906F0AF
:102E000067F83649029005F0A1FE039005F010FE28
:102E1000074604F0AFFACDE90401DDE9062305F029
:102E20002DFBCDE9080105F0A1FA4FFA80F909EB75
:102E3000C6004FFA80F909F0FF01E8B2524601F0EE
:102E400031F8681C05B2802D8EDB00F03BFF0A20B4
:102E500004F000FB002537E00A9805F0E4FAA346E9
:102E6000CDE90601E11704EB5161C911A4EBC110D2
:102E700005F04AFF0190284605F046FF00900199B1
:102E800006F026F81549029005F060FE039005F063
:102E9000CFFD074604F054FFCDE90401DDE9062328
:102EA00005F0ECFACDE9080105F060FA4FFA80F977
:102EB00009EBC6004FFA80F909F0FF01E8B20022E1
:102EC00000F0F0FF681C05B2802DC5DB601C84B2E9
:102ED000642CFFF647AF0BB0BDE8F08F0000A040B8
:102EE0002DE9F04106460F4614461D46DDF81880D0
:102EF00026E0102C06D143462A463946304600F0DB
:102F000023F913E0182C06D143462A4639463046A9
:102F100000F092F90AE0202C06D143462A463946B1
:102F2000304600F00BFA01E0BDE8F0813019C6B27E
:102F3000C4F18000B04202DA00263819C7B2AD1CD5
:102F400028780028D5D100BFEEE700002DE9FF4F1B
:102F500081B006460F469946DDF838A04FF00008CC
:102F6000002400250398203800F0FF087F2E02DDA2
:102F70000026B81CC7B2B9F1100F30D100242BE0E5
:102F8000BAF1000F05D004EB08106B4911F800B03E
:102F900006E004EB08106849085CC04300F0FF0B32
:102FA000002515E08020284100EA0B0038B13A19CD
:102FB000D1B27219D0B2012200F074FF06E03A19C2
:102FC000D1B27219D0B2002200F06CFF681CC5B2F9
:102FD000082DE7DB601CC4B2102CD1DBA7E0B9F1EF
:102FE000080F30D100242BE0BAF1000F05D0534870
:102FF00000EBC80010F804B006E0504800EBC80031
:10300000005DC04300F0FF0B002515E08020284143
:1030100000EA0B0038B13A19D1B27219D0B20122CC
:1030200000F040FF06E03A19D1B27219D0B2002286
:1030300000F038FF681CC5B2082DE7DB601CC4B285
:10304000082CD1DB73E0B9F1180F32D100242DE048
:10305000BAF1000F06D0182000FB0840384911F8DB
:1030600000B007E0182000FB08403549085CC04369
:1030700000F0FF0B002515E08020284100EA0B003E
:1030800038B13A19D1B27219D0B2012200F00AFF58
:1030900006E03A19D1B27219D0B2002200F002FF54
:1030A000681CC5B2082DE7DB601CC4B2182CCFDB4E
:1030B0003DE0B9F1200F37D1002432E0BAF1000F22
:1030C00006D0302000FB08401E4911F800B007E090
:1030D000302000FB08401B49085CC04300F0FF0B98
:1030E00000251AE08020284100EA0B0060B104EBC3
:1030F000D47207EB6202D1B272190832D0B2012247
:10310000009400F0CFFE06E03A19D1B27219D0B2A5
:10311000002200F0C7FE681CC5B2082DE2DB601C6F
:10312000C4B2302CCADB02E005B0BDE8F08F00F07D
:10313000C9FD00BFF8E70000A2930008AA900008AC
:10314000929900087AA200082DE9FF4F83B08046CB
:10315000894692464D200190002562E005EB05105E
:10316000344911F810009AF80010884257D105EB45
:103170000510304901EB400040789AF80110884270
:103180004DD1002448E0069840B105EB05102949CF
:1031900001EB4000801C005D029009E005EB05108A
:1031A000244901EB4000801C005DC043C0B2029086
:1031B00000262DE0802030410299084098B1274632
:1031C00004EBD77209EB6202D1B2A34604EBDB72C7
:1031D0005210A4EB420208EBC2023244D0B20122E8
:1031E00000F060FE12E0274604EBD77209EB6202A2
:1031F000D1B2A34604EBDB725210A4EB420208EBFF
:10320000C2023244D0B2002200F04CFE701CC6B2A2
:10321000082ECFDB601CC4B2202CB4DB04E0681C99
:10322000C5B20198854299DB00BF00F04BFD07B0A5
:10323000BDE8F08F8AA200082DE9FE4F07468846B8
:1032400091469B460620029000256DE005EB850027
:1032500000EB4510384911F8100099F80010884229
:1032600060D105EB850000EB4510334901EB4000D0
:10327000407899F80110884254D100244FE0BBF106
:10328000000F0AD005EB850000EB45102A4901EB41
:103290004000801C10F804A00BE005EB850000EB5B
:1032A0004510254901EB4000801C005DC04300F043
:1032B000FF0A00262FE08020304100EA0A00A0B17A
:1032C000032094FBF0F04044C0B20190032094FB33
:1032D000F0F100FB114007EBC0003044C0B2012206
:1032E0000090019900F0DEFD13E0032094FBF0F064
:1032F0004044C0B20190032094FBF0F100FB114068
:1033000007EBC0003044C0B200220090019900F0E9
:10331000C9FD701CC6B2082ECDDB601CC4B2482C9F
:10332000ADDB04E0681CC5B2029885428EDB00BFAD
:1033300000F0C8FCBDE8FE8FC4AC00082DE9FF4FCB
:1033400083B080468946924606200190002566E0BB
:1033500005EB8510364911F810009AF800108842E4
:103360005BD105EB8510324901EB400040789AF8BB
:103370000110884251D100244CE0069840B105EB81
:1033800085102B4901EB4000801C005D029009E094
:1033900005EB8510264901EB4000801C005DC04311
:1033A000C0B20290002731E08020384102990840E5
:1033B000A8B12646E21704EB927209EBA202D1B241
:1033C000A346E21704EB92729210A4EB820208EB80
:1033D000C2023A44D0B2012200F064FD14E0264655
:1033E000E21704EB927209EBA202D1B2A346E217F4
:1033F00004EB92729210A4EB820208EBC2023A44F0
:10340000D0B2002200F04EFD781CC7B2082FCBDBF3
:10341000601CC4B2802CB0DB04E0681CC5B201980B
:10342000854295DB00BF00F04DFC07B0BDE8F08F92
:1034300080AE00082DE9FC5F80468B4691461E4613
:103440000C9C00200190102C05D1204604EBD0717B
:10345000C1F347070AE0082C06D1204604EBD071DF
:103460004910891CCFB201E0BDE8FC9F00251BE09C
:10347000701B401EC1B20A2004F056FCB9FBF0F0EC
:103480000A21B0FBF1F201FB120A0D980AF130019A
:10349000CAB2691C07FB01810090C8B22346594695
:1034A000FFF754FD681CC5B2B542E1DB00BFDBE7A6
:1034B0002DE9FF4F83B0074693469A46DDE9105841
:1034C00000200290102D05D1284605EBD071C1F3E4
:1034D00047060BE0082D06D1284605EBD0714910B0
:1034E000891CCEB202E007B0BDE8F08F00245EE098
:1034F000AAEB0400401EC1B20A2004F015FCBBFB7D
:10350000F0F00A21B0FBF1F201FB12090298A8B910
:10351000AAF10100A04211DDB9F1000F0CD1022C7B
:103520000ADA06FB0471C8B22B462022CDF80080CF
:103530000499FFF70BFD38E001200290042C0CDA0F
:1035400009F13001CAB206FB0471C8B22B46CDF8AE
:1035500000800499FFF7FAFC26E0042C17D106FB43
:103560000471C8B22B462E22CDF800800499FFF7D3
:10357000EDFC09F13001CAB2611C06FB0171C8B251
:103580002B46CDF800800499FFF7E0FC0CE009F130
:103590003001CAB2611C06FB0171C8B22B46CDF8DE
:1035A00000800499FFF7D2FC00BF601CC4B25445F0
:1035B0009EDB00BF97E72DE9F84F06468846914607
:1035C0009A46DDE90A4B0027102C05D1204604EB72
:1035D000D071C1F347051CE0082C06D1204604EB4E
:1035E000D0714910891CCDB213E0182C06D12046A9
:1035F00004EBD0714910891ECDB20AE0202C06D10F
:10360000204604EBD0714910091FCDB201E0BDE89E
:10361000F88F002713E0CDF800B019F807202346F3
:1036200041463046FFF792FC7019C6B2782E04DD91
:10363000002608EB040000F0FF08781CC7B25745CD
:10364000E9DB00BFE3E700BFFEE7000010B5402163
:103650000F48FFF7FAFA0E48006820F070400C4956
:1036600008600846006840F04050086000200949A2
:103670000860042003F014FF40210548FFF7E7FA33
:10368000042003F00DFF40210148FFF7DEFA10BDD2
:10369000000C01409C81214208B50121082000F066
:1036A000D5FDE020ADF8000010208DF803000320C8
:1036B0008DF8020069460448FFF7EAF9E021024864
:1036C000FFF7C5FA08BD0000000C014010B540210D
:1036D0000F48FFF7BAFA0E48006820F070400C4916
:1036E00008600846006840F0405008600120094921
:1036F0000860042003F0D4FE40210548FFF7A7FA34
:10370000042003F0CDFE40210148FFF79EFA10BDD2
:10371000000C01409C81214270B50546002400F058
:1037200025FE002616E040210F48FFF78EFA042000
:1037300003F0B6FE40210C48FFF789FA6006040E3C
:103740000A48006808B1601CC4B2042003F0A8FE57
:10375000701CC6B2082EE6DB15B9FFF7B7FF01E013
:10376000FFF774FF204670BD000C01401C81214210
:1037700070B504461448006820F070401249086093
:103780000846006840F04050086040210E48FFF7AE
:103790005CFA002514E0E0090C4908606006040E9C
:1037A000042003F07DFE40210748FFF750FA042073
:1037B00003F076FE40210448FFF747FA681CC5B2C3
:1037C000082DE8DB70BD0000000C01409C81214207
:1037D00010B51348006820F0704011490860084691
:1037E000006840F04050086001200E49086003F076
:1037F00057FE40210A48FFF72AFA052003F050FE41
:1038000000200949C1F89C01052003F049FE402130
:103810000348FFF71AFA052003F042FE10BD00002E
:10382000000C01409C8121420080214210B51248C9
:10383000006820F07040104908600846006840F0B9
:103840004050086040210C48FFF7FFF9052003F0C5
:1038500027FE002009490860052003F021FE4021D1
:103860000548FFF7F4F9052003F01AFE012004498A
:10387000C1F89C0110BD0000000C01409C81214258
:103880000080214210B5002400F070FD012003F0FB
:1038900007FE40210B48FFF7DAF907E0601C84B20D
:1038A000CD2C03DDFFF7C2FF012010BD80210548AC
:1038B000FFF7C2F90028F1D140210248FFF7C5F90E
:1038C0000020F2E7000C014008B50121082000F0BB
:1038D000BDFC0720ADF8000028208DF80300032070
:1038E0008DF8020069460248FFF7D2F808BD0000D3
:1038F000000C014010B504211848FFF79DF948B1AC
:1039000002211648FFF798F920B101211348FFF76B
:1039100093F900BB142003F09DFD04210F48FFF72D
:103920008BF940B902210D48FFF786F908B9042444
:1039300012E0012410E002210848FFF77DF908B9E0
:10394000022409E001210548FFF776F908B90324AC
:1039500002E0052400E00024204610BD000C0140D8
:1039600008B50121582000F071FC4FF40050ADF86B
:10397000000010208DF8030003208DF80200694636
:103980000148FFF785F808BD0010014010B52A482E
:103990000068401C28490860082228492648006819
:1039A00000F06AF92649098801F5007188B20822F9
:1039B0002449FCF759FF2249098801F5027188B2B0
:1039C00008221E49FCF750FF1B4800681E49884228
:1039D00030D31B490C88E11704EB11710911481C05
:1039E00004221A4900F048F915480088103014499B
:1039F0000880042215494FF4F870FCF735FF104990
:103A0000098801F5007188B208220E49FCF72CFFE5
:103A1000002009490860082208490748006800F0AA
:103A20002BF90749098801F5027188B20822034978
:103A3000FCF71AFF10BD0000DC010020D4010020BB
:103A4000E00100202300002040420F00AE000020D3
:103A50001CB5002404E030200DF80400601CC4B242
:103A6000082CF8DB2E208DF806000649098801F5A0
:103A7000007188B208226946FCF7F6FE0020024970
:103A800008601CBDE00100204400002008B50020B3
:103A900000F004F9012014A31022002100900A2054
:103AA000FFF71EFA012014A31022114600900A20ED
:103AB000FFF716FA012014A31022202100900A20FB
:103AC000FFF70EFA012014A31022302100900A20E3
:103AD000FFF706FA0020082320220421009071201D
:103AE000FFF734FA08BD0000C9E8D6C3D5FDCFF210
:103AF000B2CECAFD00000000C9E8D6C3B7B4CFF209
:103B0000B2CECAFD00000000C9E8D6C3D0DED5FDA4
:103B1000B2CECAFD00000000C9E8D6C3CDA8D1B618
:103B2000B5D8D6B70000000070B500261B48007855
:103B300005282DDB002500201949087002F092F9B4
:103B400030B1382002F0C2F902F00EF9054600E06B
:103B500001260024012012490870F6B902F082F90A
:103B6000382002F0B3F902F0FFF8044600F03CFB05
:103B7000072003F06FFC0B4800680444204602F065
:103B8000C1FF204602F0A4FF284602F009FF04E02E
:103B900002480078401C0149087070BDE501002012
:103BA000E70100207C00002000BFFEE7704770B5F1
:103BB000049C0AB18D1AEAB2012B02D12D25257081
:103BC00001E02025257012E08A4204D11AB12E2589
:103BD00065544D1EE9B20A25B0FBF5F605FB160546
:103BE000303565540A25B0FBF5F04D1EE9B20029C9
:103BF000EADC70BD70B5002100230F22C47804B345
:103C0000154C246804F4E064C4F5E064210AC1F1B1
:103C10000403CA40447804FA03F184781440214331
:103C200009010E4C0678A155047804F01F05012403
:103C3000AC4005786D11AD0005F1E025C5F80041F7
:103C400009E0047804F01F050124AC40044D067817
:103C5000761145F8264070BD0CED00E000E400E070
:103C600080E100E002490143024A11607047000010
:103C70000000FA050CED00E030B50B46511E0AE0DD
:103C80000A24B0FBF4F504FB150430345C540A2418
:103C9000B0FBF4F0491E0029F2DC30BD10B504463B
:103CA00034B1FF224FF480610548FCF7D0FA04E0FC
:103CB0004FF480610248FCF7D2FA00F003F810BD1F
:103CC0006C02002070B500241BE004F1B00000215C
:103CD00000F028F90021022000F024F90021102032
:103CE00000F020F9002508E005EBC411064A505CFD
:103CF000012100F017F9681CC5B2802DF4DB601CAF
:103D0000C4B2082CE1DB70BD6C02002010B50021AC
:103D10008D2000F007F90021102000F003F90021A8
:103D2000AE2000F0FFF810BD10B500218D2000F08E
:103D3000F9F80021142000F0F5F80021AF2000F080
:103D4000F1F810BD10B501F04BFD00F07BF8C82074
:103D500003F080FB00F090F8FFF7D8FF0021AE20C1
:103D600000F0E0F80021022000F0DCF80021102033
:103D700000F0D8F80021402000F0D4F80021812084
:103D800000F0D0F80021CF2000F0CCF80021A120D5
:103D900000F0C8F80021C82000F0C4F80021A620D7
:103DA00000F0C0F80021A82000F0BCF800213F205E
:103DB00000F0B8F80021D32000F0B4F80021084644
:103DC00000F0B0F80021D52000F0ACF800218020F0
:103DD00000F0A8F80021D92000F0A4F80021F1207B
:103DE00000F0A0F80021DA2000F09CF80021122059
:103DF00000F098F80021DB2000F094F8002140202A
:103E000000F090F80021202000F08CF80021022022
:103E100000F088F800218D2000F084F800211420A3
:103E200000F080F80021A42000F07CF80021A620FA
:103E300000F078F80021AF2000F074F8FFF774FF6D
:103E400010BD000008B50121042000F0FFF91C207E
:103E5000ADF8000010208DF8030003208DF802005B
:103E600069460448FEF714FE1C210248FEF7EFFEE7
:103E700008BD00000008014010B504210848FEF705
:103E8000E6FE642003F0E6FA04210548FEF7DDFEB5
:103E9000642003F0DFFA04210148FEF7D8FE10BDCC
:103EA00000080140F0B503461446E4B1CD1701EB1C
:103EB0005575ED1003EBC515194E755D0A46CE1705
:103EC00001EB5676F610A1EBC6070126BE40F6B20E
:103ED00035430846CE1701EB5676F61003EBC616AF
:103EE0000F4FBD551AE0CD1701EB5575ED1003EBE3
:103EF000C5150B4E755D0A46CE1701EB5676F610CA
:103F0000A1EBC6070126BE40B5430846CE1701EB1C
:103F10005676F61003EBC616014FBD55F0BD0000F6
:103F20006C02002070B504460D4625B108210A48F0
:103F3000FEF78DFE03E008210748FEF786FE1021FC
:103F40000548FEF782FEE1B2044801F0BFFC1021F3
:103F50000148FEF77CFE70BD0008014000300140C2
:103F600038B504460020FFF799FE012016A3102261
:103F7000002100902820FEF7B3FF012C06D0022C70
:103F80000DD0032C14D0042C1CD11AE0012010A356
:103F90001022182100901046FEF7A2FF12E0012027
:103FA00011A31022182100901046FEF799FF09E096
:103FB000012013A31022182100901046FEF790FF55
:103FC00000E000BF00BF38BDB2E6B4EDCEF30000A4
:103FD000CEC2B6C8B4ABB8D0C6F7CFDFC2B7B9CA85
:103FE000D5CF8CBF00000000B2EED1B9B4ABB8D0D1
:103FF000C6F7CFDFC2B7B9CAD5CF8CBF000000006B
:10400000D6F7B0E5C4A3BFE9B9CAD5CF8CBF0000CD
:104010001CB50020FFF742FE01201FA31022002143
:1040200000901046FEF75CFF01201FA310221146EE
:1040300000900320FEF754FF01201DA31022202131
:1040400000900320FEF74CFF0120102103231AA249
:10405000CDE900106620FFF7AEFA012010210423FD
:1040600016A2CDE9001020216020FFF7A4FA01205C
:104070000821034613A2CDE9001023216920FFF790
:104080009AFA0120102105230FA2CDE9001030215A
:104090000220FFF790FA1CBDCFF2D0DED5FDB2CEE4
:1040A000CAFDA3BA00000000C1E3B5E3A3BA000053
:1040B000C7D0B3FDA3BA00004B5061006D202F683C
:1040C00000000000330000003C3035253A000000BD
:1040D00010B54FF48030FEF731F8E8B11BE0022153
:1040E0000E48FEF7B4FD08220D494FF4F070FCF7BE
:1040F000BBFB4FF400510B48FEF7A7FD40F6B8306C
:1041000003F0A8F94FF400510648FEF7A0FD40F671
:10411000B83003F09FF9E2E710BD0000000801404D
:104120002300002000100140704700001CB5002053
:10413000FFF7B4FD012011A31022114600900020CA
:10414000FEF7CEFE012010A31022202100900020B7
:10415000FEF7C6FE01200FA31022302100900020A0
:10416000FEF7BEFE0120102103230CA2CDE90010B2
:1041700030212020FFF71FFA1CBD0000C1E3B5E38A
:10418000C2EBA3BA00000000B2EED1B9C2EBA3BAF1
:1041900000000000B2EED1B90000000050613A000A
:1041A0001CB5762003F056F902208DF80000062099
:1041B0008DF8010000208DF8020008208DF8030022
:1041C000A3208DF804008DF8050030208DF806003E
:1041D000B2208DF807000821684603F08DFD1220FB
:1041E00003F038F91CBD00000CB502208DF800006A
:1041F00003208DF8010000208DF802008DF80300E7
:104200008DF8040002208DF80500C4208DF806000A
:1042100038208DF807000821684603F06DFD002066
:10422000014908700CBD00000602002029B1064AB1
:10423000D2690243044BDA6104E0034AD269824343
:10424000014BDA61704700000010024029B1064AB4
:1042500092690243044B9A6104E0034A92698243E3
:10426000014B9A61704700000010024030B50021F8
:104270000022002400232D4D6D6805F00C0121B1B2
:10428000042905D0082923D105E0294D056022E045
:10429000274D05601FE0254D6D6805F47012234D14
:1042A0006D6805F48034022505EB92421CB9214D5E
:1042B000554305600BE01D4D6D6805F400351DB1DB
:1042C0001C4D5543056002E0194D5543056002E061
:1042D000174D056000BF00BF144D6D6805F0F0017B
:1042E0000909154D6B5C0568DD4045600F4D6D6833
:1042F00005F4E061090A104D6B5C4568DD4085609E
:104300000A4D6D6805F46051C90A0B4D6B5C456838
:10431000DD40C560054D6D6805F44041890B074DD2
:104320006B5CC568B5FBF3F5056130BD001002405C
:1043300000127A0000093D00EC010020FC01002081
:1043400008B501210820FFF781FF0820ADF8000023
:1043500010208DF8030003208DF802006946024802
:10436000FEF796FB08BD0000000C014008B50121D6
:104370000820FFF76BFF8020ADF8000004208DF8C7
:10438000030069460348FEF783FB80210148FEF7DE
:104390005EFC08BD000C01407CB5FE4D0024FE48CB
:1043A0000078FE49087008460078042881F23B81B5
:1043B000FB4800780978884207D1F848007803283C
:1043C00007D10020F549087003E0F4480078F4496B
:1043D0000870F2480078032877D1F2480078002866
:1043E00074D1F1480078002871D0012870D00228DB
:1043F00002D0032868D16CE001F084F90620E94975
:1044000008700020E84908705020E849088005221B
:10441000E749E6480088FCF7EFF9E44800880830EF
:10442000E24908800522E349E0480088FCF7E4F906
:10443000DE4800880830DD4908800522DE49DB4877
:104440000088FCF7D9F9D94800880830D749088096
:104450000522DA49D5480088FCF7CEF90120102161
:104460000523D34ACDE9001000214F20FFF7A3F820
:10447000012010210523CF4ACDE900104F20FFF77E
:104480009AF8012010210523CB4ACDE90010202104
:104490004F20FFF790F8012010210523C74ACDE9EE
:1044A000001030214F20FFF786F84F20C4490860E4
:1044B0000020C4490860BE48BB490978405CC24935
:1044C00008700120C1490870E9E0F2E3E8E028E063
:1044D00086E001F003F90720B24908700220B249D2
:1044E00008700322B3494FF48470FCF785F901206A
:1044F00010210323AF4ACDE9001026212F20FFF71A
:104500005AF83F20AE4908602620AE490860A94805
:10451000A5490978405CAC4908700120AB49087096
:10452000BDE0FFF775FD01209E4908700020A849F5
:104530000870A84908700120A7A31022002100904C
:104540000846FEF7CDFC4FF488709849088000209B
:10455000954908700622964994480088FCF74CF962
:1045600092480088083091490880052291498F4877
:104570000088FCF741F98D48008808308B49088095
:1045800005228D4989480088FCF736F90120102161
:104590000623874ACDE900102F20FFF70CF80120F1
:1045A00010210523834ACDE9001020212F20FFF799
:1045B00002F80120102105237F4ACDE900103021A7
:1045C0002F20FEF7F8FF10207E4908602F207C493D
:1045D0000860774874490978405C7B4908705EE060
:1045E000FFF716FD01206F49087000207849087018
:1045F00001207849087079A3102200210090084614
:10460000FEF76EFC4FF4B8706849088000206649D8
:1046100008700622664965480088FCF7EDF8634893
:104620000088083061490880052262495F48008897
:10463000FCF7E2F85D48008808305C4908800522F4
:104640005D495A480088FCF7D7F80120102106235D
:10465000574ACDE900102F20FEF7ADFF01201021B1
:104660000523544ACDE9001020212F20FEF7A3FF97
:10467000012010210523504ACDE9001030212F20C0
:10468000FEF799FF10204F4908602F204C49086021
:10469000474845490978405C4B49087000BF80E3B2
:1046A00040480078062873D149480078012850D145
:1046B0004448006828B9444801783D483A4A12788D
:1046C000815440480068102805D13F480078394996
:1046D000354A127888543B480068202805D13A486A
:1046E00000783549304A12788854364800683028B6
:1046F00005D13548017831482B4A12788154502031
:104700002A49088005222A4928480088FCF7ACF885
:104710002648008808302549088006222549234874
:104720000088FCF7A1F82148008808301F4908805C
:10473000062221491D480088FCF796F81B4800888E
:1047400008301A49088006221C4918480088FCF7DE
:104750008BF812E06D1EFFF7CDF8012801D144F06F
:104760000104FFF7C7F8022801D144F00204FFF763
:10477000C1F8042801D144F00404002DEAD1072C2B
:104780007DD1FFF7D3FC3F200D490860102027E0C2
:1047900085E00000400D0300AC010020AF010020C7
:1047A000B0010020A8010020AA010020B2010020D1
:1047B000B4010020BC010020C4010020CC01002075
:1047C000A4010020A0010020AB010020A9010020CD
:1047D000AE010020AD010020D5FD0000B7B40000FF
:1047E000FD4908600120FD4908700020FC4908705F
:1047F0000820FC4908700020FB4908700822FB498A
:104800009020FBF7F9FF0822F9498020FBF7F4FF1D
:104810000822F8498820FBF7EFFF01201021082328
:10482000F24ACDE900103F20FEF7C5FE012010211D
:104830000823EF4ACDE9001020213F20FEF7BBFE00
:10484000012010210823EB4ACDE9001030213F2040
:10485000FEF7B1FE1020E04908603F20E6490860FD
:10486000E348DF490978405CE44908700020DE49EC
:104870000870DE480078E14908708FE2FFE7FFF733
:1048800005F97120DC4908600420D3490860002044
:10489000D2490870D2490870D24908707EE2D148E6
:1048A0000078082854D1D0480078012841D1CA485E
:1048B0000068102805D1D1480078CC49C84A127840
:1048C0008854C5480068202805D1CC480078C849DC
:1048D000C34A12788854C0480068302805D1C748B8
:1048E0000078C449BE4A127888540822BF499020F3
:1048F000FBF7BAFF0822BE498020FBF7B5FF08226C
:10490000BC498820FBF7B0FF9022B8490820FBF78C
:10491000E3FFBB4908608022B5490820FBF7DCFFB4
:10492000B84908608822B3490820FBF7D5FFB6498B
:104930000860FFF7ABF87120AF4908600420A64972
:1049400008600020A5490870A5490870A5490870AD
:10495000A448007807283CD1A3480078012829D131
:10496000A6480178A1489E4A127881540322014644
:104970004FF48470FBF778FF9C480078303864214E
:1049800048439A494978303901EB810100EB4101F4
:1049900096488078303808449C490860084600688A
:1049A000FF2801D9FF20086098480068984908440A
:1049B00096490860FFF76AF871208F490860042063
:1049C0008549086000208549087085490870854937
:1049D00008708448007805282AD183480078012887
:1049E00017D1864800788B497D4A127888548A48C6
:1049F000007820B94FF4E8708849088003E04FF44C
:104A0000EC70864908800622824984480088FBF7BA
:104A10002BFFFFF73BF871207749086004206E49AF
:104A2000086000206D4908706D4908706D49087074
:104A30006C480078012800D100E00020694909781D
:104A4000022901D1012100E00021084365490978CC
:104A5000032901D1012100E00021084361490978BF
:104A6000042901D1012100E00021084300287CD065
:104A70005D480078012879D157480068102805D191
:104A80005E4800786349564A127888545248006854
:104A9000202805D1594801785448514A1278815448
:104AA0004D480068302805D15448017850484C4A98
:104AB000127881544B48007801280BD15648007871
:104AC00020B94FF488705549088003E04FF4B8705E
:104AD000524908804348007802280BD14E4800789C
:104AE00020B94FF494704D49088003E04FF4C4702E
:104AF0004A4908803B48007803280BD14648007893
:104B000020B94FF4A0704549088003E04FF4D070FD
:104B1000424908803348007804280BD13E48007889
:104B200020B94FF4AC703D49088003E04FF4DC70CD
:104B30003A4908802B480078012806D106223549D9
:104B400036480088FBF790FE05E0052231493348DE
:104B50000088FBF789FE3148008808302F4908801B
:104B6000052222492D48008801E017E10CE0FBF7FF
:104B70007BFE2A48008808302849088005221C4905
:104B800026480088FBF770FE16480078401C15493F
:104B9000087000201249087012480078052868D172
:104BA000FDF7E4FD1C48007820B94FF4E8701B497C
:104BB000088003E04FF4EC7018490880164800782C
:104BC00048B90120AFF2F0331022114600900520C1
:104BD000FEF786F92DE023E0A0010020A9010020C6
:104BE000AA010020A8010020AE010020BC01002085
:104BF000C4010020CC010020A4010020AB01002052
:104C00007C0000207400002078000020A400002018
:104C100000049411B4010020AD010020B201002075
:104C20000120AFF248431022114600900520FEF704
:104C300057F90622FD49FE480088FBF7DDFD0120FB
:104C400010210623F94ACDE9001026211820FEF78D
:104C5000B2FC2620F74908601820F7490860F3489D
:104C6000F6490978405CF64908700020F54908705B
:104C700094E0F548007802280DD101F007FAF348D6
:104C8000007820B94FF49470E949088003E04FF4AC
:104C9000C470E7490880EC48007803280ED100F082
:104CA000E1FEEA48007828B94FF4A070E049088096
:104CB00004E076E04FF4D070DD490880E2480078E7
:104CC00004280DD1FDF782FDE048007820B94FF4AB
:104CD000AC70D749088003E04FF4DC70D4490880F9
:104CE000DA48007848B90120AFF2145310220021AD
:104CF00000900846FEF7F4F808E00120AFF22453D4
:104D00001022002100900846FEF7EAF80522C74964
:104D1000C7480088FBF770FDC54800880830C449C3
:104D200008800522CA49C2480088FBF765FDC048D3
:104D300000880830BE4908800522C649BC48008862
:104D4000FBF75AFD012010210523B84ACDE90010D8
:104D50005020FEF730FC012010210523BC4ACDE98C
:104D6000001020215020FEF726FC012010210523F1
:104D7000B84ACDE9001030215020FEF71CFC10206D
:104D8000AC4908605020AC490860A848AB49097894
:104D9000405CAB4908700020AA4908700020A9496E
:104DA0000870AD48007802287ED1A748007840BB43
:104DB000012000909F480178082320227120FEF7EF
:104DC000C5F89C48006810309A4908609B480078F4
:104DD000401C9A4908700020A04908709548006856
:104DE000402805DD0420934908600020934908709D
:104DF000002000908F480178082320227120FEF7C0
:104E0000A5F891480078012800D100E000208E49E3
:104E10000978022901D1012100E0002108438A49D3
:104E20000978032901D1012100E0002108438649C6
:104E30000978042901D1012100E00021084300285C
:104E40007ED001207B4A009011787B4A1078102395
:104E50007B4A1278FEF77AF876480068102805D168
:104E6000774800787149754A12788854714800680B
:104E7000202805D1724801787548704A127881540B
:104E80006C480068302805D16D48007871496B4A3C
:104E90001278885468480068083067490860674895
:104EA0000078401C654900E020E3087001206B4950
:104EB00008706548007801287ED15E480068202887
:104EC0000ED15D4800683F2818D15B480068083063
:104ED0005949086059480078401C584908700DE04D
:104EE000554800683F2809D15348006808305249A6
:104EF000086052480078401C504908704E480068CD
:104F00005F2815DB4B480068102811D12F204A4933
:104F1000086048480068103046490860002047494A
:104F2000087044480068402802DB102041490860AE
:104F300041480068572817DB3E480068102800E009
:104F4000BEE011D02F203C4908603A48006810307C
:104F50003849086000203949087036480068402800
:104F600002DB10203349086032480068102805D160
:104F70002E4832490978405C314908702D48006854
:104F8000202805D132482D490978405C2C49087009
:104F900028480068302805D12E4828490978405C07
:104FA000274908700120234A00901178224A10787E
:104FB0001023234A127800E001E0FDF7C7FF2248E2
:104FC0000078022801D1012000E000201E49097864
:104FD000032901D1012100E0002108431A49097881
:104FE000042901D1012100E000210843C0B3124887
:104FF0000068582809D11048006808300E49086038
:105000000E480078401C0D4908700B48006878284D
:105010002DDB50200849086006480068103005491B
:10502000086000200549087002481AE0B401002019
:10503000B2010020A0010020A4010020AA0100204C
:10504000AB010020AE010020A8010020AD0100202E
:10505000BC010020C4010020AF010020A9010020F4
:1050600005E00068402802DB1020F8490860F74896
:105070000068102805D1F648F6490978405CF649E1
:105080000870F2480068202805D1F448F1490978F1
:10509000405CF1490870ED480068302805D1F048BF
:1050A000EC490978405CEC4908700120E74A00901F
:1050B0001178EC4A10781023E74A1278FDF746FF82
:1050C000E948007805284AD10120E04A009011788B
:1050D000E44A10781023E04A1278FDF737FFDE48E3
:1050E0000178DB48DB4A12788154DE4800680830DA
:1050F000DC490860D7480078401CD6490870012078
:10510000DA490870D7480068302809D1D5480068C6
:105110000830D4490860CF480078401CCD49087059
:10512000CB48CC490978405CCB490870CD48006831
:1051300040280ADD1820CB4908600020C5490870C6
:10514000C3480978405CC44908700120C5490090F3
:1051500008781023C0490A782621FDF7F7FEC248D7
:10516000007806287ED10120B84A00901178BD4A07
:1051700010781023B84A1278FDF7E8FEB3480068AB
:1051800028B9B5480078B249B24A12788854AF4875
:105190000068102805D1B0480078B049AD4A1278AF
:1051A0008854AA480068202805D1AB480078AC494B
:1051B000A84A12788854A5480068302805D1A64826
:1051C0000178AB48A34A12788154A6480068083099
:1051D000A44908609F480078401C9E49087001203F
:1051E000A249087099480068E0B99A480078632895
:1051F00009D19C48006808309A49086095480078B1
:10520000401C944908709348007805280ADB4F2019
:10521000944908608D48006810308C49086000206F
:105220008C4908708948006810281ED18948007888
:10523000032809D18B48006808308A4908608548EE
:105240000078401C834908708248007805280CDBF0
:105250004F20844908607D48006810307B49086011
:10526000002000E067E07B4908707848006820284B
:1052700001D1012000E0002074490968302901D1E2
:10528000012100E000210843E0B1724800780328C2
:1052900009D1744800680830724908606D48007888
:1052A000401C6C4908706B48007805280ADB4F20C9
:1052B0006C49086065480068103064490860002047
:1052C0006449087061480068402802DB00205F499B
:1052D00008605E48006828B95D485E490978405C0E
:1052E0005D49087059480068102805D15B48594944
:1052F0000978405C5849087054480068202805D156
:10530000574854490978405C534908704F48006831
:10531000302805D156484F490978405C4E490870FD
:1053200001204A4A009011784E4A107810234A4AC8
:105330001278FDF70BFE4C480078072837D1012082
:10534000424A00901178474A10781023424A127856
:10535000FDF7FCFD4048007840493E4A12788854E9
:105360004048006808303F4908603A480078401CCF
:105370003849087001203D490870364800780328F4
:1053800005D12F2037490860002032490870334882
:1053900030490978405C304908700120314900905B
:1053A000087810232C490A782621FDF7CFFD2E48D6
:1053B000007808287ED10120244A00901178294ADB
:1053C00010781023244A1278FDF7C0FD1F480068AA
:1053D000102805D12048007820491E4A12788854A8
:1053E0001A480068202805D11B4801781C48194A32
:1053F0001278815415480068302805D11648007885
:105400001B49144A12788854164800680830154918
:10541000086010480078401C0E49087001201349AC
:1054200008700C48007808280ADB3F200D49086006
:1054300006480068103005490860002005490870DA
:1054400002480068402815DB012014E0A00100207C
:10545000B4010020AA010020AB010020BC01002003
:10546000C4010020A4010020A8010020A9010020FF
:10547000CC01002000207F490978082901DB0121A7
:1054800000E00021084310B110207B4908607A48F1
:105490000068102805D1794876490978405C784938
:1054A000087075480068202807D176487149097846
:1054B000405C00E016E0724908706F4800683028D0
:1054C00005D171486B490978405C6D49087001202D
:1054D000694A009011786D4A10781023684A127852
:1054E000FDF734FD4FF4967001F0B4FF6848007882
:1054F00001282BD16748007848BB012000905E4806
:105500000178082320227120FDF720FD5A48006809
:1055100010305949086057480078401C55490870B8
:1055200000205D49087054480068402805DD0420CB
:105530005149086000204F490870002000904E48F3
:105540000178082320227120FDF700FD6BE0012087
:10555000524908704848006808B9012000E000205E
:1055600045490968102901D1012100E000210843C3
:1055700041490968202901D1012100E000210843A7
:105580003D490968302901D1012100E0002108438B
:1055900040490978062901D1012100E00021084095
:1055A0003449097809B9012100E00021084039494E
:1055B0000978082901D1012100E000212E4A126852
:1055C000102A01D1012200E000221140294A12785C
:1055D0000AB9012200E000221140084358B12848CE
:1055E0000078202803D12D20254908700EE02020C6
:1055F000234908700AE022480078401C20490870BE
:10560000084600783A2801DB302008700120224942
:105610000870194A009011781C4A10781023184A13
:105620001278FDF793FC1C480078012803D1002074
:105630001949087002E001201749087015480078E0
:1056400050B91548007800900B48017808232022B3
:105650007120FDF77BFC0BE00F480078064A0090B4
:1056600011780A4A10781023054A1278FDF76EFC6B
:105670007CBD0000AA010020A0010020BC01002088
:10568000AB010020C4010020CC010020A4010020B7
:10569000AF010020A8010020A9010020AE010020D8
:1056A00010B5002008490870FEF7F0F9712007498D
:1056B000086004200649086001200649087000209F
:1056C0000549087010BD0000A8010020A4010020B9
:1056D000A0010020A9010020AA01002008B5002097
:1056E000FEF7DCFA012004A310220F210090152000
:1056F000FDF7F6FB08BD0000CDA8D1B6B5D8D6B7EA
:10570000A3BA00001CB50020FEF7C8FA012028A3A8
:105710001022002100900846FDF7E2FB012027A39C
:105720001022114600900020FDF7DAFB012024A38F
:105730001022202100900846FDF7D2FB012020A373
:105740001022302100902020FDF7CAFB01201EA36B
:105750001022302100901046FDF7C2FB01201021DD
:1057600003231CA2CDE9001020210020FDF723FF18
:1057700001201021034618A2CDE900102021182095
:10578000FDF719FF01201021032314A2CDE9001019
:1057900030210020FDF70FFF0120102103460EA24B
:1057A000CDE9001030211820FDF705FF1CBD0000D9
:1057B000CEC2B2B9CFB5CAFDA3BA0000CEC2B6C838
:1057C000B2B9B3A5A3BA0000B6C8D2D4CFC2A3BAA7
:1057D000000000003E323500430000003E3335003B
:1057E00000B587B001210520FEF730FDA020ADF8FF
:1057F000040003208DF8060018208DF8070001A989
:105800001B48FDF745F94020ADF8040048208DF80D
:10581000070003208DF8060001A91548FDF738F9A7
:1058200001210803FEF712FD0020ADF808004FF437
:105830008270ADF80A000020ADF80C00ADF80E0043
:10584000ADF810004FF40070ADF812000020ADF874
:105850001400ADF816000720ADF8180002A905489D
:1058600000F016F80121034800F006F807B000BD6B
:10587000000801400030014021B1028842F040029E
:10588000028004E002884FF6BF731A40028070471E
:1058900010B50022028802F441520B884C88234341
:1058A0008C882343CC8823430C8923434C8923438E
:1058B0008C892343CC8923431A430280838B4FF284
:1058C000FF74234083830B8A038210BD024600BF0E
:1058D000108900F002000028FAD0918100BF1089E1
:1058E00000F001000028FAD09089C0B270477047DC
:1058F00010B500F001F810BD0CB50020019000902B
:105900003348006840F480303149086000BF3048B7
:10591000006800F4003000900198401C019000984D
:1059200018B90198B0F5A06FF1D12948006800F4CA
:10593000003010B10120009001E00020009000989C
:10594000012843D12348006840F010002149086035
:105950000846006820F0030008600846006840F030
:10596000020008601A4840681949486008464068C3
:1059700048600846406840F48060486008464068D7
:1059800020F47C1048600846406840F4E810486005
:105990000846006840F08070086000BF0C4800684E
:1059A00000F000700028F9D00948406820F003009A
:1059B000074948600846406840F00200486000BF60
:1059C0000348406800F00C000828F9D10CBD000025
:1059D0000010024000200240042808D14FF0E021CE
:1059E000096941F004014FF0E022116107E04FF036
:1059F000E021096921F004014FF0E02211617047B4
:105A00007047000010B51348006840F001001149CC
:105A1000086008464068104908400E49486008463A
:105A200000680E4908400B4908600846006820F4E9
:105A3000802008600846406820F4FE0048604FF46B
:105A40001F008860FFF754FF4FF0006004490860B2
:105A500010BD0000001002400000FFF8FFFFF6FE3E
:105A600008ED00E01CB50020FEF718F9012012A394
:105A70001022002100901046FDF732FA012010217B
:105A8000082311A2CDE900100420FDF794FD0120A8
:105A9000102108230FA2CDE9001020210420FDF7DA
:105AA0008AFD0120102108230DA2CDE9001030212C
:105AB0000420FDF780FD1CBDCFF2D0DED5FDB2CEB7
:105AC000CAFDA3BA000000003230257E3330253AEB
:105AD000000000003330257E3430253A00000000FD
