:020000040800F2
:10000000B80C00200D020008FD3E00088F390008E2
:10001000F93E0008350C00084967000800000000A0
:10002000000000000000000000000000E75C000885
:10003000D922000800000000C9430008F95D00084B
:100040002702000871430008270200082702000861
:10005000270200082702000827020008DD22000806
:1000600027020008270200082702000827020008CC
:1000700027020008270200082702000827020008BC
:1000800027020008270200082702000827020008AC
:10009000270200082702000827020008270200089C
:1000A000270200082702000827020008270200088C
:1000B0002702000827020008E55E00082702000862
:1000C000270200082702000827020008270200086C
:1000D000270200080D650008270200082702000813
:1000E000270200082702000827020008270200084C
:1000F000270200082702000827020008270200083C
:10010000270200082702000827020008270200082B
:10011000270200082702000827020008270200081B
:10012000270200082702000827020008270200080B
:1001300000F002F800F05AF80AA090E8000C82449F
:100140008344AAF10107DA4501D100F04FF8AFF27C
:10015000090EBAE80F0013F0010F18BFFB1A43F0A5
:1001600001031847E4B8000004B900000A444FF046
:10017000000C10F8013B13F0070408BF10F8014B06
:100180001D1108BF10F8015B641E05D010F8016B4B
:10019000641E01F8016BF9D113F0080F1EBF10F8AF
:1001A000014BAD1C0C1B09D16D1E58BF01F801CBD2
:1001B000FAD505E014F8016B01F8016B6D1EF9D555
:1001C0009142D6D37047000000230024002500266A
:1001D000103A28BF78C1FBD8520728BF30C148BFAA
:1001E0000B6070471FB51FBD10B510BD00F098F82B
:1001F0001146FFF7F7FF07F07DFC00F0B6F803B4F7
:10020000FFF7F2FF03BC07F0B7FB00000948804787
:1002100009480047FEE7FEE7FEE7FEE7FEE7FEE7E8
:10022000FEE7FEE7FEE7FEE704480549054A064B00
:1002300070470000FD5D000831010008B80600208D
:10024000B80C0020B8080020B8080020704702F061
:10025000FF0343EA032242EA024200F002B84FF0F1
:1002600000020429C0F0128010F0030C00F02A8074
:10027000CCF1040CBCF1020F18BF00F8012BA8BF91
:1002800020F8022BA1EB0C0100F01CB85FEAC17C46
:1002900024BF00F8012B00F8012B48BF00F8012B08
:1002A0007047704770477047704710B500F030F8DE
:1002B000006810BD10B5044600F02AF8046010BDB7
:1002C0004FF0000200B5134694469646203922BFEF
:1002D000A0E80C50A0E80C50B1F12001BFF4F7AF3A
:1002E000090728BFA0E80C5048BF0CC05DF804EB1C
:1002F000890028BF40F8042B08BF704748BF20F88A
:10030000022B11F0804F18BF00F8012B704700003E
:1003100000487047580600200048704758060020E3
:100320007546FFF7F9FFAE4605006946534620F0D3
:100330000700854618B020B5FFF776FFBDE82040DE
:100340004FF000064FF000074FF000084FF0000B91
:1003500021F00701AC46ACE8C009ACE8C009ACE844
:10036000C009ACE8C0098D4670470446AFF3008071
:100370002046FFF744FF00001CB503F031FB0020CE
:10038000FE490860022007F069FB042269469001DB
:1003900000F050FA9DF80000382801D0012000E05C
:1003A00000209DF80110362901D0012100E0002134
:1003B00008439DF802104F2901D0012100E00021DF
:1003C00008439DF803104B2901D0012100E00021D2
:1003D000084300287DD038208DF8000036208DF8A5
:1003E00001004F208DF802004B208DF803000422FD
:1003F0006946900100F056FA30208DF800008DF823
:1004000001008DF80200032269464FF4847000F069
:1004100049FA30208DF800008DF801002E208DF86B
:10042000020030208DF803008DF804008DF80500DF
:10043000062269464FF4887000F034FA06226946B5
:100440004FF4B87000F02EFA30208DF801002E2005
:100450008DF80200052269464FF48C7000F022FAF4
:10046000052269464FF4BC7000F01CFA31208DF86B
:1004700000002E208DF8010030208DF802008DF84C
:1004800003008DF804008DF805008DF806000522A4
:1004900069464FF4907000F005FA052269464FF462
:1004A000C07000F0FFF9052269464FF4947000F027
:1004B000F9F9052269464FF4987000F0F3F9052226
:1004C00069464FF49C7000F0EDF9052269469001F1
:1004D00000E051E100F0E6F9052269464FF4A4700E
:1004E00000F0E0F9052269464FF4A87000F0DAF94F
:1004F000052269464FF4AC7000F0D4F90522694634
:100500004FF4B07000F0CEF9052269464FF4B47094
:1005100000F0C8F9052269464FF4C47000F0C2F932
:10052000052269464FF4C87000F0BCF905226946FF
:100530004FF4CC7000F0B6F9052269464FF4D07044
:1005400000F0B0F9052269464FF4D47000F0AAF922
:10055000052269464FF4D87000F0A4F905226946D7
:100560004FF4DC7000F09EF9052269464FF4E0700C
:1005700000F098F9052269464FF4E47000F092F912
:100580002D208DF8000030208DF801008DF802003C
:1005900038208DF8030030208DF8040005226946CC
:1005A000502000F07FF920208DF8000030208DF8D9
:1005B00001008DF802002E208DF8030030208DF808
:1005C000040005226946582000F06CF920208DF8BF
:1005D000000030208DF8010031208DF802002E201F
:1005E0008DF8030030208DF804008DF805008DF89B
:1005F00006008DF8070006226946602000F052F9D7
:1006000008226946682000F04DF9062269467020EC
:1006100000F048F906226946782000F043F93020BE
:100620008DF8000033208DF8010034208DF8020091
:1006300039208DF8030030208DF804008DF8050076
:100640008DF806008DF8070008226946802000F02A
:1006500029F930208DF800008DF801008DF8020096
:1006600038208DF8030030208DF804008DF8050047
:100670008DF806008DF8070008226946882000F0F2
:1006800011F920208DF8000030208DF801008DF840
:1006900002008DF803008DF804008DF805008DF838
:1006A00006008DF8070008226946902000F0FAF84D
:1006B00030208DF8000031208DF8010030208DF8B9
:1006C00002008DF803002E208DF8040030208DF8F4
:1006D00005008DF80600062269464FF4E87000F028
:1006E000E1F8062269464FF4EC7000F0DBF80622D0
:1006F0006946D02000F0D6F806226946D82000F0DE
:10070000D1F830208DF800008DF801008DF802003E
:100710008DF803008DF804008DF805002E208DF86B
:10072000060030208DF80700082269464FF4F0706B
:1007300000F0B8F808226946900100F0B3F83020C4
:100740008DF800008DF801008DF802008DF803008F
:100750008DF804008DF805008DF806008DF807006F
:10076000082269464FF4F87000F09CF808226946A8
:100770004FF4027000F096F8022001E094812142CB
:1007800007F06CF901226946752000F053F89DF8D6
:10079000000021490870032269464FF4847000F07C
:1007A00049F89DF800003038642148439DF8011055
:1007B000303901EB810100EB41019DF80200303836
:1007C00008441649086008460068FF2801D9FF2040
:1007D00008601248006812490844104908604FF444
:1007E000F8726946042000F095F80E490860084642
:1007F0000068000108600846008800F5027082B2B7
:100800000949082000F086F80849086000F0B4F8AB
:100810000120074908601CBD6C000020C4000020B6
:1008200000049411A80100209C010020A4010020D4
:10083000948121422DE9F04104460E46154603F00D
:100840006BF9A02003F038F903F0C0F9201203F08F
:1008500033F903F0BBF92746E11704EB11610912E4
:10086000A4EB0121C8B203F027F903F0AFF903F0BC
:1008700053F9A12003F020F903F08CF809E0691E78
:10088000C8B203F0EDF83070681E85B2601C84B207
:10089000761C002DF3D103F06DF90A2007F0DEF885
:1008A000BDE8F0812DE9F04104460D4616460020D2
:1008B0001749086003F030F9A02003F0FDF803F0B9
:1008C00085F9201203F0F8F803F080F92746E117C4
:1008D00004EB11610912A4EB0121C8B203F0ECF89A
:1008E00003F074F907E0287803F0E6F803F06EF9F6
:1008F000701E86B26D1C002EF5D103F03BF901206D
:10090000034908600A2007F0A9F8BDE8F08100005B
:10091000948121422DE9F04704460D4616464FF0DA
:10092000000900274FF001084FF6FF70864204D0FF
:10093000224629463046FFF77DFF13E0601E285C03
:100940003A280DDC601E285C302809DB601E285C1C
:10095000303800FB08F908EB88004FEA40084F44A4
:10096000601EC4B2002CE9DC28782D2801D1F843A0
:10097000471C3846BDE8F0871CB590226946082020
:10098000FFF7C8FF96490860802269460820FFF7F4
:10099000C1FF94490860882269460820FFF7BAFF22
:1009A00091490860682269460520FFF7B3FF00B24D
:1009B0008E490880602269460520FFF7ABFF00B230
:1009C0008B490880582269460520FFF7A3FF00B233
:1009D00088490880502269460520FFF79BFF00B236
:1009E000854908804FF4887269460620FFF792FF18
:1009F000824908804FF48C7269460520FFF78AFF10
:100A00007F4908804FF4E87269460620FFF782FFAD
:100A100000EB800040007B490860D0226946062038
:100A2000FFF778FF00EB80004000774908604FF443
:100A3000907269460520FFF76DFF744908804FF4F6
:100A4000947269460520FFF765FF704948804FF4AE
:100A5000987269460520FFF75DFF6C4988804FF466
:100A60009C7269460520FFF755FF6849C8804FF41E
:100A7000A07269460520FFF74DFF644908814FF4D5
:100A8000A47269460520FFF745FF604948814FF48D
:100A9000A87269460520FFF73DFF5C4988814FF445
:100AA000AC7269460520FFF735FF5849C8814FF4FD
:100AB000B07269460520FFF72DFF544908824FF4B4
:100AC000B47269460520FFF725FF504948824FF46C
:100AD000B87269460620FFF71DFF4D4908804FF4A4
:100AE000BC7269460520FFF715FF4A4908804FF49C
:100AF000EC7269460620FFF70DFF00EB8000400016
:100B000045490860D82269460620FFF703FF00EB3D
:100B100080004000414908604FF4C07269460520DA
:100B2000FFF7F8FE3E4908804FF4C472694605207D
:100B3000FFF7F0FE3A4948804FF4C8726946052035
:100B4000FFF7E8FE364988804FF4CC7269460520ED
:100B5000FFF7E0FE3249C8804FF4D07269460520A5
:100B6000FFF7D8FE2E4908814FF4D472694605205C
:100B7000FFF7D0FE2A4948814FF4D8726946052014
:100B8000FFF7C8FE264988814FF4DC7269460520CC
:100B9000FFF7C0FE2249C8814FF4E0726946052084
:100BA000FFF7B8FE1E4908824FF4E472694605203B
:100BB000FFF7B0FE1A4948821A48008800F5007015
:100BC00082B219490820FFF7A5FE184908606F2274
:100BD00069460120FFF79EFE154908701CBD000004
:100BE0009C0000209400002098000020800000203D
:100BF0007E0000207C0000207A000020720000208F
:100C000076000020840000208C000020E0010020FD
:100C10007400002078000020880000209000002050
:100C2000F4010020A80100202B0000205800002023
:100C30006C00002000BFFEE71FB501F0E1F80622BE
:100C400002A94FF4E870FFF7F5FD5A208DF8000077
:100C500053208DF801009DF808008DF802009DF8E2
:100C600009008DF803009DF80A008DF804009DF836
:100C70000B008DF805009DF80C008DF806009DF81E
:100C80000D008DF8070008226946FE48006801F053
:100C9000EFFA322006F0E2FE062202A94FF4EC70D1
:100CA000FFF7C8FD46208DF8000053208DF80100A5
:100CB0009DF808008DF802009DF809008DF80300EA
:100CC0009DF80A008DF804009DF80B008DF80500D2
:100CD0009DF80C008DF806009DF80D008DF80700BA
:100CE00008226946E748006801F0C2FA322006F09F
:100CF000B5FE052202A94FF48870FFF79BFD5A202C
:100D00008DF800004C208DF801009DF808008DF84A
:100D100002009DF809008DF803009DF80A008DF887
:100D200004009DF80B008DF805009DF80C008DF86F
:100D3000060020208DF8070008226946D148006887
:100D400001F096FA322006F089FE052202A94FF43E
:100D5000B870FFF76FFD46208DF800004C208DF82D
:100D600001009DF808008DF802009DF809008DF83B
:100D700003009DF80A008DF804009DF80B008DF823
:100D800005009DF80C008DF8060020208DF8070066
:100D900008226946BB48006801F06AFA322006F072
:100DA0005DFE052202A94FF48C70FFF743FD5A2027
:100DB0008DF8000051208DF801009DF808008DF895
:100DC00002009DF809008DF803009DF80A008DF8D7
:100DD00004009DF80B008DF805009DF80C008DF8BF
:100DE000060008226946A748006801F041FA32204F
:100DF00006F034FE062202A94FF4BC70FFF71AFD7C
:100E000046208DF8000051208DF801009DF8080063
:100E10008DF802009DF809008DF803009DF80A0086
:100E20008DF804009DF80B008DF805009DF80C006E
:100E30008DF80600082269469248006801F018FA09
:100E4000322006F00BFE052202A94FF49070FFF746
:100E5000F1FC5A208DF8000030208DF801009DF83B
:100E600008008DF802009DF809008DF803009DF838
:100E70000A008DF804009DF80B008DF805009DF820
:100E80000C008DF80600082269467E48006801F0D3
:100E9000EFF9322006F0E2FD052202A94FF4C070FE
:100EA000FFF7C8FC46208DF8000030208DF80100C7
:100EB0009DF808008DF802009DF809008DF80300E8
:100EC0009DF80A008DF804009DF80B008DF80500D0
:100ED0009DF80C008DF806000822694669480068F4
:100EE00001F0C6F9322006F0B9FD052202A94FF43F
:100EF0009470FFF79FFC5A208DF8000031208DF888
:100F000001009DF808008DF802009DF809008DF899
:100F100003009DF80A008DF804009DF80B008DF881
:100F200005009DF80C008DF806000822694655481A
:100F3000006801F09DF9322006F090FD052202A91B
:100F40004FF4C470FFF776FC46208DF80000312086
:100F50008DF801009DF808008DF802009DF8090049
:100F60008DF803009DF80A008DF804009DF80B0031
:100F70008DF805009DF80C008DF8060008226946E2
:100F80004048006801F074F9322006F067FD052240
:100F900002A94FF49870FFF74DFC5A208DF800001D
:100FA00032208DF801009DF808008DF802009DF8B0
:100FB00009008DF803009DF80A008DF804009DF8E3
:100FC0000B008DF805009DF80C008DF80600082236
:100FD00069462C48006801F04BF9322006F03EFDCE
:100FE000052202A94FF4C870FFF724FC46208DF8B3
:100FF000000032208DF801009DF808008DF80200F5
:101000009DF809008DF803009DF80A008DF8040092
:101010009DF80B008DF805009DF80C008DF806007A
:10102000082269461748006801F022F9322006F0CC
:1010300015FD052202A94FF49C70FFF7FBFB5A2017
:101040008DF8000033208DF801009DF808008DF820
:1010500002009DF809008DF803009DF80A008DF844
:1010600004009DF80B008DF805009DF80C008DF82C
:101070000600082269460348006801F0F9F83220AA
:1010800002E00000C400002006F0E8FC052202A9EE
:101090004FF4CC70FFF7CEFB46208DF800003320D4
:1010A0008DF801009DF808008DF802009DF80900F8
:1010B0008DF803009DF80A008DF804009DF80B00E0
:1010C0008DF805009DF80C008DF806000822694691
:1010D000FE48006801F0CCF8322006F0BFFC052283
:1010E00002A99001FFF7A6FB5A208DF800003420DA
:1010F0008DF801009DF808008DF802009DF80900A8
:101100008DF803009DF80A008DF804009DF80B008F
:101110008DF805009DF80C008DF806000822694640
:10112000EA48006801F0A4F8322006F097FC052296
:1011300002A94FF4D070FFF77DFB46208DF8000028
:1011400034208DF801009DF808008DF802009DF80C
:1011500009008DF803009DF80A008DF804009DF841
:101160000B008DF805009DF80C008DF80600082294
:101170006946D648006801F07BF8322006F06EFC24
:10118000052202A94FF4A470FFF754FB5A208DF8F2
:10119000000035208DF801009DF808008DF8020050
:1011A0009DF809008DF803009DF80A008DF80400F1
:1011B0009DF80B008DF805009DF80C008DF80600D9
:1011C00008226946C148006801F052F8322006F052
:1011D00045FC052202A94FF4D470FFF72BFB4620F3
:1011E0008DF8000035208DF801009DF808008DF87D
:1011F00002009DF809008DF803009DF80A008DF8A3
:1012000004009DF80B008DF805009DF80C008DF88A
:10121000060008226946AD48006801F029F832202E
:1012200006F01CFC052202A94FF4A870FFF702FB90
:101230005A208DF8000036208DF801009DF8080036
:101240008DF802009DF809008DF803009DF80A0052
:101250008DF804009DF80B008DF805009DF80C003A
:101260008DF80600082269469848006801F000F8E9
:10127000322006F0F3FB052202A94FF4D870FFF7E5
:10128000D9FA46208DF8000036208DF801009DF82F
:1012900008008DF802009DF809008DF803009DF804
:1012A0000A008DF804009DF80B008DF805009DF8EC
:1012B0000C008DF80600082269468448006800F09A
:1012C000D7FF322006F0CAFB052202A94FF4AC700A
:1012D000FFF7B0FA5A208DF8000037208DF8010092
:1012E0009DF808008DF802009DF809008DF80300B4
:1012F0009DF80A008DF804009DF80B008DF805009C
:101300009DF80C008DF80600082269466F480068B9
:1013100000F0AEFF322006F0A1FB052202A94FF437
:10132000DC70FFF787FA46208DF8000037208DF833
:1013300001009DF808008DF802009DF809008DF865
:1013400003009DF80A008DF804009DF80B008DF84D
:1013500005009DF80C008DF80600082269465B48E0
:10136000006800F085FF322006F078FB052202A914
:101370004FF4B070FFF75EFA5A208DF80000382065
:101380008DF801009DF808008DF802009DF8090015
:101390008DF803009DF80A008DF804009DF80B00FD
:1013A0008DF805009DF80C008DF8060008226946AE
:1013B0004648006800F05CFF322006F04FFB082230
:1013C00002A94FF4E070FFF735FA46208DF80000CF
:1013D00038208DF801009DF808008DF802009DF876
:1013E00009008DF803009DF80A008DF804009DF8AF
:1013F0000B008DF805009DF80C008DF80600082202
:1014000069463248006800F033FF322006F026FBC0
:10141000052202A94FF4B470FFF70CFA5A208DF898
:10142000000039208DF801009DF808008DF80200B9
:101430009DF809008DF803009DF80A008DF804005E
:101440009DF80B008DF805009DF80C008DF8060046
:10145000082269461D48006800F00AFF322006F0A5
:10146000FDFA052202A94FF4E470FFF7E3F94620E4
:101470008DF8000039208DF801009DF808008DF8E6
:1014800002009DF809008DF803009DF80A008DF810
:1014900004009DF80B008DF805009DF80C008DF8F8
:1014A0000600082269460948006800F0E1FE322083
:1014B00006F0D4FA042202A95020FFF7BBF9572006
:1014C0008DF800004B208DF8010001E0C4000020E1
:1014D0009DF808008DF802002E208DF803009DF87D
:1014E0000A008DF804009DF80B008DF805009DF8AA
:1014F0000C008DF8060030208DF8070020208DF8B4
:101500000700082269466E48006800F0B1FE3220EC
:1015100006F0A4FA062202A95820FFF78BF95720FB
:101520008DF8000042208DF801009DF808008DF82C
:1015300002002E208DF805009DF809008DF80300AB
:101540009DF80A008DF804009DF80C008DF8060047
:101550009DF80D008DF8070008226946584800687C
:1015600000F086FE322006F079FA062202A96020F9
:10157000FFF760F95A208DF8000057208DF8010020
:101580009DF808008DF802002E208DF806009DF8C9
:1015900009008DF803009DF80A008DF804009DF8FD
:1015A0000B008DF805009DF80D008DF8070008224E
:1015B00069464348006800F05BFE322006F04EFAB0
:1015C000062202A96820FFF735F946208DF80000B1
:1015D00057208DF801009DF808008DF802002E209C
:1015E0008DF806009DF809008DF803009DF80A00AB
:1015F0008DF804009DF80B008DF805009DF80D0096
:101600008DF80700082269462D48006800F030FE7A
:10161000322006F023FA062202A97020FFF70AF909
:101620005A208DF800004A208DF801009DF808002E
:101630008DF802002E208DF806009DF809008DF827
:1016400003009DF80A008DF804009DF80B008DF84A
:1016500005009DF80D008DF807000822694618481E
:10166000006800F005FE322006F0F8F9062202A913
:101670007820FFF7DFF846208DF800004A208DF82B
:1016800001009DF808008DF802002E208DF806005C
:101690009DF809008DF803009DF80A008DF80400FC
:1016A0009DF80B008DF805009DF80D008DF80700E2
:1016B000082269460248006800F0DAFD1FBD0000FC
:1016C000C400002010B50021837A012202FA03F140
:1016D0003D4A126842F001023B4B1A603A4A1C3202
:1016E00012688A43384B1C331A60027BCAB9364AE7
:1016F0000C3212688A43344B0C331A604288C38818
:1017000042EA0343304A4032847A42F83430028855
:10171000838842EA03432C4A4032847A02EBC402B3
:101720005360027B012A19D1274A0C3212680A43FE
:10173000254B0C331A604288038842EA0343224A4D
:101740004032847A42F83430C288838842EA0343C4
:101750001D4A4032847A02EBC4025360C27A3AB91D
:10176000194A121D12688A43174B1B1D1A6006E0A6
:10177000154A121D12680A43134B1B1D1A60028979
:1017800032B9114A143212688A430F4B14331A606B
:101790000289012A06D10C4A143212680A430A4B04
:1017A00014331A60427B012A06D1074A1C321268A0
:1017B0000A43054B1C331A60034A126822F00102E7
:1017C000014B1A6010BD00000066004030B50246B3
:1017D00000200023146824F002041460146844F00C
:1017E0000104146000E05B1C546804F001041CB99F
:1017F0004FF6FF74A342F6D1546804F001040CB90B
:1018000000206CE08C79012C04D1146844F0800431
:10181000146003E0146824F080041460CC79012C77
:1018200004D1146844F04004146003E0146824F008
:10183000400414600C7A012C04D1146844F0200494
:10184000146003E0146824F0200414604C7A012C26
:1018500004D1146844F01004146003E0146824F008
:10186000100414608C7A012C04D1146844F008042C
:10187000146003E0146824F008041460CC7A012C8E
:1018800004D1146844F00404146003E0146824F0E4
:10189000040414608C78A407CD7844EA05640D79BB
:1018A00044EA05444D7944EA05540D886D1E2C43E5
:1018B000D461146824F001041460002300E05B1C70
:1018C000546804F001041CB14FF6FF74A342F6D132
:1018D000546804F001040CB1002000E0012030BD88
:1018E0000246002019B9D36803F0030006E001297D
:1018F00003D1136903F0030000E0002070470000EB
:101900002DE9F04188B004460D4616461F46DDF825
:1019100038800121042002F0E9FD0121480602F08F
:10192000D5FD4FF48050ADF81C0003208DF81E004B
:1019300018208DF81F0007A92F4801F089FA4FF4ED
:101940000060ADF81C0048208DF81F0007A92A4848
:1019500001F07EFA00208DF8160001208DF81700A6
:1019600000208DF8180001208DF8190000208DF856
:101970001A008DF81B008DF812808DF813408DF839
:1019800014608DF81550ADF8107004A91B48FFF7CE
:101990001DFF00208DF80A0001208DF80B008DF846
:1019A0000C001748006840F48030C0F34F30ADF8A9
:1019B000000013480088042101EBC00080B2ADF89C
:1019C00002000F48006840F48030C0F34F30ADF89B
:1019D00004000B48008801EBC00080B2ADF806009F
:1019E0000020ADF8080001208DF80D006846FFF7D3
:1019F00069FE08B0BDE8F0810008014000640040C5
:101A0000C400002010B500F5D87303EB01131B6868
:101A100003F004031372137A53B900F5D87303EB80
:101A200001131B6840F2FF7404EA5353136009E08A
:101A300000F5D87303EB01131B686FF0604404EAF0
:101A4000D303536000F5D87303EB01131B6803F055
:101A50000203537200F5D87303EB01135B6803F0C4
:101A60000F03937200F5D87303EB01135B681B0A35
:101A7000D37400F5D87303EB01139B68D37200F5A0
:101A8000D87303EB01139B681C0A147300F5D87319
:101A900003EB01139B681C0C547300F5D87303EB24
:101AA00001139B681B0E937300F5D87303EB0113AE
:101AB000DB68D37300F5D87303EB0113DB681C0AF2
:101AC000147400F5D87303EB0113DB681C0C547419
:101AD00000F5D87303EB0113DB681B0E937421B977
:101AE000C36843F02003C36003E0036943F02003AD
:101AF000036110BD1CB5002406E0BC49A01C085CB5
:101B00000DF80400601CC4B2072CF6DBB84800785E
:101B100001282AD1B5480078532801D1012000E0DE
:101B20000020B2494978542901D1012100E0002167
:101B3000084000280BD0AD4880784F2808D10020FD
:101B4000AC490870AC480088401CAB49088045E1AE
:101B5000A64880784128FAD10120A6490870A748F4
:101B60000088401CA549088038E1A1480078022877
:101B7000EDD19E4800785A2872D19C484078372889
:101B800059D009DCA0F1300007287ED2DFE800F050
:101B9000232A31383F454C004C280ED006DC38282B
:101BA00050D0392855D04A286FD162E051280BD047
:101BB000532857D0572868D161E0062269464FF470
:101BC0008870FEF76FFE61E0052269464FF48C7065
:101BD000FEF768FE5AE0052269464FF49070FEF762
:101BE00061FE53E0052269464FF49470FEF75AFEF9
:101BF0004CE0052269464FF49870FEF753FE45E02D
:101C0000052269464FF49C70FEF74CFE3EE005222B
:101C100069469001FEF746FE38E0052269464FF41A
:101C2000A470FEF73FFE31E0052269464FF4A8702C
:101C3000FEF738FE2AE0052269464FF4AC70FEF745
:101C400031FE23E0052269464FF4B070FEF72AFE0C
:101C50001CE0052269464FF4B470FEF723FE15E040
:101C600015E012E0052269464FF4E870FEF71AFE0F
:101C70000CE0062269467020FEF714FE06E00622FC
:101C800069466020FEF70EFE00E000BF00BF574827
:101C90000078462873D15548407837285AD009DC57
:101CA000A0F1300007287FD2DFE800F0232A313886
:101CB0003F464D004C280ED006DC382851D039283C
:101CC00056D04A2870D163E051280BD0532858D001
:101CD000572869D162E0062269464FF4B870FEF7D2
:101CE000E1FD62E0052269464FF4BC70FEF7DAFDC3
:101CF0005BE0052269464FF4C070FEF7D3FD54E067
:101D0000052269464FF4C470FEF7CCFD4DE0052274
:101D100069464FF4C870FEF7C5FD46E005226946E6
:101D20004FF4CC70FEF7BEFD3FE0052269464FF44C
:101D3000D070FEF7B7FD38E0052269464FF4D47045
:101D4000FEF7B0FD31E0052269464FF4D870FEF78A
:101D5000A9FD2AE0052269464FF4DC70FEF7A2FDDA
:101D600023E0052269464FF4E070FEF79BFD1CE07E
:101D7000052269464FF4E470FEF794FD15E015E086
:101D800012E0052269464FF4EC70FEF78BFD0CE083
:101D9000062269467820FEF785FD06E006226946A0
:101DA0006820FEF77FFD00E000BF00BF0F4800780D
:101DB000572813D10D484078422807D04B280BD123
:101DC000042269465020FEF76DFD06E005226946B3
:101DD0005820FEF767FD00E000BF00BF0348007811
:101DE0004C2801D101F0D8FF1CBD0000A10000204B
:101DF000A90000207501002054000020560000209A
:101E00001CB50024002002F0F1F800BF01201021D1
:101E100003461DA2CDE900100A21204601F06FFD06
:101E200004F10800C4B2802CF0DB0120102103462D
:101E300015A2CDE900101E21002001F060FD012057
:101E400012A310221E210090104601F0EDF901208E
:101E5000102103460CA2CDE900101E21782001F0CC
:101E60004EFD002400BF01201021034606A2CDE94B
:101E700000103221204601F042FD04F10800C4B2F6
:101E8000802CF0DB1CBD00002A000000D5FDD4DA58
:101E9000C9E8D6C3B2CECAFD0000000010B50246A4
:101EA0000020936803F08063B3F1806F00D110E0ED
:101EB000936803F00063B3F1006F01D1012008E0E3
:101EC000936803F08053B3F1805F01D1022000E0FA
:101ED0000420042874D002F5C07303EB00131B68C0
:101EE00003F0010402F5C07303EB00131C600B7ACE
:101EF0007BB94B7A0C8843EA445302F5C07404EB77
:101F000000142468234302F5C07404EB001423601A
:101F100010E00B7A4C6843EAC4034C7A234302F581
:101F2000C07404EB00142468234302F5C07404EB6E
:101F3000001423608B7A03F00F038B7202F5C073D9
:101F400003EB00135B6823F00F0402F5C07303EB8F
:101F500000135C6002F5C07303EB00135B688C7ABE
:101F6000234302F5C07404EB001463608B7B1C06F2
:101F70004B7B44EA03440B7B44EA0323CC7A2343A0
:101F800002F5C07404EB0014A3608B7C1C064B7C30
:101F900044EA03440B7C44EA0323CC7B234302F54D
:101FA000C07404EB0014E36002F5C07303EB00138C
:101FB0001B6843F0010402F5C07303EB00131C60BF
:101FC00010BD000010B50246002321B1012907D041
:101FD00002290FD109E090681D4C00EA04030BE0D0
:101FE00090681C4C00EA040306E090681A4C00EA72
:101FF000040301E0002300BF00BF184C181BA342DC
:1020000016D007DC83B16FF08060184470B10228ED
:1020100018D111E0B0F5007F10D0114C204448B128
:10202000B0F5003F0ED10BE002230DE000230BE0E2
:10203000002309E0002307E0012305E0012303E07A
:10204000012301E0002300BF00BFD8B210BD000093
:102050000300000400030008000003100001000852
:102060000001FFF73EB5334800683349098808444A
:1020700032490988401A2DD42E4800882E490988F3
:1020800008442E490988401A2B49088001A80023DA
:102090000322062100902848008801F030FF0DF14E
:1020A0000504062221464FF48870FEF7FBFB002052
:1020B0002249088001A800230322062100901F481E
:1020C000008801F01CFF062221464FF4B870FEF78D
:1020D000E9FB2EE017480088C043401C17490988D7
:1020E000084415490988401A1449088001A80023AA
:1020F0000322062100901148008801F000FF0DF135
:102100000504062221464FF4B870FEF7CBFB0020F1
:102110000949088001A800230322062100900648EF
:10212000008801F0ECFE062221464FF48870FEF78D
:10213000B9FB3EBD6000002072000020740000204A
:102140003EB5334800683349098808443249098854
:10215000401A2DD42E4800882E49098808442E495B
:102160000988401A2B49088001A800230322062170
:1021700000902848008801F0C2FE0DF105040622F7
:1021800021464FF48870FEF78DFB0020224908801D
:1021900001A800230322062100901F48008801F0B7
:1021A000AEFE062221464FF4B870FEF77BFB2EE010
:1021B00017480088C043401C17490988084415493E
:1021C0000988401A1449088001A800230322062127
:1021D00000901148008801F092FE0DF105040622DE
:1021E00021464FF4B870FEF75DFB002009490880D6
:1021F00001A800230322062100900648008801F070
:102200007EFE062221464FF48870FEF74BFB3EBD52
:1022100060000020720000207400002030B585B0FE
:10222000054600211048FFF75BFB10B9002005B000
:1022300030BD6A4600210C48FFF7E4FB0B490198CA
:10224000096841F4803188420BD1002404E00DF18B
:102250000B00005D2855641C082CF8D39DF80A007B
:10226000E5E70020E3E7000000640040C400002030
:102270002DE9F04186B005468846164600240195B2
:10228000029504208DF80C0000208DF80D008DF8CB
:102290000E6000BF06E018F804100DF10F000155A4
:1022A000601C84B2B442F6DB01A90A48FFF7F6FDD0
:1022B0000746002401E0601C84B239460548FFF758
:1022C00081FE18B940F6FF708442F4DB06B0BDE829
:1022D000F081000000640040704700000C48006876
:1022E00020F080000A49086011E04FF400510948CD
:1022F00000F042FE40F6B83005F0B0FB4FF400515C
:10230000044800F03BFE40F6B83005F0A7FBECE7D0
:102310000004014000100140014600200022074B4C
:102320001B6803EA0102054B14331B680B4013B111
:102330000AB1012000E000207047000000040140C5
:102340001CB5002001F052FE012025A3102203211C
:102350000090002000F068FF012023A31022182124
:102360000090002000F060FF012021A310222D2109
:102370000090002000F058FF0120102103231EA22E
:10238000CDE900101946642001F0B9FA01200821B6
:1023900003461AA2CDE9001003216C2001F0AFFA28
:1023A00001201021034616A2CDE90010182170204B
:1023B00001F0A5FA01200821034610A2CDE9001082
:1023C0001821782001F09BFA0120102103230DA28F
:1023D000CDE900102D21682001F091FA1CBD00000C
:1023E000C1F7C1BF00000000C0DBBCC60000000098
:1023F000B2EED1B9000000006D2F6800330000007C
:102400006D0000004B5061001CB5002001F0EEFD96
:10241000F64890F900001E286ADA01203A237F224C
:1024200005210090002000F003FE01203A233F2206
:1024300005210090104600F0A3FD012020237F22FB
:1024400019460090002000F09BFD0120E8A3102217
:1024500000210090104600F0E7FE0120E6A31022C4
:1024600000210090462000F0DFFE0120E4A31022AE
:1024700030210090052000F0D7FE0120E2A31022B9
:1024800030210090462000F0CFFE012010210346AD
:10249000DFA2CDE900100E21342001F030FA012036
:1024A00010210223DBA2CDE900100021692001F0F8
:1024B00026FA012010210323D7A2CDE900103021F4
:1024C000252001F01CFA012008210346D3A2CDE902
:1024D000001030212D2001F012FA012010210223DA
:1024E000CCA2CDE900103021692001F008FA3BE2CE
:1024F00001203F237F2200210090084600F098FD34
:10250000C74890F90040062C13DA002C11DB01209B
:102510000821CDE900102046621C54B200EB800077
:102520004000C01CC1B20823BEA21A2001F0E7F986
:1025300001E0601C44B2062C0FDA002C0DDB0120F8
:102540000821CDE9001004EB84004000C01CC1B29A
:102550000C23B7A2022001F0D2F9062C13DA002CCA
:1025600011DB01200821CDE900102046621C54B285
:1025700000EB80004000C01CC1B20123B0A26E205D
:1025800001F0BDF901E0601C44B2062C0FDA002C0A
:102590000DDB01200821CDE9001004EB8400400090
:1025A000C01CC1B20B23A7A2082001F0A8F9062C79
:1025B00013DA002C11DB01200821CDE900102046A0
:1025C000621C54B200EB80004000C01CC1B2022368
:1025D00090A26E2001F093F901E0601C44B2062C39
:1025E00013DA002C11DB01200821CDE90010204670
:1025F000621C54B200EB80004000C01CC1B2092331
:1026000093A2142001F07BF901E0601C44B2062C77
:1026100013DA002C11DB01200821CDE9001020463F
:10262000621C54B200EB80004000C01CC1B20B23FE
:102630008AA2082001F063F901E0601C44B2062C74
:1026400013DA002C11DB01200821CDE9001020460F
:10265000621C54B200EB80004000C01CC1B20823D1
:1026600081A21A2001F04BF901E0601C44B2062C53
:1026700013DA002C11DB01200821CDE900102046DF
:10268000621C54B200EB80004000C01CC1B20B239E
:1026900078A2082001F033F901E0601C44B2062C56
:1026A00013DA002C11DB01200821CDE900102046AF
:1026B000621C54B200EB80004000C01CC1B20B236E
:1026C0006FA2082001F01BF901E0601C44B2062C47
:1026D00013DA002C11DB01200821CDE9001020467F
:1026E000621C54B200EB80004000C01CC1B2062343
:1026F00066A2262001F003F901E0601C44B2062C1A
:1027000013DA002C11DB01200821CDE9001020464E
:10271000621C54B200EB80004000C01CC1B20A230E
:102720005CA20E2001F0EBF801E0601C44B2062C24
:1027300013DA002C11DB01200821CDE9001020461E
:10274000621C54B200EB80004000C01CC1B20823E0
:1027500053A21A2001F0D3F801E0601C44B2062C09
:1027600013DA002C11DB01200821CDE900102046EE
:10277000621C54B200EB80004000C01CC1B20823B0
:102780004AA21A2001F0BBF801E0601C44B2062CFA
:1027900013DA002C11DB01200821CDE900102046BE
:1027A000621C54B200EB80004000C01CC1B2082380
:1027B00041A21A2001F0A3F801E0601C44B2062CEB
:1027C00013DA002C11DB01200821CDE9001020468E
:1027D000621C54B200EB80004000C01CC1B2082350
:1027E00038A21A2001F08BF874E071E06E0000202E
:1027F000CEC2B6C800000000CEC2B2EE000000009B
:10280000C1F7C1BF00000000B2EED1B90000000066
:1028100043000000506100006D2F6800330000008D
:102820006D00002056657273696F6E3A00000000FB
:1028300054656D70657261747572653A00000000D0
:1028400024000000436F7272656374696F6E3A0012
:1028500053616D706C696E673A0000005265736970
:102860007374616E63653A005B5D416E676C653AD7
:1028700000000000454550524F4D204269743A0017
:10288000454550524F4D204E756D3A004572726F5E
:10289000723A000045535220422C452C573A000012
:1028A000455352204C45433A000000004553522006
:1028B0005445433A00000000455352205245433AE4
:1028C000000000004D435220302D373A0000000038
:1028D000601C44B2062C13DA002C11DB0120082105
:1028E000CDE900102046621C54B200EB800040008D
:1028F000C01CC1B209231DA2142001F000F801E0A0
:10290000601C44B2062C13DA002C11DB01200821D4
:10291000CDE900102046621C54B200EB800040005C
:10292000C01CC1B2072314A2202000F0E8FF01E080
:10293000601C44B2062C13DA002C11DB01200821A4
:10294000CDE900102046621C54B200EB800040002C
:10295000C01CC1B205230AA22C2000F0D0FF03E066
:10296000601C44B2601C44B21CBD00005246305290
:1029700020464D503A000000465F53495A453A0000
:10298000465F49443A0000001CB5002001F02EFBD0
:10299000012020A3102211460090152000F044FCD5
:1029A000012020A3102220210090002000F03CFCF8
:1029B0000120102104231DA2CDE900102021602058
:1029C00000F09DFF0120082103461AA2CDE9001066
:1029D00024216B2000F093FF012017A31022302147
:1029E0000090002000F020FC0120102104230FA201
:1029F000CDE900103021602000F081FF0120082186
:102A000003460CA2CDE9001034216B2000F077FFC3
:102A10001CBD0000CFF2C1F7C1BFC1BFB3CCA3BA88
:102A200000000000CFB5CAFDA3BA00006D202F68DA
:102A30000000000033000000C1BFB3CCA3BA000007
:102A40001CB5002001F0D2FA012012A310220021AF
:102A50000090104600F0E8FB01201021082311A28D
:102A6000CDE90010042000F04AFF012010210823C6
:102A70000FA2CDE900102021042000F040FF01202A
:102A8000102108230DA2CDE900103021042000F010
:102A900036FF1CBDCFF2D0DED5FDB2CECAFDA3BA43
:102AA000000000003530257E3630253A0000000059
:102AB0003630257E3730253A000000003730257E3D
:102AC0003830253A000000002DE9F04F85B005466A
:102AD000774804907749049806F00CFC0390DDE9F0
:102AE000031006F0FDFD83464FF0804106F002FC26
:102AF0008246039906F090FB07466F480068642100
:102B000090FBF1FA504606F007FD80466B480068DE
:102B1000642190FBF1FA504606F0FEFC0290284634
:102B200006F0FAFC8246664906F0E4FB81466548F9
:102B30000078002859D161480068002855D05E48C7
:102B40000068002851D00021484606F095FC04D1C9
:102B5000384606F0C5FC04B29AE0484606F098FEF6
:102B60004FF00042002011400246404051400843CF
:102B700020D05549484606F0E7FC8146DDE90310C0
:102B800006F0AEFD8346414606F0B4FB8246494658
:102B900006F0DAFC06464FF08041304606F0AAFB0C
:102BA00006463146384606F09BFD824606F098FC04
:102BB00004B26DE0DDE9031006F092FD414601909C
:102BC00006F098FB8346494606F0BEFC82464FF06D
:102BD000804106F08FFB06463946304606F01CFB66
:102BE000824606F07DFC04B252E0364800780128A7
:102BF0004AD132480068002846D02F480068002893
:102C000042D025B9039806F06BFC04B240E04FF0C7
:102C10000043002103EAE5700A4649405040014361
:102C20001BD02949484606F08FFC8146DDE9031098
:102C300006F056FD01460090029806F05BFB8346C5
:102C40005946484606F056FB8246039906F0E4FAD8
:102C5000019006F045FC04B21AE0DDE9031006F02D
:102C60003FFD01460090404606F044FB01460190BE
:102C7000484606F03FFB8346039906F0CDFA8246AC
:102C800006F02EFC04B203E0039806F029FC04B21F
:102C9000B4F5805F02DB40F6FF7402E0052C00DA39
:102CA0000A24A0B200F030F805B0BDE8F08F0000B3
:102CB00000F07F450000A0408C0000209000002024
:102CC00000007A446C000020000080BF08B501219C
:102CD000042001F00BFC0121084601F007FC032051
:102CE000ADF8000010208DF8030003208DF80200DD
:102CF0006946044800F0ACF80321024800F03EF9B0
:102D000008BD00000008014070B50446002500F031
:102D10005DF8B02000F034F800F016F8022000F062
:102D20002FF800F011F82107080E00F029F800F044
:102D30000BF8C4F3071000F023F800F005F800F0DA
:102D400067F8284670BD000010B500200A490860E9
:102D500001F046FC00200949C1F88001042004F07C
:102D6000A3FE012004490860042004F09DFE002019
:102D70000249C1F8840110BD8401214200002142B2
:102D800070B5044601F02CFC00200E4908600025B7
:102D900014E0E0090B49091F08606006040E0420D6
:102DA00004F082FE01200849C1F88401042004F0E7
:102DB0007BFE002003490860681CC5B2082DE8DBD3
:102DC00070BD0000840121420000214210B501F0D5
:102DD00007FC01200C49086004F066FE01200B4945
:102DE000C1F88401052004F05FFE00200649086058
:102DF000052004F059FE00200449C1F88401052093
:102E000004F052FE10BD000080012142000021426A
:102E100010B501F0E5FB00200B490860052004F027
:102E200043FE00200949C1F88001052004F03CFE62
:102E3000012005490860052004F036FE0120034901
:102E4000C1F8800110BD0000840121420000214230
:102E50002DE9F04102460025002600200023002431
:102E6000002791F803C00CF00F0591F803C00CF097
:102E7000100CBCF1000F03D091F802C04CEA05051C
:102E800091F800C0BCF1000F31D0146800202BE095
:102E90004FF0010C0CFA00F3B1F800C00CEA030685
:102EA0009E4220D183004FF00F0C0CFA03F7BC4375
:102EB00005FA03FC4CEA040491F803C0BCF1280FA6
:102EC00006D14FF0010C0CFA00FCC2F814C00AE065
:102ED00091F803C0BCF1480F05D14FF0010C0CFA7A
:102EE00000FCC2F810C0401C0828D1D31460B1F80F
:102EF00000C0BCF1FF0F34DD546800202EE000F16B
:102F0000080C4FF0010808FA0CF3B1F800C00CEA05
:102F100003069E4221D183004FF00F0C0CFA03F7F9
:102F2000BC4305FA03FC4CEA040491F803C0BCF16D
:102F3000280F05D100F1080C08FA0CF8C2F814802B
:102F400091F803C0BCF1480F07D100F1080C4FF015
:102F5000010808FA0CF8C2F81080401C0828CED3EB
:102F60005460BDE8F0810246002093680B400BB12D
:102F7000012000E000207047416170470161704707
:102F80002DE9FF4F85B081468A4600200390834695
:102F90000798A0EB09050898A0EB0A06CDF8089061
:102FA000CDF804A0002D01DD012705E00DB90027B3
:102FB00002E04FF0FF376D42002E02DD4FF00108B6
:102FC00006E016B94FF0000802E04FF0FF387642F5
:102FD000B54201DD2C4600E03446002004901EE09E
:102FE000019AD1B2029AD0B2129A01F003F9039871
:102FF00028440390B3440398A04205DD0398001BC6
:103000000390029838440290A34504DDABEB040B17
:103010000198404401900498401C80B20490611CC7
:1030200004988842DCDD00F0F5FF09B0BDE8F08FC0
:103030002DE9F84305460E4617469846089C334648
:103040003A46314628460094FFF79AFF43462A46FF
:10305000314628460094FFF793FF43463A464146DF
:1030600028460094FFF78CFF43463A4631463846DF
:103070000094FFF785FFBDE8F88300002DE9F04FCD
:103080008BB006468A464FF00009002504200A90BE
:103090000024B5E000256EE00A9805F08CFD274677
:1030A000CDE90601E11704EB5161C911A4EBC11090
:1030B00006F032FA0190284606F02EFA00900199A7
:1030C00006F00EFB8346564906F014F9804606F0DA
:1030D00077F8CDE9020105F0FBF9CDE90401DDE95E
:1030E000062305F093FDCDE9080105F007FD4FFA31
:1030F00080F909EBC6004FFA80F909F0FF01E8B248
:10310000524601F077F80A9805F055FDA346CDE93F
:103110000601E11704EB5161C911A4EBC11006F0DF
:10312000FBF90190284606F0F7F90090019906F0A6
:10313000D7FA3B49029006F0DDF8039006F040F81C
:10314000074604F01BFCCDE90401DDE9062305F088
:103150005DFDCDE9080105F0D1FC4FFA80F909EBDE
:10316000C6004FFA80F909F0FF01E8B2524601F0BB
:1031700041F8681C05B2802D8EDB00F04BFF0A2061
:1031800004F06CFC002537E00A9805F014FDA34616
:10319000CDE90601E11704EB5161C911A4EBC1109F
:1031A00006F0BAF90190284606F0B6F900900199A8
:1031B00006F096FA1A49029006F09CF8039005F082
:1031C000FFFF074605F084F9CDE90401DDE9062398
:1031D00005F01CFDCDE9080105F090FC4FFA80F9DF
:1031E00009EBC6004FFA80F909F0FF01E8B20022AE
:1031F00001F000F8681C05B2802DC5DB601C84B2AC
:10320000642CFFF647AF0749096821F001014FF62A
:10321000FF7202EA410004F021FC0BB0BDE8F08F20
:103220000000A040C40000202DE9F04106460F46F2
:1032300014461D46DDF8188026E0102C06D14346C2
:103240002A463946304600F023F913E0182C06D1FF
:1032500043462A463946304600F092F90AE0202CCF
:1032600006D143462A463946304600F00BFA01E0C3
:10327000BDE8F0813019C6B2C4F18000B04202DA74
:1032800000263819C7B2AD1C28780028D5D100BF58
:10329000EEE700002DE9FF4F81B006460F46994644
:1032A000DDF838A04FF000080024002503982038EE
:1032B00000F0FF087F2E02DD0026B81CC7B2B9F16E
:1032C000100F30D100242BE0BAF1000F05D004EB31
:1032D00008106B4911F800B006E004EB08106849CB
:1032E000085CC04300F0FF0B002515E0802028415A
:1032F00000EA0B0038B13A19D1B27219D0B20122EA
:1033000000F078FF06E03A19D1B27219D0B200226B
:1033100000F070FF681CC5B2082DE7DB601CC4B26A
:10332000102CD1DBA7E0B9F1080F30D100242BE03D
:10333000BAF1000F05D0534800EBC80010F804B0F4
:1033400006E0504800EBC800005DC04300F0FF0BF2
:10335000002515E08020284100EA0B0038B13A1919
:10336000D1B27219D0B2012200F044FF06E03A193E
:10337000D1B27219D0B2002200F03CFF681CC5B275
:10338000082DE7DB601CC4B2082CD1DB73E0B9F177
:10339000180F32D100242DE0BAF1000F06D018200A
:1033A00000FB0840384911F800B007E0182000FB86
:1033B00008403549085CC04300F0FF0B002515E0CC
:1033C0008020284100EA0B0038B13A19D1B27219B5
:1033D000D0B2012200F00EFF06E03A19D1B2721904
:1033E000D0B2002200F006FF681CC5B2082DE7DB52
:1033F000601CC4B2182CCFDB3DE0B9F1200F37D1EF
:10340000002432E0BAF1000F06D0302000FB084063
:103410001E4911F800B007E0302000FB08401B49AE
:10342000085CC04300F0FF0B00251AE08020284113
:1034300000EA0B0060B104EBD47207EB6202D1B278
:1034400072190832D0B20122009400F0D3FE06E0D7
:103450003A19D1B27219D0B2002200F0CBFE681C2A
:10346000C5B2082DE2DB601CC4B2302CCADB02E01E
:1034700005B0BDE8F08F00F0CDFD00BFF8E700001B
:10348000FE9C0008069A0008EEA20008D6AB0008D1
:103490002DE9FF4F83B08046894692465020019027
:1034A000002562E005EB0510344911F810009AF888
:1034B0000010884257D105EB0510304901EB400060
:1034C00040789AF8011088424DD1002448E00698CF
:1034D00040B105EB0510294901EB4000801C005D5F
:1034E000029009E005EB0510244901EB4000801C27
:1034F000005DC043C0B2029000262DE08020304124
:103500000299084098B1274604EBD77209EB620292
:10351000D1B2A34604EBDB725210A4EB420208EBDB
:10352000C2023244D0B2012200F064FE12E027460B
:1035300004EBD77209EB6202D1B2A34604EBDB7253
:103540005210A4EB420208EBC2023244D0B2002275
:1035500000F050FE701CC6B2082ECFDB601CC4B257
:10356000202CB4DB04E0681CC5B20198854299DBCD
:1035700000BF00F04FFD07B0BDE8F08FE6AB0008DC
:103580002DE9FE4F0746884691469B460220029051
:1035900000256DE005EB850000EB4510384911F87A
:1035A000100099F80010884260D105EB850000EB0F
:1035B0004510334901EB4000407899F801108842EA
:1035C00054D100244FE0BBF1000F0AD005EB850079
:1035D00000EB45102A4901EB4000801C10F804A0C4
:1035E0000BE005EB850000EB4510254901EB4000A1
:1035F000801C005DC04300F0FF0A00262FE0802001
:10360000304100EA0A00A0B1032094FBF0F04044EE
:10361000C0B20190032094FBF0F100FB114007EBD6
:10362000C0003044C0B201220090019900F0E2FDD8
:1036300013E0032094FBF0F04044C0B2019003205B
:1036400094FBF0F100FB114007EBC0003044C0B226
:1036500000220090019900F0CDFD701CC6B2082E2A
:10366000CDDB601CC4B2482CADDB04E0681CC5B2E5
:10367000029885428EDB00BF00F0CCFCBDE8FE8FD7
:1036800086B600082DE9FF4F83B0804689469246F2
:1036900004200190002566E005EB8510364911F8FD
:1036A00010009AF8001088425BD105EB8510324972
:1036B00001EB400040789AF80110884251D1002473
:1036C0004CE0069840B105EB85102B4901EB40001A
:1036D000801C005D029009E005EB8510264901EB96
:1036E0004000801C005DC043C0B20290002731E062
:1036F0008020384102990840A8B12646E21704EB21
:10370000927209EBA202D1B2A346E21704EB9272C5
:103710009210A4EB820208EBC2023A44D0B201221A
:1037200000F068FD14E02646E21704EB927209EB04
:10373000A202D1B2A346E21704EB92729210A4EB5C
:10374000820208EBC2023A44D0B2002200F052FDDD
:10375000781CC7B2082FCBDB601CC4B2802CB0DB56
:1037600004E0681CC5B20198854295DB00BF00F0FB
:1037700051FC07B0BDE8F08F1AB700082DE9FC5FD7
:1037800080468B4691461E460C9C00200190102CD2
:1037900005D1204604EBD071C1F347070AE0082C9D
:1037A00006D1204604EBD0714910891CCFB201E04C
:1037B000BDE8FC9F00251BE0701B401EC1B20A2023
:1037C00004F07AFEB9FBF0F00A21B0FBF1F201FB44
:1037D000120A0D980AF13001CAB2691C07FB018177
:1037E0000090C8B223465946FFF754FD681CC5B285
:1037F000B542E1DB00BFDBE72DE9FF4F83B00746B1
:1038000093469A46DDE9105800200290102D05D10C
:10381000284605EBD071C1F347060BE0082D06D111
:10382000284605EBD0714910891CCEB202E007B0E2
:10383000BDE8F08F00245EE0AAEB0400401EC1B298
:103840000A2004F039FEBBFBF0F00A21B0FBF1F2D4
:1038500001FB12090298A8B9AAF10100A04211DDEA
:10386000B9F1000F0CD1022C0ADA06FB0471C8B2C0
:103870002B462022CDF800800499FFF70BFD38E09D
:1038800001200290042C0CDA09F13001CAB206FBC7
:103890000471C8B22B46CDF800800499FFF7FAFCFA
:1038A00026E0042C17D106FB0471C8B22B462E2249
:1038B000CDF800800499FFF7EDFC09F13001CAB2A0
:1038C000611C06FB0171C8B22B46CDF8008004993B
:1038D000FFF7E0FC0CE009F13001CAB2611C06FB05
:1038E0000171C8B22B46CDF800800499FFF7D2FCD5
:1038F00000BF601CC4B254459EDB00BF97E72DE9B2
:10390000F84F0646884691469A46DDE90A4B00275D
:10391000102C05D1204604EBD071C1F347051CE003
:10392000082C06D1204604EBD0714910891CCDB279
:1039300013E0182C06D1204604EBD0714910891EE3
:10394000CDB20AE0202C06D1204604EBD0714910FC
:10395000091FCDB201E0BDE8F88F002713E0CDF8D4
:1039600000B019F80720234641463046FFF792FC85
:103970007019C6B2782E04DD002608EB040000F0B2
:10398000FF08781CC7B25745E9DB00BFE3E700BF7B
:10399000FEE7000010B540210F48FFF7EDFA0E4892
:1039A000006820F070400C4908600846006840F04C
:1039B00040500860002009490860042004F074F8B1
:1039C00040210548FFF7DAFA042004F06DF84021A1
:1039D0000148FFF7D1FA10BD000C01409C81214243
:1039E00008B50121082000F081FDE020ADF80000BD
:1039F00010208DF8030003208DF80200694604486A
:103A0000FFF726FAE0210248FFF7B8FA08BD0000E8
:103A1000000C014010B540210F48FFF7ADFA0E48E9
:103A2000006820F070400C4908600846006840F0CB
:103A300040500860012009490860042004F034F86F
:103A400040210548FFF79AFA042004F02DF84021A0
:103A50000148FFF791FA10BD000C01409C81214202
:103A600070B50546002400F0D1FD002616E0402187
:103A70000F48FFF781FA042004F016F840210C48A3
:103A8000FFF77CFA6006040E0A48006808B1601C63
:103A9000C4B2042004F008F8701CC6B2082EE6DB9D
:103AA00015B9FFF7B7FF01E0FFF774FF204670BDBF
:103AB000000C01401C81214270B504461448006886
:103AC00020F07040124908600846006840F04050FD
:103AD000086040210E48FFF74FFA002514E0E00986
:103AE0000C4908606006040E042003F0DDFF40214D
:103AF0000748FFF743FA042003F0D6FF40210448AB
:103B0000FFF73AFA681CC5B2082DE8DB70BD00006B
:103B1000000C01409C81214210B51348006820F040
:103B20007040114908600846006840F04050086045
:103B300001200E49086003F0B7FF40210A48FFF753
:103B40001DFA052003F0B0FF00200949C1F89C01CF
:103B5000052003F0A9FF40210348FFF70DFA0520D7
:103B600003F0A2FF10BD0000000C01409C81214227
:103B70000080214210B51248006820F070401049C2
:103B800008600846006840F04050086040210C483A
:103B9000FFF7F2F9052003F087FF002009490860CC
:103BA000052003F081FF40210548FFF7E7F90520D4
:103BB00003F07AFF01200449C1F89C0110BD000008
:103BC000000C01409C8121420080214210B500245C
:103BD00000F01CFD012003F067FF40210B48FFF7B8
:103BE000CDF907E0601C84B2CD2C03DDFFF7C2FFE6
:103BF000012010BD80210548FFF7B5F90028F1D15B
:103C000040210248FFF7B8F90020F2E7000C01401C
:103C100008B50121082000F069FC0720ADF800007C
:103C200028208DF8030003208DF802006946024821
:103C3000FFF70EF908BD0000000C014010B504218B
:103C40001848FFF790F948B102211648FFF78BF9A1
:103C500020B101211348FFF786F900BB142003F0BF
:103C6000FDFE04210F48FFF77EF940B902210D48FF
:103C7000FFF779F908B9042412E0012410E00221C9
:103C80000848FFF770F908B9022409E00121054846
:103C9000FFF769F908B9032402E0052400E00024D5
:103CA000204610BD000C014008B50121582000F04D
:103CB0001DFC4FF40050ADF8000004208DF8030007
:103CC00003208DF8020069460148FFF7C1F808BDDE
:103CD0000010014010B52A480068401C28490860BF
:103CE000082228492648006800F06EF9264909880C
:103CF00001F5007188B208222449FCF7D3FD22495E
:103D0000098801F5027188B208221E49FCF7CAFD34
:103D10001B4800681E49884230D31B490C88E117B4
:103D200004EB11710911481C04221A4900F04CF9E6
:103D300015480088103014490880042215494FF4B2
:103D4000F870FCF7AFFD1049098801F5007188B2E1
:103D500008220E49FCF7A6FD002009490860082248
:103D600008490748006800F02FF90749098801F55C
:103D7000027188B208220349FCF794FD10BD0000CF
:103D8000A40100209C010020A80100202B0000209D
:103D900040420F00CF00002010B5012404E0302085
:103DA0000B490855601CC4B2082CF8DB2E200849CA
:103DB0000871202008700749098801F5007188B250
:103DC00008220349FCF76EFD00200349086010BD7E
:103DD0002B000020A80100205800002008B500207A
:103DE00000F004F9012014A31022002100900A2001
:103DF000FFF71AFA012014A31022114600900A209E
:103E0000FFF712FA012014A31022202100900A20AB
:103E1000FFF70AFA012014A31022302100900A2093
:103E2000FFF702FA002008232022042100907120CD
:103E3000FFF730FA08BD0000C9E8D6C3D5FDCFF2C0
:103E4000B2CECAFD00000000C9E8D6C3B7B4CFF2B5
:103E5000B2CECAFD00000000C9E8D6C3D0DED5FD51
:103E6000B2CECAFD00000000C9E8D6C3CDA8D1B6C5
:103E7000B5D8D6B70000000070B500261B48007802
:103E800005282DDB002500201949087002F0E6F90D
:103E900030B1382002F016FA02F062F9054600E06F
:103EA00001260024012012490870F6B902F0D6F963
:103EB000382002F007FA02F053F9044600F0E4FA61
:103EC000072003F0CBFD0B4800680444284603F0AC
:103ED00003F8204603F0F0F8204603F0D3F804E09E
:103EE00002480078401C0149087070BDAD010020F7
:103EF000AF0100209C00002000BFFEE7704770B5B6
:103F0000049C0AB18D1AEAB2012B02D12D2525702D
:103F100001E02025257012E08A4204D11AB12E2535
:103F200065544D1EE9B20A25B0FBF5F605FB1605F2
:103F3000303565540A25B0FBF5F04D1EE9B2002975
:103F4000EADC70BD70B5002100230F22C47804B3F1
:103F5000154C246804F4E064C4F5E064210AC1F15E
:103F60000403CA40447804FA03F1847814402143DE
:103F700009010E4C0678A155047804F01F050124B0
:103F8000AC4005786D11AD0005F1E025C5F80041A4
:103F900009E0047804F01F050124AC40044D0678C4
:103FA000761145F8264070BD0CED00E000E400E01D
:103FB00080E100E002490143024A116070470000BD
:103FC0000000FA050CED00E030B50B46511E0AE08A
:103FD0000A24B0FBF4F504FB150430345C540A24C5
:103FE000B0FBF4F0491E0029F2DC30BD10B50446E8
:103FF00034B1FF224FF480610548FCF728F904E052
:104000004FF480610248FCF72AF900F003F810BD74
:104010005802002070B500241BE004F1B00000211C
:1040200000F028F90021022000F024F900211020DE
:1040300000F020F9002508E005EBC411064A505CA9
:10404000012100F017F9681CC5B2802DF4DB601C5B
:10405000C4B2082CE1DB70BD5802002010B500216D
:104060008D2000F007F90021102000F003F9002155
:10407000AE2000F0FFF810BD10B500218D2000F03B
:10408000F9F80021142000F0F5F80021AF2000F02D
:10409000F1F810BD10B501F09FFD00F07BF8C820CD
:1040A00003F0DCFC00F090F8FFF7D8FF0021AE2011
:1040B00000F0E0F80021022000F0DCF800211020E0
:1040C00000F0D8F80021402000F0D4F80021812031
:1040D00000F0D0F80021CF2000F0CCF80021A12082
:1040E00000F0C8F80021C82000F0C4F80021A62084
:1040F00000F0C0F80021A82000F0BCF800213F200B
:1041000000F0B8F80021D32000F0B4F800210846F0
:1041100000F0B0F80021D52000F0ACF8002180209C
:1041200000F0A8F80021D92000F0A4F80021F12027
:1041300000F0A0F80021DA2000F09CF80021122005
:1041400000F098F80021DB2000F094F800214020D6
:1041500000F090F80021202000F08CF800210220CF
:1041600000F088F800218D2000F084F80021142050
:1041700000F080F80021A42000F07CF80021A620A7
:1041800000F078F80021AF2000F074F8FFF774FF1A
:1041900010BD000008B50121042000F0A7F91C2083
:1041A000ADF8000010208DF8030003208DF8020008
:1041B00069460448FEF74CFE1C210248FEF7DEFE6D
:1041C00008BD00000008014010B504210848FEF7B2
:1041D000D5FE642003F042FC04210548FEF7CCFE26
:1041E000642003F03BFC04210148FEF7C7FE10BD2C
:1041F00000080140F0B503461446E4B1CD1701EBC9
:104200005575ED1003EBC515194E755D0A46CE17B1
:1042100001EB5676F610A1EBC6070126BE40F6B2BA
:1042200035430846CE1701EB5676F61003EBC6165B
:104230000F4FBD551AE0CD1701EB5575ED1003EB8F
:10424000C5150B4E755D0A46CE1701EB5676F61076
:10425000A1EBC6070126BE40B5430846CE1701EBC9
:104260005676F61003EBC616014FBD55F0BD0000A3
:104270005802002070B504460D4625B108210A48B1
:10428000FEF77CFE03E008210748FEF775FE1021CB
:104290000548FEF771FEE1B2044801F013FD10215C
:1042A0000148FEF76BFE70BD000801400030014080
:1042B0001CB50020FFF79AFE01201FA31022002149
:1042C00000901046FEF7B0FF01201FA310221146F8
:1042D00000900320FEF7A8FF01201DA3102220213B
:1042E00000900320FEF7A0FF0120102103231AA253
:1042F000CDE900106620FFF702FB01201021042306
:1043000016A2CDE9001020216020FFF7F8FA012065
:104310000821034613A2CDE9001023216920FFF7ED
:10432000EEFA0120102105230FA2CDE90010302163
:104330000220FFF7E4FA1CBDCFF2D0DED5FDB2CEED
:10434000CAFDA3BA00000000C1E3B5E3A3BA0000B0
:10435000C7D0B3FDA3BA00004B5061006D202F6899
:1043600000000000330000003C3035253A0000001A
:1043700010B54FF48030FDF7CFFFE8B11BE002210C
:104380000E48FEF7FBFD08220D494FF4F070FCF7D4
:1043900089FA4FF400510B48FEF7EEFD40F6B830B5
:1043A00003F05CFB4FF400510648FEF7E7FD40F6D2
:1043B000B83003F053FBE2E710BD000000080140F5
:1043C0002B00002000100140704700001CB50020A9
:1043D000FFF70CFE012011A31022114600900020CF
:1043E000FEF722FF012010A31022202100900020C0
:1043F000FEF71AFF01200FA31022302100900020A9
:10440000FEF712FF0120102103230CA2CDE90010BA
:1044100030212020FFF773FA1CBD0000C1E3B5E393
:10442000C2EBA3BA00000000B2EED1B9C2EBA3BA4E
:1044300000000000B2EED1B90000000050613A0067
:104440001CB5762003F00AFB02208DF80000062040
:104450008DF8010000208DF8020008208DF803007F
:10446000A3208DF804008DF8050030208DF806009B
:10447000B2208DF807000821684604F005F81220E4
:1044800003F0ECFA1CBD00000CB502208DF8000012
:1044900003208DF8010000208DF802008DF8030044
:1044A0008DF8040002208DF80500C4208DF8060068
:1044B00038208DF807000821684603F0E5FF00204A
:1044C000014908700CBD0000CA01002029B1064A4C
:1044D000D2690243044BDA6104E0034AD2698243A1
:1044E000014BDA61704700000010024029B1064A12
:1044F00092690243044B9A6104E0034A9269824341
:10450000014B9A61704700000010024030B5002155
:104510000022002400232D4D6D6805F00C0121B10F
:10452000042905D0082923D105E0294D056022E0A2
:10453000274D05601FE0254D6D6805F47012234D71
:104540006D6805F48034022505EB92421CB9214DBB
:10455000554305600BE01D4D6D6805F400351DB138
:104560001C4D5543056002E0194D5543056002E0BE
:10457000174D056000BF00BF144D6D6805F0F001D8
:104580000909154D6B5C0568DD4045600F4D6D6890
:1045900005F4E061090A104D6B5C4568DD408560FB
:1045A0000A4D6D6805F46051C90A0B4D6B5C456896
:1045B000DD40C560054D6D6805F44041890B074D30
:1045C0006B5CC568B5FBF3F5056130BD00100240BA
:1045D00000127A0000093D00B0010020C001002057
:1045E00008B501210420FFF781FF0120ADF800008C
:1045F00010208DF8030003208DF802006946024860
:10460000FEF726FC08BD00000008014008B50121A6
:104610000820FFF76BFF8020ADF8000004208DF824
:10462000030069460348FEF713FC80210148FEF7AA
:10463000A5FC08BD000C01407CB5F74D0024F748EF
:104640000078F749087008460078042881F2DE8176
:10465000F44800780978884207D1F14800780328A7
:1046600007D10020EE49087003E0ED480078ED49DD
:104670000870EB48007803287ED1EB4800780028CA
:104680007BD1EA480078002878D0012877D002282A
:1046900002D0032874D17DE001F028FA0620E24917
:1046A00008700020E14908705020E1490880052287
:1046B000E049DF480088FCF7BDF8DD480088083095
:1046C000DB4908800522DC49D9480088FCF7B2F8AC
:1046D000D74800880830D64908800522D749D448F1
:1046E0000088FCF7A7F8D24800880830D049088035
:1046F0000822D349CE480088FCF79CF801201021FD
:104700000523CC4ACDE9001000214F20FFF7F7F830
:10471000012010210523C84ACDE900104F20FFF7E2
:10472000EEF8012010210523C44ACDE90010202114
:104730004F20FFF7E4F8012010210523C04ACDE9FE
:10474000001030214F20FFF7DAF801201021034636
:10475000BB4AD21DCDE9001030210020FFF7CFF871
:10476000B748C079B74908704F20B74908600020A2
:10477000B6490860AF4804E0FEE3F2E032E090E0C2
:10478000EEE0AA490978405CB14908700120B149BE
:104790000870E5E001F096F90720A34908700220AF
:1047A000A24908700322A4494FF48470FCF742F830
:1047B000012010210323A04ACDE9001026212F203B
:1047C000FFF79DF83F20A049086026209F49086018
:1047D000994896490978405C9D49087001209D4997
:1047E0000870BDE0FFF764FD01208F4908700020CC
:1047F0009949087099490870012099A31022002155
:1048000000900846FEF710FD4FF488708849088034
:104810000020864908700622864985480088FCF7F2
:1048200009F88348008808308149088005228249B8
:104830007F480088FBF7FEFF7D48008808307C49F0
:10484000088005227D497A480088FBF7F3FF0120A4
:1048500010210623774ACDE900102F20FFF74FF8EB
:10486000012010210523744ACDE9001020212F20BA
:10487000FFF745F8012010210523704ACDE900100B
:1048800030212F20FFF73BF81020704908602F20BF
:104890006D490860674865490978405C6C49087053
:1048A0005EE0FFF705FD01205F49087000206A49BE
:1048B00008700120694908706AA310220021009045
:1048C0000846FEF7B1FC4FF4B87059490880002043
:1048D000564908700622574955480088FBF7AAFF39
:1048E00053480088083052490880052252495048F0
:1048F0000088FBF79FFF4E48008808304C4908802D
:1049000005224E494A480088FBF794FF01201021F8
:104910000623484ACDE900102F20FEF7F0FF0120C2
:1049200010210523444ACDE9001020212F20FEF755
:10493000E6FF012010210523404ACDE90010302177
:104940002F20FEF7DCFF1020404908602F203E4951
:104950000860384835490978405C3D49087000BF17
:10496000AAE331480078062855D13B480078012851
:1049700050D13648006828B9354801782D482B4A6F
:104980001278815431480068102805D130480078E9
:104990002949264A127888542C480068202805D1D5
:1049A0002B4800782549214A127888542748006806
:1049B000302805D12648017821481C4A12788154B4
:1049C00050201B49088005221A4919480088FBF726
:1049D00069FF1748008808301549088006221649E3
:1049E00013480088FBF75EFF114800880830104923
:1049F0000880062211490E480088FBF753FF0C4837
:104A0000008808300A49088008220D4908480088B3
:104A1000FBF748FF3BE0A2E0400D030074010020DB
:104A20007801002079010020680100206A0100203F
:104A30007A0100207C010020840100208C010020EC
:104A4000940100206C00002064010020600100201F
:104A50006B01002069010020770100207601002011
:104A6000D5FD0000B7B400006D1EFFF7E7F8012880
:104A700001D144F00104FFF7E1F8022801D144F02C
:104A80000204FFF7DBF8042801D144F00404002DF0
:104A9000EAD1072C53D1FFF799FC3F20FE4908606B
:104AA0001020FE4908600120FD4908700020FD49E2
:104AB00008700820FC4908700020FC490870082292
:104AC000FB499020FBF7B6FE0822FA498020FBF74D
:104AD000B1FE0822F8498820FBF7ACFE0120102126
:104AE0000823F34ACDE900103F20FEF708FF01201C
:104AF00010210823EF4ACDE9001020213F20FEF7C6
:104B0000FEFE012010210823EB4ACDE900103021E0
:104B10003F20FEF7F4FE1020E04908603F20DE4908
:104B20000860E448DF490978405CE44908700020E7
:104B3000DE490870DE480078E0490870B9E2FFF706
:104B40004DF97120D44908600420D4490860002040
:104B5000D3490870D3490870D3490870A9E2D248F4
:104B60000078082854D1D1480078012841D1CB4899
:104B70000068102805D1D1480178CD48C94A12787B
:104B80008154C6480068202805D1CC480078C9491E
:104B9000C44A12788854C1480068302805D1C748F3
:104BA0000078C549BF4A127888540822C04990202D
:104BB000FBF778FE0822BF498020FBF773FE08222E
:104BC000BD498820FBF76EFE9022B9490820FBF70B
:104BD000A1FEBB4908608022B6490820FBF79AFE77
:104BE000B84908608822B4490820FBF793FEB6490B
:104BF0000860FFF7F3F87120A74908600420A7496F
:104C000008600020A6490870A6490870A6490870E7
:104C1000A548007807283BD1A4480078012828D16E
:104C2000A6480078A2499F4A1278885403224FF47C
:104C30008470FBF737FE9E48007830386421484383
:104C40009B494978303901EB810100EB41019848DB
:104C50008078303808449D49086008460068FF287D
:104C600001D9FF200860994800689949084497498C
:104C70000860FFF7B3F8712087490860042087496E
:104C800008600020864908708649087086490870C7
:104C900085480078052841D18448007801282ED124
:104CA0007E480068202805D18448007889497D4ADB
:104CB0001278885479480068302805D17F480078F8
:104CC0007B49784A127888548348007820B94FF499
:104CD000E8708249088003E04FF4EC707F49088057
:104CE00006227C497D480088FBF7DCFD7B4909886A
:104CF000A1F5807188B206226D49FBF7D3FDFFF75D
:104D00006DF871206449086004206449086000203F
:104D10006349087063490870634908706248007805
:104D2000012800D100E000205F490978022901D163
:104D3000012100E0002108435B490978032901D1E2
:104D4000012100E00021084357490978042901D1D5
:104D5000012100E00021084300287CD0534800785E
:104D6000012879D14D480068102805D153480078B2
:104D700058494C4A1278885448480068202805D180
:104D80004E4800784A49474A127888544348006898
:104D9000302805D1494800784649424A127888545B
:104DA0004148007801280BD14B48007820B94FF4D6
:104DB00088704A49088003E04FF4B870474908807A
:104DC0003948007802280BD14348007820B94FF4C5
:104DD00094704249088003E04FF4C4703F49088052
:104DE0003148007803280BD13B48007820B94FF4B4
:104DF000A0703A49088003E04FF4D070374908802A
:104E00002948007804280BD13348007820B94FF4A2
:104E1000AC703249088003E04FF4DC702F49088001
:104E200021480078012806D106222A492B4800880B
:104E3000FBF738FD05E00522264928480088FBF7E6
:104E400031FD264800880830244908800522184989
:104E50002248008801E02CE10CE0FBF723FD1F480D
:104E6000008808301D490880052212491B48008827
:104E7000FBF718FD0C480078401C0B490870002017
:104E8000084908700848007805287ED1FDF77CFDA8
:104E90001148007848BB23E0640100206001002035
:104EA000690100206A0100206801002077010020CC
:104EB000840100208C010020940100206B0100205F
:104EC0009C0000209400002098000020C4000020D6
:104ED000000494117C010020760100207A0100205A
:104EE0004FF4E870FE49088003E04FF4EC70FC4991
:104EF0000880FC48007848B90120AFF29C4310229A
:104F0000114600900520FEF78FF908E00120AFF26E
:104F1000AC431022114600900520FEF785F90622C9
:104F2000F149EF480088FBF785FC0120102106239A
:104F3000ED4ACDE9001020212C20FEF7E0FCE849E5
:104F40000988A1F5807188B20622E849FBF772FC56
:104F5000012010210623E54ACDE9001030212C2044
:104F6000FEF7CDFC2020E24908602C20E1490860D2
:104F7000DD48E149097801E09EE006E0405CDF4958
:104F800008700020DE49087093E0DE4800780228AF
:104F90000DD101F077FAD348007820B94FF494701E
:104FA000CF49088003E04FF4C470CD490880D5484C
:104FB000007803280DD100F051FFCA48007820B9CD
:104FC0004FF4A070C649088003E04FF4D070C44984
:104FD0000880CC48007804280DD1FDF731FDC14888
:104FE000007820B94FF4AC70BD49088003E04FF45D
:104FF000DC70BB490880BB48007848B90120AFF29B
:10500000A0531022002100900846FEF70DF908E099
:105010000120AFF2B0531022002100900846FEF7A5
:1050200003F90522B049AE480088FBF703FCAC4801
:1050300000880830AA4908800522AC49A8480088A1
:10504000FBF7F8FBA64800880830A5490880052230
:10505000AD49A3480088FBF7EDFB01201021052393
:10506000A14ACDE900105020FEF749FC0120102193
:1050700005239E4ACDE9001020215020FEF73FFC79
:10508000012010210523A04ACDE900103021502035
:10509000FEF735FC102096490860502095490860BD
:1050A000914895490978405C9449087000209449DA
:1050B00008700020924908709448007802287DD139
:1050C0009048007840BB012000908948017808236F
:1050D00020227120FEF7DEF88548006810308449F0
:1050E000086085480078401C834908700020884982
:1050F00008707F480068402805DD04207C4908606E
:1051000000207D490870002000907948017808232C
:1051100020227120FEF7BEF87A480078012800D1DD
:1051200000E0002077490978022901D1012100E03F
:105130000021084373490978032901D1012100E0C6
:10514000002108436F490978042901D1012100E0B9
:105150000021084300287DD00120654A0090117885
:10516000644A10781023654A1278FEF793F8604875
:105170000068102805D1614801785B485E4A1278C2
:1051800081545B480068202805D15C480178574865
:10519000594A1278815456480068302805D157483A
:1051A00001785948544A12788154524800680830AE
:1051B0005049086050480078401C00E069E34E49BF
:1051C00008700120524908704E48007801287DD1AE
:1051D0004748006830280ED146480068372818D163
:1051E0004448006808304349086043480078401C40
:1051F000414908700DE03F4800683F2809D13D480B
:10520000006808303B4908603B480078401C3A4938
:105210000870384800685F2815DB3548006810289A
:1052200011D12F20334908603148006810303049CF
:1052300008600020304908702D480068402802DBD3
:1052400010202B4908602B480068572817DB284896
:10525000006800E0BDE0102811D02F20254908602B
:105260002348006810302249086000202249087055
:105270001F480068402802DB10201D4908601C48B8
:105280000068102805D118481B490978405C1B4963
:10529000087017480068202805D114481649097875
:1052A000405C1649087012480068302805D116483D
:1052B00011490978405C1149087001200C4A00909E
:1052C00011780C4A107810230C4A00E002E01278A2
:1052D000FDF7E0FF0B48007802281BD101201AE0FF
:1052E0007A010020760100207C010020840100204A
:1052F00060010020640100206A0100206B01002091
:1053000077010020680100208C0100207801002036
:10531000690100200020FE490978032901D10121FB
:1053200000E000210843FA490978042901D101214C
:1053300000E00021084318B3F6480068582809D156
:10534000F44800680830F3490860F3480078401CCE
:10535000F1490870EF480068782811DB5020ED49CA
:105360000860EE4800681030EC4908600020EA4907
:105370000870EA480068402802DB1020E74908600E
:10538000E6480068102805D1E548E3490978405C03
:10539000E4490870E1480068202805D1E248DE4968
:1053A0000978405CDF490870DC480068302805D186
:1053B000DE48D9490978405CDA4908700120D74AAB
:1053C00000901178D34A10781023D64A1278FDF74E
:1053D00061FFCF480078052874D10120CF4A0090A2
:1053E0001178CC4A10781023CE4A1278FDF752FF7C
:1053F000CA480068202805D1CA480178C848C64A6A
:1054000012788154C5480068302805D1C548007815
:10541000C549C14A12788854BE4800680830BD4961
:105420000860BD480078401CBB4908700120C04995
:105430000870B84800684C2809D1B64800680830A0
:10544000B4490860B4480078401CB3490870B448B7
:10545000B1490978405CB3490870AE4800685428E7
:1054600011DD2C20AB490860AC4800681030AB4916
:1054700008600020A8490870A8480068402802DB9E
:105480002020A6490860A5480068202805D1A44826
:10549000A1490978405CA3490870A04800683028F9
:1054A00005D1A1489C490978405C9E4908700120BB
:1054B0009A4A00901178974A10781023994A1278E6
:1054C000FDF7E8FE9248007806287DD10120934A36
:1054D000009011788F4A10781023924A1278FDF7C5
:1054E000D9FE8E48006828B98E4800788C498A4ACF
:1054F0001278885489480068102805D189480078B6
:105500008949854A1278885484480068202805D142
:10551000844801788548804A127881547F48006821
:10552000302805D17F48007882497B4A1278885418
:105530007848006808307749086077480078401C50
:105540007549087001207A49087074480068E0B90C
:1055500071480078632809D16E48006808306D49A9
:1055600008606D480078401C6B4908706A480078F4
:1055700005280ADB4F20674908606848006810303A
:105580006649086000206449087064480068102873
:105590001ED161480078032809D15E4800680830B0
:1055A0005C4908605C480078401C5B4908705A48B8
:1055B000007805280CDB4F205649086057480068E2
:1055C00010305649086000E087E00020524908701A
:1055D0005248006820281CD14F480078032809D180
:1055E0004C48006808304B4908604B480078401C24
:1055F000494908704848007805280ADB00204549D9
:105600000860464800681030444908600720424955
:10561000087042480068302826D13E4800680828B3
:1056200005D14F203B49086000203B4908703A48AB
:105630000078032809D137480068083035490860E8
:1056400035480078401C34490870334800780528F4
:105650000AD14F202F4908603048006810302F4988
:10566000086000202C4908702C480068402802DBA4
:1056700000202A4908602948006828B92848264996
:105680000978405C2749087024480068102805D133
:10569000254821490978405C224908701F48006864
:1056A000202805D121481C490978405C1D49087013
:1056B0001A480068302805D11E4817490978405C0F
:1056C000184908700120154A00901178114A107885
:1056D0001023144A1278FDF7DDFD0D4800780728E5
:1056E0004CD101200D4A009011780A4A10781023FD
:1056F0000C4A1278FDF7CEFD0A4801780A48064A9E
:10570000127881540348006808300249086013E0A9
:1057100068010020640100206A010020600100206F
:105720007C0100206B010020840100208C010020FE
:105730006901002094010020C7480078401CC64938
:1057400008700120C5490870C3480078032805D1B6
:105750002F20C34908600020BF490870C148BE49D6
:105760000978405CC04908700120BD490090087864
:105770001023BD490A782621FDF78CFDBB4800782F
:1057800008287DD10120BA4A00901178B44A1078D7
:105790001023B54A1278FDF77DFDB5480068102842
:1057A00005D1B1480078AF49AB4A12788854B04867
:1057B0000068202805D1AC480178AE48A64A127886
:1057C0008154AB480068302805D1A7480078AA4921
:1057D000A14A12788854A24800680830A04908609D
:1057E0009D480078401C9C49087001209B49087026
:1057F0009948007808280ADB3F20994908609C48AE
:10580000006810309A490860002093490870984851
:105810000068402801DB012000E000208E49097863
:10582000082901DB012100E00021084310B110200C
:105830008F4908608E480068102805D1894886493C
:105840000978405C8849087089480068202805D19B
:10585000884881490978405C834908708448006819
:10586000302805D184487C490978405C7E4908701D
:1058700001207F4A00901178794A1078102300E0C7
:1058800003E0794A1278FDF705FD4FF4967002F0B7
:10589000E5F87A48007801282BD17448007848BB95
:1058A0000120009072480178082320227120FDF722
:1058B000F1FC6F48006810306D4908606648007858
:1058C000401C6549087000206449087068480068F9
:1058D000402805DD04206649086000205E49087004
:1058E0000020009062480178082320227120FDF7F3
:1058F000D1FC8BE00120624908705D48006808B95E
:10590000012000E000205A490968102901D1012135
:1059100000E00021084356490968202901D10121EE
:1059200000E00021084352490968302901D10121D2
:1059300000E0002108434D490978062901D10121E1
:1059400000E0002108404449097809B9012100E03C
:105950000021414A1278072A01D1012200E00022E9
:105960001143084041490978082901D1012100E08B
:1059700000213F4A1268102A01D1012200E00022D2
:105980001140354A12780AB9012200E00022114084
:10599000084318B33048007850B9334800782028BD
:1059A00003D12D203049087002E020202E490870D4
:1059B0002948007807281CD12B480078302806D1C8
:1059C00031202949087001202E49087011E030204B
:1059D0002549087000202B4908700AE02248007809
:1059E000401C21490870084600783A2801DB302025
:1059F00008700120194908701D4A00901178184A52
:105A000010781023184A1278FDF744FC13480078E8
:105A1000012803D100201149087002E001200F493C
:105A200008701248007850B90C480078009010486F
:105A30000178082320227120FDF72CFC0BE0074899
:105A400000780B4A00901178054A10781023064A16
:105A50001278FDF71FFC7CBD6A010020690100205F
:105A600064010020840100206B01002068010020F7
:105A7000600100208C0100209401002078010020AA
:105A8000770100206C00002010B500200849087044
:105A9000FEF7A4F971200749086004200649086050
:105AA00001200649087000200549087010BD00005B
:105AB00068010020640100206001002069010020CD
:105AC0006A01002008B50020FEF790FA012004A327
:105AD00010220F2100901520FDF7A6FB08BD000045
