:020000040800F2
:10000000F00C00200D020008E93E00084739000806
:10001000E53E0008110D0008916600080000000090
:100020000000000000000000000000002F5C00083D
:10003000B523000800000000B5430008415D00083A
:10004000270200085D430008270200082702000875
:10005000270200082702000827020008B923000829
:1000600027020008270200082702000827020008CC
:1000700027020008270200082702000827020008BC
:1000800027020008270200082702000827020008AC
:10009000270200082702000827020008270200089C
:1000A000270200082702000827020008270200088C
:1000B00027020008270200082D5E0008270200081A
:1000C000270200082702000827020008270200086C
:1000D00027020008556400082702000827020008CC
:1000E000270200082702000827020008270200084C
:1000F000270200082702000827020008270200083C
:10010000270200082702000827020008270200082B
:10011000270200082702000827020008270200081B
:10012000270200082702000827020008270200080B
:1001300000F002F800F05AF80AA090E8000C82449F
:100140008344AAF10107DA4501D100F04FF8AFF27C
:10015000090EBAE80F0013F0010F18BFFB1A43F0A5
:10016000010318475CB500007CB500000A444FF05D
:10017000000C10F8013B13F0070408BF10F8014B06
:100180001D1108BF10F8015B641E05D010F8016B4B
:10019000641E01F8016BF9D113F0080F1EBF10F8AF
:1001A000014BAD1C0C1B09D16D1E58BF01F801CBD2
:1001B000FAD505E014F8016B01F8016B6D1EF9D555
:1001C0009142D6D37047000000230024002500266A
:1001D000103A28BF78C1FBD8520728BF30C148BFAA
:1001E0000B6070471FB51FBD10B510BD00F032F990
:1001F0001146FFF7F7FF07F001FC00F050F903B4D8
:10020000FFF7F2FF03BC07F03BFB00000948804703
:1002100009480047FEE7FEE7FEE7FEE7FEE7FEE7E8
:10022000FEE7FEE7FEE7FEE704480549054A064B00
:1002300070470000455D000831010008F00600200D
:10024000F00C0020F0080020F0080020704710B5E6
:100250004C1084EA530404D54042C1F1000138BF78
:10026000491E1B4204D55242C3F1000338BF5B1E36
:1002700000F03FF814F0804F04D04042C1F100017B
:1002800038BF491E14F0004F04D05242C3F100039E
:1002900038BF5B1E10BD02F0FF0343EA032242EAAF
:1002A000024200F002B84FF000020429C0F01280B0
:1002B00010F0030C00F0A180CCF1040CBCF1020F93
:1002C00018BF00F8012BA8BF20F8022BA1EB0C01EE
:1002D00000F093B85FEAC17C24BF00F8012B00F85E
:1002E000012B48BF00F8012B7047704770477047DB
:1002F000704753EA020C00F069802DE9F04B4FF093
:100300000006002B1FBFB3FA83F503FA05F424FAA5
:1003100005F65E4012BF1643B2FA82F502FA05F402
:10032000C5F120051EBF22FA05FC44EA0C04203565
:1003300056EA044C4FEA144418BF641C4FF00008FE
:100340004FF00009904271EB030C39D3002919BF1B
:10035000B1FA81F701FA07F6B0FA80F700FA07F66A
:10036000C7F120071EBF20FA07FC46EA0C0620371B
:10037000B6FBF4FCA7EB0507103F07F01F0BCBF112
:1003800020060CFA0BFB2CFA06F644BFB3460026F7
:10039000202FA4BF5E464FF0000B5BEA060C08BF9F
:1003A0004FF0010B19EB0B09ABFB027C48EB060885
:1003B000C01B06FB02CC0BFB03CC71EB0C01C1E7AD
:1003C0000B46024641464846BDE8F08B13B54FF058
:1003D00000004FF00001AFF30080BDE81C40704703
:1003E00010B500F02FF8006810BD10B5044600F0FD
:1003F00029F8046010BD4FF0000200B51346944682
:100400009646203922BFA0E80C50A0E80C50B1F16C
:100410002001BFF4F7AF090728BFA0E80C5048BF80
:100420000CC05DF804EB890028BF40F8042B08BF1E
:10043000704748BF20F8022B11F0804F18BF00F81A
:10044000012B7047004870478C0600200048704719
:100450008C0600207546FFF7F9FFAE460500694699
:10046000534620F00700854618B020B5FFF7DCFEA4
:10047000BDE820404FF000064FF000074FF00008A5
:100480004FF0000B21F00701AC46ACE8C009ACE826
:10049000C009ACE8C009ACE8C0098D467047044605
:1004A000AFF300802046FFF7AAFE00001CB503F062
:1004B00073FA0020FE490860022007F053FA042274
:1004C0006946900100F046FA9DF80000382801D0F6
:1004D000012000E000209DF80110362901D0012103
:1004E00000E0002108439DF802104F2901D00121AE
:1004F00000E0002108439DF803104B2901D00121A1
:1005000000E00021084300287DD038208DF800004D
:1005100036208DF801004F208DF802004B208DF819
:10052000030004226946900100F04CFA30208DF857
:1005300000008DF801008DF80200032269464FF497
:10054000847000F03FFA30208DF800008DF8010033
:100550002E208DF8020030208DF803008DF8040065
:100560008DF80500062269464FF4887000F02AFADB
:10057000062269464FF4B87000F024FA30208DF856
:1005800001002E208DF80200052269464FF48C7080
:1005900000F018FA052269464FF4BC7000F012FA18
:1005A00031208DF800002E208DF8010030208DF8CC
:1005B00002008DF803008DF804008DF805008DF819
:1005C0000600052269464FF4907000F0FBF9052201
:1005D00069464FF4C07000F0F5F9052269464FF402
:1005E000947000F0EFF9052269464FF4987000F01E
:1005F000E9F9052269464FF49C7000F0E3F9052201
:100600006946900100E046E100F0DCF90522694608
:100610004FF4A47000F0D6F9052269464FF4A87093
:1006200000F0D0F9052269464FF4AC7000F0CAF929
:10063000052269464FF4B07000F0C4F905226946FE
:100640004FF4B47000F0BEF9052269464FF4C4704F
:1006500000F0B8F9052269464FF4C87000F0B2F90D
:10066000052269464FF4CC7000F0ACF905226946CA
:100670004FF4D07000F0A6F9052269464FF4D4700B
:1006800000F0A0F9052269464FF4D87000F09AF9FD
:10069000052269464FF4DC7000F094F905226946A2
:1006A0004FF4E07000F08EF9052269464FF4E470D3
:1006B00000F088F92D208DF8000030208DF8010021
:1006C0008DF8020038208DF8030030208DF80400EA
:1006D00005226946502000F075F920208DF80000B1
:1006E00030208DF801008DF802002E208DF80300D7
:1006F00030208DF8040005226946582000F062F988
:1007000020208DF8000030208DF8010031208DF878
:1007100002002E208DF8030030208DF804008DF8A3
:1007200005008DF806008DF8070006226946602056
:1007300000F048F908226946682000F043F90622D3
:100740006946702000F03EF906226946782000F0E4
:1007500039F930208DF8000033208DF80100342065
:100760008DF8020039208DF8030030208DF8040048
:100770008DF805008DF806008DF8070008226946FF
:10078000802000F01FF930208DF800008DF8010066
:100790008DF8020038208DF8030030208DF8040019
:1007A0008DF805008DF806008DF8070008226946CF
:1007B000882000F007F920208DF8000030208DF807
:1007C00001008DF802008DF803008DF804008DF80B
:1007D00005008DF806008DF8070008226946902074
:1007E00000F0F0F832208DF8000030208DF8010084
:1007F0008DF802008DF804002E208DF803003020C3
:100800008DF805008DF80600062269464FF4E87061
:1008100000F0D8F8062269464FF4EC7000F0D2F8E8
:1008200030208DF800008DF801008DF802008DF861
:1008300003008DF804008DF805002E208DF80600C9
:1008400030208DF80700082269464FF4F07000F060
:10085000B9F808226946900100F0B4F830208DF80C
:1008600000008DF801008DF802008DF803008DF86E
:1008700004008DF805008DF806008DF807000822A9
:1008800069464FF4F87000F09DF8082269464FF46D
:10089000027000F097F8022007F064F80122694620
:1008A000752000F057F89DF800000249087003E039
:1008B000948121426C000020032269464FF4847029
:1008C00000F048F89DF800003038642148439DF856
:1008D0000110303901EB810100EB41019DF802006C
:1008E000303808441549086008460068FF2801D9D7
:1008F000FF20086011480068114908440F4908604A
:100900004FF4F8726946042000F094F80D4908602D
:1009100008460068000108600846008800F502707B
:1009200082B20949082000F085F80849086000F003
:10093000AFF80120064908601CBD0000BC00002083
:100940000004941104020020F8010020000200209D
:10095000948121422DE9F04104460E46154603F0EC
:10096000B7F8A02003F084F803F00CF9201203F08C
:100970007FF803F007F92746E11704EB116109122C
:10098000A4EB0121C8B203F073F803F0FBF803F005
:100990009FF8A12003F06CF802F0D8FF09E0691E6F
:1009A000C8B203F039F83070681E85B2601C84B29A
:1009B000761C002DF3D103F0B9F80A2006F0D2FF1F
:1009C000BDE8F0812DE9F04104460D4616460020B1
:1009D0001749086003F07CF8A02003F049F803F001
:1009E000D1F8201203F044F803F0CCF82746E117C1
:1009F00004EB11610912A4EB0121C8B203F038F82D
:100A000003F0C0F807E0287803F032F803F0BAF8F2
:100A1000701E86B26D1C002EF5D103F087F8012000
:100A2000034908600A2006F09DFFBDE8F081000040
:100A3000948121422DE9F04704460D4617464FF0B8
:100A4000000900264FF00108224629463846FFF7E4
:100A500081FF13E0601E285C3A280DDC601E285CD4
:100A6000302809DB601E285C303800FB08F908EBF1
:100A700088004FEA40084E44601EC4B2002CE9DCF6
:100A800028782D2801D1F043461C3046BDE8F08778
:100A90001CB5902269460820FFF7CCFF8949086001
:100AA000802269460820FFF7C5FF87490860882231
:100AB00069460820FFF7BEFF84490860682269463E
:100AC0000520FFF7B7FF00B2814908806022694620
:100AD0000520FFF7AFFF00B27E4908805822694623
:100AE0000520FFF7A7FF00B27B4908805022694626
:100AF0000520FFF79FFF00B2784908804FF4887205
:100B000069460620FFF796FF754908804FF48C72FE
:100B100069460520FFF78EFF724908804FF4E8729E
:100B200069460620FFF786FF6F4908604FF4907210
:100B300069460520FFF77EFF6C4908804FF49472E8
:100B400069460520FFF776FF684948804FF49872A0
:100B500069460520FFF76EFF644988804FF49C7258
:100B600069460520FFF766FF6049C8804FF4A07210
:100B700069460520FFF75EFF5C4908814FF4A472C7
:100B800069460520FFF756FF584948814FF4A8727F
:100B900069460520FFF74EFF544988814FF4AC7237
:100BA00069460520FFF746FF5049C8814FF4B072EF
:100BB00069460520FFF73EFF4C4908824FF4B472A6
:100BC00069460520FFF736FF484948824FF4B8725E
:100BD00069460620FFF72EFF454908804FF4BC7296
:100BE00069460520FFF726FF424908804FF4EC7262
:100BF00069460620FFF71EFF3F4908604FF4C072A8
:100C000069460520FFF716FF3C4908804FF4C4727F
:100C100069460520FFF70EFF384948804FF4C87237
:100C200069460520FFF706FF344988804FF4CC72EF
:100C300069460520FFF7FEFE3049C8804FF4D072A8
:100C400069460520FFF7F6FE2C4908814FF4D4725F
:100C500069460520FFF7EEFE284948814FF4D87217
:100C600069460520FFF7E6FE244988814FF4DC72CF
:100C700069460520FFF7DEFE2049C8814FF4E07287
:100C800069460520FFF7D6FE1C4908824FF4E4723E
:100C900069460520FFF7CEFE1849488218480088AB
:100CA00000F5007082B217490820FFF7C3FE16490D
:100CB00008606F2269460120FFF7BCFE13490870E7
:100CC0001CBD0000940000208C000020900000203B
:100CD000800000207E0000207C0000207A000020A0
:100CE0007200002076000020840000203C020020DA
:100CF00074000020780000208800002050020020AE
:100D0000040200202B000020580000206C0000206E
:100D100000BFFEE71FB501F0E1F8062202A94FF47B
:100D2000E870FFF717FE5A208DF8000053208DF869
:100D300001009DF808008DF802009DF809008DF86B
:100D400003009DF80A008DF804009DF80B008DF853
:100D500005009DF80C008DF806009DF80D008DF83B
:100D6000070008226946FE48006801F0EFFA3220C9
:100D700006F0F8FD062202A94FF4EC70FFF7EAFD39
:100D800046208DF8000053208DF801009DF80800E2
:100D90008DF802009DF809008DF803009DF80A0007
:100DA0008DF804009DF80B008DF805009DF80C00EF
:100DB0008DF806009DF80D008DF8070008226946A1
:100DC000E748006801F0C2FA322006F0CBFD0522A8
:100DD00002A94FF48870FFF7BDFD5A208DF800007E
:100DE0004C208DF801009DF808008DF802009DF858
:100DF00009008DF803009DF80A008DF804009DF8A5
:100E00000B008DF805009DF80C008DF806002020E1
:100E10008DF8070008226946D148006801F096FA6B
:100E2000322006F09FFD052202A94FF4B870FFF7AB
:100E300091FD46208DF800004C208DF801009DF8B2
:100E400008008DF802009DF809008DF803009DF858
:100E50000A008DF804009DF80B008DF805009DF840
:100E60000C008DF8060020208DF807000822694646
:100E7000BB48006801F06AFA322006F073FD0522D3
:100E800002A94FF48C70FFF765FD5A208DF8000021
:100E900051208DF801009DF808008DF802009DF8A2
:100EA00009008DF803009DF80A008DF804009DF8F4
:100EB0000B008DF805009DF80C008DF80600082247
:100EC0006946A748006801F041FA322006F04AFD61
:100ED000062202A94FF4BC70FFF73CFD46208DF8B6
:100EE000000051208DF801009DF808008DF80200E7
:100EF0009DF809008DF803009DF80A008DF80400A4
:100F00009DF80B008DF805009DF80C008DF806008B
:100F1000082269469248006801F018FA322006F06B
:100F200021FD052202A94FF49070FFF713FD5A200E
:100F30008DF8000030208DF801009DF808008DF834
:100F400002009DF809008DF803009DF80A008DF855
:100F500004009DF80B008DF805009DF80C008DF83D
:100F60000600082269467E48006801F0EFF9322049
:100F700006F0F8FC052202A94FF4C070FFF7EAFC66
:100F800046208DF8000030208DF801009DF8080003
:100F90008DF802009DF809008DF803009DF80A0005
:100FA0008DF804009DF80B008DF805009DF80C00ED
:100FB0008DF80600082269466948006801F0C6F904
:100FC000322006F0CFFC052202A94FF49470FFF7FF
:100FD000C1FC5A208DF8000031208DF801009DF8E9
:100FE00008008DF802009DF809008DF803009DF8B7
:100FF0000A008DF804009DF80B008DF805009DF89F
:101000000C008DF80600082269465548006801F07A
:101010009DF9322006F0A6FC052202A94FF4C47007
:10102000FFF798FC46208DF8000031208DF8010074
:101030009DF808008DF802009DF809008DF8030066
:101040009DF80A008DF804009DF80B008DF805004E
:101050009DF80C008DF8060008226946404800689B
:1010600001F074F9322006F07DFC052202A94FF44C
:101070009870FFF76FFC5A208DF8000032208DF831
:1010800001009DF808008DF802009DF809008DF818
:1010900003009DF80A008DF804009DF80B008DF800
:1010A00005009DF80C008DF80600082269462C48C2
:1010B000006801F04BF9322006F054FC052202A929
:1010C0004FF4C870FFF746FC46208DF80000322030
:1010D0008DF801009DF808008DF802009DF80900C8
:1010E0008DF803009DF80A008DF804009DF80B00B0
:1010F0008DF805009DF80C008DF806000822694661
:101100001748006801F022F9322006F02BFC052276
:1011100002A94FF49C70FFF71DFC5A208DF80000C7
:1011200033208DF801009DF808008DF802009DF82D
:1011300009008DF803009DF80A008DF804009DF861
:101140000B008DF805009DF80C008DF806000822B4
:1011500069460348006801F0F9F8322002E0000017
:10116000BC00002006F0FEFB052202A94FF4CC7063
:10117000FFF7F0FB46208DF8000033208DF80100CA
:101180009DF808008DF802009DF809008DF8030015
:101190009DF80A008DF804009DF80B008DF80500FD
:1011A0009DF80C008DF8060008226946FE4800688C
:1011B00001F0CCF8322006F0D5FB052202A99001FF
:1011C000FFF7C8FB5A208DF8000034208DF801008D
:1011D0009DF808008DF802009DF809008DF80300C5
:1011E0009DF80A008DF804009DF80B008DF80500AD
:1011F0009DF80C008DF8060008226946EA48006850
:1012000001F0A4F8322006F0ADFB052202A94FF44C
:10121000D070FFF79FFB46208DF8000034208DF83A
:1012200001009DF808008DF802009DF809008DF876
:1012300003009DF80A008DF804009DF80B008DF85E
:1012400005009DF80C008DF8060008226946D64876
:10125000006801F07BF8322006F084FB052202A929
:101260004FF4A470FFF776FB5A208DF8000035206C
:101270008DF801009DF808008DF802009DF8090026
:101280008DF803009DF80A008DF804009DF80B000E
:101290008DF805009DF80C008DF8060008226946BF
:1012A000C148006801F052F8322006F05BFB0522CD
:1012B00002A94FF4D470FFF74DFB46208DF80000D3
:1012C00035208DF801009DF808008DF802009DF88A
:1012D00009008DF803009DF80A008DF804009DF8C0
:1012E0000B008DF805009DF80C008DF80600082213
:1012F0006946AD48006801F029F8322006F032FB5B
:10130000052202A94FF4A870FFF724FB5A208DF89C
:10131000000036208DF801009DF808008DF80200CD
:101320009DF809008DF803009DF80A008DF804006F
:101330009DF80B008DF805009DF80C008DF8060057
:10134000082269469848006801F000F8322006F04B
:1013500009FB052202A94FF4D870FFF7FBFA4620DB
:101360008DF8000036208DF801009DF808008DF8FA
:1013700002009DF809008DF803009DF80A008DF821
:1013800004009DF80B008DF805009DF80C008DF809
:101390000600082269468448006800F0D7FF322022
:1013A00006F0E0FA052202A94FF4AC70FFF7D2FA7A
:1013B0005A208DF8000037208DF801009DF80800B4
:1013C0008DF802009DF809008DF803009DF80A00D1
:1013D0008DF804009DF80B008DF805009DF80C00B9
:1013E0008DF80600082269466F48006800F0AEFFDD
:1013F000322006F0B7FA052202A94FF4DC70FFF79D
:10140000A9FA46208DF8000037208DF801009DF8DC
:1014100008008DF802009DF809008DF803009DF882
:101420000A008DF804009DF80B008DF805009DF86A
:101430000C008DF80600082269465B48006800F041
:1014400085FF322006F08EFA052202A94FF4B07013
:10145000FFF780FA5A208DF8000038208DF801003F
:101460009DF808008DF802009DF809008DF8030032
:101470009DF80A008DF804009DF80B008DF805001A
:101480009DF80C008DF80600082269464648006861
:1014900000F05CFF322006F065FA082202A94FF442
:1014A000E070FFF757FA46208DF8000038208DF8DD
:1014B00001009DF808008DF802009DF809008DF8E4
:1014C00003009DF80A008DF804009DF80B008DF8CC
:1014D00005009DF80C008DF8060008226946324888
:1014E000006800F033FF322006F03CFA052202A922
:1014F0004FF4B470FFF72EFA5A208DF8000039200F
:101500008DF801009DF808008DF802009DF8090093
:101510008DF803009DF80A008DF804009DF80B007B
:101520008DF805009DF80C008DF80600082269462C
:101530001D48006800F00AFF322006F013FA052269
:1015400002A94FF4E470FFF705FA46208DF8000079
:1015500039208DF801009DF808008DF802009DF8F3
:1015600009008DF803009DF80A008DF804009DF82D
:101570000B008DF805009DF80C008DF80600082280
:1015800069460948006800F0E1FE322006F0EAF9F9
:10159000042202A95020FFF7DDF957208DF8000042
:1015A0004B208DF8010001E0BC0000209DF80800F0
:1015B0008DF802002E208DF803009DF80A008DF8AA
:1015C00004009DF80B008DF805009DF80C008DF8C7
:1015D000060030208DF8070020208DF80700082233
:1015E00069466E48006800F0B1FE322006F0BAF994
:1015F000062202A95820FFF7ADF957208DF8000008
:1016000042208DF801009DF808008DF802002E2080
:101610008DF805009DF809008DF803009DF80A007B
:101620008DF804009DF80C008DF806009DF80D0063
:101630008DF80700082269465848006800F086FEC9
:10164000322006F08FF9062202A96020FFF782F906
:101650005A208DF8000057208DF801009DF80800F1
:101660008DF802002E208DF806009DF809008DF8F7
:1016700003009DF80A008DF804009DF80B008DF81A
:1016800005009DF80D008DF80700082269464348C3
:10169000006800F05BFE322006F064F9062202A921
:1016A0006820FFF757F946208DF8000057208DF885
:1016B00001009DF808008DF802002E208DF806002C
:1016C0009DF809008DF803009DF80A008DF80400CC
:1016D0009DF80B008DF805009DF80D008DF80700B2
:1016E000082269462D48006800F030FE322006F0DE
:1016F00039F9062202A97020FFF72CF95A208DF83B
:1017000000004A208DF801009DF808008DF80200C5
:101710002E208DF806009DF809008DF803009DF835
:101720000A008DF804009DF80B008DF805009DF867
:101730000D008DF80700082269461848006800F07F
:1017400005FE322006F00EF9062202A97820FFF7E6
:1017500001F946208DF800004A208DF801009DF81F
:1017600008008DF802002E208DF806009DF8090073
:101770008DF803009DF80A008DF804009DF80B0019
:101780008DF805009DF80D008DF8070008226946C8
:101790000248006800F0DAFD1FBD0000BC00002018
:1017A00010B50021837A012202FA03F13D4A126842
:1017B00042F001023B4B1A603A4A1C3212688A43DB
:1017C000384B1C331A60027BCAB9364A0C32126895
:1017D0008A43344B0C331A604288C38842EA03437D
:1017E000304A4032847A42F834300288838842EAB0
:1017F00003432C4A4032847A02EBC4025360027BDA
:10180000012A19D1274A0C3212680A43254B0C339E
:101810001A604288038842EA0343224A4032847AAB
:1018200042F83430C288838842EA03431D4A40327A
:10183000847A02EBC4025360C27A3AB9194A121D83
:1018400012688A43174B1B1D1A6006E0154A121DC9
:1018500012680A43134B1B1D1A60028932B9114AE0
:10186000143212688A430F4B14331A600289012A1A
:1018700006D10C4A143212680A430A4B14331A6018
:10188000427B012A06D1074A1C3212680A43054BE3
:101890001C331A60034A126822F00102014B1A60DD
:1018A00010BD00000066004030B502460020002355
:1018B000146824F002041460146844F001041460F5
:1018C00000E05B1C546804F001041CB94FF6FF747F
:1018D000A342F6D1546804F001040CB900206CE076
:1018E0008C79012C04D1146844F08004146003E066
:1018F000146824F080041460CC79012C04D114689D
:1019000044F04004146003E0146824F040041460C0
:101910000C7A012C04D1146844F02004146003E014
:10192000146824F0200414604C7A012C04D114684B
:1019300044F01004146003E0146824F010041460F0
:101940008C7A012C04D1146844F00804146003E07C
:10195000146824F008041460CC7A012C04D11468B3
:1019600044F00404146003E0146824F004041460D8
:101970008C78A407CD7844EA05640D7944EA0544DF
:101980004D7944EA05540D886D1E2C43D4611468CA
:1019900024F001041460002300E05B1C546804F090
:1019A00001041CB14FF6FF74A342F6D1546804F051
:1019B00001040CB1002000E0012030BD02460020EF
:1019C00019B9D36803F0030006E0012903D11369B4
:1019D00003F0030000E00020704700002DE9F04113
:1019E00088B004460D4616461F46DDF838800121B2
:1019F000042002F071FD0121480602F05DFD4FF464
:101A00008050ADF81C0003208DF81E0018208DF8C2
:101A10001F0007A92F4801F003FA4FF40060ADF84A
:101A20001C0048208DF81F0007A92A4801F0F8F98A
:101A300000208DF8160001208DF8170000208DF889
:101A4000180001208DF8190000208DF81A008DF87B
:101A50001B008DF812808DF813408DF814608DF8FE
:101A60001550ADF8107004A91B48FFF71DFF0020AA
:101A70008DF80A0001208DF80B008DF80C00174836
:101A8000006840F48030C0F34F30ADF800001348D8
:101A90000088042101EBC00080B2ADF802000F48BD
:101AA000006840F48030C0F34F30ADF804000B48BC
:101AB000008801EBC00080B2ADF806000020ADF850
:101AC000080001208DF80D006846FFF769FE08B098
:101AD000BDE8F0810008014000640040BC00002027
:101AE00010B500F5D87303EB01131B6803F0040372
:101AF0001372137A53B900F5D87303EB01131B6803
:101B000040F2FF7404EA5353136009E000F5D87300
:101B100003EB01131B686FF0604404EAD3035360C6
:101B200000F5D87303EB01131B6803F00203537233
:101B300000F5D87303EB01135B6803F00F03937296
:101B400000F5D87303EB01135B681B0AD37400F52F
:101B5000D87303EB01139B68D37200F5D87303EBC2
:101B600001139B681C0A147300F5D87303EB01136F
:101B70009B681C0C547300F5D87303EB01139B682E
:101B80001B0E937300F5D87303EB0113DB68D3735B
:101B900000F5D87303EB0113DB681C0A147400F51D
:101BA000D87303EB0113DB681C0C547400F5D87375
:101BB00003EB0113DB681B0E937421B9C36843F078
:101BC0002003C36003E0036943F02003036110BDF9
:101BD0001CB5002406E0BC49A01C085C0DF80400FC
:101BE000601CC4B2072CF6DBB848007801282AD163
:101BF000B5480078532801D1012000E00020B24907
:101C00004978542901D1012100E000210840002831
:101C10000BD0AD4880784F2808D10020AC4908701F
:101C2000AC480088401CAB49088045E1A648807854
:101C30004128FAD10120A6490870A7480088401C15
:101C4000A549088038E1A14800780228EDD19E48D6
:101C500000785A2872D19C484078372859D009DC3E
:101C6000A0F1300007287ED2DFE800F0232A3138C7
:101C70003F454C004C280ED006DC382850D039287F
:101C800055D04A286FD162E051280BD0532857D045
:101C9000572868D161E0062269464FF48870FEF744
:101CA00091FE61E0052269464FF48C70FEF78AFED2
:101CB0005AE0052269464FF49070FEF783FE53E028
:101CC000052269464FF49470FEF77CFE4CE0052235
:101CD00069464FF49870FEF775FE45E005226946A7
:101CE0004FF49C70FEF76EFE3EE0052269469001BF
:101CF000FEF768FE38E0052269464FF4A470FEF74F
:101D000061FE31E0052269464FF4A870FEF75AFEE5
:101D10002AE0052269464FF4AC70FEF753FE23E03B
:101D2000052269464FF4B070FEF74CFE1CE0052218
:101D300069464FF4B470FEF745FE15E015E012E079
:101D4000052269464FF4E870FEF73CFE0CE00622DF
:101D500069467020FEF736FE06E0062269466020DE
:101D6000FEF730FE00E000BF00BF5748007846286D
:101D700073D15548407837285AD009DCA0F130009B
:101D800007287FD2DFE800F0232A31383F464D0094
:101D90004C280ED006DC382851D0392856D04A2895
:101DA00070D163E051280BD0532858D0572869D1FF
:101DB00062E0062269464FF4B870FEF703FE62E067
:101DC000052269464FF4BC70FEF7FCFD5BE005227E
:101DD00069464FF4C070FEF7F5FD54E005226946F0
:101DE0004FF4C470FEF7EEFD4DE0052269464FF456
:101DF000C870FEF7E7FD46E0052269464FF4CC7057
:101E0000FEF7E0FD3FE0052269464FF4D070FEF793
:101E1000D9FD38E0052269464FF4D470FEF7D2FDB3
:101E200031E0052269464FF4D870FEF7CBFD2AE079
:101E3000052269464FF4DC70FEF7C4FD23E005225D
:101E400069464FF4E070FEF7BDFD1CE005226946CF
:101E50004FF4E470FEF7B6FD15E015E012E0052240
:101E600069464FF4EC70FEF7ADFD0CE006226946C2
:101E70007820FEF7A7FD06E0062269466820FEF7F7
:101E8000A1FD00E000BF00BF0F480078572813D124
:101E90000D484078422807D04B280BD104226946D0
:101EA0005020FEF78FFD06E0052269465820FEF718
:101EB00089FD00E000BF00BF034800784C2801D135
:101EC00001F060FF1CBD000099000020A10000206F
:101ED000D101002054000020560000201CB5002431
:101EE000002002F079F800BF0120102103461DA256
:101EF000CDE900100A21204601F0DDFC04F10800C4
:101F0000C4B2802CF0DB01201021034615A2CDE9DC
:101F100000101E21002001F0CEFC012012A310228F
:101F20001E210090104601F05BF9012010210346AC
:101F30000CA2CDE900101E21782001F0BCFC002489
:101F400000BF01201021034606A2CDE90010322176
:101F5000204601F0B0FC04F10800C4B2802CF0DB94
:101F60001CBD00002A000000D5FDD4DAC9E8D6C3A4
:101F7000B2CECAFD0000000010B5024600209368F2
:101F800003F08063B3F1806F00D110E0936803F039
:101F90000063B3F1006F01D1012008E0936803F002
:101FA0008053B3F1805F01D1022000E004200428B7
:101FB00074D002F5C07303EB00131B6803F0010437
:101FC00002F5C07303EB00131C600B7A7BB94B7AEC
:101FD0000C8843EA445302F5C07404EB00142468EF
:101FE000234302F5C07404EB0014236010E00B7A65
:101FF0004C6843EAC4034C7A234302F5C07404EBF3
:1020000000142468234302F5C07404EB0014236019
:102010008B7A03F00F038B7202F5C07303EB00138E
:102020005B6823F00F0402F5C07303EB00135C60E0
:1020300002F5C07303EB00135B688C7A234302F54F
:10204000C07404EB001463608B7B1C064B7B44EA7A
:1020500003440B7B44EA0323CC7A234302F5C07488
:1020600004EB0014A3608B7C1C064B7C44EA034405
:102070000B7C44EA0323CC7B234302F5C07404EBBE
:102080000014E36002F5C07303EB00131B6843F018
:10209000010402F5C07303EB00131C6010BD0000C7
:1020A00010B50246002321B1012907D002290FD122
:1020B00009E090681D4C00EA04030BE090681C4C9A
:1020C00000EA040306E090681A4C00EA040301E009
:1020D000002300BF00BF184C181BA34216D007DC1A
:1020E00083B16FF08060184470B1022818D111E0FC
:1020F000B0F5007F10D0114C204448B1B0F5003F3E
:102100000ED10BE002230DE000230BE0002309E0D9
:10211000002307E0012305E0012303E0012301E0A0
:10212000002300BF00BFD8B210BD000003000004B0
:102130000003000800000310000100080001FFF781
:102140003EB5334800683349098808443249098854
:10215000401A2DD42E4800882E49098808442E495B
:102160000988401A2B49088001A800230322062170
:1021700000902848008801F0B8FE0DF10504062201
:1021800021464FF48870FEF71DFC0020224908808C
:1021900001A800230322062100901F48008801F0B7
:1021A000A4FE062221464FF4B870FEF70BFC2EE089
:1021B00017480088C043401C17490988084415493E
:1021C0000988401A1449088001A800230322062127
:1021D00000901148008801F088FE0DF105040622E8
:1021E00021464FF4B870FEF7EDFB00200949088046
:1021F00001A800230322062100900648008801F070
:1022000074FE062221464FF48870FEF7DBFB3EBDCC
:102210006000002072000020740000203EB53348AA
:10222000006833490988084432490988401A2DD486
:102230002E4800882E49098808442E490988401AEA
:102240002B49088001A8002303220621009028487A
:10225000008801F04AFE0DF10504062221464FF4E4
:102260008870FEF7AFFB00202249088001A80023F8
:102270000322062100901F48008801F036FE062246
:1022800021464FF4B870FEF79DFB2EE017480088FA
:10229000C043401C17490988084415490988401A59
:1022A0001449088001A80023032206210090114848
:1022B000008801F01AFE0DF10504062221464FF4B4
:1022C000B870FEF77FFB00200949088001A80023B1
:1022D0000322062100900648008801F006FE06222F
:1022E00021464FF48870FEF76DFB3EBD6000002074
:1022F000720000207400002030B585B00546002132
:102300001048FFF75BFB10B9002005B030BD6A46EE
:1023100000210C48FFF7E4FB0B490198096841F4E0
:10232000803188420BD1002404E00DF10B00005DE8
:102330002855641C082CF8D39DF80A00E5E7002016
:10234000E3E7000000640040BC0000202DE9F041FC
:1023500086B005468846164600240195029504205D
:102360008DF80C0000208DF80D008DF80E6000BF78
:1023700006E018F804100DF10F000155601C84B23E
:10238000B442F6DB01A90A48FFF7F6FD0746002430
:1023900001E0601C84B239460548FFF781FE18B998
:1023A00040F6FF708442F4DB06B0BDE8F081000027
:1023B00000640040704700000C48006820F0800076
:1023C0000A49086011E04FF40051094800F0BCFDD3
:1023D00040F6B83005F0C6FA4FF40051044800F05A
:1023E000B5FD40F6B83005F0BDFAECE70004014059
:1023F00000100140014600200022074B1B6803EA41
:102400000102054B14331B680B4013B10AB10120C4
:1024100000E0002070470000000401401CB50020CF
:1024200001F0DAFD012025A31022032100900020F5
:1024300000F0D6FE012023A31022182100900020D6
:1024400000F0CEFE012021A310222D2100900020BB
:1024500000F0C6FE0120102103231EA2CDE90010CA
:102460001946642001F027FA0120082103461AA228
:10247000CDE9001003216C2001F01DFA012010218C
:10248000034616A2CDE900101821702001F013FABE
:1024900001200821034610A2CDE900101821782060
:1024A00001F009FA0120102103230DA2CDE900104B
:1024B0002D21682001F0FFF91CBD0000C1F7C1BF4C
:1024C00000000000C0DBBCC600000000B2EED1B9C5
:1024D000000000006D2F6800330000006D00000058
:1024E0004B5061001CB5002001F076FDF64890F9D4
:1024F00000001E286ADA01203A237F22052100907D
:10250000002000F07DFD01203A233F2205210090AC
:10251000104600F01DFD012020237F221946009067
:10252000002000F015FD0120E8A3102200210090FA
:10253000104600F055FE0120E6A310220021009075
:10254000462000F04DFE0120E4A31022302100902F
:10255000052000F045FE0120E2A31022302100906A
:10256000462000F03DFE012010210346DFA2CDE908
:1025700000100E21342001F09EF9012010210223C9
:10258000DBA2CDE900100021692001F094F90120BF
:1025900010210323D7A2CDE900103021252001F01E
:1025A0008AF9012008210346D3A2CDE90010302189
:1025B0002D2001F080F9012010210223CCA2CDE9C9
:1025C00000103021692001F076F93BE201203F2321
:1025D0007F2200210090084600F012FDC74890F9C4
:1025E0000040062C13DA002C11DB01200821CDE974
:1025F00000102046621C54B200EB80004000C01C5A
:10260000C1B20823BEA21A2001F055F901E0601CF6
:1026100044B2062C0FDA002C0DDB01200821CDE995
:10262000001004EB84004000C01CC1B20C23B7A210
:10263000022001F040F9062C13DA002C11DB0120F6
:102640000821CDE900102046621C54B200EB800046
:102650004000C01CC1B20123B0A26E2001F02BF9D2
:1026600001E0601C44B2062C0FDA002C0DDB0120C7
:102670000821CDE9001004EB84004000C01CC1B269
:102680000B23A7A2082001F016F9062C13DA002C60
:1026900011DB01200821CDE900102046621C54B254
:1026A00000EB80004000C01CC1B2022390A26E204B
:1026B00001F001F901E0601C44B2062C13DA002C91
:1026C00011DB01200821CDE900102046621C54B224
:1026D00000EB80004000C01CC1B2092393A214206B
:1026E00001F0E9F801E0601C44B2062C13DA002C7A
:1026F00011DB01200821CDE900102046621C54B2F4
:1027000000EB80004000C01CC1B20B238AA208204D
:1027100001F0D1F801E0601C44B2062C13DA002C61
:1027200011DB01200821CDE900102046621C54B2C3
:1027300000EB80004000C01CC1B2082381A21A2017
:1027400001F0B9F801E0601C44B2062C13DA002C49
:1027500011DB01200821CDE900102046621C54B293
:1027600000EB80004000C01CC1B20B2378A20820FF
:1027700001F0A1F801E0601C44B2062C13DA002C31
:1027800011DB01200821CDE900102046621C54B263
:1027900000EB80004000C01CC1B20B236FA20820D8
:1027A00001F089F801E0601C44B2062C13DA002C19
:1027B00011DB01200821CDE900102046621C54B233
:1027C00000EB80004000C01CC1B2062366A2262098
:1027D00001F071F801E0601C44B2062C13DA002C01
:1027E00011DB01200821CDE900102046621C54B203
:1027F00000EB80004000C01CC1B20A235CA20E2086
:1028000001F059F801E0601C44B2062C13DA002CE8
:1028100011DB01200821CDE900102046621C54B2D2
:1028200000EB80004000C01CC1B2082353A21A2054
:1028300001F041F801E0601C44B2062C13DA002CD0
:1028400011DB01200821CDE900102046621C54B2A2
:1028500000EB80004000C01CC1B208234AA21A202D
:1028600001F029F801E0601C44B2062C13DA002CB8
:1028700011DB01200821CDE900102046621C54B272
:1028800000EB80004000C01CC1B2082341A21A2006
:1028900001F011F801E0601C44B2062C13DA002CA0
:1028A00011DB01200821CDE900102046621C54B242
:1028B00000EB80004000C01CC1B2082338A21A20DF
:1028C00000F0F9FF74E071E06E000020CEC2B6C8DF
:1028D00000000000CEC2B2EE00000000C1F7C1BF90
:1028E00000000000B2EED1B900000000430000007B
:1028F000506100006D2F6800330000006D00002063
:1029000056657273696F6E3A0000000054656D7011
:10291000657261747572653A000000002400000061
:10292000436F7272656374696F6E3A0053616D70C4
:102930006C696E673A000000526573697374616E6A
:1029400063653A005B5D416E676C653A00000000AC
:10295000454550524F4D204269743A00454550520A
:102960004F4D204E756D3A004572726F723A0000FD
:1029700045535220422C452C573A000045535220D3
:102980004C45433A00000000455352205445433A19
:1029900000000000455352205245433A0000000019
:1029A0004D435220302D373A00000000601C44B2E5
:1029B000062C13DA002C11DB01200821CDE90010D0
:1029C0002046621C54B200EB80004000C01CC1B223
:1029D00009231DA2142000F06EFF01E0601C44B228
:1029E000062C13DA002C11DB01200821CDE90010A0
:1029F0002046621C54B200EB80004000C01CC1B2F3
:102A0000072314A2202000F056FF01E0601C44B20E
:102A1000062C13DA002C11DB01200821CDE900106F
:102A20002046621C54B200EB80004000C01CC1B2C2
:102A300005230AA22C2000F03EFF03E0601C44B2F4
:102A4000601C44B21CBD00005246305220464D501E
:102A50003A000000465F53495A453A00465F4944F0
:102A60003A0000001CB5002001F0B6FA01200EA3C8
:102A7000102211460090152000F0B2FB0120102119
:102A800004230DA2CDE900102621582000F013FFE9
:102A90000120082103460AA2CDE900102921612066
:102AA00000F009FF1CBD0000CFF2C1F7C1BFC1BFDC
:102AB000B3CCA3BA000000006D202F680000000016
:102AC000330000001CB5002001F086FA012012A39B
:102AD000102200210090104600F082FB01201021FE
:102AE000082311A2CDE90010042000F0E4FE01202B
:102AF000102108230FA2CDE900102021042000F0AE
:102B0000DAFE0120102108230DA2CDE900103021AA
:102B1000042000F0D0FE1CBDCFF2D0DED5FDB2CE39
:102B2000CAFDA3BA000000003530257E3630253AB4
:102B3000000000003630257E3730253A00000000C6
:102B40003730257E3830253A000000002DE9FC5F43
:102B5000074640F6FF78052098FBF0F64B480068E2
:102B600000EB80004FEA40094948006800EB800014
:102B70004FEA400A4748007898BB4548006880B350
:102B80004248006868B33FB9A8EB060000EBD0717B
:102B900006EB6104E5174CE007F0004080B14FEA16
:102BA0004A01A8EB060291FBF2F197FBF1F13144E7
:102BB000A8EB060000EBD07201EB6204E51738E0E9
:102BC0004FEA4901A8EB060291FBF2F197FBF1F104
:102BD0003144A8EB060000EBD07201EB6204E5176C
:102BE00027E0FFE72B480078012820D1284800681B
:102BF000E8B126480068D0B117B9F517344618E097
:102C000007F0004050B1F843471CA8EB06009AFBC0
:102C1000F0F097FBF0F08419E5170AE0A8EB060046
:102C200099FBF0F097FBF0F08419E51701E0F51738
:102C300034461948B0F9000042F210710844C11737
:102C40002246A2FB00CB05FB00B004FB010042F2D0
:102C500010720023CDE900C060460199FDF7F7FA34
:102C600004460D4640F6FF710020091BA84102DA18
:102C700040F6FF7405E0F017A11B75EB000000DAC9
:102C80003446A0B200F028F8BDE8FC9F8400002084
:102C9000880000206C0000208000002008B5012181
:102CA000042001F019FC0121084601F015FC032065
:102CB000ADF8000010208DF8030003208DF802000D
:102CC0006946044800F0ACF80321024800F03EF9E0
:102CD00008BD00000008014070B50446002500F062
:102CE0005DF8B02000F034F800F016F8022000F093
:102CF0002FF800F011F82107080E00F029F800F075
:102D00000BF8C4F3071000F023F800F005F800F00A
:102D100067F8284670BD000010B500200A49086019
:102D200001F054FC00200949C1F88001042004F09E
:102D30003FFE012004490860042004F039FE002011
:102D40000249C1F8840110BD8401214200002142E2
:102D500070B5044601F03AFC00200E4908600025D9
:102D600014E0E0090B49091F08606006040E042006
:102D700004F01EFE01200849C1F88401042004F07B
:102D800017FE002003490860681CC5B2082DE8DB67
:102D900070BD0000840121420000214210B501F005
:102DA00015FC01200C49086004F002FE01200B49CB
:102DB000C1F88401052004F0FBFD002006490860ED
:102DC000052004F0F5FD00200449C1F88401052028
:102DD00004F0EEFD10BD0000800121420000214200
:102DE00010B501F0F3FB00200B490860052004F04A
:102DF000DFFD00200949C1F88001052004F0D8FD5D
:102E0000012005490860052004F0D2FD0120034996
:102E1000C1F8800110BD0000840121420000214260
:102E20002DE9F04102460025002600200023002461
:102E3000002791F803C00CF00F0591F803C00CF0C7
:102E4000100CBCF1000F03D091F802C04CEA05054C
:102E500091F800C0BCF1000F31D0146800202BE0C5
:102E60004FF0010C0CFA00F3B1F800C00CEA0306B5
:102E70009E4220D183004FF00F0C0CFA03F7BC43A5
:102E800005FA03FC4CEA040491F803C0BCF1280FD6
:102E900006D14FF0010C0CFA00FCC2F814C00AE095
:102EA00091F803C0BCF1480F05D14FF0010C0CFAAA
:102EB00000FCC2F810C0401C0828D1D31460B1F83F
:102EC00000C0BCF1FF0F34DD546800202EE000F19B
:102ED000080C4FF0010808FA0CF3B1F800C00CEA36
:102EE00003069E4221D183004FF00F0C0CFA03F72A
:102EF000BC4305FA03FC4CEA040491F803C0BCF19E
:102F0000280F05D100F1080C08FA0CF8C2F814805B
:102F100091F803C0BCF1480F07D100F1080C4FF045
:102F2000010808FA0CF8C2F81080401C0828CED31B
:102F30005460BDE8F0810246002093680B400BB15D
:102F4000012000E000207047416170470161704737
:102F50002DE9FF4F85B081468A46002003908346C5
:102F60000798A0EB09050898A0EB0A06CDF8089091
:102F7000CDF804A0002D01DD012705E00DB90027E3
:102F800002E04FF0FF376D42002E02DD4FF00108E6
:102F900006E016B94FF0000802E04FF0FF38764225
:102FA000B54201DD2C4600E03446002004901EE0CE
:102FB000019AD1B2029AD0B2129A01F011F9039893
:102FC00028440390B3440398A04205DD0398001BF6
:102FD0000390029838440290A34504DDABEB040B48
:102FE0000198404401900498401C80B20490611CF8
:102FF00004988842DCDD01F003F809B0BDE8F08FE9
:103000002DE9F84305460E4617469846089C334678
:103010003A46314628460094FFF79AFF43462A462F
:10302000314628460094FFF793FF43463A4641460F
:1030300028460094FFF78CFF43463A46314638460F
:103040000094FFF785FFBDE8F88300002DE9F04FFD
:103050008BB006468A464FF00009002504200A90EE
:103060000024B5E000256EE00A9805F002FD274631
:10307000CDE90601E11704EB5161C911A4EBC110C0
:1030800006F04CF90190284606F048F900900199A5
:1030900006F0A8F98346514906F07EF8804605F00F
:1030A000EDFFCDE9020105F071F9CDE90401DDE99B
:1030B000062305F009FDCDE9080105F07DFC4FFA76
:1030C00080F909EBC6004FFA80F909F0FF01E8B278
:1030D000524601F085F80A9805F0CBFCA346CDE9ED
:1030E0000601E11704EB5161C911A4EBC11006F010
:1030F00015F90190284606F011F90090019906F0A3
:1031000071F93649029006F047F8039005F0B6FFD2
:10311000074604F0B7FBCDE90401DDE9062305F01D
:10312000D3FCCDE9080105F047FC4FFA80F909EB23
:10313000C6004FFA80F909F0FF01E8B2524601F0EB
:103140004FF8681C05B2802D8EDB00F059FF0A2075
:1031500004F008FC002537E00A9805F08AFCA34635
:10316000CDE90601E11704EB5161C911A4EBC110CF
:1031700006F0D4F80190284606F0D0F800900199A6
:1031800006F030F91549029006F006F8039005F0B4
:1031900075FF074605F0FAF8CDE90401DDE90623DD
:1031A00005F092FCCDE9080105F006FC4FFA80F924
:1031B00009EBC6004FFA80F909F0FF01E8B20022DE
:1031C00001F00EF8681C05B2802DC5DB601C84B2CE
:1031D000642CFFF647AF0BB0BDE8F08F0000A040B5
:1031E0002DE9F04106460F4614461D46DDF81880CD
:1031F00026E0102C06D143462A463946304600F0D8
:1032000023F913E0182C06D143462A4639463046A6
:1032100000F092F90AE0202C06D143462A463946AE
:10322000304600F00BFA01E0BDE8F0813019C6B27B
:10323000C4F18000B04202DA00263819C7B2AD1CD2
:1032400028780028D5D100BFEEE700002DE9FF4F18
:1032500081B006460F469946DDF838A04FF00008C9
:10326000002400250398203800F0FF087F2E02DD9F
:103270000026B81CC7B2B9F1100F30D100242BE0E2
:10328000BAF1000F05D004EB08106B4911F800B03B
:1032900006E004EB08106849085CC04300F0FF0B2F
:1032A000002515E08020284100EA0B0038B13A19CA
:1032B000D1B27219D0B2012200F092FF06E03A19A1
:1032C000D1B27219D0B2002200F08AFF681CC5B2D8
:1032D000082DE7DB601CC4B2102CD1DBA7E0B9F1EC
:1032E000080F30D100242BE0BAF1000F05D053486D
:1032F00000EBC80010F804B006E0504800EBC8002E
:10330000005DC04300F0FF0B002515E08020284140
:1033100000EA0B0038B13A19D1B27219D0B20122C9
:1033200000F05EFF06E03A19D1B27219D0B2002265
:1033300000F056FF681CC5B2082DE7DB601CC4B264
:10334000082CD1DB73E0B9F1180F32D100242DE045
:10335000BAF1000F06D0182000FB0840384911F8D8
:1033600000B007E0182000FB08403549085CC04366
:1033700000F0FF0B002515E08020284100EA0B003B
:1033800038B13A19D1B27219D0B2012200F028FF37
:1033900006E03A19D1B27219D0B2002200F020FF33
:1033A000681CC5B2082DE7DB601CC4B2182CCFDB4B
:1033B0003DE0B9F1200F37D1002432E0BAF1000F1F
:1033C00006D0302000FB08401E4911F800B007E08D
:1033D000302000FB08401B49085CC04300F0FF0B95
:1033E00000251AE08020284100EA0B0060B104EBC0
:1033F000D47207EB6202D1B272190832D0B2012244
:10340000009400F0EDFE06E03A19D1B27219D0B284
:10341000002200F0E5FE681CC5B2082DE2DB601C4E
:10342000C4B2302CCADB02E005B0BDE8F08F00F07A
:10343000E7FD00BFF8E700007A99000882960008CF
:103440006A9F000852A800082DE9FF4F83B080460C
:103450008946924650200190002562E005EB051058
:10346000344911F810009AF80010884257D105EB42
:103470000510304901EB400040789AF8011088426D
:103480004DD1002448E0069840B105EB05102949CC
:1034900001EB4000801C005D029009E005EB051087
:1034A000244901EB4000801C005DC043C0B2029083
:1034B00000262DE0802030410299084098B127462F
:1034C00004EBD77209EB6202D1B2A34604EBDB72C4
:1034D0005210A4EB420208EBC2023244D0B20122E5
:1034E00000F07EFE12E0274604EBD77209EB620281
:1034F000D1B2A34604EBDB725210A4EB420208EBFC
:10350000C2023244D0B2002200F06AFE701CC6B281
:10351000082ECFDB601CC4B2202CB4DB04E0681C96
:10352000C5B20198854299DB00BF00F069FD07B084
:10353000BDE8F08F62A800082DE9FE4F07468846D7
:1035400091469B460220029000256DE005EB850028
:1035500000EB4510384911F8100099F80010884226
:1035600060D105EB850000EB4510334901EB4000CD
:10357000407899F80110884254D100244FE0BBF103
:10358000000F0AD005EB850000EB45102A4901EB3E
:103590004000801C10F804A00BE005EB850000EB58
:1035A0004510254901EB4000801C005DC04300F040
:1035B000FF0A00262FE08020304100EA0A00A0B177
:1035C000032094FBF0F04044C0B20190032094FB30
:1035D000F0F100FB114007EBC0003044C0B2012203
:1035E0000090019900F0FCFD13E0032094FBF0F043
:1035F0004044C0B20190032094FBF0F100FB114065
:1036000007EBC0003044C0B200220090019900F0E6
:10361000E7FD701CC6B2082ECDDB601CC4B2482C7E
:10362000ADDB04E0681CC5B2029885428EDB00BFAA
:1036300000F0E6FCBDE8FE8F02B300082DE9FF4F65
:1036400083B080468946924604200190002566E0BA
:1036500005EB8510364911F810009AF800108842E1
:103660005BD105EB8510324901EB400040789AF8B8
:103670000110884251D100244CE0069840B105EB7E
:1036800085102B4901EB4000801C005D029009E091
:1036900005EB8510264901EB4000801C005DC0430E
:1036A000C0B20290002731E08020384102990840E2
:1036B000A8B12646E21704EB927209EBA202D1B23E
:1036C000A346E21704EB92729210A4EB820208EB7D
:1036D000C2023A44D0B2012200F082FD14E0264634
:1036E000E21704EB927209EBA202D1B2A346E217F1
:1036F00004EB92729210A4EB820208EBC2023A44ED
:10370000D0B2002200F06CFD781CC7B2082FCBDBD2
:10371000601CC4B2802CB0DB04E0681CC5B2019808
:10372000854295DB00BF00F06BFC07B0BDE8F08F71
:1037300096B300082DE9FC5F80468B4691461E46F5
:103740000C9C00200190102C05D1204604EBD07178
:10375000C1F347070AE0082C06D1204604EBD071DC
:103760004910891CCFB201E0BDE8FC9F00251BE099
:10377000701B401EC1B20A2004F0FCFDB9FBF0F042
:103780000A21B0FBF1F201FB120A0D980AF1300197
:10379000CAB2691C07FB01810090C8B22346594692
:1037A000FFF754FD681CC5B2B542E1DB00BFDBE7A3
:1037B0002DE9FF4F83B0074693469A46DDE910583E
:1037C00000200290102D05D1284605EBD071C1F3E1
:1037D00047060BE0082D06D1284605EBD0714910AD
:1037E000891CCEB202E007B0BDE8F08F00245EE095
:1037F000AAEB0400401EC1B20A2004F0BBFDBBFBD3
:10380000F0F00A21B0FBF1F201FB12090298A8B90D
:10381000AAF10100A04211DDB9F1000F0CD1022C78
:103820000ADA06FB0471C8B22B462022CDF80080CC
:103830000499FFF70BFD38E001200290042C0CDA0C
:1038400009F13001CAB206FB0471C8B22B46CDF8AB
:1038500000800499FFF7FAFC26E0042C17D106FB40
:103860000471C8B22B462E22CDF800800499FFF7D0
:10387000EDFC09F13001CAB2611C06FB0171C8B24E
:103880002B46CDF800800499FFF7E0FC0CE009F12D
:103890003001CAB2611C06FB0171C8B22B46CDF8DB
:1038A00000800499FFF7D2FC00BF601CC4B25445ED
:1038B0009EDB00BF97E72DE9F84F06468846914604
:1038C0009A46DDE90A4B0027102C05D1204604EB6F
:1038D000D071C1F347051CE0082C06D1204604EB4B
:1038E000D0714910891CCDB213E0182C06D12046A6
:1038F00004EBD0714910891ECDB20AE0202C06D10C
:10390000204604EBD0714910091FCDB201E0BDE89B
:10391000F88F002713E0CDF800B019F807202346F0
:1039200041463046FFF792FC7019C6B2782E04DD8E
:10393000002608EB040000F0FF08781CC7B25745CA
:10394000E9DB00BFE3E700BFFEE7000010B5402160
:103950000F48FFF7F9FA0E48006820F070400C4954
:1039600008600846006840F040500860002009499F
:103970000860042004F01CF840210548FFF7E6FA2F
:10398000042004F015F840210148FFF7DDFA10BDCE
:10399000000C01409C81214208B50121082000F063
:1039A0009BFDE020ADF8000010208DF803000320FF
:1039B0008DF8020069460448FFF732FAE021024818
:1039C000FFF7C4FA08BD0000000C014010B540210B
:1039D0000F48FFF7B9FA0E48006820F070400C4914
:1039E00008600846006840F040500860012009491E
:1039F0000860042003F0DCFF40210548FFF7A6FA29
:103A0000042003F0D5FF40210148FFF79DFA10BDC7
:103A1000000C01409C81214270B50546002400F055
:103A2000EBFD002616E040210F48FFF78DFA042039
:103A300003F0BEFF40210C48FFF788FA6006040E31
:103A40000A48006808B1601CC4B2042003F0B0FF4B
:103A5000701CC6B2082EE6DB15B9FFF7B7FF01E010
:103A6000FFF774FF204670BD000C01401C8121420D
:103A700070B504461448006820F070401249086090
:103A80000846006840F04050086040210E48FFF7AB
:103A90005BFA002514E0E0090C4908606006040E9A
:103AA000042003F085FF40210748FFF74FFA042068
:103AB00003F07EFF40210448FFF746FA681CC5B2B8
:103AC000082DE8DB70BD0000000C01409C81214204
:103AD00010B51348006820F070401149086008468E
:103AE000006840F04050086001200E49086003F073
:103AF0005FFF40210A48FFF729FA052003F058FF2D
:103B000000200949C1F89C01052003F051FF402124
:103B10000348FFF719FA052003F04AFF10BD000023
:103B2000000C01409C8121420080214210B51248C6
:103B3000006820F07040104908600846006840F0B6
:103B40004050086040210C48FFF7FEF9052003F0C3
:103B50002FFF002009490860052003F029FF4021BC
:103B60000548FFF7F3F9052003F022FF012004497F
:103B7000C1F89C0110BD0000000C01409C81214255
:103B80000080214210B5002400F036FD012003F032
:103B90000FFF40210B48FFF7D9F907E0601C84B202
:103BA000CD2C03DDFFF7C2FF012010BD80210548A9
:103BB000FFF7C1F90028F1D140210248FFF7C4F90D
:103BC0000020F2E7000C014008B50121082000F0B8
:103BD00083FC0720ADF8000028208DF803000320A7
:103BE0008DF8020069460248FFF71AF908BD000087
:103BF000000C014070B50025002404212448FFF783
:103C00009AF950B102212248FFF795F928B1012114
:103C10001F48FFF790F9002837D1142003F0A2FEC7
:103C200004211B48FFF787F910B944F0010401E0B3
:103C300024F0010402211648FFF77DF910B944F081
:103C4000020401E024F0020401211148FFF773F996
:103C500010B944F0040401E024F00404082C13D249
:103C6000DFE804F01204060A080C0E1001250BE030
:103C7000022509E0032507E0042505E0052503E00A
:103C8000062501E0002500BF00BF284670BD0000EA
:103C9000000C014008B50121582000F01DFC4FF434
:103CA0000050ADF8000004208DF8030003208DF8CB
:103CB000020069460148FFF7B3F808BD0010014053
:103CC00010B52A480068401C284908600822284985
:103CD0002648006800F06EF92649098801F5007150
:103CE00088B208222449FCF76DFE2249098801F5B3
:103CF000027188B208221E49FCF764FE1B48006866
:103D00001E49884230D31B490C88E11704EB11711E
:103D10000911481C04221A4900F04CF91548008882
:103D2000103014490880042215494FF4F870FCF74C
:103D300049FE1049098801F5007188B208220E4930
:103D4000FCF740FE0020094908600822084907489E
:103D5000006800F02FF90749098801F5027188B25F
:103D600008220349FCF72EFE10BD000000020020CF
:103D7000F8010020040200202B00002040420F0028
:103D8000C600002010B5012404E030200B4908557E
:103D9000601CC4B2082CF8DB2E20084908712020D2
:103DA00008700749098801F5007188B208220349A3
:103DB000FCF708FE00200349086010BD2B0000201E
:103DC000040200205800002008B5002000F004F98B
:103DD000012014A31022002100900A20FFF700FA0E
:103DE000012014A31022114600900A20FFF7F8F9D1
:103DF000012014A31022202100900A20FFF7F0F9DF
:103E0000012014A31022302100900A20FFF7E8F9C6
:103E1000002008232022042100907120FFF716FAC9
:103E200008BD0000C9E8D6C3D5FDCFF2B2CECAFDA9
:103E300000000000C9E8D6C3B7B4CFF2B2CECAFDC5
:103E400000000000C9E8D6C3D0DED5FDB2CECAFD61
:103E500000000000C9E8D6C3CDA8D1B6B5D8D6B702
:103E60000000000070B500261B48007805282DDBF7
:103E7000002500201949087002F094F930B138206B
:103E800002F0C4F902F010F9054600E00126002412
:103E9000012012490870F6B902F084F9382002F0C6
:103EA000B5F902F001F9044600F0E4FA072003F046
:103EB00059FD0B4800680444284602F0B1FF204633
:103EC00003F09EF8204603F081F804E002480078F1
:103ED000401C0149087070BD090200200B0200203F
:103EE0009400002000BFFEE7704770B5049C0AB143
:103EF0008D1AEAB2012B02D12D25257001E0202573
:103F0000257012E08A4204D11AB12E2565544D1E47
:103F1000E9B20A25B0FBF5F605FB16053035655408
:103F20000A25B0FBF5F04D1EE9B20029EADC70BDB0
:103F300070B5002100230F22C47804B3154C246807
:103F400004F4E064C4F5E064210AC1F10403CA404A
:103F5000447804FA03F184781440214309010E4C9B
:103F60000678A155047804F01F050124AC400578BB
:103F70006D11AD0005F1E025C5F8004109E00478B8
:103F800004F01F050124AC40044D0678761145F875
:103F9000264070BD0CED00E000E400E080E100E0B0
:103FA00002490143024A1160704700000000FA050F
:103FB0000CED00E030B50B46511E0AE00A24B0FBC0
:103FC000F4F504FB150430345C540A24B0FBF4F01F
:103FD000491E0029F2DC30BD10B5044634B1FF2281
:103FE0004FF480610548FCF756F904E04FF4806116
:103FF0000248FCF758F900F003F810BD8C020020CD
:1040000070B500241BE004F1B000002100F028F995
:104010000021022000F024F90021102000F020F9F6
:10402000002508E005EBC411064A505C012100F0B0
:1040300017F9681CC5B2802DF4DB601CC4B2082CD3
:10404000E1DB70BD8C02002010B500218D2000F056
:1040500007F90021102000F003F90021AE2000F044
:10406000FFF810BD10B500218D2000F0F9F80021F7
:10407000142000F0F5F80021AF2000F0F1F810BD99
:1040800010B501F04DFD00F07BF8C82003F06AFC8C
:1040900000F090F8FFF7D8FF0021AE2000F0E0F824
:1040A0000021022000F0DCF80021102000F0D8F8F8
:1040B0000021402000F0D4F80021812000F0D0F849
:1040C0000021CF2000F0CCF80021A12000F0C8F89A
:1040D0000021C82000F0C4F80021A62000F0C0F89C
:1040E0000021A82000F0BCF800213F2000F0B8F823
:1040F0000021D32000F0B4F80021084600F0B0F809
:104100000021D52000F0ACF80021802000F0A8F8B4
:104110000021D92000F0A4F80021F12000F0A0F83F
:104120000021DA2000F09CF80021122000F098F81D
:104130000021DB2000F094F80021402000F090F8EE
:104140000021202000F08CF80021022000F088F8E7
:1041500000218D2000F084F80021142000F080F868
:104160000021A42000F07CF80021A62000F078F8BF
:104170000021AF2000F074F8FFF774FF10BD0000BD
:1041800008B50121042000F0A7F91C20ADF80000BB
:1041900010208DF8030003208DF8020069460448C2
:1041A000FEF73EFE1C210248FEF7D0FE08BD0000CF
:1041B0000008014010B504210848FEF7C7FE64203E
:1041C00003F0D0FB04210548FEF7BEFE642003F097
:1041D000C9FB04210148FEF7B9FE10BD00080140EB
:1041E000F0B503461446E4B1CD1701EB5575ED105B
:1041F00003EBC515194E755D0A46CE1701EB5676D1
:10420000F610A1EBC6070126BE40F6B235430846BC
:10421000CE1701EB5676F61003EBC6160F4FBD55C1
:104220001AE0CD1701EB5575ED1003EBC5150B4EDC
:10423000755D0A46CE1701EB5676F610A1EBC60760
:104240000126BE40B5430846CE1701EB5676F61060
:1042500003EBC616014FBD55F0BD00008C020020D7
:1042600070B504460D4625B108210A48FEF76EFEDA
:1042700003E008210748FEF767FE10210548FEF716
:1042800063FEE1B2044801F0C1FC10210148FEF7D1
:104290005DFE70BD00080140003001401CB50020EB
:1042A000FFF79AFE01201FA3102200210090104664
:1042B000FEF796FF01201FA3102211460090032055
:1042C000FEF78EFF01201DA3102220210090032065
:1042D000FEF786FF0120102103231AA2CDE900106A
:1042E0006620FFF7E8FA01201021042316A2CDE989
:1042F000001020216020FFF7DEFA0120082103468C
:1043000013A2CDE9001023216920FFF7D4FA012080
:10431000102105230FA2CDE9001030210220FFF764
:10432000CAFA1CBDCFF2D0DED5FDB2CECAFDA3BA0B
:1043300000000000C1E3B5E3A3BA0000C7D0B3FD9D
:10434000A3BA00004B5061006D202F6800000000F0
:10435000330000003C3035253A00000010B54FF422
:104360008030FEF747F8E8B11BE002210E48FEF767
:10437000EDFD08220D494FF4F070FCF723FB4FF4DC
:1043800000510B48FEF7E0FD40F6B83003F0EAFAC2
:104390004FF400510648FEF7D9FD40F6B83003F05F
:1043A000E1FAE2E710BD0000000801402B00002008
:1043B00000100140704700001CB50020FFF70CFE04
:1043C000012011A31022114600900020FEF708FFE3
:1043D000012010A31022202100900020FEF700FFF2
:1043E00001200FA31022302100900020FEF7F8FEDC
:1043F0000120102103230CA2CDE900103021202040
:10440000FFF759FA1CBD0000C1E3B5E3C2EBA3BA44
:1044100000000000B2EED1B9C2EBA3BA0000000068
:10442000B2EED1B90000000050613A001CB5762010
:1044300003F098FA02208DF8000006208DF80100A4
:1044400000208DF8020008208DF80300A3208DF8CD
:1044500004008DF8050030208DF80600B2208DF89C
:1044600007000821684603F06DFF122003F07AFA76
:104470001CBD00000CB502208DF8000003208DF853
:10448000010000208DF802008DF803008DF8040073
:1044900002208DF80500C4208DF8060038208DF824
:1044A00007000821684603F04DFF0020014908700D
:1044B0000CBD00002602002029B1064AD269024341
:1044C000044BDA6104E0034AD2698243014BDA61AA
:1044D000704700000010024029B1064A9269024369
:1044E000044B9A6104E0034A92698243014B9A614A
:1044F000704700000010024030B500210022002467
:1045000000232D4D6D6805F00C0121B1042905D063
:10451000082923D105E0294D056022E0274D0560DB
:104520001FE0254D6D6805F47012234D6D6805F48C
:104530008034022505EB92421CB9214D554305609C
:104540000BE01D4D6D6805F400351DB11C4D554344
:10455000056002E0194D5543056002E0174D056006
:1045600000BF00BF144D6D6805F0F0010909154D3D
:104570006B5C0568DD4045600F4D6D6805F4E061DA
:10458000090A104D6B5C4568DD4085600A4D6D6819
:1045900005F46051C90A0B4D6B5C4568DD40C56090
:1045A000054D6D6805F44041890B074D6B5CC5688E
:1045B000B5FBF3F5056130BD0010024000127A0032
:1045C00000093D000C0200201C02002008B501215A
:1045D0000420FFF781FF0120ADF8000010208DF8C6
:1045E000030003208DF8020069460248FEF718FC1C
:1045F00008BD00000008014008B501210820FFF7B0
:104600006BFF8020ADF8000004208DF803006946A0
:104610000348FEF705FC80210148FEF797FC08BD22
:10462000000C01407CB5F74D0024F7480078F749AD
:10463000087008460078042881F28B81F4480078DD
:104640000978884207D1F1480078032807D1002073
:10465000EE49087003E0ED480078ED490870EB483A
:10466000007803287ED1EB48007800287BD1EA4807
:104670000078002878D0012877D0022802D00328BB
:1046800074D17DE001F0D6F90620E24908700020DF
:10469000E14908705020E14908800522E049DF48DF
:1046A0000088FCF757F9DD4800880830DB490880AE
:1046B0000522DC49D9480088FCF74CF9D748008826
:1046C0000830D64908800522D749D4480088FCF72D
:1046D00041F9D24800880830D04908800822D349DF
:1046E000CE480088FCF736F9012010210523CC4A7A
:1046F000CDE9001000214F20FFF7DDF80120102147
:104700000523C84ACDE900104F20FFF7D4F8012057
:1047100010210523C44ACDE9001020214F20FFF7C6
:10472000CAF8012010210523C04ACDE9001030212C
:104730004F20FFF7C0F8012010210346BB4AD21DCD
:10474000CDE9001030210020FFF7B5F8B748C07957
:10475000B74908704F20B74908600020B649086083
:10476000AF4804E0FBE3F2E032E090E0EEE0AA497B
:104770000978405CB14908700120B1490870E5E052
:1047800001F044F90720A34908700220A2490870EB
:104790000322A4494FF48470FCF7DCF801201021B7
:1047A0000323A04ACDE9001026212F20FFF783F82C
:1047B0003F20A049086026209F49086099489649F3
:1047C0000978405C9D49087001209D490870BDE052
:1047D000FFF764FD01208F49087000209949087097
:1047E00099490870012099A31022002100900846E1
:1047F000FEF7F6FC4FF4887088490880002086494F
:1048000008700622864985480088FCF7A3F883488B
:104810000088083081490880052282497F48008845
:10482000FCF798F87D48008808307C49088005220C
:104830007D497A480088FCF78DF801201021062375
:10484000774ACDE900102F20FFF735F8012010211D
:104850000523744ACDE9001020212F20FFF72BF803
:10486000012010210523704ACDE9001030212F20AE
:10487000FFF721F81020704908602F206D4908606B
:10488000674865490978405C6C4908705EE0FFF74D
:1048900005FD01205F49087000206A490870012069
:1048A000694908706AA31022002100900846FEF7AB
:1048B00097FC4FF4B8705949088000205649087099
:1048C0000622574955480088FCF744F853480088A9
:1048D0000830524908800522524950480088FCF7A8
:1048E00039F84E48008808304C49088005224E4966
:1048F0004A480088FCF72EF8012010210623484A78
:10490000CDE900102F20FEF7D6FF0120102105234E
:10491000444ACDE9001020212F20FEF7CCFF0120D2
:1049200010210523404ACDE9001030212F20FEF749
:10493000C2FF1020404908602F203E4908603848D7
:1049400035490978405C3D49087000BF7FE3314834
:104950000078062855D13B480078012850D13648C8
:10496000006828B9354801782D482B4A12788154BF
:1049700031480068102805D1304800782949264A76
:10498000127888542C480068202805D12B480178DB
:104990002548214A1278815427480068302805D1DB
:1049A0002648017821481C4A1278815450201B491E
:1049B000088005221A4919480088FCF703F81748AF
:1049C00000880830154908800622164913480088D7
:1049D000FBF7F8FF114800880830104908800622CC
:1049E00011490E480088FBF7EDFF0C48008808309D
:1049F0000A49088008220D4908480088FBF7E2FFB1
:104A00003BE0A2E0400D0300D0010020D4010020D3
:104A1000D5010020C4010020C6010020D6010020DD
:104A2000D8010020E0010020E8010020F001002072
:104A30006C000020C0010020BC010020C701002044
:104A4000C5010020D3010020D2010020D5FD0000C7
:104A5000B7B400006D1EFFF7CDF8012801D144F076
:104A60000104FFF7C7F8022801D144F00204FFF760
:104A7000C1F8042801D144F00404002DEAD1072C28
:104A800053D1FFF799FC3F20FE4908601020FE49F2
:104A900008600120FD4908700020FD4908700820C9
:104AA000FC4908700020FC4908700822FB4990204E
:104AB000FBF750FF0822FA498020FBF74BFF082242
:104AC000F8498820FBF746FF012010210823F34A0C
:104AD000CDE900103F20FEF7EEFE01201021082353
:104AE000EF4ACDE9001020213F20FEF7E4FE01202F
:104AF00010210823EB4ACDE9001030213F20FEF7BA
:104B0000DAFE1020E04908603F20DE490860E448F2
:104B1000DF490978405CE44908700020DE490870EC
:104B2000DE480078E04908708EE2FFF74DF9712009
:104B3000D44908600420D44908600020D349087093
:104B4000D3490870D34908707EE2D248007808281B
:104B500054D1D1480078012841D1CB4800681028B1
:104B600005D1D1480178CD48C94A12788154C64848
:104B70000068202805D1CC480078C949C44A127879
:104B80008854C1480068302805D1C7480078C54915
:104B9000BF4A127888540822C0499020FBF712FFC0
:104BA0000822BF498020FBF70DFF0822BD4988205D
:104BB000FBF708FF9022B9490820FBF73BFFBB49F0
:104BC00008608022B6490820FBF734FFB849086026
:104BD0008822B4490820FBF72DFFB6490860FFF78B
:104BE000F3F87120A74908600420A7490860002055
:104BF000A6490870A6490870A6490870A54800781B
:104C000007283CD1A4480078012829D1A64801787A
:104C1000A2489F4A12788154032201464FF48470BF
:104C2000FBF7D0FE9D4800783038642148439B490B
:104C30004978303901EB810100EB410197488078D8
:104C4000303808449C49086008460068FF2801D9AC
:104C5000FF20086098480068984908449649086011
:104C6000FFF7B2F871208749086004208649086080
:104C70000020864908708649087086490870854872
:104C8000007805282AD184480078012817D1864861
:104C900000788B497E4A127888548A48007820B977
:104CA0004FF4E8708849088003E04FF4EC708649BF
:104CB00008800622824984480088FBF783FEFFF7BC
:104CC00083F871206F49086004206F490860002054
:104CD0006E4908706E4908706E4908706D4800781A
:104CE000012800D100E000206A490978022901D199
:104CF000012100E00021084366490978032901D118
:104D0000012100E00021084362490978042901D10A
:104D1000012100E00021084300287CD05E48007893
:104D2000012879D158480068102805D15E480078DC
:104D30006349574A1278885453480068202805D19F
:104D4000594800785549524A127888544E480068AC
:104D5000302805D15448007851494D4A127888547A
:104D60004C48007801280BD15648007820B94FF400
:104D700088705549088003E04FF4B87052490880A4
:104D80004448007802280BD14E48007820B94FF4EF
:104D900094704D49088003E04FF4C4704A4908807C
:104DA0003C48007803280BD14648007820B94FF4DE
:104DB000A0704549088003E04FF4D0704249088054
:104DC0003448007804280BD13E48007820B94FF4CD
:104DD000AC703D49088003E04FF4DC703A4908802C
:104DE0002C480078012806D106223549364800882B
:104DF000FBF7E8FD05E00522314933480088FBF761
:104E0000E1FD3148008808302F49088005222349F8
:104E10002D48008801E017E10CE0FBF7D3FD2A489C
:104E2000008808302849088005221D492648008846
:104E3000FBF7C8FD17480078401C16490870002091
:104E40001349087013480078052868D1FDF70AFE59
:104E50001C48007820B94FF4E8701B49088003E033
:104E60004FF4EC70184908801648007848B90120C2
:104E7000AFF228431022114600900520FEF7B0F94A
:104E80002DE023E0C0010020BC010020C50100206E
:104E9000C6010020C4010020D3010020E001002051
:104EA000E8010020F0010020C7010020940000204C
:104EB0008C00002090000020BC0000200004941111
:104EC000D8010020D2010020D60100200120AFF23D
:104ED00080431022114600900520FEF781F906223A
:104EE000FD49FE480088FBF735FD0120102106230F
:104EF000F94ACDE9001026211820FEF7DCFC262017
:104F0000F74908601820F7490860F348F64909781E
:104F1000405CF64908700020F549087094E0F548B7
:104F2000007802280DD101F051FAF348007820B939
:104F30004FF49470E949088003E04FF4C470E749E6
:104F40000880EC48007803280ED100F02BFFEA48D7
:104F5000007828B94FF4A070E049088004E076E0BA
:104F60004FF4D070DD490880E248007804280DD164
:104F7000FDF7A8FDE048007820B94FF4AC70D749A0
:104F8000088003E04FF4DC70D4490880DA480078E8
:104F900048B90120AFF24C5310220021009008467E
:104FA000FEF71EF908E00120AFF25C531022002149
:104FB00000900846FEF714F90522C749C748008843
:104FC000FBF7C8FCC54800880830C44908800522A2
:104FD000CA49C2480088FBF7BDFCC04800880830B9
:104FE000BE4908800522C649BC480088FBF7B2FCD0
:104FF000012010210523B84ACDE900105020FEF70A
:105000005AFC012010210523BC4ACDE900102021C3
:105010005020FEF750FC012010210523B84ACDE9AD
:10502000001030215020FEF746FC1020AC490860EB
:105030005020AC490860A848AB490978405CAB49AE
:1050400008700020AA4908700020A9490870AD48DE
:10505000007802287ED1A748007840BB012000904C
:105060009F480178082320227120FEF7EFF89C4822
:10507000006810309A4908609B480078401C9A49A3
:1050800008700020A049087095480068402805DD98
:105090000420934908600020934908700020009084
:1050A0008F480178082320227120FEF7CFF891481D
:1050B0000078012800D100E000208E4909780229FB
:1050C00001D1012100E0002108438A490978032920
:1050D00001D1012100E00021084386490978042913
:1050E00001D1012100E00021084300287ED00120E9
:1050F0007B4A009011787B4A107810237B4A127803
:10510000FEF7A4F876480068102805D177480178A2
:105110007148754A1278815471480068202805D179
:10512000724800787549704A127888546C48006853
:10513000302805D16D48017871486B4A1278815446
:105140006848006808306749086067480078401C74
:10515000654900E040E3087001206B49087065482C
:10516000007801287ED15E48006830280ED15D4865
:105170000068372818D15B48006808305949086032
:1051800059480078401C584908700DE0554800689F
:105190003F2809D1534800680830524908605248F6
:1051A0000078401C504908704E4800685F2815DBA5
:1051B0004B480068102811D12F204A490860484800
:1051C000006810304649086000204749087044488C
:1051D0000068402802DB102041490860414800680F
:1051E000572817DB3E480068102800E0BEE011D0C9
:1051F0002F203C4908603A48006810303849086060
:1052000000203949087036480068402802DB102029
:105210003349086032480068102805D12E483249C9
:105220000978405C314908702D480068202805D174
:1052300032482D490978405C2C490870284800689C
:10524000302805D12E4828490978405C2749087044
:105250000120234A00901178224A10781023234A13
:10526000127800E001E0FDF7F1FF22480078022803
:1052700001D1012000E000201E490978032901D155
:10528000012100E0002108431A490978042901D1CD
:10529000012100E000210843C0B3124800685828EB
:1052A00009D11048006808300E4908600E4800789F
:1052B000401C0D4908700B48006878282DDB5020F1
:1052C0000849086006480068103005490860002059
:1052D0000549087002481AE0D8010020D6010020D4
:1052E000BC010020C0010020C6010020C701002031
:1052F000D3010020C4010020D2010020E0010020E1
:10530000E8010020D4010020C501002005E000686C
:10531000402802DB1020FE490860FD480068102884
:1053200005D1FC48FC490978405CFC490870F84804
:105330000068202805D1FA48F7490978405CF74908
:105340000870F3480068302805D1F648F24909781A
:10535000405CF24908700120ED4A00901178F24A51
:1053600010781023ED4A1278FDF770FFEF480078AF
:1053700005284AD10120E64A00901178EA4A1078BF
:105380001023E64A1278FDF761FFE4480178E1480E
:10539000E14A12788154E44800680830E249086024
:1053A000DD480078401CDC4908700120E0490870A5
:1053B000DD480068302809D1DB4800680830DA4948
:1053C0000860D5480078401CD3490870D148D249BC
:1053D0000978405CD1490870D348006840280ADD4C
:1053E0001820D14908600020CB490870C9480978C5
:1053F000405CCA4908700120CB490090087810230E
:10540000C6490A782621FDF721FFC84800780628FA
:105410007ED10120BE4A00901178C34A1078102333
:10542000BE4A1278FDF712FFB948006828B9BB4898
:105430000178B848B84A12788154B54800681028F5
:1054400005D1B6480078B649B34A12788854B048B6
:105450000068202805D1B1480178B248AE4A1278D8
:105460008154AB480068302805D1AC480178B14878
:10547000A94A12788154AC4800680830AA490860EB
:10548000A5480078401CA44908700120A84908706C
:105490009F480068E0B9A0480078632809D1A24875
:1054A00000680830A04908609B480078401C9A4971
:1054B00008709948007805280ADB4F209A4908604F
:1054C00093480068103092490860002092490870A3
:1054D0008F48006810281ED18F480078032809D112
:1054E000914800680830904908608B480078401C5B
:1054F000894908708848007805280CDB4F208A49C4
:10550000086083480068103081490860002000E08E
:1055100086E0814908707E48006820281CD17E48BA
:105520000078032809D18048006808307E49086067
:1055300079480078401C7849087077480078052839
:105540000ADB002078490860714800681030704913
:1055500008600720704908706D480068302826D11F
:1055600071480068082805D14F206F490860002065
:105570006949087068480078032809D16A480068BA
:1055800008306949086064480078401C6249087026
:105590006148007805280AD14F20634908605C48BB
:1055A000006810305A49086000205B49087058486C
:1055B0000068402802DB0020554908605448006814
:1055C00028B9544854490978405C544908705048F7
:1055D0000068102805D152484F490978405C4F496E
:1055E00008704B480068202805D14E484A49097880
:1055F000405C4A49087046480068302805D14D484B
:1056000045490978405C454908700120404A0090AE
:105610001178454A10781023404A1278FDF716FE9B
:1056200042480078072837D10120394A0090117884
:105630003D4A10781023394A1278FDF707FE3748A3
:1056400001783748344A1278815437480068083066
:105650003549086030480078401C2F490870012007
:10566000334908702C480078032805D12F202E4993
:105670000860002028490870294827490978405CBB
:1056800026490870012028490090087810232349F2
:105690000A782621FDF7DAFD2448007808287DD114
:1056A00001201B4A009011781F4A107810231B4AD2
:1056B0001278FDF7CBFD16480068102805D1174871
:1056C00001781748144A127881541148006820283C
:1056D00005D11248007813490F4A127888540C48B3
:1056E0000068302805D10D48017812480A4A12781E
:1056F00081540D48006808300B490860064800785E
:10570000401C05490870012009490870024813E04F
:10571000BC010020D8010020C6010020C7010020E4
:10572000E0010020E8010020C0010020C4010020A9
:10573000C5010020F0010020007808280ADB3F2086
:105740009749086097480068103096490860002023
:105750009549087093480068402801DB012000E06B
:10576000002091490978082901DB012100E000218E
:10577000084310B110208B4908608A48006810283F
:1057800005D18A4888490978405C8949087085486C
:105790000068202807D18748834900E018E009788D
:1057A000405C834908707F480068302805D18248F2
:1057B0007D490978405C7E4908700120794A009053
:1057C0001178774A10781023794A1278FDF73EFD58
:1057D0004FF4967002F0C6F87848007801282BD173
:1057E0007748007848BB012000906E480178082374
:1057F00020227120FDF72AFD6A48006810306949AF
:10580000086069480078401C6749087000206D49AD
:10581000087064480068402805DD0420614908607C
:10582000002061490870002000905E48017808233C
:1058300020227120FDF70AFD8BE0012062490870EB
:105840005848006808B9012000E00020554909685F
:10585000102901D1012100E00021084351490968C4
:10586000202901D1012100E0002108434D490968A8
:10587000302901D1012100E0002108435049097875
:10588000062901D1012100E000210840464909789C
:1058900009B9012100E00021434A1278072A01D109
:1058A000012200E0002211430840454909780829F7
:1058B00001D1012100E000213A4A1268102A01D1E9
:1058C000012200E000221140374A12780AB9012271
:1058D00000E000221140084318B33348007850B963
:1058E00033480078202803D12D203149087002E088
:1058F00020202F4908702C48007807281CD12C48FC
:105900000078302806D131202949087001202F491C
:10591000087011E030202649087000202B490870DB
:105920000AE023480078401C2149087008460078A6
:105930003A2801DB30200870012022490870194AFA
:1059400000901178164A10781023194A1278FDF742
:105950007DFC1C480078012803D1002019490870FB
:1059600002E00120174908701548007850B9154821
:10597000007800900B480178082320227120FDF761
:1059800065FC0BE00F480078064A00901178044A45
:1059900010781023064A1278FDF758FC7CBD0000F1
:1059A000C0010020BC010020C6010020E001002051
:1059B000C7010020E8010020F0010020D4010020F0
:1059C000C4010020C5010020D30100206C0000208C
:1059D00010B5002008490870FEF7F6F97120074954
:1059E000086004200649086001200649087000206C
:1059F0000549087010BD0000C4010020C00100204E
:105A0000BC010020C5010020C601002008B500200F
:105A1000FEF7E2FA012004A310220F2100901520C6
:105A2000FDF7DEFB08BD0000CDA8D1B6B5D8D6B7CE
:105A3000A3BA00001CB50020FEF7CEFA01202CA36B
:105A40001022002100900846FDF7CAFB01202BA37D
:105A50001022114600900020FDF7C2FB012025A373
:105A60001022202100900846FDF7BAFB012026A352
:105A70001022302100901520FDF7B2FB012023A356
:105A80001022302100902620FDF7AAFB01201AA346
:105A90001022302100904020FDF7A2FB01201021B0
:105AA00003461BA2CDE9001030213820FDF703FF8B
:105AB00001200821034617A2CDE90010302108205B
:105AC000FDF7F9FE01201021032313A2CDE90010F8
:105AD00020210020FDF7EFFE0120102103460FA238
