:020000040800F2
:10000000180D00200D020008E93E00087B390008A9
:10001000E53E00081D0D0008916600080000000084
:100020000000000000000000000000002F5C00083D
:10003000C123000800000000B5430008415D00082E
:10004000270200085D430008270200082702000875
:10005000270200082702000827020008C52300081D
:1000600027020008270200082702000827020008CC
:1000700027020008270200082702000827020008BC
:1000800027020008270200082702000827020008AC
:10009000270200082702000827020008270200089C
:1000A000270200082702000827020008270200088C
:1000B00027020008270200082D5E0008270200081A
:1000C000270200082702000827020008270200086C
:1000D00027020008556400082702000827020008CC
:1000E000270200082702000827020008270200084C
:1000F000270200082702000827020008270200083C
:10010000270200082702000827020008270200082B
:10011000270200082702000827020008270200081B
:10012000270200082702000827020008270200080B
:1001300000F002F800F05AF80AA090E8000C82449F
:100140008344AAF10107DA4501D100F04FF8AFF27C
:10015000090EBAE80F0013F0010F18BFFB1A43F0A5
:10016000010318471CB600003CB600000A444FF0DB
:10017000000C10F8013B13F0070408BF10F8014B06
:100180001D1108BF10F8015B641E05D010F8016B4B
:10019000641E01F8016BF9D113F0080F1EBF10F8AF
:1001A000014BAD1C0C1B09D16D1E58BF01F801CBD2
:1001B000FAD505E014F8016B01F8016B6D1EF9D555
:1001C0009142D6D37047000000230024002500266A
:1001D000103A28BF78C1FBD8520728BF30C148BFAA
:1001E0000B6070471FB51FBD10B510BD00F032F990
:1001F0001146FFF7F7FF07F051FC00F050F903B488
:10020000FFF7F2FF03BC07F08BFB000009488047B3
:1002100009480047FEE7FEE7FEE7FEE7FEE7FEE7E8
:10022000FEE7FEE7FEE7FEE704480549054A064B00
:1002300070470000455D00083101000818070020E4
:10024000180D00201809002018090020704710B56B
:100250004C1084EA530404D54042C1F1000138BF78
:10026000491E1B4204D55242C3F1000338BF5B1E36
:1002700000F03FF814F0804F04D04042C1F100017B
:1002800038BF491E14F0004F04D05242C3F100039E
:1002900038BF5B1E10BD02F0FF0343EA032242EAAF
:1002A000024200F002B84FF000020429C0F01280B0
:1002B00010F0030C00F0A180CCF1040CBCF1020F93
:1002C00018BF00F8012BA8BF20F8022BA1EB0C01EE
:1002D00000F093B85FEAC17C24BF00F8012B00F85E
:1002E000012B48BF00F8012B7047704770477047DB
:1002F000704753EA020C00F069802DE9F04B4FF093
:100300000006002B1FBFB3FA83F503FA05F424FAA5
:1003100005F65E4012BF1643B2FA82F502FA05F402
:10032000C5F120051EBF22FA05FC44EA0C04203565
:1003300056EA044C4FEA144418BF641C4FF00008FE
:100340004FF00009904271EB030C39D3002919BF1B
:10035000B1FA81F701FA07F6B0FA80F700FA07F66A
:10036000C7F120071EBF20FA07FC46EA0C0620371B
:10037000B6FBF4FCA7EB0507103F07F01F0BCBF112
:1003800020060CFA0BFB2CFA06F644BFB3460026F7
:10039000202FA4BF5E464FF0000B5BEA060C08BF9F
:1003A0004FF0010B19EB0B09ABFB027C48EB060885
:1003B000C01B06FB02CC0BFB03CC71EB0C01C1E7AD
:1003C0000B46024641464846BDE8F08B13B54FF058
:1003D00000004FF00001AFF30080BDE81C40704703
:1003E00010B500F02FF8006810BD10B5044600F0FD
:1003F00029F8046010BD4FF0000200B51346944682
:100400009646203922BFA0E80C50A0E80C50B1F16C
:100410002001BFF4F7AF090728BFA0E80C5048BF80
:100420000CC05DF804EB890028BF40F8042B08BF1E
:10043000704748BF20F8022B11F0804F18BF00F81A
:10044000012B704700487047B406002000487047F1
:10045000B40600207546FFF7F9FFAE460500694671
:10046000534620F00700854618B020B5FFF7DCFEA4
:10047000BDE820404FF000064FF000074FF00008A5
:100480004FF0000B21F00701AC46ACE8C009ACE826
:10049000C009ACE8C009ACE8C0098D467047044605
:1004A000AFF300802046FFF7AAFE00001CB503F062
:1004B0008DFA0020FE490860022007F0A3FA04220A
:1004C0006946900100F046FA9DF80000382801D0F6
:1004D000012000E000209DF80110362901D0012103
:1004E00000E0002108439DF802104F2901D00121AE
:1004F00000E0002108439DF803104B2901D00121A1
:1005000000E00021084300287DD038208DF800004D
:1005100036208DF801004F208DF802004B208DF819
:10052000030004226946900100F04CFA30208DF857
:1005300000008DF801008DF80200032269464FF497
:10054000847000F03FFA30208DF800008DF8010033
:100550002E208DF8020030208DF803008DF8040065
:100560008DF80500062269464FF4887000F02AFADB
:10057000062269464FF4B87000F024FA30208DF856
:1005800001002E208DF80200052269464FF48C7080
:1005900000F018FA052269464FF4BC7000F012FA18
:1005A00031208DF800002E208DF8010030208DF8CC
:1005B00002008DF803008DF804008DF805008DF819
:1005C0000600052269464FF4907000F0FBF9052201
:1005D00069464FF4C07000F0F5F9052269464FF402
:1005E000947000F0EFF9052269464FF4987000F01E
:1005F000E9F9052269464FF49C7000F0E3F9052201
:100600006946900100E046E100F0DCF90522694608
:100610004FF4A47000F0D6F9052269464FF4A87093
:1006200000F0D0F9052269464FF4AC7000F0CAF929
:10063000052269464FF4B07000F0C4F905226946FE
:100640004FF4B47000F0BEF9052269464FF4C4704F
:1006500000F0B8F9052269464FF4C87000F0B2F90D
:10066000052269464FF4CC7000F0ACF905226946CA
:100670004FF4D07000F0A6F9052269464FF4D4700B
:1006800000F0A0F9052269464FF4D87000F09AF9FD
:10069000052269464FF4DC7000F094F905226946A2
:1006A0004FF4E07000F08EF9052269464FF4E470D3
:1006B00000F088F92D208DF8000030208DF8010021
:1006C0008DF8020038208DF8030030208DF80400EA
:1006D00005226946502000F075F920208DF80000B1
:1006E00030208DF801008DF802002E208DF80300D7
:1006F00030208DF8040005226946582000F062F988
:1007000020208DF8000030208DF8010031208DF878
:1007100002002E208DF8030030208DF804008DF8A3
:1007200005008DF806008DF8070006226946602056
:1007300000F048F908226946682000F043F90622D3
:100740006946702000F03EF906226946782000F0E4
:1007500039F930208DF8000033208DF80100342065
:100760008DF8020039208DF8030030208DF8040048
:100770008DF805008DF806008DF8070008226946FF
:10078000802000F01FF930208DF800008DF8010066
:100790008DF8020038208DF8030030208DF8040019
:1007A0008DF805008DF806008DF8070008226946CF
:1007B000882000F007F920208DF8000030208DF807
:1007C00001008DF802008DF803008DF804008DF80B
:1007D00005008DF806008DF8070008226946902074
:1007E00000F0F0F832208DF8000030208DF8010084
:1007F0008DF802008DF803002E208DF804003020C3
:100800008DF805008DF80600062269464FF4E87061
:1008100000F0D8F8062269464FF4EC7000F0D2F8E8
:1008200030208DF800008DF801008DF802008DF861
:1008300003008DF804008DF805002E208DF80600C9
:1008400030208DF80700082269464FF4F07000F060
:10085000B9F808226946900100F0B4F830208DF80C
:1008600000008DF801008DF802008DF803008DF86E
:1008700004008DF805008DF806008DF807000822A9
:1008800069464FF4F87000F09DF8082269464FF46D
:10089000027000F097F8022007F0B4F801226946D0
:1008A000752000F057F89DF800000249087003E039
:1008B000948121426C000020032269464FF4847029
:1008C00000F048F89DF800003038642148439DF856
:1008D0000110303901EB810100EB41019DF802006C
:1008E000303808441549086008460068FF2801D9D7
:1008F000FF20086011480068114908440F4908604A
:100900004FF4F8726946042000F094F80D4908602D
:1009100008460068000108600846008800F502707B
:1009200082B20949082000F085F80849086000F003
:10093000AFF80120064908601CBD0000BC00002083
:100940000004941104020020F8010020000200209D
:10095000948121422DE9F04104460E46154603F0EC
:10096000D1F8A02003F09EF803F026F9201203F03E
:1009700099F803F021F92746E11704EB11610912F8
:10098000A4EB0121C8B203F08DF803F015F903F0D0
:10099000B9F8A12003F086F802F0F2FF09E0691E21
:1009A000C8B203F053F83070681E85B2601C84B280
:1009B000761C002DF3D103F0D3F80A2007F022F8BB
:1009C000BDE8F0812DE9F04104460D4616460020B1
:1009D0001749086003F096F8A02003F063F803F0CD
:1009E000EBF8201203F05EF803F0E6F82746E11773
:1009F00004EB11610912A4EB0121C8B203F052F813
:100A000003F0DAF807E0287803F04CF803F0D4F8A4
:100A1000701E86B26D1C002EF5D103F0A1F80120E6
:100A2000034908600A2006F0EDFFBDE8F0810000F0
:100A3000948121422DE9F04704460D4617464FF0B8
:100A4000000900264FF00108224629463846FFF7E4
:100A500081FF13E0601E285C3A280DDC601E285CD4
:100A6000302809DB601E285C303800FB08F908EBF1
:100A700088004FEA40084E44601EC4B2002CE9DCF6
:100A800028782D2801D1F043461C3046BDE8F08778
:100A90001CB5902269460820FFF7CCFF8C490860FE
:100AA000802269460820FFF7C5FF8A49086088222E
:100AB00069460820FFF7BEFF87490860682269463B
:100AC0000520FFF7B7FF00B284490880602269461D
:100AD0000520FFF7AFFF00B2814908805822694620
:100AE0000520FFF7A7FF00B27E4908805022694623
:100AF0000520FFF79FFF00B27B4908804FF4887202
:100B000069460620FFF796FF784908804FF48C72FB
:100B100069460520FFF78EFF754908804FF4E8729B
:100B200069460620FFF786FF00EB80004000714910
:100B300008604FF4907269460520FFF77BFF6E490D
:100B400008804FF4947269460520FFF773FF6A49E5
:100B500048804FF4987269460520FFF76BFF66499D
:100B600088804FF49C7269460520FFF763FF624955
:100B7000C8804FF4A07269460520FFF75BFF5E490D
:100B800008814FF4A47269460520FFF753FF5A49C4
:100B900048814FF4A87269460520FFF74BFF56497C
:100BA00088814FF4AC7269460520FFF743FF524934
:100BB000C8814FF4B07269460520FFF73BFF4E49EC
:100BC00008824FF4B47269460520FFF733FF4A49A3
:100BD00048824FF4B87269460620FFF72BFF474959
:100BE00008804FF4BC7269460520FFF723FF444993
:100BF00008804FF4EC7269460620FFF71BFF00EBFC
:100C0000800040003F4908604FF4C07269460520EB
:100C1000FFF710FF3C4908804FF4C4726946052075
:100C2000FFF708FF384948804FF4C872694605202D
:100C3000FFF700FF344988804FF4CC7269460520E5
:100C4000FFF7F8FE3049C8804FF4D072694605209E
:100C5000FFF7F0FE2C4908814FF4D4726946052055
:100C6000FFF7E8FE284948814FF4D872694605200D
:100C7000FFF7E0FE244988814FF4DC7269460520C5
:100C8000FFF7D8FE2049C8814FF4E072694605207D
:100C9000FFF7D0FE1C4908824FF4E4726946052034
:100CA000FFF7C8FE184948821848008800F5007010
:100CB00082B217490820FFF7BDFE164908606F226F
:100CC00069460120FFF7B6FE134908701CBD0000FD
:100CD000940000208C000020900000208000002064
:100CE0007E0000207C0000207A000020720000209E
:100CF00076000020840000203C02002074000020C8
:100D0000780000208800002050020020040200200B
:100D10002B000020580000206C00002000BFFEE7E0
:100D20001FB501F0E1F8062202A94FF4E870FFF7C1
:100D300011FE5A208DF8000053208DF801009DF817
:100D400008008DF802009DF809008DF803009DF859
:100D50000A008DF804009DF80B008DF805009DF841
:100D60000C008DF806009DF80D008DF80700082294
:100D70006946FE48006801F0EFFA322006F042FEB4
:100D8000062202A94FF4EC70FFF7E4FD46208DF82F
:100D9000000053208DF801009DF808008DF8020036
:100DA0009DF809008DF803009DF80A008DF80400F5
:100DB0009DF80B008DF805009DF80C008DF80600DD
:100DC0009DF80D008DF8070008226946E748006885
:100DD00001F0C2FA322006F015FE052202A94FF4F6
:100DE0008870FFF7B7FD5A208DF800004C208DF871
:100DF00001009DF808008DF802009DF809008DF8AB
:100E000003009DF80A008DF804009DF80B008DF892
:100E100005009DF80C008DF8060020208DF80700D5
:100E200008226946D148006801F096FA322006F09F
:100E3000E9FD052202A94FF4B870FFF78BFD4620AB
:100E40008DF800004C208DF801009DF808008DF809
:100E500002009DF809008DF803009DF80A008DF846
:100E600004009DF80B008DF805009DF80C008DF82E
:100E7000060020208DF8070008226946BB4800685C
:100E800001F06AFA322006F0BDFD052202A94FF4F6
:100E90008C70FFF75FFD5A208DF8000051208DF80F
:100EA00001009DF808008DF802009DF809008DF8FA
:100EB00003009DF80A008DF804009DF80B008DF8E2
:100EC00005009DF80C008DF8060008226946A74829
:100ED000006801F041FA322006F094FD062202A9D2
:100EE0004FF4BC70FFF736FD46208DF8000051200E
:100EF0008DF801009DF808008DF802009DF80900AA
:100F00008DF803009DF80A008DF804009DF80B0091
:100F10008DF805009DF80C008DF806000822694642
:100F20009248006801F018FA322006F06BFD0522A5
:100F300002A94FF49070FFF70DFD5A208DF80000C4
:100F400030208DF801009DF808008DF802009DF812
:100F500009008DF803009DF80A008DF804009DF843
:100F60000B008DF805009DF80C008DF80600082296
:100F700069467E48006801F0EFF9322006F042FD34
:100F8000052202A94FF4C070FFF7E4FC46208DF85B
:100F9000000030208DF801009DF808008DF8020057
:100FA0009DF809008DF803009DF80A008DF80400F3
:100FB0009DF80B008DF805009DF80C008DF80600DB
:100FC000082269466948006801F0C6F9322006F037
:100FD00019FD052202A94FF49470FFF7BBFC5A20BB
:100FE0008DF8000031208DF801009DF808008DF883
:100FF00002009DF809008DF803009DF80A008DF8A5
:1010000004009DF80B008DF805009DF80C008DF88C
:101010000600082269465548006801F09DF9322013
:1010200006F0F0FC052202A94FF4C470FFF792FC11
:1010300046208DF8000031208DF801009DF8080051
:101040008DF802009DF809008DF803009DF80A0054
:101050008DF804009DF80B008DF805009DF80C003C
:101060008DF80600082269464048006801F074F9CE
:10107000322006F0C7FC052202A94FF49870FFF752
:1010800069FC5A208DF8000032208DF801009DF88F
:1010900008008DF802009DF809008DF803009DF806
:1010A0000A008DF804009DF80B008DF805009DF8EE
:1010B0000C008DF80600082269462C48006801F0F3
:1010C0004BF9322006F09EFC052202A94FF4C870AD
:1010D000FFF740FC46208DF8000032208DF801001B
:1010E0009DF808008DF802009DF809008DF80300B6
:1010F0009DF80A008DF804009DF80B008DF805009E
:101100009DF80C008DF80600082269461748006813
:1011100001F022F9322006F075FC052202A94FF4F5
:101120009C70FFF717FC5A208DF8000033208DF8D3
:1011300001009DF808008DF802009DF809008DF867
:1011400003009DF80A008DF804009DF80B008DF84F
:1011500005009DF80C008DF806000822694603483A
:10116000006801F0F9F8322002E00000BC00002025
:1011700006F048FC052202A94FF4CC70FFF7EAFB09
:1011800046208DF8000033208DF801009DF80800FE
:101190008DF802009DF809008DF803009DF80A0003
:1011A0008DF804009DF80B008DF805009DF80C00EB
:1011B0008DF8060008226946FE48006801F0CCF868
:1011C000322006F01FFC052202A99001FFF7C2FBA6
:1011D0005A208DF8000034208DF801009DF8080099
:1011E0008DF802009DF809008DF803009DF80A00B3
:1011F0008DF804009DF80B008DF805009DF80C009B
:101200008DF8060008226946EA48006801F0A4F853
:10121000322006F0F7FB052202A94FF4D070FFF749
:1012200099FB46208DF8000034208DF801009DF8D0
:1012300008008DF802009DF809008DF803009DF864
:101240000A008DF804009DF80B008DF805009DF84C
:101250000C008DF8060008226946D648006801F0A7
:101260007BF8322006F0CEFB052202A94FF4A470D1
:10127000FFF770FB5A208DF8000035208DF8010033
:101280009DF808008DF802009DF809008DF8030014
:101290009DF80A008DF804009DF80B008DF80500FC
:1012A0009DF80C008DF8060008226946C1480068C8
:1012B00001F052F8322006F0A5FB052202A94FF4F6
:1012C000D470FFF747FB46208DF8000035208DF8DD
:1012D00001009DF808008DF802009DF809008DF8C6
:1012E00003009DF80A008DF804009DF80B008DF8AE
:1012F00005009DF80C008DF8060008226946AD48EF
:10130000006801F029F8322006F07CFB052202A9D2
:101310004FF4A870FFF71EFB5A208DF8000036200E
:101320008DF801009DF808008DF802009DF8090075
:101330008DF803009DF80A008DF804009DF80B005D
:101340008DF805009DF80C008DF80600082269460E
:101350009848006801F000F8322006F053FB05229F
:1013600002A94FF4D870FFF7F5FA46208DF8000077
:1013700036208DF801009DF808008DF802009DF8D8
:1013800009008DF803009DF80A008DF804009DF80F
:101390000B008DF805009DF80C008DF80600082262
:1013A00069468448006800F0D7FF322006F02AFB27
:1013B000052202A94FF4AC70FFF7CCFA5A208DF841
:1013C000000037208DF801009DF808008DF802001C
:1013D0009DF809008DF803009DF80A008DF80400BF
:1013E0009DF80B008DF805009DF80C008DF80600A7
:1013F000082269466F48006800F0AEFF322006F010
:1014000001FB052202A94FF4DC70FFF7A3FA462086
:101410008DF8000037208DF801009DF808008DF848
:1014200002009DF809008DF803009DF80A008DF870
:1014300004009DF80B008DF805009DF80C008DF858
:101440000600082269465B48006800F085FF3220EC
:1014500006F0D8FA052202A94FF4B070FFF77AFA25
:101460005A208DF8000038208DF801009DF8080002
:101470008DF802009DF809008DF803009DF80A0020
:101480008DF804009DF80B008DF805009DF80C0008
:101490008DF80600082269464648006800F05CFFA7
:1014A000322006F0AFFA082202A94FF4E070FFF7ED
:1014B00051FA46208DF8000038208DF801009DF883
:1014C00008008DF802009DF809008DF803009DF8D2
:1014D0000A008DF804009DF80B008DF805009DF8BA
:1014E0000C008DF80600082269463248006800F0BA
:1014F00033FF322006F086FA052202A94FF4B470B9
:10150000FFF728FA5A208DF8000039208DF80100E5
:101510009DF808008DF802009DF809008DF8030081
:101520009DF80A008DF804009DF80B008DF8050069
:101530009DF80C008DF80600082269461D480068D9
:1015400000F00AFF322006F05DFA052202A94FF4EE
:10155000E470FFF7FFF946208DF8000039208DF880
:1015600001009DF808008DF802009DF809008DF833
:1015700003009DF80A008DF804009DF80B008DF81B
:1015800005009DF80C008DF8060008226946094800
:10159000006800F0E1FE322006F034FA042202A9CD
:1015A0005020FFF7D7F957208DF800004B208DF819
:1015B000010001E0BC0000209DF808008DF8020049
:1015C0002E208DF803009DF80A008DF804009DF888
:1015D0000B008DF805009DF80C008DF806003020FA
:1015E0008DF8070020208DF80700082269466E4814
:1015F000006800F0B1FE322006F004FA062202A9CB
:101600005820FFF7A7F957208DF8000042208DF8E9
:1016100001009DF808008DF802002E208DF80500CD
:101620009DF809008DF803009DF80A008DF804006C
:101630009DF80C008DF806009DF80D008DF8070050
:10164000082269465848006800F086FE322006F0FD
:10165000D9F9062202A96020FFF77CF95A208DF8FB
:10166000000057208DF801009DF808008DF8020059
:101670002E208DF806009DF809008DF803009DF8D6
:101680000A008DF804009DF80B008DF805009DF808
:101690000D008DF80700082269464348006800F0F5
:1016A0005BFE322006F0AEF9062202A96820FFF7A1
:1016B00051F946208DF8000057208DF801009DF863
:1016C00008008DF802002E208DF806009DF8090014
:1016D0008DF803009DF80A008DF804009DF80B00BA
:1016E0008DF805009DF80D008DF807000822694669
:1016F0002D48006800F030FE322006F083F9062203
:1017000002A97020FFF726F95A208DF800004A2020
:101710008DF801009DF808008DF802002E208DF84C
:1017200006009DF809008DF803009DF80A008DF869
:1017300004009DF80B008DF805009DF80D008DF854
:101740000700082269461848006800F005FE3220AC
:1017500006F058F9062202A97820FFF7FBF8462088
:101760008DF800004A208DF801009DF808008DF8E2
:1017700002002E208DF806009DF809008DF8030068
:101780009DF80A008DF804009DF80B008DF8050007
:101790009DF80D008DF80700082269460248006890
:1017A00000F0DAFD1FBD0000BC00002010B50021D4
:1017B000837A012202FA03F13D4A126842F00102E3
:1017C0003B4B1A603A4A1C3212688A43384B1C332E
:1017D0001A60027BCAB9364A0C3212688A43344B0B
:1017E0000C331A604288C38842EA0343304A4032CD
:1017F000847A42F834300288838842EA03432C4AD0
:101800004032847A02EBC4025360027B012A19D170
:10181000274A0C3212680A43254B0C331A6042885F
:10182000038842EA0343224A4032847A42F8343041
:10183000C288838842EA03431D4A4032847A02EB1D
:10184000C4025360C27A3AB9194A121D12688A4317
:10185000174B1B1D1A6006E0154A121D12680A4339
:10186000134B1B1D1A60028932B9114A14321268D7
:101870008A430F4B14331A600289012A06D10C4A9D
:10188000143212680A430A4B14331A60427B012A4D
:1018900006D1074A1C3212680A43054B1C331A60F2
:1018A000034A126822F00102014B1A6010BD0000C9
:1018B0000066004030B5024600200023146824F082
:1018C00002041460146844F00104146000E05B1C1E
:1018D000546804F001041CB94FF6FF74A342F6D11A
:1018E000546804F001040CB900206CE08C79012CE0
:1018F00004D1146844F08004146003E0146824F0F8
:1019000080041460CC79012C04D1146844F04004A4
:10191000146003E0146824F0400414600C7A012C75
:1019200004D1146844F02004146003E0146824F027
:10193000200414604C7A012C04D1146844F0100483
:10194000146003E0146824F0100414608C7A012CF5
:1019500004D1146844F00804146003E0146824F00F
:1019600008041460CC7A012C04D1146844F00404F7
:10197000146003E0146824F0040414608C78A40755
:10198000CD7844EA05640D7944EA05444D7944EA8A
:1019900005540D886D1E2C43D461146824F0010495
:1019A0001460002300E05B1C546804F001041CB1C7
:1019B0004FF6FF74A342F6D1546804F001040CB151
:1019C000002000E0012030BD0246002019B9D36894
:1019D00003F0030006E0012903D1136903F00300BB
:1019E00000E00020704700002DE9F04188B0044677
:1019F0000D4616461F46DDF838800121042002F00E
:101A00006BFD0121480602F057FD4FF48050ADF800
:101A10001C0003208DF81E0018208DF81F0007A958
:101A20002F4801F005FA4FF40060ADF81C00482083
:101A30008DF81F0007A92A4801F0FAF900208DF857
:101A4000160001208DF8170000208DF818000120E5
:101A50008DF8190000208DF81A008DF81B008DF804
:101A600012808DF813408DF814608DF81550ADF884
:101A7000107004A91B48FFF71DFF00208DF80A0015
:101A800001208DF80B008DF80C001748006840F419
:101A90008030C0F34F30ADF80000134800880421B7
:101AA00001EBC00080B2ADF802000F48006840F4BE
:101AB0008030C0F34F30ADF804000B48008801EBD4
:101AC000C00080B2ADF806000020ADF8080001208B
:101AD0008DF80D006846FFF769FE08B0BDE8F0819B
:101AE0000008014000640040BC00002010B500F573
:101AF000D87303EB01131B6803F004031372137A0A
:101B000053B900F5D87303EB01131B6840F2FF745F
:101B100004EA5353136009E000F5D87303EB011393
:101B20001B686FF0604404EAD303536000F5D87378
:101B300003EB01131B6803F00203537200F5D87323
:101B400003EB01135B6803F00F03937200F5D87386
:101B500003EB01135B681B0AD37400F5D87303EB26
:101B600001139B68D37200F5D87303EB01139B68D4
:101B70001C0A147300F5D87303EB01139B681C0C4B
:101B8000547300F5D87303EB01139B681B0E93731A
:101B900000F5D87303EB0113DB68D37300F5D8733A
:101BA00003EB0113DB681C0A147400F5D87303EB14
:101BB0000113DB681C0C547400F5D87303EB01139C
:101BC000DB681B0E937421B9C36843F02003C36024
:101BD00003E0036943F02003036110BD1CB500243A
:101BE00006E0BC49A01C085C0DF80400601CC4B2EF
:101BF000072CF6DBB848007801282AD1B5480078D0
:101C0000532801D1012000E00020B249497854292D
:101C100001D1012100E00021084000280BD0AD488F
:101C200080784F2808D10020AC490870AC48008863
:101C3000401CAB49088045E1A64880784128FAD18C
:101C40000120A6490870A7480088401CA5490880C3
:101C500038E1A14800780228EDD19E4800785A2842
:101C600072D19C484078372859D009DCA0F1300067
:101C700007287ED2DFE800F0232A31383F454C00A8
:101C80004C280ED006DC382850D0392855D04A28A8
:101C90006FD162E051280BD0532857D0572868D114
:101CA00061E0062269464FF48870FEF78BFE61E022
:101CB000052269464FF48C70FEF784FE5AE0052237
:101CC00069464FF49070FEF77DFE53E005226946A9
:101CD0004FF49470FEF776FE4CE0052269464FF40F
:101CE0009870FEF76FFE45E0052269464FF49C7040
:101CF000FEF768FE3EE0052269469001FEF762FEAF
:101D000038E0052269464FF4A470FEF75BFE31E02F
:101D1000052269464FF4A870FEF754FE2AE005221A
:101D200069464FF4AC70FEF74DFE23E0052269468C
:101D30004FF4B070FEF746FE1CE0052269464FF4F2
:101D4000B470FEF73FFE15E015E012E0052269468B
:101D50004FF4E870FEF736FE0CE00622694670206C
:101D6000FEF730FE06E0062269466020FEF72AFEF6
:101D700000E000BF00BF57480078462873D155489F
:101D8000407837285AD009DCA0F1300007287FD2EC
:101D9000DFE800F0232A31383F464D004C280ED0B2
:101DA00006DC382851D0392856D04A2870D163E053
:101DB00051280BD0532858D0572869D162E0062209
:101DC00069464FF4B870FEF7FDFD62E005226946F2
:101DD0004FF4BC70FEF7F6FD5BE0052269464FF458
:101DE000C070FEF7EFFD54E0052269464FF4C47061
:101DF000FEF7E8FD4DE0052269464FF4C870FEF796
:101E0000E1FD46E0052269464FF4CC70FEF7DAFDAD
:101E10003FE0052269464FF4D070FEF7D3FD38E06D
:101E2000052269464FF4D470FEF7CCFD31E005225F
:101E300069464FF4D870FEF7C5FD2AE005226946D1
:101E40004FF4DC70FEF7BEFD23E0052269464FF437
:101E5000E070FEF7B7FD1CE0052269464FF4E47020
:101E6000FEF7B0FD15E015E012E0052269464FF4DB
:101E7000EC70FEF7A7FD0CE0062269467820FEF71D
:101E8000A1FD06E0062269466820FEF79BFD00E002
:101E900000BF00BF0F480078572813D10D48407885
:101EA000422807D04B280BD1042269465020FEF768
:101EB00089FD06E0052269465820FEF783FD00E013
:101EC00000BF00BF034800784C2801D101F05AFF41
:101ED0001CBD000099000020A1000020D1010020BD
:101EE00054000020560000201CB50024002002F001
:101EF00073F800BF0120102103461DA2CDE9001098
:101F00000A21204601F0F1FC04F10800C4B2802C43
:101F1000F0DB01201021034615A2CDE900101E219F
:101F2000002001F0E2FC012012A310221E210090EB
:101F3000104601F06FF90120102103460CA2CDE9F3
:101F400000101E21782001F0D0FC002400BF0120E9
:101F50001021034606A2CDE900103221204601F0EF
:101F6000C4FC04F10800C4B2802CF0DB1CBD0000EE
:101F70002A000000D5FDD4DAC9E8D6C3B2CECAFD26
:101F80000000000010B502460020936803F0806353
:101F9000B3F1806F00D110E0936803F00063B3F1F8
:101FA000006F01D1012008E0936803F08053B3F182
:101FB000805F01D1022000E00420042874D002F5E3
:101FC000C07303EB00131B6803F0010402F5C07338
:101FD00003EB00131C600B7A7BB94B7A0C8843EA45
:101FE000445302F5C07404EB00142468234302F543
:101FF000C07404EB0014236010E00B7A4C6843EAD1
:10200000C4034C7A234302F5C07404EB0014246823
:10201000234302F5C07404EB001423608B7A03F0B1
:102020000F038B7202F5C07303EB00135B6823F0A0
:102030000F0402F5C07303EB00135C6002F5C0737C
:1020400003EB00135B688C7A234302F5C07404EB46
:10205000001463608B7B1C064B7B44EA03440B7BC0
:1020600044EA0323CC7A234302F5C07404EB001442
:10207000A3608B7C1C064B7C44EA03440B7C44EA43
:102080000323CC7B234302F5C07404EB0014E3600C
:1020900002F5C07303EB00131B6843F0010402F563
:1020A000C07303EB00131C6010BD000010B50246A6
:1020B000002321B1012907D002290FD109E090683E
:1020C0001D4C00EA04030BE090681C4C00EA04037A
:1020D00006E090681A4C00EA040301E0002300BF08
:1020E00000BF184C181BA34216D007DC83B16FF059
:1020F0008060184470B1022818D111E0B0F5007F5B
:1021000010D0114C204448B1B0F5003F0ED10BE087
:1021100002230DE000230BE0002309E0002307E089
:10212000012305E0012303E0012301E0002300BFB8
:1021300000BFD8B210BD0000030000040003000877
:1021400000000310000100080001FFF73EB533480E
:10215000006833490988084432490988401A2DD457
:102160002E4800882E49098808442E490988401ABB
:102170002B49088001A8002303220621009028484B
:10218000008801F0B2FE0DF10504062221464FF44D
:102190008870FEF717FC00202249088001A8002360
:1021A0000322062100901F48008801F09EFE0622AF
:1021B00021464FF4B870FEF705FC2EE01748008862
:1021C000C043401C17490988084415490988401A2A
:1021D0001449088001A80023032206210090114819
:1021E000008801F082FE0DF10504062221464FF41D
:1021F000B870FEF7E7FB00200949088001A800231A
:102200000322062100900648008801F06EFE062297
:1022100021464FF48870FEF7D5FB3EBD60000020DC
:1022200072000020740000203EB533480068334936
:102230000988084432490988401A2DD42E4800885C
:102240002E49098808442E490988401A2B490880DC
:1022500001A800230322062100902848008801F0ED
:1022600044FE0DF10504062221464FF48870FEF766
:10227000A9FB00202249088001A80023032206218F
:1022800000901F48008801F030FE062221464FF4DE
:10229000B870FEF797FB2EE017480088C043401C3B
:1022A00017490988084415490988401A14490880C3
:1022B00001A800230322062100901148008801F0A4
:1022C00014FE0DF10504062221464FF4B870FEF706
:1022D00079FB00200949088001A800230322062178
:1022E00000900648008801F000FE062221464FF4C7
:1022F0008870FEF767FB3EBD600000207200002082
:102300007400002030B585B0054600211048FFF765
:102310005BFB10B9002005B030BD6A4600210C48B7
:10232000FFF7E4FB0B490198096841F480318842CA
:102330000BD1002404E00DF10B00005D2855641C56
:10234000082CF8D39DF80A00E5E70020E3E7000039
:1023500000640040BC0000202DE9F04186B0054635
:102360008846164600240195029504208DF80C003D
:1023700000208DF80D008DF80E6000BF06E018F803
:1023800004100DF10F000155601C84B2B442F6DB5D
:1023900001A90A48FFF7F6FD0746002401E0601C8A
:1023A00084B239460548FFF781FE18B940F6FF7040
:1023B0008442F4DB06B0BDE8F08100000064004018
:1023C000704700000C48006820F080000A4908604F
:1023D00011E04FF40051094800F0BEFD40F6B8305E
:1023E00005F010FB4FF40051044800F0B7FD40F633
:1023F000B83005F007FBECE7000401400010014095
:10240000014600200022074B1B6803EA0102054B2E
:1024100014331B680B4013B10AB1012000E0002007
:1024200070470000000401401CB5002001F0D4FDFD
:10243000012025A3102203210090002000F0EAFED5
:10244000012023A3102218210090002000F0E2FEBA
:10245000012021A310222D210090002000F0DAFE9F
:102460000120102103231EA2CDE90010194664208B
:1024700001F03BFA0120082103461AA2CDE9001021
:1024800003216C2001F031FA01201021034616A22D
:10249000CDE900101821702001F027FA0120082151
:1024A000034610A2CDE900101821782001F01DFA92
:1024B0000120102103230DA2CDE900102D21682059
:1024C00001F013FA1CBD0000C1F7C1BF00000000FD
:1024D000C0DBBCC600000000B2EED1B900000000B5
:1024E0006D2F6800330000006D0000004B5061004C
:1024F0001CB5002001F070FDF64890F900001E2880
:102500006ADA01203A237F2205210090002000F0A2
:102510007FFD01203A233F2205210090104600F064
:102520001FFD012020237F2219460090002000F08B
:1025300017FD0120E8A3102200210090104600F0B2
:1025400069FE0120E6A3102200210090462000F041
:1025500061FE0120E4A3102230210090052000F04C
:1025600059FE0120E2A3102230210090462000F005
:1025700051FE012010210346DFA2CDE900100E21FB
:10258000342001F0B2F9012010210223DBA2CDE9B1
:1025900000100021692001F0A8F901201021032377
:1025A000D7A2CDE900103021252001F09EF90120AD
:1025B00008210346D3A2CDE9001030212D2001F0DF
:1025C00094F9012010210223CCA2CDE90010302182
:1025D000692001F08AF93BE201203F237F2200219C
:1025E0000090084600F014FDC74890F90040062C02
:1025F00013DA002C11DB01200821CDE90010204660
:10260000621C54B200EB80004000C01CC1B2082321
:10261000BEA21A2001F069F901E0601C44B2062C48
:102620000FDA002C0DDB01200821CDE9001004EBAE
:1026300084004000C01CC1B20C23B7A2022001F0EC
:1026400054F9062C13DA002C11DB01200821CDE906
:1026500000102046621C54B200EB80004000C01CF9
:10266000C1B20123B0A26E2001F03FF901E0601C6D
:1026700044B2062C0FDA002C0DDB01200821CDE935
:10268000001004EB84004000C01CC1B20B23A7A2C1
:10269000082001F02AF9062C13DA002C11DB0120A6
:1026A0000821CDE900102046621C54B200EB8000E6
:1026B0004000C01CC1B2022390A26E2001F015F9A7
:1026C00001E0601C44B2062C13DA002C11DB01205F
:1026D0000821CDE900102046621C54B200EB8000B6
:1026E0004000C01CC1B2092393A2142001F0FDF8E0
:1026F00001E0601C44B2062C13DA002C11DB01202F
:102700000821CDE900102046621C54B200EB800085
:102710004000C01CC1B20B238AA2082001F0E5F8DA
:1027200001E0601C44B2062C13DA002C11DB0120FE
:102730000821CDE900102046621C54B200EB800055
:102740004000C01CC1B2082381A21A2001F0CDF8BC
:1027500001E0601C44B2062C13DA002C11DB0120CE
:102760000821CDE900102046621C54B200EB800025
:102770004000C01CC1B20B2378A2082001F0B5F8BC
:1027800001E0601C44B2062C13DA002C11DB01209E
:102790000821CDE900102046621C54B200EB8000F5
:1027A0004000C01CC1B20B236FA2082001F09DF8AD
:1027B00001E0601C44B2062C13DA002C11DB01206E
:1027C0000821CDE900102046621C54B200EB8000C5
:1027D0004000C01CC1B2062366A2262001F085F885
:1027E00001E0601C44B2062C13DA002C11DB01203E
:1027F0000821CDE900102046621C54B200EB800095
:102800004000C01CC1B20A235CA20E2001F06DF88A
:1028100001E0601C44B2062C13DA002C11DB01200D
:102820000821CDE900102046621C54B200EB800064
:102830004000C01CC1B2082353A21A2001F055F871
:1028400001E0601C44B2062C13DA002C11DB0120DD
:102850000821CDE900102046621C54B200EB800034
:102860004000C01CC1B208234AA21A2001F03DF862
:1028700001E0601C44B2062C13DA002C11DB0120AD
:102880000821CDE900102046621C54B200EB800004
:102890004000C01CC1B2082341A21A2001F025F853
:1028A00001E0601C44B2062C13DA002C11DB01207D
:1028B0000821CDE900102046621C54B200EB8000D4
:1028C0004000C01CC1B2082338A21A2001F00DF844
:1028D00074E071E06E000020CEC2B6C800000000B7
:1028E000CEC2B2EE00000000C1F7C1BF0000000080
:1028F000B2EED1B9000000004300000050610000BA
:102900006D2F6800330000006D0000205665727363
:10291000696F6E3A0000000054656D7065726174F5
:102920007572653A0000000024000000436F727267
:10293000656374696F6E3A0053616D706C696E67A0
:102940003A000000526573697374616E63653A0002
:102950005B5D416E676C653A000000004545505272
:102960004F4D204269743A00454550524F4D204E1C
:10297000756D3A004572726F723A000045535220ED
:10298000422C452C573A0000455352204C45433ABF
:1029900000000000455352205445433A0000000017
:1029A000455352205245433A000000004D43522007
:1029B000302D373A00000000601C44B2062C13DAB8
:1029C000002C11DB01200821CDE900102046621CFB
:1029D00054B200EB80004000C01CC1B209231DA20C
:1029E000142000F082FF01E0601C44B2062C13DAD0
:1029F000002C11DB01200821CDE900102046621CCB
:102A000054B200EB80004000C01CC1B2072314A2E6
:102A1000202000F06AFF01E0601C44B2062C13DAAB
:102A2000002C11DB01200821CDE900102046621C9A
:102A300054B200EB80004000C01CC1B205230AA2C2
:102A40002C2000F052FF03E0601C44B2601C44B232
:102A50001CBD00005246305220464D503A00000046
:102A6000465F53495A453A00465F49443A000000E0
:102A70001CB5002001F0B0FA01200EA3102211466F
:102A80000090152000F0C6FB0120102104230DA2A8
:102A9000CDE900102621582000F027FF0120082151
:102AA00003460AA2CDE900102921612000F01DFF94
:102AB0001CBD0000CFF2C1F7C1BFC1BFB3CCA3BAE8
:102AC000000000006D202F680000000033000000AF
:102AD0001CB5002001F080FA012012A31022002171
:102AE0000090104600F096FB01201021082311A24F
:102AF000CDE90010042000F0F8FE01201021082389
:102B00000FA2CDE900102021042000F0EEFE0120EC
:102B1000102108230DA2CDE900103021042000F07F
:102B2000E4FE1CBDCFF2D0DED5FDB2CECAFDA3BA05
:102B3000000000003530257E3630253A00000000C8
:102B40003630257E3730253A000000003730257EAC
:102B50003830253A000000002DE9FC5F074640F6BA
:102B6000FF78052098FBF0F64C480068642100FBD4
:102B700001F94B48006800EB80004FEA400A07EB80
:102B8000870047004748007898BB4548006880B3F5
:102B90004248006868B33FB9A8EB060000EBD0716B
:102BA00006EB6104E5174CE007F0004080B14FEA06
:102BB0004A01A8EB060291FBF2F197FBF1F13144D7
:102BC000A8EB060000EBD07201EB6204E51738E0D9
:102BD0004FEA4901A8EB060291FBF2F197FBF1F1F4
:102BE0003144A8EB060000EBD07201EB6204E5175C
:102BF00027E0FFE72B480078012820D1284800680B
:102C0000E8B126480068D0B117B9F517344618E086
:102C100007F0004050B1F843471CA8EB06009AFBB0
:102C2000F0F097FBF0F08419E5170AE0A8EB060036
:102C300099FBF0F097FBF0F08419E51701E0F51728
:102C400034461948B0F9000042F210710844C11727
:102C50002246A2FB00CB05FB00B004FB010042F2C0
:102C600010720023CDE900C060460199FDF7EFFA2C
:102C700004460D4640F6FF710020091BA84102DA08
:102C800040F6FF7404E0611F75F1000000DA0A24C9
:102C9000A0B200F029F8BDE8FC9F000084000020ED
:102CA000880000206C0000208000002008B5012171
:102CB000042001F011FC0121084601F00DFC032065
:102CC000ADF8000010208DF8030003208DF80200FD
:102CD0006946044800F0ACF80321024800F03EF9D0
:102CE00008BD00000008014070B50446002500F052
:102CF0005DF8B02000F034F800F016F8022000F083
:102D00002FF800F011F82107080E00F029F800F064
:102D10000BF8C4F3071000F023F800F005F800F0FA
:102D200067F8284670BD000010B500200A49086009
:102D300001F04CFC00200949C1F88001042004F096
:102D400087FE012004490860042004F081FE002071
:102D50000249C1F8840110BD8401214200002142D2
:102D600070B5044601F032FC00200E4908600025D1
:102D700014E0E0090B49091F08606006040E0420F6
:102D800004F066FE01200849C1F88401042004F023
:102D90005FFE002003490860681CC5B2082DE8DB0F
:102DA00070BD0000840121420000214210B501F0F5
:102DB0000DFC01200C49086004F04AFE01200B497B
:102DC000C1F88401052004F043FE00200649086094
:102DD000052004F03DFE00200449C1F884010520CF
:102DE00004F036FE10BD00008001214200002142A7
:102DF00010B501F0EBFB00200B490860052004F042
:102E000027FE00200949C1F88001052004F020FEBA
:102E1000012005490860052004F01AFE012003493D
:102E2000C1F8800110BD0000840121420000214250
:102E30002DE9F04102460025002600200023002451
:102E4000002791F803C00CF00F0591F803C00CF0B7
:102E5000100CBCF1000F03D091F802C04CEA05053C
:102E600091F800C0BCF1000F31D0146800202BE0B5
:102E70004FF0010C0CFA00F3B1F800C00CEA0306A5
:102E80009E4220D183004FF00F0C0CFA03F7BC4395
:102E900005FA03FC4CEA040491F803C0BCF1280FC6
:102EA00006D14FF0010C0CFA00FCC2F814C00AE085
:102EB00091F803C0BCF1480F05D14FF0010C0CFA9A
:102EC00000FCC2F810C0401C0828D1D31460B1F82F
:102ED00000C0BCF1FF0F34DD546800202EE000F18B
:102EE000080C4FF0010808FA0CF3B1F800C00CEA26
:102EF00003069E4221D183004FF00F0C0CFA03F71A
:102F0000BC4305FA03FC4CEA040491F803C0BCF18D
:102F1000280F05D100F1080C08FA0CF8C2F814804B
:102F200091F803C0BCF1480F07D100F1080C4FF035
:102F3000010808FA0CF8C2F81080401C0828CED30B
:102F40005460BDE8F0810246002093680B400BB14D
:102F5000012000E000207047416170470161704727
:102F60002DE9FF4F85B081468A46002003908346B5
:102F70000798A0EB09050898A0EB0A06CDF8089081
:102F8000CDF804A0002D01DD012705E00DB90027D3
:102F900002E04FF0FF376D42002E02DD4FF00108D6
:102FA00006E016B94FF0000802E04FF0FF38764215
:102FB000B54201DD2C4600E03446002004901EE0BE
:102FC000019AD1B2029AD0B2129A01F009F903988B
:102FD00028440390B3440398A04205DD0398001BE6
:102FE0000390029838440290A34504DDABEB040B38
:102FF0000198404401900498401C80B20490611CE8
:1030000004988842DCDD00F0FBFF09B0BDE8F08FDA
:103010002DE9F84305460E4617469846089C334668
:103020003A46314628460094FFF79AFF43462A461F
:10303000314628460094FFF793FF43463A464146FF
:1030400028460094FFF78CFF43463A4631463846FF
:103050000094FFF785FFBDE8F88300002DE9F04FED
:103060008BB006468A464FF00009002504200A90DE
:103070000024B5E000256EE00A9805F05AFD2746C9
:10308000CDE90601E11704EB5161C911A4EBC110B0
:1030900006F0A4F90190284606F0A0F900900199E5
:1030A00006F000FA8346584906F0D6F8804606F046
:1030B00045F8CDE9020105F0C9F9CDE90401DDE9E2
:1030C000062305F061FDCDE9080105F0D5FC4FFAB6
:1030D00080F909EBC6004FFA80F909F0FF01E8B268
:1030E000524601F07DF80A9805F023FDA346CDE98C
:1030F0000601E11704EB5161C911A4EBC11006F000
:103100006DF90190284606F069F90090019906F0E2
:10311000C9F93D49029006F09FF8039006F00EF8B9
:10312000074604F0FFFBCDE90401DDE9062305F0C5
:103130002BFDCDE9080105F09FFC4FFA80F909EB62
:10314000C6004FFA80F909F0FF01E8B2524601F0DB
:1031500047F8681C05B2802D8EDB00F051FF0A2075
:1031600004F050FC002537E00A9805F0E2FCA34685
:10317000CDE90601E11704EB5161C911A4EBC110BF
:1031800006F02CF90190284606F028F900900199E4
:1031900006F088F91C49029006F05EF8039005F0ED
:1031A000CDFF074605F052F9CDE90401DDE906231C
:1031B00005F0EAFCCDE9080105F05EFC4FFA80F964
:1031C00009EBC6004FFA80F909F0FF01E8B20022CE
:1031D00001F006F8681C05B2802DC5DB601C84B2C6
:1031E000642CFFF647AF09480068022809D2084955
:1031F000096821F001014FF6FF7202EA410004F074
:1032000001FC0BB0BDE8F08F0000A04004020020DC
:10321000BC0000202DE9F04106460F4614461D462D
:10322000DDF8188026E0102C06D143462A463946A0
:10323000304600F023F913E0182C06D143462A4605
:103240003946304600F092F90AE0202C06D1434678
:103250002A463946304600F00BFA01E0BDE8F0811D
:103260003019C6B2C4F18000B04202DA0026381923
:10327000C7B2AD1C28780028D5D100BFEEE700000A
:103280002DE9FF4F81B006460F469946DDF838A07C
:103290004FF00008002400250398203800F0FF08B4
:1032A0007F2E02DD0026B81CC7B2B9F1100F30D155
:1032B00000242BE0BAF1000F05D004EB08106B4995
:1032C00011F800B006E004EB08106849085CC04340
:1032D00000F0FF0B002515E08020284100EA0B00DC
:1032E00038B13A19D1B27219D0B2012200F078FF88
:1032F00006E03A19D1B27219D0B2002200F070FF84
:10330000681CC5B2082DE7DB601CC4B2102CD1DBF1
:10331000A7E0B9F1080F30D100242BE0BAF1000F7B
:1033200005D0534800EBC80010F804B006E0504840
:1033300000EBC800005DC04300F0FF0B002515E066
:103340008020284100EA0B0038B13A19D1B2721935
:10335000D0B2012200F044FF06E03A19D1B272194E
:10336000D0B2002200F03CFF681CC5B2082DE7DB9C
:10337000601CC4B2082CD1DB73E0B9F1180F32D154
:1033800000242DE0BAF1000F06D0182000FB084001
:10339000384911F800B007E0182000FB0840354913
:1033A000085CC04300F0FF0B002515E08020284199
:1033B00000EA0B0038B13A19D1B27219D0B2012229
:1033C00000F00EFF06E03A19D1B27219D0B2002215
:1033D00000F006FF681CC5B2082DE7DB601CC4B214
:1033E000182CCFDB3DE0B9F1200F37D1002432E0BB
:1033F000BAF1000F06D0302000FB08401E4911F83A
:1034000000B007E0302000FB08401B49085CC043C7
:1034100000F0FF0B00251AE08020284100EA0B0095
:1034200060B104EBD47207EB6202D1B272190832B8
:10343000D0B20122009400F0D3FE06E03A19D1B2D6
:103440007219D0B2002200F0CBFE681CC5B2082D64
:10345000E2DB601CC4B2302CCADB02E005B0BDE880
:10346000F08F00F0CDFD00BFF8E700003A9A0008A9
:10347000429700082AA0000812A900082DE9FF4F72
:1034800083B080468946924650200190002562E034
:1034900005EB0510344911F810009AF80010884225
:1034A00057D105EB0510304901EB400040789AF800
:1034B000011088424DD1002448E0069840B105EB48
:1034C0000510294901EB4000801C005D029009E0D5
:1034D00005EB0510244901EB4000801C005DC04352
:1034E000C0B2029000262DE08020304102990840B1
:1034F00098B1274604EBD77209EB6202D1B2A3461A
:1035000004EBDB725210A4EB420208EBC20232441D
:10351000D0B2012200F064FE12E0274604EBD7721D
:1035200009EB6202D1B2A34604EBDB725210A4EBAA
:10353000420208EBC2023244D0B2002200F050FE38
:10354000701CC6B2082ECFDB601CC4B2202CB4DBCA
:1035500004E0681CC5B20198854299DB00BF00F009
:103560004FFD07B0BDE8F08F22A900082DE9FE4FFE
:103570000746884691469B460220029000256DE052
:1035800005EB850000EB4510384911F8100099F85B
:103590000010884260D105EB850000EB45103349EF
:1035A00001EB4000407899F80110884254D1002482
:1035B0004FE0BBF1000F0AD005EB850000EB451092
:1035C0002A4901EB4000801C10F804A00BE005EB39
:1035D000850000EB4510254901EB4000801C005D93
:1035E000C04300F0FF0A00262FE08020304100EAAF
:1035F0000A00A0B1032094FBF0F04044C0B2019057
:10360000032094FBF0F100FB114007EBC0003044B5
:10361000C0B201220090019900F0E2FD13E0032006
:1036200094FBF0F04044C0B20190032094FBF0F111
:1036300000FB114007EBC0003044C0B200220090F4
:10364000019900F0CDFD701CC6B2082ECDDB601CC8
:10365000C4B2482CADDB04E0681CC5B202988542B8
:103660008EDB00BF00F0CCFCBDE8FE8FC2B30008CB
:103670002DE9FF4F83B08046894692460420019091
:10368000002566E005EB8510364911F810009AF820
:10369000001088425BD105EB8510324901EB4000F8
:1036A00040789AF80110884251D100244CE00698E5
:1036B00040B105EB85102B4901EB4000801C005DFB
:1036C000029009E005EB8510264901EB4000801CC3
:1036D000005DC043C0B20290002731E08020384135
:1036E00002990840A8B12646E21704EB927209EB52
:1036F000A202D1B2A346E21704EB92729210A4EB9D
:10370000820208EBC2023A44D0B2012200F068FD06
:1037100014E02646E21704EB927209EBA202D1B242
:10372000A346E21704EB92729210A4EB820208EB1C
:10373000C2023A44D0B2002200F052FD781CC7B257
:10374000082FCBDB601CC4B2802CB0DB04E0681C0B
:10375000C5B20198854295DB00BF00F051FC07B06F
:10376000BDE8F08F56B400082DE9FC5F80468B461B
:1037700091461E460C9C00200190102C05D120463D
:1037800004EBD071C1F347070AE0082C06D12046AC
:1037900004EBD0714910891CCFB201E0BDE8FC9F59
:1037A00000251BE0701B401EC1B20A2004F042FE3F
:1037B000B9FBF0F00A21B0FBF1F201FB120A0D98FF
:1037C0000AF13001CAB2691C07FB01810090C8B23E
:1037D00023465946FFF754FD681CC5B2B542E1DBEC
:1037E00000BFDBE72DE9FF4F83B0074693469A46BB
:1037F000DDE9105800200290102D05D1284605EB78
:10380000D071C1F347060BE0082D06D1284605EB21
:10381000D0714910891CCEB202E007B0BDE8F08F2C
:1038200000245EE0AAEB0400401EC1B20A2004F0AE
:1038300001FEBBFBF0F00A21B0FBF1F201FB120923
:103840000298A8B9AAF10100A04211DDB9F1000F58
:103850000CD1022C0ADA06FB0471C8B22B462022D6
:10386000CDF800800499FFF70BFD38E001200290AD
:10387000042C0CDA09F13001CAB206FB0471C8B29B
:103880002B46CDF800800499FFF7FAFC26E0042CC3
:1038900017D106FB0471C8B22B462E22CDF800804A
:1038A0000499FFF7EDFC09F13001CAB2611C06FB77
:1038B0000171C8B22B46CDF800800499FFF7E0FCF7
:1038C0000CE009F13001CAB2611C06FB0171C8B2FB
:1038D0002B46CDF800800499FFF7D2FC00BF601C96
:1038E000C4B254459EDB00BF97E72DE9F84F06466A
:1038F000884691469A46DDE90A4B0027102C05D1EF
:10390000204604EBD071C1F347051CE0082C06D11A
:10391000204604EBD0714910891CCDB213E0182C5D
:1039200006D1204604EBD0714910891ECDB20AE0C1
:10393000202C06D1204604EBD0714910091FCDB2CE
:1039400001E0BDE8F88F002713E0CDF800B019F8CA
:103950000720234641463046FFF792FC7019C6B255
:10396000782E04DD002608EB040000F0FF08781C28
:10397000C7B25745E9DB00BFE3E700BFFEE7000041
:1039800010B540210F48FFF7E7FA0E48006820F015
:1039900070400C4908600846006840F040500860DC
:1039A000002009490860042004F052F8402105482D
:1039B000FFF7D4FA042004F04BF840210148FFF748
:1039C000CBFA10BD000C01409C81214208B50121B9
:1039D000082000F081FDE020ADF8000010208DF8F7
:1039E000030003208DF8020069460448FFF720FA1F
:1039F000E0210248FFF7B2FA08BD0000000C0140C8
:103A000010B540210F48FFF7A7FA0E48006820F0D4
:103A100070400C4908600846006840F0405008605B
:103A2000012009490860042004F012F840210548EB
:103A3000FFF794FA042004F00BF840210148FFF747
:103A40008BFA10BD000C01409C81214270B50546E7
:103A5000002400F0D1FD002616E040210F48FFF7BA
:103A60007BFA042003F0F4FF40210C48FFF776FABC
:103A70006006040E0A48006808B1601CC4B2042045
:103A800003F0E6FF701CC6B2082EE6DB15B9FFF79F
:103A9000B7FF01E0FFF774FF204670BD000C014046
:103AA0001C81214270B504461448006820F0704023
:103AB000124908600846006840F040500860402104
:103AC0000E48FFF749FA002514E0E0090C490860A8
:103AD0006006040E042003F0BBFF40210748FFF7F7
:103AE0003DFA042003F0B4FF40210448FFF734FA04
:103AF000681CC5B2082DE8DB70BD0000000C014059
:103B00009C81214210B51348006820F07040114993
:103B100008600846006840F04050086001200E49E7
:103B2000086003F095FF40210A48FFF717FA0520C7
:103B300003F08EFF00200949C1F89C01052003F025
:103B400087FF40210348FFF707FA052003F080FFB5
:103B500010BD0000000C01409C81214200802142E8
:103B600010B51248006820F07040104908600846FF
:103B7000006840F04050086040210C48FFF7ECF925
:103B8000052003F065FF002009490860052003F0C7
:103B90005FFF40210548FFF7E1F9052003F058FFDA
:103BA00001200449C1F89C0110BD0000000C014037
:103BB0009C8121420080214210B5002400F01CFDB0
:103BC000012003F045FF40210B48FFF7C7F907E04C
:103BD000601C84B2CD2C03DDFFF7C2FF012010BDB5
:103BE00080210548FFF7AFF90028F1D140210248B4
:103BF000FFF7B2F90020F2E7000C014008B50121FF
:103C0000082000F069FC0720ADF8000028208DF89E
:103C1000030003208DF8020069460248FFF708F907
:103C200008BD0000000C014010B504211848FFF742
:103C30008AF948B102211648FFF785F920B1012120
:103C40001348FFF780F900BB142003F0DBFE0421CA
:103C50000F48FFF778F940B902210D48FFF773F9D3
:103C600008B9042412E0012410E002210848FFF7FB
:103C70006AF908B9022409E001210548FFF763F950
:103C800008B9032402E0052400E00024204610BD0A
:103C9000000C014008B50121582000F01DFC4FF434
:103CA0000050ADF8000004208DF8030003208DF8CB
:103CB000020069460148FFF7BBF808BD001001404B
:103CC00010B52A480068401C284908600822284985
:103CD0002648006800F06EF92649098801F5007150
:103CE00088B208222449FCF76DFE2249098801F5B3
:103CF000027188B208221E49FCF764FE1B48006866
:103D00001E49884230D31B490C88E11704EB11711E
:103D10000911481C04221A4900F04CF91548008882
:103D2000103014490880042215494FF4F870FCF74C
:103D300049FE1049098801F5007188B208220E4930
:103D4000FCF740FE0020094908600822084907489E
:103D5000006800F02FF90749098801F5027188B25F
:103D600008220349FCF72EFE10BD000000020020CF
:103D7000F8010020040200202B00002040420F0028
:103D8000C700002010B5012404E030200B4908557D
:103D9000601CC4B2082CF8DB2E20084908712020D2
:103DA00008700749098801F5007188B208220349A3
:103DB000FCF708FE00200349086010BD2B0000201E
:103DC000040200205800002008B5002000F004F98B
:103DD000012014A31022002100900A20FFF71AFAF4
:103DE000012014A31022114600900A20FFF712FAB6
:103DF000012014A31022202100900A20FFF70AFAC4
:103E0000012014A31022302100900A20FFF702FAAB
:103E1000002008232022042100907120FFF730FAAF
:103E200008BD0000C9E8D6C3D5FDCFF2B2CECAFDA9
:103E300000000000C9E8D6C3B7B4CFF2B2CECAFDC5
:103E400000000000C9E8D6C3D0DED5FDB2CECAFD61
:103E500000000000C9E8D6C3CDA8D1B6B5D8D6B702
:103E60000000000070B500261B48007805282DDBF7
:103E7000002500201949087002F094F930B138206B
:103E800002F0C4F902F010F9054600E00126002412
:103E9000012012490870F6B902F084F9382002F0C6
:103EA000B5F902F001F9044600F0E4FA072003F046
:103EB000A9FD0B4800680444284602F0B1FF2046E3
:103EC00003F09EF8204603F081F804E002480078F1
:103ED000401C0149087070BD090200200B0200203F
:103EE0009400002000BFFEE7704770B5049C0AB143
:103EF0008D1AEAB2012B02D12D25257001E0202573
:103F0000257012E08A4204D11AB12E2565544D1E47
:103F1000E9B20A25B0FBF5F605FB16053035655408
:103F20000A25B0FBF5F04D1EE9B20029EADC70BDB0
:103F300070B5002100230F22C47804B3154C246807
:103F400004F4E064C4F5E064210AC1F10403CA404A
:103F5000447804FA03F184781440214309010E4C9B
:103F60000678A155047804F01F050124AC400578BB
:103F70006D11AD0005F1E025C5F8004109E00478B8
:103F800004F01F050124AC40044D0678761145F875
:103F9000264070BD0CED00E000E400E080E100E0B0
:103FA00002490143024A1160704700000000FA050F
:103FB0000CED00E030B50B46511E0AE00A24B0FBC0
:103FC000F4F504FB150430345C540A24B0FBF4F01F
:103FD000491E0029F2DC30BD10B5044634B1FF2281
:103FE0004FF480610548FCF756F904E04FF4806116
:103FF0000248FCF758F900F003F810BDB4020020A5
:1040000070B500241BE004F1B000002100F028F995
:104010000021022000F024F90021102000F020F9F6
:10402000002508E005EBC411064A505C012100F0B0
:1040300017F9681CC5B2802DF4DB601CC4B2082CD3
:10404000E1DB70BDB402002010B500218D2000F02E
:1040500007F90021102000F003F90021AE2000F044
:10406000FFF810BD10B500218D2000F0F9F80021F7
:10407000142000F0F5F80021AF2000F0F1F810BD99
:1040800010B501F04DFD00F07BF8C82003F0BAFC3C
:1040900000F090F8FFF7D8FF0021AE2000F0E0F824
:1040A0000021022000F0DCF80021102000F0D8F8F8
:1040B0000021402000F0D4F80021812000F0D0F849
:1040C0000021CF2000F0CCF80021A12000F0C8F89A
:1040D0000021C82000F0C4F80021A62000F0C0F89C
:1040E0000021A82000F0BCF800213F2000F0B8F823
:1040F0000021D32000F0B4F80021084600F0B0F809
:104100000021D52000F0ACF80021802000F0A8F8B4
:104110000021D92000F0A4F80021F12000F0A0F83F
:104120000021DA2000F09CF80021122000F098F81D
:104130000021DB2000F094F80021402000F090F8EE
:104140000021202000F08CF80021022000F088F8E7
:1041500000218D2000F084F80021142000F080F868
:104160000021A42000F07CF80021A62000F078F8BF
:104170000021AF2000F074F8FFF774FF10BD0000BD
:1041800008B50121042000F0A7F91C20ADF80000BB
:1041900010208DF8030003208DF8020069460448C2
:1041A000FEF746FE1C210248FEF7D8FE08BD0000BF
:1041B0000008014010B504210848FEF7CFFE642036
:1041C00003F020FC04210548FEF7C6FE642003F03E
:1041D00019FC04210148FEF7C1FE10BD0008014092
:1041E000F0B503461446E4B1CD1701EB5575ED105B
:1041F00003EBC515194E755D0A46CE1701EB5676D1
:10420000F610A1EBC6070126BE40F6B235430846BC
:10421000CE1701EB5676F61003EBC6160F4FBD55C1
:104220001AE0CD1701EB5575ED1003EBC5150B4EDC
:10423000755D0A46CE1701EB5676F610A1EBC60760
:104240000126BE40B5430846CE1701EB5676F61060
:1042500003EBC616014FBD55F0BD0000B4020020AF
:1042600070B504460D4625B108210A48FEF776FED2
:1042700003E008210748FEF76FFE10210548FEF70E
:104280006BFEE1B2044801F0C1FC10210148FEF7C9
:1042900065FE70BD00080140003001401CB50020E3
:1042A000FFF79AFE01201FA3102200210090104664
:1042B000FEF7B0FF01201FA310221146009003203B
:1042C000FEF7A8FF01201DA310222021009003204B
:1042D000FEF7A0FF0120102103231AA2CDE9001050
:1042E0006620FFF702FB01201021042316A2CDE96E
:1042F000001020216020FFF7F8FA01200821034672
:1043000013A2CDE9001023216920FFF7EEFA012066
:10431000102105230FA2CDE9001030210220FFF764
:10432000E4FA1CBDCFF2D0DED5FDB2CECAFDA3BAF1
:1043300000000000C1E3B5E3A3BA0000C7D0B3FD9D
:10434000A3BA00004B5061006D202F6800000000F0
:10435000330000003C3035253A00000010B54FF422
:104360008030FEF74DF8E8B11BE002210E48FEF761
:10437000F5FD08220D494FF4F070FCF723FB4FF4D4
:1043800000510B48FEF7E8FD40F6B83003F03AFB69
:104390004FF400510648FEF7E1FD40F6B83003F057
:1043A00031FBE2E710BD0000000801402B000020B7
:1043B00000100140704700001CB50020FFF70CFE04
:1043C000012011A31022114600900020FEF722FFC9
:1043D000012010A31022202100900020FEF71AFFD8
:1043E00001200FA31022302100900020FEF712FFC1
:1043F0000120102103230CA2CDE900103021202040
:10440000FFF773FA1CBD0000C1E3B5E3C2EBA3BA2A
:1044100000000000B2EED1B9C2EBA3BA0000000068
:10442000B2EED1B90000000050613A001CB5762010
:1044300003F0E8FA02208DF8000006208DF8010054
:1044400000208DF8020008208DF80300A3208DF8CD
:1044500004008DF8050030208DF80600B2208DF89C
:1044600007000821684603F0CDFF122003F0CAFAC6
:104470001CBD00000CB502208DF8000003208DF853
:10448000010000208DF802008DF803008DF8040073
:1044900002208DF80500C4208DF8060038208DF824
:1044A00007000821684603F0ADFF002001490870AD
:1044B0000CBD00002602002029B1064AD269024341
:1044C000044BDA6104E0034AD2698243014BDA61AA
:1044D000704700000010024029B1064A9269024369
:1044E000044B9A6104E0034A92698243014B9A614A
:1044F000704700000010024030B500210022002467
:1045000000232D4D6D6805F00C0121B1042905D063
:10451000082923D105E0294D056022E0274D0560DB
:104520001FE0254D6D6805F47012234D6D6805F48C
:104530008034022505EB92421CB9214D554305609C
:104540000BE01D4D6D6805F400351DB11C4D554344
:10455000056002E0194D5543056002E0174D056006
:1045600000BF00BF144D6D6805F0F0010909154D3D
:104570006B5C0568DD4045600F4D6D6805F4E061DA
:10458000090A104D6B5C4568DD4085600A4D6D6819
:1045900005F46051C90A0B4D6B5C4568DD40C56090
:1045A000054D6D6805F44041890B074D6B5CC5688E
:1045B000B5FBF3F5056130BD0010024000127A0032
:1045C00000093D000C0200201C02002008B501215A
:1045D0000420FFF781FF0120ADF8000010208DF8C6
:1045E000030003208DF8020069460248FEF720FC14
:1045F00008BD00000008014008B501210820FFF7B0
:104600006BFF8020ADF8000004208DF803006946A0
:104610000348FEF70DFC80210148FEF79FFC08BD12
:10462000000C01407CB5F74D0024F7480078F749AD
:10463000087008460078042881F28B81F4480078DD
:104640000978884207D1F1480078032807D1002073
:10465000EE49087003E0ED480078ED490870EB483A
:10466000007803287ED1EB48007800287BD1EA4807
:104670000078002878D0012877D0022802D00328BB
:1046800074D17DE001F0D6F90620E24908700020DF
:10469000E14908705020E14908800522E049DF48DF
:1046A0000088FCF757F9DD4800880830DB490880AE
:1046B0000522DC49D9480088FCF74CF9D748008826
:1046C0000830D64908800522D749D4480088FCF72D
:1046D00041F9D24800880830D04908800822D349DF
:1046E000CE480088FCF736F9012010210523CC4A7A
:1046F000CDE9001000214F20FFF7F7F8012010212D
:104700000523C84ACDE900104F20FFF7EEF801203D
:1047100010210523C44ACDE9001020214F20FFF7C6
:10472000E4F8012010210523C04ACDE90010302112
:104730004F20FFF7DAF8012010210346BB4AD21DB3
:10474000CDE9001030210020FFF7CFF8B748C0793D
:10475000B74908704F20B74908600020B649086083
:10476000AF4804E0FBE3F2E032E090E0EEE0AA497B
:104770000978405CB14908700120B1490870E5E052
:1047800001F044F90720A34908700220A2490870EB
:104790000322A4494FF48470FCF7DCF801201021B7
:1047A0000323A04ACDE9001026212F20FFF79DF812
:1047B0003F20A049086026209F49086099489649F3
:1047C0000978405C9D49087001209D490870BDE052
:1047D000FFF764FD01208F49087000209949087097
:1047E00099490870012099A31022002100900846E1
:1047F000FEF710FD4FF48870884908800020864934
:1048000008700622864985480088FCF7A3F883488B
:104810000088083081490880052282497F48008845
:10482000FCF798F87D48008808307C49088005220C
:104830007D497A480088FCF78DF801201021062375
:10484000774ACDE900102F20FFF74FF80120102103
:104850000523744ACDE9001020212F20FFF745F8E9
:10486000012010210523704ACDE9001030212F20AE
:10487000FFF73BF81020704908602F206D49086051
:10488000674865490978405C6C4908705EE0FFF74D
:1048900005FD01205F49087000206A490870012069
:1048A000694908706AA31022002100900846FEF7AB
:1048B000B1FC4FF4B870594908800020564908707F
:1048C0000622574955480088FCF744F853480088A9
:1048D0000830524908800522524950480088FCF7A8
:1048E00039F84E48008808304C49088005224E4966
:1048F0004A480088FCF72EF8012010210623484A78
:10490000CDE900102F20FEF7F0FF01201021052334
:10491000444ACDE9001020212F20FEF7E6FF0120B8
:1049200010210523404ACDE9001030212F20FEF749
:10493000DCFF1020404908602F203E4908603848BD
:1049400035490978405C3D49087000BF7FE3314834
:104950000078062855D13B480078012850D13648C8
:10496000006828B9354801782D482B4A12788154BF
:1049700031480068102805D1304800782949264A76
:10498000127888542C480068202805D12B480178DB
:104990002548214A1278815427480068302805D1DB
:1049A0002648017821481C4A1278815450201B491E
:1049B000088005221A4919480088FCF703F81748AF
:1049C00000880830154908800622164913480088D7
:1049D000FBF7F8FF114800880830104908800622CC
:1049E00011490E480088FBF7EDFF0C48008808309D
:1049F0000A49088008220D4908480088FBF7E2FFB1
:104A00003BE0A2E0400D0300D0010020D4010020D3
:104A1000D5010020C4010020C6010020D6010020DD
:104A2000D8010020E0010020E8010020F001002072
:104A30006C000020C0010020BC010020C701002044
:104A4000C5010020D3010020D2010020D5FD0000C7
:104A5000B7B400006D1EFFF7E7F8012801D144F05C
:104A60000104FFF7E1F8022801D144F00204FFF746
:104A7000DBF8042801D144F00404002DEAD1072C0E
:104A800053D1FFF799FC3F20FE4908601020FE49F2
:104A900008600120FD4908700020FD4908700820C9
:104AA000FC4908700020FC4908700822FB4990204E
:104AB000FBF750FF0822FA498020FBF74BFF082242
:104AC000F8498820FBF746FF012010210823F34A0C
:104AD000CDE900103F20FEF708FF01201021082338
:104AE000EF4ACDE9001020213F20FEF7FEFE012015
:104AF00010210823EB4ACDE9001030213F20FEF7BA
:104B0000F4FE1020E04908603F20DE490860E448D8
:104B1000DF490978405CE44908700020DE490870EC
:104B2000DE480078E04908708EE2FFF74DF9712009
:104B3000D44908600420D44908600020D349087093
:104B4000D3490870D34908707EE2D248007808281B
:104B500054D1D1480078012841D1CB4800681028B1
:104B600005D1D1480178CD48C94A12788154C64848
:104B70000068202805D1CC480078C949C44A127879
:104B80008854C1480068302805D1C7480078C54915
:104B9000BF4A127888540822C0499020FBF712FFC0
:104BA0000822BF498020FBF70DFF0822BD4988205D
:104BB000FBF708FF9022B9490820FBF73BFFBB49F0
:104BC00008608022B6490820FBF734FFB849086026
:104BD0008822B4490820FBF72DFFB6490860FFF78B
:104BE000F3F87120A74908600420A7490860002055
:104BF000A6490870A6490870A6490870A54800781B
:104C000007283CD1A4480078012829D1A64801787A
:104C1000A2489F4A12788154032201464FF48470BF
:104C2000FBF7D0FE9D4800783038642148439B490B
:104C30004978303901EB810100EB410197488078D8
:104C4000303808449C49086008460068FF2801D9AC
:104C5000FF20086098480068984908449649086011
:104C6000FFF7B2F871208749086004208649086080
:104C70000020864908708649087086490870854872
:104C8000007805282AD184480078012817D1864861
:104C900000788B497E4A127888548A48007820B977
:104CA0004FF4E8708849088003E04FF4EC708649BF
:104CB00008800622824984480088FBF783FEFFF7BC
:104CC00083F871206F49086004206F490860002054
:104CD0006E4908706E4908706E4908706D4800781A
:104CE000012800D100E000206A490978022901D199
:104CF000012100E00021084366490978032901D118
:104D0000012100E00021084362490978042901D10A
:104D1000012100E00021084300287CD05E48007893
:104D2000012879D158480068102805D15E480078DC
:104D30006349574A1278885453480068202805D19F
:104D4000594800785549524A127888544E480068AC
:104D5000302805D15448007851494D4A127888547A
:104D60004C48007801280BD15648007820B94FF400
:104D700088705549088003E04FF4B87052490880A4
:104D80004448007802280BD14E48007820B94FF4EF
:104D900094704D49088003E04FF4C4704A4908807C
:104DA0003C48007803280BD14648007820B94FF4DE
:104DB000A0704549088003E04FF4D0704249088054
:104DC0003448007804280BD13E48007820B94FF4CD
:104DD000AC703D49088003E04FF4DC703A4908802C
:104DE0002C480078012806D106223549364800882B
:104DF000FBF7E8FD05E00522314933480088FBF761
:104E0000E1FD3148008808302F49088005222349F8
:104E10002D48008801E017E10CE0FBF7D3FD2A489C
:104E2000008808302849088005221D492648008846
:104E3000FBF7C8FD17480078401C16490870002091
:104E40001349087013480078052868D1FDF710FE53
:104E50001C48007820B94FF4E8701B49088003E033
:104E60004FF4EC70184908801648007848B90120C2
:104E7000AFF228431022114600900520FEF7CAF930
:104E80002DE023E0C0010020BC010020C50100206E
:104E9000C6010020C4010020D3010020E001002051
:104EA000E8010020F0010020C7010020940000204C
:104EB0008C00002090000020BC0000200004941111
:104EC000D8010020D2010020D60100200120AFF23D
:104ED00080431022114600900520FEF79BF9062220
:104EE000FD49FE480088FBF735FD0120102106230F
:104EF000F94ACDE9001026211820FEF7F6FC2620FD
:104F0000F74908601820F7490860F348F64909781E
:104F1000405CF64908700020F549087094E0F548B7
:104F2000007802280DD101F051FAF348007820B939
:104F30004FF49470E949088003E04FF4C470E749E6
:104F40000880EC48007803280ED100F02BFFEA48D7
:104F5000007828B94FF4A070E049088004E076E0BA
:104F60004FF4D070DD490880E248007804280DD164
:104F7000FDF7AEFDE048007820B94FF4AC70D7499A
:104F8000088003E04FF4DC70D4490880DA480078E8
:104F900048B90120AFF24C5310220021009008467E
:104FA000FEF738F908E00120AFF25C53102200212F
:104FB00000900846FEF72EF90522C749C748008829
:104FC000FBF7C8FCC54800880830C44908800522A2
:104FD000CA49C2480088FBF7BDFCC04800880830B9
:104FE000BE4908800522C649BC480088FBF7B2FCD0
:104FF000012010210523B84ACDE900105020FEF70A
:1050000074FC012010210523BC4ACDE900102021A9
:105010005020FEF76AFC012010210523B84ACDE993
:10502000001030215020FEF760FC1020AC490860D1
:105030005020AC490860A848AB490978405CAB49AE
:1050400008700020AA4908700020A9490870AD48DE
:10505000007802287ED1A748007840BB012000904C
:105060009F480178082320227120FEF709F99C4807
:10507000006810309A4908609B480078401C9A49A3
:1050800008700020A049087095480068402805DD98
:105090000420934908600020934908700020009084
:1050A0008F480178082320227120FEF7E9F8914803
:1050B0000078012800D100E000208E4909780229FB
:1050C00001D1012100E0002108438A490978032920
:1050D00001D1012100E00021084386490978042913
:1050E00001D1012100E00021084300287ED00120E9
:1050F0007B4A009011787B4A107810237B4A127803
:10510000FEF7BEF876480068102805D17748017888
:105110007148754A1278815471480068202805D179
:10512000724800787549704A127888546C48006853
:10513000302805D16D48017871486B4A1278815446
:105140006848006808306749086067480078401C74
:10515000654900E040E3087001206B49087065482C
:10516000007801287ED15E48006830280ED15D4865
:105170000068372818D15B48006808305949086032
:1051800059480078401C584908700DE0554800689F
:105190003F2809D1534800680830524908605248F6
:1051A0000078401C504908704E4800685F2815DBA5
:1051B0004B480068102811D12F204A490860484800
:1051C000006810304649086000204749087044488C
:1051D0000068402802DB102041490860414800680F
:1051E000572817DB3E480068102800E0BEE011D0C9
:1051F0002F203C4908603A48006810303849086060
:1052000000203949087036480068402802DB102029
:105210003349086032480068102805D12E483249C9
:105220000978405C314908702D480068202805D174
:1052300032482D490978405C2C490870284800689C
:10524000302805D12E4828490978405C2749087044
:105250000120234A00901178224A10781023234A13
:10526000127800E001E0FEF70BF8224800780228EF
:1052700001D1012000E000201E490978032901D155
:10528000012100E0002108431A490978042901D1CD
:10529000012100E000210843C0B3124800685828EB
:1052A00009D11048006808300E4908600E4800789F
:1052B000401C0D4908700B48006878282DDB5020F1
:1052C0000849086006480068103005490860002059
:1052D0000549087002481AE0D8010020D6010020D4
:1052E000BC010020C0010020C6010020C701002031
:1052F000D3010020C4010020D2010020E0010020E1
:10530000E8010020D4010020C501002005E000686C
:10531000402802DB1020FE490860FD480068102884
:1053200005D1FC48FC490978405CFC490870F84804
:105330000068202805D1FA48F7490978405CF74908
:105340000870F3480068302805D1F648F24909781A
:10535000405CF24908700120ED4A00901178F24A51
:1053600010781023ED4A1278FDF78AFFEF48007895
:1053700005284AD10120E64A00901178EA4A1078BF
:105380001023E64A1278FDF77BFFE4480178E148F4
:10539000E14A12788154E44800680830E249086024
:1053A000DD480078401CDC4908700120E0490870A5
:1053B000DD480068382809D1DB4800680830DA4940
:1053C0000860D5480078401CD3490870D148D249BC
:1053D0000978405CD1490870D348006840280ADD4C
:1053E0001820D14908600020CB490870C9480978C5
:1053F000405CCA4908700120CB490090087810230E
:10540000C6490A782621FDF73BFFC84800780628E0
:105410007ED10120BE4A00901178C34A1078102333
:10542000BE4A1278FDF72CFFB948006828B9BB487E
:105430000178B848B84A12788154B54800681028F5
:1054400005D1B6480078B649B34A12788854B048B6
:105450000068202805D1B1480178B248AE4A1278D8
:105460008154AB480068302805D1AC480178B14878
:10547000A94A12788154AC4800680830AA490860EB
:10548000A5480078401CA44908700120A84908706C
:105490009F480068E0B9A0480078632809D1A24875
:1054A00000680830A04908609B480078401C9A4971
:1054B00008709948007805280ADB4F209A4908604F
:1054C00093480068103092490860002092490870A3
:1054D0008F48006810281ED18F480078032809D112
:1054E000914800680830904908608B480078401C5B
:1054F000894908708848007805280CDB4F208A49C4
:10550000086083480068103081490860002000E08E
:1055100086E0814908707E48006820281CD17E48BA
:105520000078032809D18048006808307E49086067
:1055300079480078401C7849087077480078052839
:105540000ADB002078490860714800681030704913
:1055500008600720704908706D480068302826D11F
:1055600071480068082805D14F206F490860002065
:105570006949087068480078032809D16A480068BA
:1055800008306949086064480078401C6249087026
:105590006148007805280AD14F20634908605C48BB
:1055A000006810305A49086000205B49087058486C
:1055B0000068402802DB0020554908605448006814
:1055C00028B9544854490978405C544908705048F7
:1055D0000068102805D152484F490978405C4F496E
:1055E00008704B480068202805D14E484A49097880
:1055F000405C4A49087046480068302805D14D484B
:1056000045490978405C454908700120404A0090AE
:105610001178454A10781023404A1278FDF730FE81
:1056200042480078072837D10120394A0090117884
:105630003D4A10781023394A1278FDF721FE374889
:1056400001783748344A1278815437480068083066
:105650003549086030480078401C2F490870012007
:10566000334908702C480078032805D12F202E4993
:105670000860002028490870294827490978405CBB
:1056800026490870012028490090087810232349F2
:105690000A782621FDF7F4FD2448007808287DD1FA
:1056A00001201B4A009011781F4A107810231B4AD2
:1056B0001278FDF7E5FD16480068102805D1174857
:1056C00001781748144A127881541148006820283C
:1056D00005D11248007813490F4A127888540C48B3
:1056E0000068302805D10D48017812480A4A12781E
:1056F00081540D48006808300B490860064800785E
:10570000401C05490870012009490870024813E04F
:10571000BC010020D8010020C6010020C7010020E4
:10572000E0010020E8010020C0010020C4010020A9
:10573000C5010020F0010020007808280ADB3F2086
:105740009749086097480068103096490860002023
:105750009549087093480068402801DB012000E06B
:10576000002091490978082901DB012100E000218E
:10577000084310B110208B4908608A48006810283F
:1057800005D18A4888490978405C8949087085486C
:105790000068202807D18748834900E018E009788D
:1057A000405C834908707F480068302805D18248F2
:1057B0007D490978405C7E4908700120794A009053
:1057C0001178774A10781023794A1278FDF758FD3E
:1057D0004FF4967002F016F97848007801282BD122
:1057E0007748007848BB012000906E480178082374
:1057F00020227120FDF744FD6A4800681030694995
:10580000086069480078401C6749087000206D49AD
:10581000087064480068402805DD0420614908607C
:10582000002061490870002000905E48017808233C
:1058300020227120FDF724FD8BE0012062490870D1
:105840005848006808B9012000E00020554909685F
:10585000102901D1012100E00021084351490968C4
:10586000202901D1012100E0002108434D490968A8
:10587000302901D1012100E0002108435049097875
:10588000062901D1012100E000210840464909789C
:1058900009B9012100E00021434A1278072A01D109
:1058A000012200E0002211430840454909780829F7
:1058B00001D1012100E000213A4A1268102A01D1E9
:1058C000012200E000221140374A12780AB9012271
:1058D00000E000221140084318B33348007850B963
:1058E00033480078202803D12D203149087002E088
:1058F00020202F4908702C48007807281CD12C48FC
:105900000078302806D131202949087001202F491C
:10591000087011E030202649087000202B490870DB
:105920000AE023480078401C2149087008460078A6
:105930003A2801DB30200870012022490870194AFA
:1059400000901178164A10781023194A1278FDF742
:1059500097FC1C480078012803D1002019490870E1
:1059600002E00120174908701548007850B9154821
:10597000007800900B480178082320227120FDF761
:105980007FFC0BE00F480078064A00901178044A2B
:1059900010781023064A1278FDF772FC7CBD0000D7
:1059A000C0010020BC010020C6010020E001002051
:1059B000C7010020E8010020F0010020D4010020F0
:1059C000C4010020C5010020D30100206C0000208C
:1059D00010B5002008490870FEF7F6F97120074954
:1059E000086004200649086001200649087000206C
:1059F0000549087010BD0000C4010020C00100204E
:105A0000BC010020C5010020C601002008B500200F
:105A1000FEF7E2FA012004A310220F2100901520C6
:105A2000FDF7F8FB08BD0000CDA8D1B6B5D8D6B7B4
:105A3000A3BA00001CB50020FEF7CEFA01202CA36B
:105A40001022002100900846FDF7E4FB01202BA363
:105A50001022114600900020FDF7DCFB012025A359
:105A60001022202100900846FDF7D4FB012026A338
:105A70001022302100901520FDF7CCFB012023A33C
:105A80001022302100902620FDF7C4FB01201AA32C
:105A90001022302100904020FDF7BCFB0120102196
:105AA00003461BA2CDE9001030213820FDF71DFF71
:105AB00001200821034617A2CDE90010302108205B
:105AC000FDF713FF01201021032313A2CDE90010DD
:105AD00020210020FDF709FF0120102103460FA21D
